:020000041000EA
:1000000000B5324B212058609868022188439860DF
:10001000D860186158612E4B002199600221596106
:100020000121F02299502B49196001219960352056
:1000300000F044F80222904214D00621196600F024
:1000400034F8196E01211966002018661A6600F04E
:100050002CF8196E196E196E052000F02FF8012189
:100060000842F9D1002199601B49196000215960AB
:100070001A491B48016001219960EB211966A021F2
:10008000196600F012F800219960164914480160C1
:100090000121996001BC002800D000471248134993
:1000A000086003C880F30888084703B5996A0420EC
:1000B0000142FBD001200142F8D103BD02B5186610
:1000C0001866FFF7F2FF186E186E02BD00000240BE
:1000D000000000180000070000035F00212200005C
:1000E000F4000018222000A00001001008ED00E03C
:1000F00000000000000000000000000074B24E7A12
:1001000000200420F7010010CB010010CD010010E9
:10011000C9010010C9010010C9010010C901001077
:10012000C9010010C9010010C9010010CF01001061
:10013000C9010010C9010010D1010010D301001045
:10014000C1010010C1010010C1010010C101001067
:10015000C1010010C1010010C1010010C101001057
:10016000C1010010C1010010C1010010C101001047
:10017000C1010010C1010010C1010010C101001037
:10018000C1010010C1010010C1010010C101001027
:10019000C1010010C1010010C1010010C101001017
:1001A000C1010010C1010010C1010010C101001007
:1001B000C1010010C1010010C1010010C1010010F7
:1001C000EFF30580103800BE00BE00BE00BE00BECA
:1001D00000BE00BEF2EB8871DC290010F829001087
:1001E0003802001090A31AE71E481F49086006C88D
:1001F00081F3088810471D480068002801D019487D
:10020000F3E70DA40ECC002902D000F012F8F9E7B4
:100210001749184A002000E001C19142FCD116495B
:100220008847164988471649884700BEFDE701C937
:1002300001C29A42FBD37047F8290010C000002089
:10024000E8010020202B0010000004200000042002
:10025000202B0010001004200010042000000000DB
:10026000704700000000000008ED00E0000000D032
:10027000E8010020DC050020DD1D0010D502001083
:10028000D51D0010F8B5C04606480749091A8B105D
:10029000C90FC91810B5491003D0044B002B00D06A
:1002A000984710BDE8010020E80100200000000090
:1002B000054B10B5002B03D00449054800E000BFF2
:1002C000FFF7E2FF10BDC04600000000A8050020B7
:1002D00010270010F0B5DE4657464E464546E0B5BD
:1002E000934C9448A54430AB9B4670AA5946C0AB8A
:1002F00001F0FCF80490002803D18F488D4900F0EC
:1003000047F9C09A7099309801F014F801F05AFE3C
:10031000642000F0BDFCE121884C4902200000F07F
:100320001BFEC022236B12021340854A200013607B
:1003300008210023012200F09FFE2000012100F08F
:10034000D7FE0221052000F009F97E497E4801F020
:10035000A3FE80235B02C09303000933C2011B0389
:1003600013437A4A05001340C193794B0520C39388
:10037000784BC29300F0D8FF01F086FC764901F07B
:1003800068FCEC21890501F061FC061C01F0A4FC6D
:10039000002384B29C4200D0BAE006210126240446
:1003A0001B0223430800684CC09300F0D7F80621D5
:1003B000072000F0D3F80621082000F0CFF803232F
:1003C000062200212000009601F0E2FE2A00002112
:1003D0002000C0AB01F036FF236809A81E43266049
:1003E00001F07EFF8022C0A952010BA802F0F0F8B4
:1003F000002399461E009A4608AB984610254F4C9C
:100400000AAFA3691D422ED1A3691D42FCD1236806
:100410005246DBB2002B46D1002A1FD002AAD3825B
:100420004246138002AA5383537580230A9310AB6C
:10043000944602931523634401931A2316226344BE
:1004400000935146434658460397624401F0F8FF33
:10045000002803D043461988A02930D900239A46A2
:10046000A3691D42D0D0384B5B68DB03C9D44B462F
:10047000002B06D0B3B2344A1B0413615368DB036C
:100480001AD439000BA802F0C3F8002801D00023C9
:10049000FE5E2D4932040A614A68B3B2D203EAD53E
:1004A000049B9946ADE7FF2AD8D851465A46535483
:1004B00001239C46E244A4E700239946A1E702AB4E
:1004C0005B8B02AA9383537D10A8937709AB70AA24
:1004D00001F00AFF43461B88002BBFD070AB9A4641
:1004E00000234A469946330056469A460592002311
:1004F000F15E0BA802F074F801239C4643461B886A
:10050000E14402364B45F2D8059B56469946A5E78D
:10051000200001F0B9FB011C301C01F094FB872185
:10052000C90501F0AAFB01F0D7FBC3B235E7C0460D
:10053000FCDCFFFF90D00300102700100080034078
:1005400030900340C427001000002050FFFFFF9FA1
:10055000061C10400000064000007A49094A83004A
:100560009A1810B514684022544080322240064C3C
:10057000C000A44663441A60044B9C46604441603A
:1005800010BDC04604C0014004D0014000400140FD
:100590000FB400B5084883B001F060FD049B002B48
:1005A00007D005A91800019101F0FAFB034801F0FA
:1005B00055FD012001F00CFC4427001054270010C9
:1005C000EFF3108072B6034A1368002BFCD0BFF320
:1005D0005F8F70472C0100D0BFF35F8F0022024B6A
:1005E0001A6080F3108870472C0100D070B5EFF3CB
:1005F000108C72B60D4D2B68002BFCD0BFF35F8FB3
:100600000724CB08C618C05C01230C40A3401C0083
:100610000440034207D118433070BFF35F8F2C6052
:100620008CF3108870BD1000FFF7B2FF2C0100D0D2
:10063000044A1078431CDBB2172B00D91023137027
:100640007047C046980100200021044B044ABFF3C4
:100650005F8F02C39342FAD17047C046000100D0B9
:10066000800100D0054B064A1360064A13605360B0
:100670009360D36013615361936170478080808081
:1006800000E400E004E400E01F2318401E3B834028
:10069000002905D0C021044A490053501360704717
:1006A000802201498B50FAE700E100E070B50D00AF
:1006B000EFF3108672B60F4A1368002BFCD0BFF31D
:1006C0005F8F0D4B10309B6884001B590B4A93427F
:1006D00003D09D4201D001F0E1F8074B9B681D510A
:1006E000BFF35F8FBFF35F8F0022024B1A6086F368
:1006F000108870BD240100D000ED00E0C1010010A1
:10070000024B9C4661448900016070474000003400
:1007100070B5114C114DAC420FD2FF262368002B4F
:100720000CD0FFF785FF01002000FFF7E9FFA6804E
:10073000BFF35F8F0834AC42F0D370BDFFF778FF92
:1007400001002000FFF7DCFF2671BFF35F8F083444
:10075000AC42E3D3F1E7C046E0010020E80100200D
:100760000A4B1968EFF3108072B60A68002AFCD0B1
:10077000BFF35F8F1B68BFF35F8F00221A6080F3A7
:10078000108840BF002000217047C046D4050020DB
:10079000F0B5DE4657464E464546E0B587B0EFF326
:1007A0000583032201251A40954091008846A946F9
:1007B000B34B03925C58B34B1D60B34B04934B4651
:1007C000B24843630823E55E002D37DAA3881BB2E5
:1007D000002B00DBADE0A379002B00D0EEE0082376
:1007E000E05E002820DB430062691B18DB00D318A1
:1007F0009E68DD68731C00D111E1A44801004144EA
:10080000826A0B69B71A9B1A9F4215D30123026AA9
:10081000039883401A420FD09C4800F047FB8D425A
:1008200002DCCCD18642CAD940BF07B0F0BCBB467F
:10083000B246A946A046F0BD0E61EDE762696B00C5
:1008400092465B19DB009A4453469E68DF6800F0CD
:100850002DFB8F42BADC00D103E1002F00DAE8E083
:100860005246534652691B699346049A934200D1FB
:10087000D9E052460821605E528800045946104370
:100880009847009001910099019A0B0010001343C2
:1008900000D1CEE013000A00B61A9F41002806DB03
:1008A0007A4800F003FB009E019F36184F415346E3
:1008B0009E60DF6000229A5E002A00DA86E753001D
:1008C00099186069C900411802938B68C9689B46F2
:1008D000B94200DD7AE702D1B34200D976E70823B6
:1008E0009C46A444059565462281A446029B2C00A3
:1008F00006E053009918C90041188D68C968AB46D5
:100900009B18DB00C318B94206DC00D1B3E01C0021
:100910000023E25E002AECDA230064469C4653463C
:100920001A806346059D1D80A3881BB2002B00DA48
:1009300051E72269EFF3108172B61368002BFCD0E7
:10094000BFF35F8F0123A7885B42A3803FB2236977
:10095000BFF35F8F00221A6081F31088002F00DA46
:1009600039E72300083322009A4666697B00DB19C9
:10097000DB00F318996850468C460824115FDD6847
:10098000002910DB029306E0AB4244D00023E15E75
:100990002000002906DB4C006418E4003419E368E9
:1009A000AB42F1DD029B078000201F5E1980002F03
:1009B000DCDA1400A379002B00D110E70023A37127
:1009C00026000823E15E08364B1C00D12CE7080006
:1009D000A246656902E03E004B1C1AD04B005B1832
:1009E000DB00EF180A008C46E95E7B881BB2002B07
:1009F000F1DA01235B42DC17BB60FC60824205D068
:100A0000534631801B893B8053461A8160464B1CFC
:100A1000E4D15446E5E6A3686345B7D9C2E76B1C49
:100A200000D0EAE6F8E65B4658461B69984700287E
:100A30001BD153461B8822692381EFF3108372B6C2
:100A400011680029FCD0BFF35F8F514662880A808D
:100A500022696580BFF35F8F0021116083F31088E6
:100A6000B4E6864200D8F8E6B0E65B461A685B68F2
:100A70000092019307E7B34500D848E74CE7C0462A
:100A8000C00500203C700540910700100040054063
:100A900070B52E4C2569002D04D00A212C48FFF793
:100AA0002FFE70BD2B4E0321300000F0F5F9E660FB
:100AB000FFF7BEFD284B03229C46D02322701B0665
:100AC0001B6801216370254B6044A3600F238000E5
:100AD00020610220638063694942A180198002314C
:100AE000198647311D83585218315A5275325C3974
:100AF00099521832013199521832013199521832F3
:100B000001319952083518329D52023118329952EA
:100B1000183201319952183201319952183201318B
:100B200099521832013199521832013199520C4BB5
:100B30000C49DC6001303562FFF7B8FD012103206C
:100B4000FFF7A2FD084B1D60A7E7C0469C010020EF
:100B5000D40500200040054040000034FFFF100095
:100B6000C0050020910700103860054070B50100F5
:100B70000469EFF3108C72B620680028FCD0BFF334
:100B80005F8F02200D5E4C6968004019C000241878
:100B90000869002D36DB26884E80BFF35F8F002664
:100BA00006608CF31088E360638804980133206149
:100BB0005B0405985B0CA26060611A1C002B1FD0BF
:100BC00093B22804628018430A69EFF3108C72B65E
:100BD0001368002BFCD0BFF35F8F8B8823808D8040
:100BE0000B69BFF35F8F00221A608CF310880B78BB
:100BF00001329A40CB6808498C4663441A6070BD44
:100C00000122DDE7BFF35F8F002303608CF31088C0
:100C100001204042F3E7C0463C20000010B5438964
:100C20000A1493421ADD53009B184269DB00D31863
:100C30000469EFF3108C72B62268002AFCD0BFF36F
:100C40005F8F5A88090494B2090C8A4208D003695C
:100C5000BFF35F8F00221A608CF31088002010BD54
:100C60008022120214435C80012302698371BFF366
:100C70005F8F002111608CF31088044902788C4644
:100C80009340C268012062441360E8E73C20000002
:100C9000F0B5C64600B582B0040000F00FF9FA22A4
:100CA00006000F00200000230021920000F0AEFF9C
:100CB0008019794104000D1E02DA01242E4D644290
:100CC00006267642F71736196F41AF4214D811D075
:100CD00000F0F4F832003B00121A8B41002B15DCB7
:100CE000002B46D02000290000F026F902B080BC7D
:100CF000B846F0BDA642EBD90026002700F0DEF88A
:100D000032003B00121A8B41002BE9DD00F0D6F8CF
:100D100032003B00121A8B41002B0ADB00230193A7
:100D2000164B3200009316483B00FFF71FFF0130BF
:100D3000D8D000233900B0469C46124A1248536A64
:100D4000994204D8966A4645CCD29942CAD10668DF
:100D5000EFF3108772B63368002BFCD0BFF35F8FC0
:100D60000368BFF35F8F66461E6087F3108820BF5D
:100D7000E5E7002AB6D0C9E7FFFFFF7F6107001053
:100D80009C01002000400540D4050020F0B55746E6
:100D90004E46DE464546E0B506000F0085B0EFF34F
:100DA000058399468B46002B12D0384900204B6AA8
:100DB000BB4206D38A6ADB1B591E8B41B2424041BB
:100DC000184305B0F0BCBB46B246A946A046F0BDEC
:100DD0002F4B9A46DB68984653461B784046039350
:100DE00000F064F84246039B040004339B009B58C8
:100DF0000D001B1A39003000001BA941894510DC89
:100E00000DD020BF214A0020536A5B45D9D3926A96
:100E1000DB1B591E8B41B24240411843D1E783424C
:100E2000EFD900F04BF832003B00121A8B41002B37
:100E30001ADB00230193174B3200009350463B000E
:100E4000FFF794FE011E0FDD104B5A6A5A451BD363
:100E50009B6AB34216D35046FFF7E0FE0B4A0020D0
:100E6000536A5B45ADD3D2E7084A0020536A5B451D
:100E7000A7D30020926ADB1BB24240415A1E934125
:100E800018439EE75A45E6D120BFE4E700400540FD
:100E90009C0100206107001010B5024A0248FFF7CC
:100EA000A5FB10BD58270010700500200300416A03
:100EB0000A00986A596A8A42FAD17047034B596A04
:100EC0000A00986A596A9142FAD170470040054079
:100ED00070B504000D00174A536A1900966A536AE8
:100EE0008B42FAD13000190024184D41AB4216D87C
:100EF00013D0104B2A005B6A9D4203D90D494B6AFF
:100F00009342FCD3934207D10A4A02E0516A9942C4
:100F100002D1916AA142F9D370BDA642E9D9054B2D
:100F20005B6A1C005A1CEFD0012201246442E517C1
:100F30005242E3E700400540064A536A9942FCD812
:100F400007D1044B02E05A6A914202D19A6A904258
:100F5000F9D8704700400540F8B5040006200D00A0
:100F600000F0E2F9002844D0374B3849E3185A1E04
:100F700093418022120494465B429B0D344A9B05A8
:100F800063441360334A136018000A689043FBD12E
:100F90002D4B314AE31859424B4180215B004900F7
:100FA0000620995200F0C0F92900C00000F0A0FD11
:100FB0000130C3091ED1402701226262A362266B61
:100FC000F30722D4E36A254B0620E51800232B60A3
:100FD000266300F0A9F93900800000F089FD702334
:100FE000E26A5A400E3313402B601D4B23630323E8
:100FF000A364F8BD1B4A93421ED900231A4A1B4F13
:101000006262A362266BF307DCD5194B144AE3181E
:101010001A60656AA36A0620AD01ED1800F084F934
:10102000144900F065FDAD020100280000F060FDEC
:101030000021FFF74DFFC5E74006800E9F011A0013
:101040003F180300B9E7C0460080FCBF08C000405D
:1010500000E0004000F00040D80500202C10000007
:1010600001030000FEFF0000FFFF0000C0FF3F0083
:10107000303000004E0E00000539013AF8B5D200BC
:101080004C0105001443002B06D0013B5A4253414A
:101090009B00234302241C432E6BF30708D46E23CA
:1010A000EA6A624013400E4AAA1813602E63F8BD24
:1010B0000C4B0D4AEB181A606F6AAB6A0620BF0131
:1010C000FF1800F031F9094900F012FDBF020100DC
:1010D000380000F00DFD0021FFF7FAFEDFE7C04603
:1010E0002C10000030300000010300004E0E000004
:1010F000F8B5066B04000D01F30708D4E36A5D4000
:1011000010231D400D4BE3181D602663F8BD0C4BEA
:101110000C4AC3181A60476A836ABF010620FF1889
:1011200000F002F9084900F0E3FCBF0201003800BA
:1011300000F0DEFC0021FFF7CBFEDFE72C10000003
:1011400030300000010300004E0E0000F8B5DE460E
:101150004E4657464546E0B58B4605000A991800AD
:10116000160000F0C5FC0A9B6C001F02324B64198C
:101170009C46A4006444636881469F4200D967602E
:101180002B1FDBB29846012B30D9C02380229B0154
:10119000E31812011A60294BAD0059599A460029EB
:1011A0001BD17301E026226853401E408023424633
:1011B0005B01E3181E60012A30D9802380229B0145
:1011C000E31812011A6053464A4667605A51F0BC50
:1011D000BB46B246A946A046F8BD586900F088FC57
:1011E000013043001B18033BFDD2DAE75B46012BBD
:1011F000CBD1C02303229B01E3181A60023AA368F3
:101200001A42FCD07301E0262268AD0053401E4014
:1012100080230A4A5B019246E3181E605A46216801
:10122000514003220A401A6001225B469A40A3689B
:101230001A42FCD0C1E7C04600800040740500207F
:10124000F0B546464F46D646C0B51F00344B440065
:101250009C462418A4006444636888461600FF2B4B
:1012600002D880235B006360031FDBB29A46012B28
:1012700030D9C02380229B01E31812011A60294B48
:1012800085005959994600291BD17301E02622682F
:1012900053401E40802352465B01E3181E60012A22
:1012A00030D9802380229B01E31812011A60802329
:1012B0005B0063604B465F51E0BCBA46B146A8464E
:1012C000F0BD586900F014FC013043001B18033BCB
:1012D000FDD2DAE74346012BCBD1C02303229B0189
:1012E000E3181A60023AA3681A42FCD07301E026A0
:1012F0002268850053401E4080230A4A5B019146C4
:10130000E3181E6042462168514003220A401A60D9
:10131000012342469340A2681342FCD0C1E7C04675
:101320000080004074050020014B8000C0587047C9
:1013300074050020F0B54746CE4680B55B4B1600DD
:101340005A680700884683B0FF2A02D880225200DC
:101350005A600322564B554D1A600123AC68234254
:10136000FCD0202229685140C0320A4051490A600D
:101370002A684E4D5A40032313400B600223AC6889
:101380002342FCD080224C4B12011A6080235B0068
:101390006B604A4C99464A4B3A00636101214346CF
:1013A0004848009600F0D8F941463800714300F0F3
:1013B0009FFB454B05005A68FF2A01D84A465A60F0
:1013C0008022424B12011A602169002907D060690E
:1013D00000F08EFB013043001B18033BFDD2E023DD
:1013E000394A3B4811680B40036002231168594099
:1013F00001330B400421036093681942FCD0802123
:10140000344B090119608021334B4900516023613D
:10141000264B5A68FF2A00D8596003220121244B29
:101420001A60224A93681942FCD0E02310680340F6
:1014300020480360126803234A40022113401B4ADC
:10144000036093681942FCD080211B4B090119608D
:101450008021224B4900516065615A68FF2A00D8FB
:10146000596080221E4B12011A60A169002907D021
:10147000606900F03DFB013043001B18033BFDD2C7
:10148000402316490A685A40A0331340154A136096
:101490008022154B12011A6080235B004B60084BC1
:1014A000A36103B0C0BCB946B046F0BD3C8000406B
:1014B0003CB000403C9000403CA00040740500203F
:1014C000006CDC02008002403080004030B0004000
:1014D0003090004030A00040001BB7004880004022
:1014E00048B000404890004048A00040F0B54E464B
:1014F000DE4657464546E0B51600924A85B093460B
:10150000A022520091465A4603969B46060001923D
:101510000291019B8C4A93420DD901235B429C4668
:101520008A4AE1449446019B634401934B460F2B46
:10153000EFD100208EE01F00854B07249C466744B6
:101540002300634338001900984600F0D1FAA24600
:10155000651E864250D06C433800210000F0C8FA66
:10156000864259D06B1E9846012D00D1D3E05346D8
:10157000E41A2100380000F0BBFA864258D0AB1EB6
:101580009846022D00D1B9E05346E41A21003800F4
:1015900000F0AEFA864264D0EB1E9846032D66D06A
:1015A0005346E41A2100380000F0A2FA864200D126
:1015B00072E02B1F9846042D00D174E05346E41AC4
:1015C0002100380000F094FA864200D17DE0052D1C
:1015D00000D17FE053463800E11A00F089FA062472
:1015E0008642ADD10029ABD1C8465B46D146012524
:1015F0000298039E26E0A8464146380000F078FA9B
:10160000002900D197E0651EA2466C4338002100F6
:1016100000F06EFA8642A5D12100380000F068FA89
:1016200000299FD1C8465B46D1460298039E09E037
:101630000029A4D15246C2465B46C846554691464B
:101640000298039E4246434951434A4601600120A5
:1016500032601D6005B0F0BCBB46B246A946A0464C
:10166000F0BD0029E6D0EB1E9846032D98D1092144
:1016700038000324092500F03BFA8642BBD003233F
:10168000062138009A460334073D00F031FA8642BD
:10169000C2D0012398466AE70029CBD02B1F984679
:1016A000042D00D08AE704240C353B099E42A2D0C9
:1016B00004230C2138009A4608340D3D00F018FA36
:1016C0008642A9D00223984651E70029B2D0052DC1
:1016D00000D07FE719213800192500F009FA864269
:1016E00026D01421380000F003FA052314249A466A
:1016F00086421BD0023B9846153D38E7042302245E
:101700009846BB089E4200D176E7A246013D7B0881
:101710009E4200D180E7B74200D0FEE60122C846D3
:101720005B46914601250298039E8BE7042573E7EB
:10173000A846052460E7C8465B46A14625000298F6
:10174000039E7FE750262F0050F80C0020D1FFFFAA
:10175000B0710B00001BB700F8B5040021481E0053
:1017600017000D0000F0C4F90100380000F0C0F9C6
:10177000069B36041B031E432368002B20DB1A4BF9
:101780001A49E3185A1E93418022920194465B4203
:101790001B0B174A1B0363441360164A13601F0098
:1017A0000A689743FBD1144B2560E2182123A060FF
:1017B00013602368002BFCDA0823E6601360F8BD91
:1017C0003F2322681340AB42D9D1A3681B051B0DF0
:1017D0008342D4D1EE22E368D2021340B342CED189
:1017E000EDE7C046001BB7000040FDBF08C0004049
:1017F00000E0004000F00040043000008023024A76
:101800009B000B43D362704700800540002310B556
:101810000100988A1B8B984710BDC046162310B54F
:101820000100188802331B88984710BDF8B5474659
:10183000CE4680B50F1E18D01423994604330400F9
:101840000025012698464B461888434621681B8888
:10185000984701C4431E984101350640AF42F2D17A
:101860003000C0BCB946B046F8BD0126F8E7C04616
:10187000AA23064A1B0113608D235B00D360044931
:10188000044B19605368002BFCDA7047004002409B
:1018900000B0FA00006002407047C04610B5014831
:1018A000FEF776FE7C27001070B5074D074EB54257
:1018B00009D20024013E761BB60808CD98472300C4
:1018C0000134B342F9D170BDD02600100C270010AE
:1018D000054B064A06491A60064A074B1A60100073
:1018E0000B689843FBD1704700E00040BFCDFBFE82
:1018F00008C00040FE7F3C0000F00040044BDB6C61
:10190000002B03D18022034BD2021A607047C046DD
:10191000000011504C201150044A054B1A60054A32
:101920001368DB018033FBD17047C046FFFFFF0126
:1019300000F0004008C000404022034B9A675A67FD
:101940001A67DA667047C04600F0014010B5FEF72E
:101950007BFE10BDF8B52749274C284D641AA61008
:101960003200302E00D930222800920000F00AFA0E
:10197000BC2C3BD830202F232C196407204A801B15
:10198000E40F9B1B052B16D93700002C02D0B300A7
:10199000771CEA50001B33199B004108EB18C90063
:1019A000C9181A605A6008339942FAD101230342D8
:1019B0001CD09843C619B300EA50731C2F2E15D0C3
:1019C0009B00EA50B31C2E2E10D09B00EA50F31C53
:1019D0002D2E0BD09B00EA50331D2C2E06D09B00E1
:1019E000EA50731D2B2E01D09B00EA50054B9D60E1
:1019F000F8BDC04600010010C0010010000000202A
:101A0000C101001000ED00E0002310B5294C82B0A8
:101A1000A367FFF72DFF0122274B1A60636C012B90
:101A2000FCD10322254B1A60224A936B012BFCD177
:101A3000013300930121224A22480433FFF78CFE30
:101A4000052301210093204A2048FFF785FE00224C
:101A5000022104201E4BFFF7F3FB00220121052089
:101A60001C4BFFF7EDFB0022002107201A4BFFF76C
:101A7000E7FB002200210820174BFFF7E1FB802342
:101A8000DB000093002200210920134BFFF75EFBCF
:101A90000022104B00210620FFF7D2FB0420FFF7A5
:101AA00043FC0E4900F024F801000020FFF7A6FED9
:101AB00002B010BD008000403CB0004030B000409B
:101AC000002F685900800240008C864700C0024009
:101AD000001BB70040597307006CDC0240420F0046
:101AE00001480421014B1847C00100202D180010A7
:101AF000114A936F9B0813D210665166002905D0D6
:101B0000FFE7FFE7FFE7516F106F704704B500284C
:101B100001D00020C04300F0CBFD002104BDC04631
:101B2000F0B5146E556E576F166FFFF7E5FF14662C
:101B3000556657671667F0BD000000D0132370B5D7
:101B40001D78012D19D014DD1F48FFF767FE060030
:101B50001E48FFF763FE1E4C80223100200000F07B
:101B600011F9022D2DD01B48FFF750FE1A4B1860BB
:101B700070BD1A4B164CA364F5E7184B144C236048
:101B80006360A360E36023616361A361E361236237
:101B90006362A362E36223636363A363E363236417
:101BA0006364A364E36423656365A365E3652366F7
:101BB0006366A366E36623676367A367E367A3645B
:101BC000D1E7064BA364CEE7534400005346000020
:101BD000680300204C330000D0050020E11B0010FA
:101BE00007B5604601880A0A0230DF2AFAD1C9B275
:101BF000820804D3028840880004104300E0006893
:101C0000014A5050039007BD6803002051434343ED
:101C1000C9188C46110C83B24B4310B4040C6143B9
:101C200092B280B2504362431C041B0C001910BCDA
:101C300059411304120CC01851416144704700000F
:101C40004840414048400E4B5B6818470C4B1B68AE
:101C500018470C4A936F9B0802D2094BDB68184760
:101C6000F0B5146E556E576F166FFFF7F6FF054A05
:101C70001466556657671667F0BD014B9B68184799
:101C800068040020000000D0491A002808D1084646
:101C900070470000C10FC90700D54042002817D087
:101CA000F44603B40B4B1B68984706BC81409E3832
:101CB0004042803107D20B0607D04900490AC005CF
:101CC0001043084360470130F8E7490A8902F5E705
:101CD00070470000D0050020014B5B6A18470000E8
:101CE00068040020132310B512481C78FFF796FDF6
:101CF0000100012C0AD003DD80220F4800F042F8D9
:101D00000E48FFF783FD0E4B186010BD0A4C54229D
:101D1000200000F037F80B4B6365A365E36523668D
:101D20006366A366E36623676367A367E36723626B
:101D3000E361E5E753460000680400204C330000EF
:101D4000D0050020491D001007B5604601880A0A29
:101D50000230DF2AFAD1C9B2820804D3028840884F
:101D60000004104300E00068014A5050039007BD92
:101D70006804002001480421014B1847D0010020CD
:101D80002D180010014B5B6818470000D00100209F
:101D900010B5002800D110BD00F016F9FBE7C046D1
:101DA00010B5094A0300146884B0002C08D0012241
:101DB00000910648524203A9A047012004B010BD7B
:101DC00000F04CF90020F9E7A4050020911D001057
:101DD00000BEFDE710B5FFF7FBFFC04670B5FFF78B
:101DE00063FD074D074EB54209D20024013E761B24
:101DF000B60808CD984723000134B342F9D170BD2D
:101E00000C27001010270010030010B50800110067
:101E10001B68984710BDC046F0B5C64600B5437D67
:101E200007000C001600002B46D0002A17DD0B78A7
:101E30000A2B24D000239846012E13D00125290017
:101E4000635C01350A2B26D0B542F8D1464509DC42
:101E5000A419013C23780D3B5A4253413B7580BC89
:101E6000B846F0BD4346E018A419F11A013C3B689E
:101E7000984723780D3B5A4253413B75EFE7037D6A
:101E8000002BD7D102210F483B689847012EDFD0A5
:101E900001239846D2E7631E5B5C0D2BD4D08845A6
:101EA00004DA4346C91AE0183B68984702210548FE
:101EB0003B68A8469847C7E7036811002000984789
:101EC000CDE7C04634280010F0B54546DE464E4604
:101ED0005746E0B583B091461C0080460D00FEF7E2
:101EE000EDFF0023304A12184B41002B02DA012289
:101EF0002E4B52422E4908008A4600F0E1FB0700B3
:101F00006B1C03D1404600F09BFB0500002C27D042
:101F1000284E294B1C68002C18D04B46002B21D191
:101F2000264B994602E02469002C0FD02368002B31
:101F3000F9D04B461B68002B01D09C42F3D1200006
:101F40002A004146B0472469002CEFD1002F26D14A
:101F5000280003B0F0BCBB46B246A946A046F0BD7F
:101F6000174ED6E7154B99460A239B4602E0246993
:101F7000002CEBD02368002BF9D04B461B68002BBC
:101F800001D0A342F3D12A0041462000B0476B465E
:101F90005A462000DA71D91D0122B047E7E75046C2
:101FA00000F07EFBD4E7C04640420F00FFFFFF7FFA
:101FB000E0010020191E00109C050020A005002053
:101FC000091E001000207047F0B5CE46474680B588
:101FD00083B06B460600DD1D2870FEF76FFF0023FF
:101FE000194A12184B41002B02DA0122174B5242B8
:101FF00017490800884600F063FB164B81461C68B1
:10200000002C14D0144F02E02469002C0FD0236858
:10201000002BF9D03B68002B01D09C42F4D120006A
:1020200001222900FFF7F8FE2469002CEFD14B466E
:10203000002B05D1300003B0C0BCB946B046F0BD9E
:10204000404600F02DFBF5E740420F00FFFFFF7F09
:10205000E00100209C050020A005002070B50400D0
:1020600000F0EEFA01230100050001222000FFF735
:102070002BFF084B1C68002C06D06368002B05D092
:1020800098472469002CF8D1280070BD2469002CE1
:10209000F3D1F9E79C050020F0B557464546DE46EA
:1020A0004E468846E0B583B006000525FEF788FA5F
:1020B000434684465D571879334B344AF3181B0D59
:1020C0009B009246D758012220248240241A013ACC
:1020D000002D41DBA54232DC1100A9400F422ED178
:1020E00041460968894641468979002945D12C0035
:1020F000AA40934659463A40394241D1802189014C
:102100008846002816D06146A44634004E469946BB
:10211000030001915100705A404500D24019A9189E
:1021200012318900013208519A42F3D3019B64466F
:102130009C464B465A4617435246D75001E001246D
:1021400064426046FEF748FA200003B0F0BCBB468C
:10215000B246A946A046F0BD002C02DA10E0013CD0
:102160000ED31100A14025000F42F8D14146096865
:102170008946414689790029BAD014246442E0E7AF
:1021800009246442DDE7C0460000E0AF6805002096
:10219000F0B54E464546DE465746E0B583B0894623
:1021A0000CA984460D781F2A45D84946490088461F
:1021B0004944C900461837003400DC373868CC344D
:1021C00083462068310001901C4880248246A40286
:1021D00051440C6069424D411E216D428D431849A6
:1021E0008A465544052B0CD9A0201F214005D8361E
:1021F000540104430532053B3C600A403560052B21
:10220000F6D852019B06134342464A44D200624428
:102210001000DC3213600300D8331D605B4613608E
:10222000019BCC300360002003B0F0BCBB46B2463B
:10223000A946A046F0BD05204042F5E7CC3000009D
:102240009FE00000F0B501258D400468AC430460B8
:10225000002B2ED04D006C18E400041926001F68D6
:10226000C83637609F68043677605F68DB68DC34A7
:10227000376023606B18184DDB00AC468025C4180E
:1022800064442D0625602560144C0D1D8C4084602F
:1022900001242600AE40802508318C401F21AD016D
:1022A0004519C0180A40D8302E602C60026000200A
:1022B000F0BD4D006C18E400041926008027C836D4
:1022C0007F023760C0273F03B760F82704367F02DC
:1022D000DC3437602360CDE7D0100000010101013C
:1022E0000023038083707047F0B55746DE464E46A4
:1022F000454692460A00E0B5013287B00491520883
:1023000000D18AE04C49821802914C490592039110
:10231000002208210092019116E0039AB6002C1BBE
:102320009659A4B225B266441D80582E3ADD4A461D
:1023300058269E701580049A42453CD84246009229
:10234000059A0130904268D0009A0F26541CA0468E
:1023500002245700B94604221C57029DA446A4003B
:1023600001782D590E40D144EC100A4200D0641976
:1023700002220A4202D06A1093465C4401220A42B9
:1023800001D0AD106419019A1D88A4B20A42C4D1CB
:10239000039AB6002C199659A4B225B266441D8042
:1023A000582EC4DCF243D21716404A469E70158060
:1023B000049A4245C2D9009AB50002320092029AAC
:1023C0000237525909099446D510042257440A424B
:1023D00000D0654402220A4203D062465210904661
:1023E000454401220A4203D0624692109446654455
:1023F000019AADB20A421BD0641BA4B2039A8900B1
:10240000515824B271181C8058290DDD5821059AA5
:10241000013099703C80904296D107B0F0BCBB4629
:10242000B246A946A046F0BDCD43ED172940EEE7E0
:102430006419A4B2E2E7C0467828001038280010DA
:10244000F0B54E464546DE465746E0B584469146D1
:102450009846C1B0002904D04D9B1B689B46002BB9
:1024600007D1002041B0F0BCBB46B246A946A04609
:10247000F0BD012252426A440025002392460138F1
:102480006246D75C002FECD05C1C012F0DD111E00F
:10249000802252009542E4D052460134065D013557
:1024A0005655E61AF6B2B74202D9A142F0D8D8E79B
:1024B000FF2F76D0A14278D80A2DD2D96E46731953
:1024C0005A1E1278023B1C7812021443A4466A4634
:1024D000B01E3D4F3D49401913781B027B405C0004
:1024E0001BB2A4B2002B00DA4C40670023B2BFB28B
:1024F000002B00DA4F407B003FB29BB2002F00DA86
:102500004B405F001BB2BFB2002B00DA4F407B0094
:102510003FB29BB2002F00DA4B405F001BB2BFB24C
:10252000002B00DA4F407B003FB29BB2002F00DA55
:102530004B405F001BB2BFB2002B00DA4F400132AC
:102540009042C9D1BC4500D08BE73378A12B00D095
:1025500087E7747923000B33AB4200D081E7A345B2
:1025600000D27EE76B4609219F785A781D793F0299
:102570001743DA782D02F38815434C9822006944FA
:102580009A46367AFFF7FEFB4D9B52461C604B463F
:102590001F8043461D804A9B01201A804B9B1E7062
:1025A00060E7A14288D923006AE780235B009D424F
:1025B00000D156E70026EB186B44013BFF3B1E7031
:1025C000013523005CE7C046FFFF0000211000003A
:1025D000002383600160C360426003617047C046AE
:1025E0000B000269416810B504008A420DD282686E
:1025F000006852001352A0680130FFF779FA0120F9
:10260000A16023690133236110BD0020FCE7C046AF
:10261000036910B50400002B0FD0C36802685B008B
:102620009B5EC0680B8001306168FFF761FA012092
:10263000E1602369013B236110BD0020FCE7C04637
:1026400010B583070AD00300032102E001330B42D7
:1026500005D01A78002AF9D1181A10BD030019689C
:102660000C4A0D4C8A188A4322420FD15968094AF4
:1026700004338A188A43224208D15968054A043330
:102680008A188A432242F1D000E001331A78002AE6
:10269000FBD1E1E7FFFEFEFE80808080F8B5C046FA
:1026A00001B40248844601BC604700BF59010020C4
:1026B00001B40248844601BC604700BF810100208C
:1026C00001B40248844601BC604700BFC10000203D
:1026D000D1180010FD180010E11A0010751D00102F
:1026E0003D1B0010E51C0010091A001019190010FC
:1026F000391900104D19001011070010551900105C
:10270000910A00109918001065060010B10200101F
:1027100053797374656D20636C6F636B206F6620F3
:102720002575206B487A2063616E6E6F7420626538
:102730002065786163746C7920616368696576658A
:10274000640000000A2A2A2A2050414E4943202AC8
:102750002A2A0A000A0000004861726477617265E3
:1027600020616C61726D20256420616C726561640A
:102770007920636C61696D65640000004861726472
:10278000206173736572740052656C6561736500D6
:10279000626F6F74325F773235713038300000000D
:1027A000322E322E300000007069636F000000008E
:1027B0006461635F727800004170722032322032AF
:1027C00030323600CC2700100AFF000080903EF81F
:1027D00001604208016080803EE801704718017086
:1027E00006005250D3F07542882700100600525060
:1027F000E182887F9027001006005250ABB36053EF
:10280000A027001006005250BBFF3CB6A8270010BE
:1028100006005250861C0302B027001006005250DA
:102820005422A29DB827001005005250DE65F468BE
:10283000202B00100D0A0000FFFFFFFFFFFFFFFF2E
:10284000FFFFFFFFFFFFFFFF02000000040000008A
:102850000600000008000000FFFFFFFFFFFFFFFF72
:10286000FFFFFFFFFFFFFFFF02000000040000006A
:10287000060000000800000007000000080000003B
:10288000090000000A0000000B0000000C0000001E
:102890000D0000000E0000001000000011000000FC
:1028A00013000000150000001700000019000000D0
:1028B0001C0000001F000000220000002500000096
:1028C000290000002D000000320000003700000049
:1028D0003C000000420000004900000050000000E1
:1028E00058000000610000006B000000760000004E
:1028F000820000008F0000009D000000AD0000007D
:10290000BE000000D1000000E6000000FD00000055
:1029100017010000330100005101000073010000A5
:1029200098010000C1010000EE010000200200003B
:102930005602000092020000D40200001C030000B6
:102940006C030000C3030000240400008E04000098
:10295000020500008305000010060000AB06000021
:102960005607000012080000E0080000C30900003C
:10297000BD0A0000D00B0000FF0C00004C0E000050
:10298000BA0F00004C11000007130000EE14000005
:102990000617000054190000DC1B0000A51E0000F3
:1029A000B621000015250000CA280000DF2C000019
:1029B0005B3100004B360000B93B0000B241000023
:1029C000444800007E4F0000715700002F60000057
:0C29D000CE69000062740000FF7F000070
:1029DC00E0270010EC270010F82700100428001046
:0C29EC00102800101C28001028280010E3
:1029F800F0B5C646150000B504001E000268EFF3E6
:102A0800108172B61368002BFCD0BFF35F8F0423CC
:102A1800E3562268002B2BDBBFF35F8F002010608A
:102A280081F31088D02212061278002752B29046FD
:102A38009A420ED1002080BCB846F0BDBFF35F8F2C
:102A4800176081F310882800310000F035F800285D
:102A5800F0D12268EFF3108172B61368002BFCD016
:102A6800BFF35F8F237922687F2BE7D9434602E0C3
:102A7800D0231B061B682371BFF35F8F00231360ED
:102A880081F310880120D6E70268EFF3108172B64F
:102A98001368002BFCD0BFF35F8FFF23037103681B
:102AA800BFF35F8F00221A6081F3108840BF704720
:102AB8007047C0460000000001B40248844601BCCB
:102AC800604700BF8D0D00101000000000000000DE
:102AD80000000000000000000000000000000000EE
:102AE800E8010020000000000000000000000000D5
:102AF800503300004C3300005433000052330000C0
:102B08004D5300004D43000053340000433400008F
:082B18000000000000000000B5
:04000005100001E9FD
:00000001FF
