:020000041000EA
:10000000002008205B0100101B0100101D010010E2
:100010001101001011010010110100101101001058
:100020001901001019010010190100101F01001022
:10003000110100101901001021010010230100100E
:100040001101001011010010110100101101001028
:100050001101001011010010110100101101001018
:100060001101001011010010110100101101001008
:1000700011010010110100101101001011010010F8
:1000800011010010110100101101001011010010E8
:1000900011010010110100101101001011010010D8
:1000A00011010010110100101101001011010010C8
:1000B00011010010110100101101001011010010B8
:1000C00011010010110100101101001011010010A8
:1000D0001101001011010010110100101101001098
:1000E0001101001011010010110100101101001088
:1000F0001101001011010010110100101101001078
:100100001101001011010010110100101101001067
:10011000EFF30580103800BE00BE00BE00BE00BE7A
:1001200000BE00BEF2EB8871FC4F00101C500010A6
:100130009C01001090A31AE7D3DEFFFF42012110BB
:10014000FF01000004640000793512AB00201E4955
:10015000086006C881F3088810474FF050400068D7
:1001600008B10020F3E70DA40ECC002902D000F066
:1001700012F8F9E71549164A002000E001C1914242
:10018000FCD114498847144988471449884700BE60
:10019000FDE701C901C29A42FBD370471C50001011
:1001A00010010020301600203C65001000000820DF
:1001B000000008203C6500100010082000100820F6
:1001C000000000007047000008ED00E0301600203D
:1001D00018210020411A001015020010391A0010D1
:1001E00010B50A4C82B06368DA05FCD4226A6368F1
:1001F000DB05FCD4C2F3CF330DF106010448226ABB
:10020000ADF8063001F012F8EDE700BF0000205015
:10021000DC200020F0B585B001F00AFD192000F0C7
:10022000C5F819234FF0010242EC443004210B20A1
:1002300000F09EF810252423444A454C95665367E8
:10024000136F444983F490136FF30F032367536EC6
:100250004148DB4303F00103636601F075F80221B6
:10026000002000F085F80221012000F081F800F064
:1002700061F93A4C034680220221394800F0C2FF5E
:100280002046384903F092FE4FF4102205464FF401
:1002900014030820344E0093CDE90226EB012A18FE
:1002A00043EA023323F0C0430621019300F060F8D3
:1002B0000621092000F05CF806210A2000F058F819
:1002C00020464FF4E0634FF4C062002103F0D8FEF3
:1002D0002A4600216B46204603F008FF4FF4604396
:1002E0000025C4F8D8302368204843F00103236078
:1002F00003F0A0FF2F462E46174C69461848ADF86C
:10030000006000F0D3FFA3699906FCD4AA23236000
:10031000A3699A06FCD455232360A3699B06FCD4E9
:100320009DF800302360A36913F02003FBD19DF8F2
:1003300001200137B7F5FA5F2260DED1192285F07E
:10034000010545EC40201F46D7E700BF00800A406A
:1003500000900A4040420F0000000740000020507B
:10036000DC200020884C001000240440E101001033
:1003700010B44FF480740C4B53F8202003EB80032F
:10038000C00082F0400200F1804003F5805C02F082
:10039000C00200F5203003F54053CCF80020416046
:1003A0001C605DF8044B70470480034030B44FF08C
:1003B000000343EC440043EC400005254FF48074F7
:1003C0000B4BC20053F8201003EB800081F040017A
:1003D00002F1804303F5203301F0C00200F58051A3
:1003E00000F540500A605D60046030BC704700BF9B
:1003F000048003400FB400B583B0049C074801F0AB
:100400005BFC3CB105A92046019101F0E3FA0448E8
:1004100001F052FC012001F0F5FA00BFA44C0010DD
:10042000884D0010EFF3108072B6064BD3E8CF1F53
:1004300001220029FAD1C3E8412F0029F6D1BFF3E8
:100440005F8F7047DF1A00200023034AC2E88F3F06
:1004500080F31088704700BFDF1A002070B5864611
:10046000EFF3108572B6124CD4E8CF6F0120002E46
:10047000FAD1C4E8460F002EF6D1BFF35F8F4FF0DC
:10048000010CC80801F007030CFA03F31EF800C0C2
:100490001CEA030608D14CEA030C0EF800C0C4E8BD
:1004A0008F6F85F3108870BD1046FFF7A3FF00BF64
:1004B000DF1A0020F8B5EFF3108772B61C4ED6E8AD
:1004C000CF5F0124002DFAD1C6E8454F002DF6D1AB
:1004D000BFF35F8F9A421BD8012502E0013293429D
:1004E00022D3D40810F804E002F0070C05FA0CFC43
:1004F0001EEA0C0FF2D14EEA0C0E00F804E0104692
:100500000023C6E88F3F87F31088984207DBF8BDC9
:100510000023C6E88F3F87F310884FF0FF30002993
:10052000F5D00698FFF766FF4FF0FF30E8E700BF11
:10053000DF1A0020044A1078431CDBB2182B28BFB6
:1005400010231370704700BF0810002010B5054C31
:1005500082B001461F23182200940348FFF7AAFF28
:1005600002B010BDB44C0010301C00204FF0E0224F
:10057000936843F000539360704700BF0021044B21
:1005800003F12002C3E88F1F01339342FAD1704771
:10059000D41A00204FF0E0234FF08032C3F800243B
:1005A000C3F80424C3F80824C3F80C24C3F81024A7
:1005B000C3F81424C3F81824C3F81C24C3F8202457
:1005C000C3F82424C3F82824C3F82C24C3F8302407
:1005D00062B67047012300F01F029340400941B109
:1005E000800000F1604000F56140C0F88031036098
:1005F0007047024A203042F82030704700E100E0A6
:100600000123064A410952F8212000F01F0003FA95
:1006100000F01040003818BF0120704700E100E0F2
:1006200001224309034900F01F008240403341F892
:100630002320704700E100E0054A10309268054B26
:1006400052F82000C01A47288CBF002001207047B4
:1006500000ED00E00C10002010B5EFF3108C72B626
:10066000114BD3E8CF4F0122002CFAD1C3E8442F1D
:10067000002CF6D1BFF35F8F0C4A103092680C4CFF
:1006800052F82020A24201D091420BD1074A926831
:1006900042F82010BFF35F8F0022C3E88F2F8CF346
:1006A000108810BD01F050F8DD1A002000ED00E0C8
:1006B000110100102DE9F04F0B4683B0EFF3108AC3
:1006C00072B6DFF8A891D9E8CF4F0121002CFAD1FA
:1006D000C9E8441F002CF6D1BFF35F8F5D4991F943
:1006E0000080B8F1000FC0F2B3805B4C08EB480704
:1006F00004EB8705AE7910300E7058494FEA480672
:100700008968009651F82010BF000E1B472E34D880
:1007100021F0010E9EF80760964209D871E00CEBBB
:100720004C0604EB860696F807B093454ED9B646BC
:100730009EF906C0BCF1000FF1DA4BF601560EF13E
:10074000040B043DA5EB0B05C5F34A056FEAC5454F
:10075000009F6FEAD5454744BB468EF80680DFF818
:10076000088104EB8707AEF8045044F82B80BE8064
:1007700087F806C0FA71BB601AE0394EB14267D102
:10078000AB60384BEA71BA1C2244043B9B1AC3F39A
:100790004A036FEAC3434FF421426FEAD343E25363
:1007A0006B80FF224BF60153AA71AB8045F001012B
:1007B0002A4B9B6843F82010BFF35F8F0023C9E8E2
:1007C0008F3F8AF3108803B0BDE8F08FF3463BF803
:1007D000046F76050FD4761502360BEB46060196AC
:1007E0006FF00706F61B019F361B3E44C6F34A0610
:1007F00046F46046A5E706F5FF1606F5FF561F36D8
:10080000E9E7AB606FF00703EA714FF42142DB1BAD
:100810001B1B7344C3F34A06124BE25302372744AF
:10082000043BDB1BA2F54142C3F34A0313433243AB
:10083000AA800D4A6B804AF6AA2173461B1B5B41B6
:100840005943090DA971CEF8002045F00101AFE729
:1008500000F07AFF102100200C10002000ED00E0D5
:10086000110100105410002001488047DD1A0020BB
:10087000F0B5EFF30585EDB2EFF3108C72B62C49AD
:10088000D1E8CF2F0123002AFAD1C1E8423F002A44
:10089000F6D1BFF35F8F274E40F0010EB4684AF6E1
:1008A000AA2354F82570244A0446A41A64416343D9
:1008B0001B0D77455BB223D092F906409C4224D0B1
:1008C00092F912409C422BD092F91E409C4229D0B2
:1008D00092F92A409C4227D092F936409C4225D07A
:1008E00092F942409C4208BF05240FD0134A0024CD
:1008F000157813708571C1E88F4F8CF31088F0BDA7
:10090000B2680F4C42F82540F0E7002404EB4404A1
:1009100002EB8402FF2494714BF601549480E5E7C6
:100920000124F3E70224F1E70324EFE70424EDE7D1
:10093000DD1A002000ED00E00C1000201021002046
:100940001101001010B5074C82B0014605230022AA
:1009500000940548FFF7AEFD0028A8BFC0F13300A2
:1009600002B010BDD04C001015210020014B0B44EB
:1009700003607047D41A002070B5104C104DAC4283
:100980000ED2FF26236863B1FFF7D4FD014620464F
:10099000FFF7ECFFA680BFF35F8F0834AC42F1D3C2
:1009A00070BDFFF7C7FD01462046FFF7DFFF267148
:1009B000BFF35F8F0834AC42E4D370BD2016002033
:1009C0003016002010B50446FFF7B4FD014620465E
:1009D000FFF7CCFFFF232371BFF35F8F10BD00BF74
:1009E00010B504460120FFF7B1FD034B034423601B
:1009F000BFF35F8F10BD00BFD41A0020024B0B4421
:100A00000360BFF35F8F7047D41A002010490B6852
:100A1000EFF3108072B6D3E8CFCF0122BCF1000F04
:100A2000F9D1C3E84C2FBCF1000FF4D1BFF35F8FB5
:100A3000084A4FF0000C137809680133DBB21370D9
:100A4000C1E88FCF80F3108840BF0020002170479D
:100A5000EC200020122100202DE9F04F2DED028B1B
:100A600085B0EFF30583DBB2103B9A0818BF012273
:100A70004FF0010103F0030B18BFAF4DAF4B08BFA0
:100A8000AF4D0BEB820253F8226001FA0BF205F531
:100A900041539FEDA78B01925A602FE0B3881C044D
:100AA00040F19380B379002B40F0DD80B6F9082047
:100AB000002AC0F21E81736902EB420203EBC203FB
:100AC000D3E90247B7F1FF3F08BFB4F1FF3F0ED0B3
:100AD00005EB8B01AB6A0A69D21AE31A934205D37C
:100AE00001232A6A03FA0BF3134200D10C61284652
:100AF00000F048FBA042B941C0F2FB80B6F90830D3
:100B0000019A002B0093EA63C8DBD6F8148003EB4C
:100B10004309284608EBC907D7E9024A00F032FB2F
:100B2000A04271EB0A01B9DBBAF1000FC0F2C38039
:100B3000D7E90431834A934200F0ED807A88B6F910
:100B4000080092B242EA0040984702460B4652EA39
:100B5000030100F0B080002B80F2D180B4EB020ED4
:100B60006AEB030A38F93930C7E902EA002B95DB52
:100B7000716903EB430201EBC202D2E90270BE4588
:100B80007AEB000C4FEA430288DBB4462CF8083FAE
:100B900006E003EB430001EBC0005A00D0E902700D
:100BA000BE451A447AEB000001EBC20404DB31F9C4
:100BB0003230A446002BECDA28F83930009BACF830
:100BC0000030B3881C043FF56DAF3369EFF310823A
:100BD00072B6D3E8CF0F01210028FAD1C3E8401F35
:100BE0000028F6D1BFF35F8F4FF6FF74B088002363
:100BF000316900B2B480C1E88F3F82F31088984217
:100C0000FFF650AF0746A946746906F1080807EBDE
:100C1000470E04EBCE03D3E90250B6F90830C446C0
:100C2000002B13DBB246009704E034F936309446CB
:100C3000002B09DB03EB430604EBC602D2E9027189
:100C4000BD4270EB0101F0DA5646009FACF800702F
:100C500034F93E7024F83E30002FD8DAB3794D468F
:100C6000002B3FF423AF0023B371B6F9083006F12F
:100C70000808581C3DD01A46776903E08046591C85
:100C80003FF416AF03EB430107EBC100B0F802C01D
:100C90001C461CF4004F9E4637F93130EED094428A
:100CA00080ED028B05D0A8F80030328927F831207A
:100CB00034817246E3E738F8393033813369EFF332
:100CC000108272B6D3E8CF0F01210028FAD1C3E811
:100CD000401F0028F6D1BFF35F8F7388316928F871
:100CE0003930009B73800023C1E88F3F82F3108866
:100CF000D4E640BF05B0BDEC028BBDE8F08F2846BE
:100D0000CDE9022300F03EFA029A039B10EB020E9B
:100D100043EB010A26E708460B6902919847002831
:100D2000C9D00299D1E9002311E700BFAFF30080D9
:100D3000FFFFFFFFFFFFFFFF00800B40B4200020FC
:100D400000000B40590A00102DE9F84F364C256978
:100D50002DB1BDE8F84F0A213448FFF707BEDFF890
:100D6000E4800321404600F0FBF90326C4F80C8020
:100D7000FFF7E0FB4FF0504C2D4B267003442361EE
:100D8000DCF800300F216370636961801D834FF0D0
:100D90000405A3F878504FF00505A3F890504FF0E4
:100DA0000605A3F8A8504FF007050E214FF6FF7275
:100DB00008274FF00A0EA3F8C0504FF001094FF07A
:100DC0000C0C4FF0020B4FF0090A0D204FF00B05F1
:100DD000A3F868111749A280A3F808E1A160A3F85D
:100DE00048B0A3F8F0A0A3F82051A3F838C1A3F8A5
:100DF0005001A3F83090A3F86060A3F8D8701A806F
:100E00000D4B3046C8F820700C49DC60FFF724FC1D
:100E100049463046FFF7DEFB094B0A211F640348B1
:100E2000BDE8F84FFFF7A2BD78100020EC200020AD
:100E3000D41A0020FFFF1000B4200020590A00102F
:100E400000200B4000000B40004870477810002045
:100E5000F8B59DF82050044617461E4635B900F0F7
:100E600099F9874266EB010100295CDB2169EFF308
:100E7000108372B6D1E8CF0F01220028FAD1C1E861
:100E8000402F0028F6D1BFF35F8FB4F902206569C7
:100E900002EB4201002A4FEAC10C206905EBC101B7
:100EA00039DB35F80CE0A4F802E04FF0000EC0E8A2
:100EB0008FEF83F310884888069B0130C0F30E0043
:100EC000012838BF01200B61079B48804B61C1E9B5
:100ED000027640EA02402369EFF3108172B6D3E84C
:100EE000CF7F0126002FFAD1C3E8476F002FF6D13C
:100EF000BFF35F8FA38825F80C30A2802369C3E875
:100F00008FEF81F310880122E368217803F5015304
:100F10008A405A60F8BD0022C0E88F2F83F3108802
:100F20004FF0FF30F8BD2846F8BD00BF0146F0B5D0
:100F30000069EFF3108772B6D0E8CF5F0124002D6F
:100F4000FAD1C0E8454F002DF6D1BFF35F8FB1F95C
:100F500002E04C690EEB4E0CBEF1000F4FEACC05DF
:100F6000086904EBCC0C3CDB665B4E800026C0E8D5
:100F70008F6F87F31088BCF80200CCE902230130A0
:100F8000C0F30E00012838BF0120059BACF8020019
:100F9000CCF81030069B40EA0E40CCF814300B69B8
:100FA000EFF3108272B6D3E8CFCF0127BCF1000F68
:100FB000F9D1C3E84C7FBCF1000FF4D1BFF35F8FD0
:100FC0008B886353A1F804E00B69C3E88F6F82F349
:100FD00010880122CB68097803F501538A405A60D2
:100FE000F0BD0023C0E88F3F87F310884FF0FF303B
:100FF000F0BD00BF03464089B0EB214F37DD586993
:101000000A1402EB420210B500EBC2001C69EFF3B8
:10101000108C72B6D4E8CFEF0122BEF1000FF9D1E7
:10102000C4E84E2FBEF1000FF4D1BFF35F8F4288AA
:1010300089B292B28A4207D000221B69C3E88F2F7F
:101040008CF31088002010BD42F400424280012140
:10105000002218699971C0E88F2F8CF310881C78D2
:10106000DA68084602F50153A140596010BD00201E
:10107000704700BF407870472DE9F04705460C46A1
:1010800082B0EFF30587FFB2002F38D1304ED6E99A
:1010900000238B4208BF824239D0DFF8C080D8F8E5
:1010A0000CA098F80090504600F06CF809F1040983
:1010B0005AF829301B1A281A64EB0101984271F181
:1010C000000124DA00F066F8854264EB0101002992
:1010D0002DDB204B404600932A4623460197FFF71D
:1010E00025FF011E23DD1C4BC6E900545A6AA242AB
:1010F0002CD39B6AAB4227D31848FFF77BFF164BD4
:101100005A6AA24208D2002002B0BDE8F08720BF90
:10111000114B5A6AA242F6D314BF012000209B6AE9
:10112000AB4228BF40F0010002B0BDE8F0870A4B97
:10113000586AA042E7D3001B18BF01209B6AAB424C
:1011400028BF40F00100EFE7A242D5D120BFD3E78E
:10115000701000200D0A001000000B4078100020D5
:1011600010B4054B054C064AA04214BF1846581C43
:101170005DF8044BFFF772B9341C002000800B406F
:10118000EC4C00100346416A0A46986A596A8A4242
:10119000FAD17047034B596A0A46986A596A9142D4
:1011A000FAD1704700000B4030B4154A536A9C4690
:1011B000946A536A6345FAD1021959414FF0000508
:1011C00028BF01250E4B5B6AB5B15A1C08BF1A46F1
:1011D00008D04FF0FF310A460948436A8B42FCD3DE
:1011E0008B4207D1064902E0486A984202D1886AD8
:1011F0009042F9D330BC70479942EDD8F0E700BF78
:1012000000000B4070B50E46194604461546FFF720
:10121000ADFB00233146E581A681A360681C00F088
:10122000B5FB6060003818BF012070BD38B50446BA
:101230000368EFF3108572B6D3E8CF0F01220028C0
:10124000FAD1C3E8402F0028F6D1BFF35F8F208981
:101250006389E289C31A44BF02F1010C63449342DB
:1012600006D100202368C3E88F0F85F3108838BDAE
:10127000A289636802FB003003F0CAFC00210A4A1D
:1012800013780133DBB213702389E28901339BB2F7
:101290009A4238BF0B4622682381C2E88F1F85F32C
:1012A000108840BF012038BD1221002070B50446CF
:1012B0000846244D2368EFF3108672B6D3E8CF1F9B
:1012C00001220029FAD1C3E8412F0029F6D1BFF34A
:1012D0005F8FB4F80AC02389B3EB0C030DD48BB92C
:1012E0002A782168D2B2C1E88F3F86F310882B7824
:1012F0009A4200D120BF20BFDCE7E28901321344CB
:10130000002BEDD038B1A289616802FB0C1103F00B
:101310007FFCB4F80AC0E3890CF1010C1FFA8CFCC5
:10132000634538BF4FF0000C2B7822680133DBB2E5
:101330002B70A4F80AC00023C2E88F3F86F3108800
:1013400040BF70BD12210020F8B5054606200E46AC
:1013500000F0E4F8002842D0354A3648954214BFE0
:101360004FF080624FF00062334B344902601A60E4
:101370008C6832EA0404FBD12D4B4FF48071EB1AD8
:10138000B3FA83F32E4A5B09062022F8131000F00B
:10139000C5F8C300B3FBF6F30133DA0920D14026C8
:1013A00001216962AA622F6BFB0722D42B4600221F
:1013B00053F82C1F062003F5805422602F6300F0A1
:1013C000ADF840F2013103228000B0FBF6F0EB6A89
:1013D00083F0700303F07E0323602963AA64F8BDE1
:1013E0004FF6FE718A421BD922464FF6FF71154E09
:1013F000D7E740F2013205F540531A636B6AAC6AD5
:10140000062004EB831400F089F80F4BA402A3FB21
:101410000023DB0A0021B4FBF3F0FFF7C5FEC5E7AC
:10142000C3F34503114603EB82161A46B9E700BF22
:1014300000800740002002400030024000000240CF
:10144000F8200020C0FF3F00757B2B8F00EB400C85
:101450004FEA8C0C0CF1804C0CF5803CF0B5164634
:10146000DCF80420051FB2F5803F38BF4FF480320E
:10147000EDB238BFCCF80420012D2AD94FF4006713
:10148000254C0CF54052176054F82020B2B9DCF816
:101490000020012D82EA461202F0E0020CF580568F
:1014A00032602AD94FF4006144F820304FF4803381
:1014B0000CF500521160CCF80430F0BD6769B7FB41
:1014C000F2FE0EF1010E0EEB4E0EBEF1030EFCD23B
:1014D000DDE70129D2D103240CF540521460DCF879
:1014E0000820D207FBD5DCF800200B4C82EA46121C
:1014F00002F0E0020CF5805632600122DCF8005068
:101500004D4005F00305356002FA01F1DCF80820D2
:101510000A42FBD0C6E700BF381C0020014B53F83D
:1015200020007047381C002070B4039D04682D0310
:1015300045EA03451B4B002CB3FBF1F3B2FBF3F67A
:101540001FDB194A194B904214BF4FF480424FF4ED
:101550000042174C1A6003F580531A60A36832EA00
:101560000303FBD1212200F5405304330160866060
:101570001A600268002AFCDA0822C5601A6070BC92
:101580007047036803F03F038B42DAD18368C3F3EB
:101590000B03B342D5D1C36803F4EE23AB42D0D1E1
:1015A000EDE700BF001BB7000080054000200240AF
:1015B0000000024030B44FF080441C4B1C60E0B18E
:1015C0001B4CA3F54053DC611A4C40F00100444031
:1015D0001C62596298624FF080454FF0E061134BF6
:1015E0001548164C1D60846019604AB930BC4FF034
:1015F0000042A3F580531A607047114BD861EAE7A7
:101600004FF47A7303FB02F2B2F1807F2ABF6FF0CE
:101610007F4313461A464FF080410A4C0848236026
:10162000094B426030BC1960704700BF00B00D40EC
:10163000D3C007B02D3FF84F00A00140F3FFFF01DA
:1016400000800D40A420002000A00D40012300EBED
:101650004000800000F1804000F58410416003608C
:10166000704700BF002370B5DB8A04460D4616465E
:10167000002242E800F2520254BF1021042144F239
:1016800052209847864633462A462046F446BDE80F
:1016900070400A21604700BF0023DB8A002242E835
:1016A00000F2520201D4102118470421184700BF4C
:1016B00008B51346021E0DDB4BB941F02001002393
:1016C000DB7C022B09D04FF48170FFF7CBFF41F098
:1016D0003001F4E78B06F6D5F1E74FF49170FFF790
:1016E000C1FF00BF034AD2F82838002BFBD0BFF35C
:1016F0005F8F704700000E400021044B044ABFF387
:101700005F8F43F8041B9342F9D170470C080E40D9
:101710002C080E4010B44FF48D704FF42A64064A22
:10172000064B07491460D06019605368002BFCDA3F
:101730005DF8044B704700BF0080044000A00440E7
:1017400000B0FA00704700BF08B50148FEF752FE2E
:10175000104D001038B5054C054DAC4204D254F87C
:10176000043B9847AC42FAD338BD00BF404C001050
:10177000844C001038B5054C054DAC4204D254F8E9
:10178000043B9847AC42FAD338BD00BF6C4C001004
:10179000844C001010B40748074C084B084A09490C
:1017A00004601A608B6832EA0303FBD15DF8044BD6
:1017B000704700BF002002407F3BEFEF0030024047
:1017C000F6FFF30300000240044BDB6CB3F5004F5F
:1017D00003D14FF48022024BDA64704700001150AD
:1017E000002011504FF0E022044BD2F8881D0B432B
:1017F000C2F8883D10EE3004704700BF030330008C
:101800006FF06041044B054A19609368DB4333F085
:101810006043FAD1704700BF003002400000024030
:1018200010B545F25320FFF737FFBDE810400346DF
:101830000420184710B545F25320FFF72DFFBDE8EF
:101840001040034601201847FEF798BE38B51349EB
:10185000134C144D641AA408442C224628BF442279
:101860002846920003F0D4F9432C14D80E4AC4F150
:1018700044000ED005EB8403410803EBC101C3E92A
:10188000002208338B42FAD1C30704D520F00100AF
:10189000044445F82420054B9D6038BD000000102D
:1018A00010010010000000201101001000ED00E008
:1018B000002370B52B4C82B0C4F88430FFF72AFFA8
:1018C0000122294BDA63636C012BFCD10321264AE8
:1018D000244B11639C6B012CFCD10226052521466B
:1018E0000523224A22480096FFF71EFE21462B467A
:1018F000204A21480095FFF717FE002204203146B8
:101900001E4BFFF7A3FD2146284600221C4BFFF784
:101910009DFD0022082011461A4BFFF797FD00227B
:1019200009201146174BFFF791FD002206201146B2
:10193000134BFFF78BFD0022114B07201146FFF7D9
:1019400085FD0420FFF7EAFD00240F4BA3FB0035C3
:10195000AD0CE0B229460134FFF778FE062CF8D131
:1019600002B070BD0000014000300140002F6859F6
:1019700000000540008C864700800540001BB70032
:1019800080D1F008006CDC0283DE1B4370B5044696
:101990000E460B4803F048F93146204602F06EFC33
:1019A0000546074803F020F906FB04F42DB1054B6A
:1019B0002C449C4201D8284670BD0348FEF71AFD0E
:1019C00020160020000008201C4D001000B97047B0
:1019D00000F030B910B5094B84B01C684CB1034617
:1019E00000914FF0FF3203A90548A047012004B041
:1019F00010BD00F061F9204604B010BDA020002009
:101A0000CD19001000BEFDE7704700BF074A03462E
:101A1000106838B1064903448B428CBF4FF0FF3049
:101A200013607047034908461160F3E79C1C0020CF
:101A3000000008201821002008B5FFF7E3FF00BFD1
:101A400038B5064C064DFFF785FEAC4204D254F87B
:101A5000043B9847AC42FAD338BD00BF844C001019
:101A6000884C001003680846114618472DE9F041DC
:101A70001546427D07468846002A46D0002D1DDDCA
:101A80000B780A2B23D0012D4FF0000C18D04646BE
:101A9000012416F8012F21460A2A04F1010422D05C
:101AA000A542F6D165450BDC08EB050313F8013CB4
:101AB000A3F10D03B3FA83F35B093B75BDE8F08135
:101AC0003B68A5EB0C0108EB0C009847ECE7037DA5
:101AD000002BD8D1036802210F489847012DE3D08D
:101AE0004FF0010CD3E716F8013C0D2BD8D08C45F4
:101AF00008EB0C00A1EB0C0101DA3B6898470221CE
:101B000005483B689847A446CAE7294640463B68D3
:101B1000BDE8F041184700BF584E00102DE9F047CE
:101B200082B00D4691461C460646FFF733FB4FF048
:101B3000FF3C6FF000472E4A821841F100039445A4
:101B400077EB03013CBF62463B462A4803F070F83E
:101B50006B1C804640D00CB3274F284B1C68B4B197
:101B6000B9F1000F1CD1DFF89C9001E0246974B139
:101B70002368002BFAD0D9F800300BB19C42F5D184
:101B800020462A463146B8472469002CF0D1B8F1E6
:101B9000000F26D1284602B0BDE8F087184FDCE7D9
:101BA0004FF00A0ADFF85C9002E02469002CEED0C6
:101BB0002368002BF9D0D9F800300BB1A342F4D13F
:101BC0002A4631462046B847012220460DF107013A
:101BD0008DF807A0B847E8E7304602F081FE0546D9
:101BE000B9E7044803F000F8284602B0BDE8F087E2
:101BF00040420F00281600206D1A00108C1C002097
:101C0000651A0010981C0020084A136823B90AE0DE
:101C100003F110021B6933B18342F9D129B9186964
:101C200010601961704701B1106070478C1C002072
:101C300000F0FCB9F0B583B006468DF80700FFF759
:101C4000A9FA4FF0FF356FF00044174A821841F1AE
:101C50000003954274EB03013CBF23462A46134818
:101C600002F0E6FF124B07461C689CB1114D01E0E3
:101C700024697CB12368002BFAD02B680BB19C42FD
:101C8000F6D1204601220DF10701FFF7EFFE24698E
:101C9000002CEFD117B9304603B0F0BD034802F075
:101CA000A3FF304603B0F0BD40420F0028160020CD
:101CB0008C1C0020981C002038B5044602F010FE51
:101CC000012305461A4620462946FFF727FF084B01
:101CD0001C682CB163682BB198472469002CF9D19A
:101CE000284638BD2469002CF4D1284638BD00BFF1
:101CF0008C1C0020024A034B10601960704700BF23
:101D0000281C00202C1C0020184B70B51A68002AD3
:101D100028D0EFF3108172B6D2E8CF4F0120002C0B
:101D2000FAD1C2E8440F002CF6D1BFF35F8F002236
:101D30000F4C186859602270C0E88F2F81F310880B
:101D4000002400250B4E3078FEF75AFC20B9002401
:101D500000252046294670BD3078FEF761FC2046FC
:101D6000294670BD4FF47A740025EBE7AC200020C3
:101D70001421002013210020014B1878FEF750BCDD
:101D80001321002038B5044600200D4601F05EFB0B
:101D9000A8B3002001F070FB88B3FFF7FBF94FF008
:101DA000FF3E6FF0004C174A821841F10003964540
:101DB0007CEB03013CBF72466346134802F038FFD8
:101DC000E8B1002001F042FB58B900214FF0FF308C
:101DD00000F076FD6FF002040B4802F005FF20468C
:101DE00038BD002001F048FB0028EED021462A46ED
:101DF000002001F04BFB04460028EDD1EAE76FF02C
:101E00000204ECE740420F00F020002008B5FFF785
:101E1000C1F94FF0FF3E6FF0004C0F4A821841F1BC
:101E2000000396457CEB03013CBF724663460B48BA
:101E300002F0FEFE70B14FF0FF30002100F040FDD7
:101E4000002001F06BFB0028F5D1BDE808400348F5
:101E500002F0CABE08BD00BF40420F00F0200020C3
:101E60002DE9F84380460F46FFF794F94FF0FF3510
:101E70006FF00044334A821841F10003954274EB3D
:101E800003013CBF2A4623462F4802F0D1FE08B981
:101E9000BDE8F883002001F0D9FA002847D0002FD0
:101EA00040DD0025DFF8A890284E13E022460020F0
:101EB00001F07AFB002104464FF0FF3000F000FDF6
:101EC000002001F02BFBFFF765F9C9E9000125446B
:101ED000AF4227DD002001F087FB7C1B8442A8BFB6
:101EE000044608EB0501002CE0D121464FF0FF30FD
:101EF00000F0E6FC204601F011FB204601F0A6FAB6
:101F000080B1204601F070FB0028E1D1FFF742F9D3
:101F1000D9F80030D9F804209B1942F1000283421D
:101F20008A41D5D20848BDE8F84302F05DBE0020E2
:101F30000021074BC3E90001BDE8F843024802F065
:101F400053BE00BF40420F00F020002020A1070038
:101F5000B017002030B5002185B02E4802F05CFE9D
:101F6000F0B92D4B1A68CAB1EFF3108172B6D2E8FE
:101F7000CF5F0124002DFAD1C2E8454F002DF6D1E4
:101F8000BFF35F8F254C1D6822785960D3B20122C0
:101F90002270C5E88F0F81F31088CBB105B030BD3A
:101FA00000214FF0FF3000F08BFC002001F064FABC
:101FB0000446184802F018FE002CEFD0184B1B689E
:101FC000002BEBD0174A106805B0BDE83040184729
:101FD000FEF73AFF0446FFF7DDF84FF0FF3C6FF0E5
:101FE000004510F57A7241F10003944575EB030149
:101FF00038BF2B464FF000014FF0010520460A4C38
:1020000038BF6246CDE901150094FEF721FF05B007
:1020100030BD00BFF0200020AC20002014210020A3
:10202000281C00202C1C0020091D00104FF05043DC
:1020300030B585B01C68FEF707FFFFF71BF8A0421C
:1020400002D0002005B030BD00212A4B08461B7885
:1020500001F086FC28480368002B47D00120FEF7DA
:1020600071FC0346254C2649C0B22370FEF7F4FAF2
:1020700020780121FEF7AEFA0E20FEF7DDFA40BB14
:10208000204B0125C3E90000FEF7DEFE0446FFF702
:1020900081F84FF0FF3E6FF0004C10F57A7241F17D
:1020A000000396457CEB03014FF000012046164CDF
:1020B0003CBF72466346CDE901150094FEF7C8FEA9
:1020C0000028BEDB01211148FFF79EFD012005B06D
:1020D00030BD0120FEF73AFA01460A48FEF78EFCB1
:1020E00000220E200A49FEF7E5FAEBE7FEF76AFC4C
:1020F000B4E700BF18500010F0200020132100208A
:10210000551F0010AC200020091D00109010002069
:10211000791D001000487047D44E001000487047E9
:10212000804E001038B5184B04461A780AB344B9EB
:1021300040F209424FF44173144D6A8013482B80DA
:1021400038BD052C1DD8124B104D53F824102846CD
:102150000023013903E0132B20F8022F0ED011F8D1
:10216000012F0133DBB2002AF5D15B0043F4407349
:10217000E4E71121184600F025F8D8E74FF44A7338
:10218000DCE7002038BD00BFFC200020641C0020DC
:10219000684E001000B545F247308BB0FFF77CFA6F
:1021A00001220346092101A89847DDE903320449C9
:1021B00012BA1BBAC1E900230BB05DF804FB00BFE3
:1021C000D4200020012901F1FF3300F0B3805D49E4
:1021D0000A784FEA121C9F2A8CBF0CF1370C0CF1C5
:1021E000300C012B80F800C000F0A78002F00F0235
:1021F000092A8CBF37323032022B427000F09D80AA
:102200004A784FEA121C9F2A8CBF0CF1370C0CF154
:10221000300C032B80F802C000F08F8002F00F0218
:10222000092A8CBF37323032042BC27000F085800F
:102230008A784FEA121C9F2A8CBF0CF1370C0CF1E4
:10224000300C052B80F804C077D002F00F02092A69
:102250008CBF37323032062B42716ED0CA784FEACB
:10226000121C9F2A8CBF0CF1370C0CF1300C072B81
:1022700080F806C061D002F00F02092A8CBF373205
:102280003032082BC27158D00A794FEA121C9F2AAB
:102290008CBF0CF1370C0CF1300C092B80F808C006
:1022A0004BD002F00F02092A8CBF373230320A2B92
:1022B000427242D04A794FEA121C9F2A8CBF0CF11D
:1022C000370C0CF1300C0B2B80F80AC035D002F023
:1022D0000F02092A8CBF373230320C2BC2722CD03D
:1022E0008A794FEA121C9F2A8CBF0CF1370C0CF133
:1022F000300C0D2B80F80CC01FD002F00F02092A01
:102300008CBF373230320E2B427316D0CA79110986
:102310009F2A8CBF373130310F2B81730DD002F0E3
:102320000F02092A94BF30323732102BC27318BF04
:10233000103002D00023037070471844002303704C
:10234000704700BFD4200020704700BF0022014B1F
:102350001A707047112100204B79FF2B0BD188791F
:1023600048B9CB79012B07D1082A05D9034B8A78C4
:1023700009201A7070470020704700BF112100200B
:1023800001207047012901D00120704708B5104B8A
:1023900091881B78994201D0002008BD5378012B09
:1023A00008D0022BF8D1002164220846FFF702F979
:1023B000012008BD518811F480721ABFC1F3C01208
:1023C000480A4FF0FF3001F00301FFF771F900BF39
:1023D0001121002000487047904F0010012907D1BB
:1023E0005378012B02D19388072B03D0002070472C
:1023F000012070471146A623014A00F0F7BE00BF36
:10240000E84E00100346012201481A70704700BFD1
:10241000B44F001008B50B68B3F5966F00D008BD37
:1024200000224FF0FF301146FFF742F970B500F07F
:1024300027F90C234026194CFF22A3670E201849C8
:10244000FEF738F932460021164802F0C9FB012593
:10245000002380211348144A41844570068306876F
:1024600082604360136042F8043C80F8213080F8B9
:102470003B3043620D4B4FF00056C360C362803B5C
:10248000836202F0BDFB4FF480320949094B256499
:102490002846E664C4F89010DA6470BD000011505C
:1024A0002D040020A01C00208400105000011050BA
:1024B00010D001000020115001210E20FEF78AB833
:1024C00000220248114600F0FBB800BFC01C0020EB
:1024D000044B197021B14FF40032034BC3F8902024
:1024E000704700BF0E210020002011500B785B06C2
:1024F00002D14B78052B00D070474B88014ADBB2E4
:102500001360704700001150CB782DE9F04103F0C3
:10251000030EBEF1010FC3F3010057D0002791F85D
:1025200002C0314C0CF07F025600898806EBDC13A8
:1025300004EB43134FEADC15D876C1F30A0185F0AA
:10254000010083F802C019835870DF70D3006DBB9F
:102550002648043304EB821C03EB0008CCF8088007
:102560001F5062B3224BD2001344CCF80430214AEE
:102570003F31136821F03F01BEF1020F08BF49004F
:102580001D4819442E4404EB461481421160E36057
:1025900027D883F0A04383F48013626843EA8E63F4
:1025A00043F0004313600120BDE8F0810F4804EBC5
:1025B000821C0344CCF8283040F832704AB900231A
:1025C0000E4A04EB4514E2606360ECE70020BDE8CE
:1025D000F081D20002F1A04202F58012CCF8242052
:1025E000C5E7FFF7B1F800BFA01C00208000105025
:1025F00004001050A8200020FF0F105000011050C0
:1026000002F0FEBA8C4608B5114607481A460CF08F
:102610007F034FEADC1C0CEB430C00EB4C1000F08A
:102620004FF8012008BD00BFA01C002011F07F0260
:1026300005D100290CBF02200120064B9866C9096C
:10264000054B01EB420003EB40104FF40062002108
:1026500002F0DABA00201150A01C002011F07F0314
:1026600000D17047002205485B0003EBD11300EB5B
:1026700043106FF40061C27002F0C6BAA01C0020C3
:102680004FF0805209480A4908B50A4B02600A60B7
:102690009968C94311F08051FAD14FF4805206482D
:1026A00002F09EFA0922054B5A6708BD002002403D
:1026B00000300240000002400000105000001150A5
:1026C00000234FF0010C10B580F81AC08282C3823B
:1026D0000161044602F08CFA20B14FF40032074B3E
:1026E000C3F89020204602F087FA10B10123237727
:1026F00010BD2046BDE8104002F092BA00201150F3
:102700002DE9F0414FF000081C4D044642462B785D
:102710001B4F1C4E0DE0336813EB421324D0DB68D3
:102720002046984708F101082B785FFA88F2934217
:1027300006D39342A2EB0303EDD807EB4313EEE776
:1027400054220021104802F04BFA4FF0FF330E489C
:102750002022041D4360C4E90133E360FF21BDE88A
:10276000F041143002F03CBA4FF0E023D3F8F03DD2
:10277000DB0700D500BEBDE8F08100BF0D210020C1
:10278000D44F001030190020001B0020704700BFFC
:10279000704700BF0020704700207047704700BF9F
:1027A000704700BF704700BF704700BF024B5878AA
:1027B000003818BF01207047001B0020024B18781A
:1027C000C0F38000704700BF001B00202DE9F047D8
:1027D000DFF8E49099F80030FF2B55D10D46002921
:1027E0003DD0002154220646294802F0F9F9002282
:1027F000284C294B20461A70FEF7E4F8274B28484E
:102800001C60284CFEF7ECF8204601F08FFB264AAE
:10281000264B146023B12648FFF7F4FD254B1860C2
:102820004FF0000A224C53462278DFF89080214F67
:102830000DE03A6812EB431311D05B687BB1984707
:102840000AF1010A22785FFA8AF3934211D893427F
:10285000EFD39B1A08EB43135B68002BEFD14FF0CB
:10286000E023D3F8F03DDB0700D500BE0020BDE833
:10287000F0872946304689F80060FFF7D7FD002829
:10288000EDD03046FFF718FE0120BDE8F08700BF0D
:10289000001B0020F81A00200F210020541B0020EC
:1028A000BC100020A8100020581B00200524001098
:1028B0000D21002030190020C4100020D44F00103A
:1028C0002DE9F04FDFF8B0928BB099F80030FF2B74
:1028D00000F0ED80A24CA34DDFF898A2DFF89CB287
:1028E00026687369EFF3108272B6D3E8CF0F012127
:1028F0000028FAD1C3E8401F0028F6D1BFF35F8F4C
:10290000B261304607A901F05BF900237269C2E8A1
:102910008F3FB36983F31088002800F0C8809DF8CA
:102920001D30013B072B00F26B83DFE803F0A5AFFE
:10293000939B8C350A04089B002BD1D009989847AB
:10294000CEE79DF8201001F07F0605EB460000EB76
:10295000D11090F8343023F0010380F8343090F82F
:10296000343023F0040380F83430002E00F0A280CD
:10297000027D9AF800309A4280F091807A4B1B6871
:1029800013EB421300F08C809E699DF82120099B77
:102990009DF81C00B047A3E79BF80030002B7FD0C8
:1029A0009BF80030013BDBB28BF800309BF8003025
:1029B00003F0FF00002B93D16A4F9DF81C803B78F9
:1029C00043F001033B7097F8343060F3000387F85D
:1029D000343097F8343060F3820387F8343097F856
:1029E000353060F3000387F8353097F8353060F301
:1029F000820387F8353000F05BFC9DF8203003F04F
:102A00006002602A66D0402A76D003F01F03012BB3
:102A100000F0B680022B7BD0002B5BD1202A00F087
:102A2000DB81002A56D19DF82130092B52D8DFE8EE
:102A300013F0A20194015100B301510087015D011F
:102A400051005201E5002B78D9077FF549AFFFF718
:102A5000ABFE45E7EB78DA077FF542AF0898FFF762
:102A600097FE3DE72B78D8077FF53AAF2878C0F37B
:102A7000C000FFF797FE33E79DF81C00FFF740FE0C
:102A800000F00CFC9DF82030AB7029E79DF81C008D
:102A9000FFF736FE00F002FCFFF782FE20E711D0C0
:102AA0004FF0E023D3F8F03DDC0700D500BE0BB0BB
:102AB000BDE8F08F099B9DF821209DF81C0000F0D7
:102AC0000BFC0DE7294B5FE7FFF728FB02460028C8
:102AD00040F079814FF0E023D3F8F03DDE0700D5D8
:102AE00000BE9DF81C000021FFF7A0FD80219DF88D
:102AF0001C00FFF79BFDF3E61D4800F0D9FB012108
:102B0000404608AAFFF76AFC00287FF4E9AEE8E730
:102B10009DF8241011F0700FDCD101F07F0607EB57
:102B20004600144B00EBD1101B78007D7600019617
:102B300098424FEAD11600964FD340F05F810B4E7A
:102B4000002A00F05F81706900F0B2FB012140466D
:102B5000736908AA984700287FF4C2AEC1E700BF96
:102B6000581B0020001B002030190020D44F0010FB
:102B7000DD2300100D210020C41000200F210020B3
:102B80009DF824300F2BACD8AA4A3B441B7912780D
:102B900093422DD3A5D1A84E706900F089FB012185
:102BA0004046736908AA984700287FF499AE9DF8BB
:102BB000203013F0600694D19DF821300A3B012BA0
:102BC0008FD800F075FB9DF821300A2B00F0F181C1
:102BD000404608A900F0F0FA82E6984B1B6803EB28
:102BE0004016002A00F00E81002E3FF47AAFAAE7CB
:102BF000924A166816EB4316CED172E77B789DF8A1
:102C000022609E4200F04C817B78002B40F0BD8119
:102C10007E70002E00F04281701EC0B2FFF77EFA77
:102C20000346002800F05E814278022A40F05A8173
:102C3000C17903F10906C1F340121201C1F38011F9
:102C400042EA41123146387820F0300002433A70AF
:102C50005A88CDF808809A180092009B8B4240F267
:102C6000A3814B780B2B00F0AE814FF0010C042BAD
:102C700040F038810023009A1E46521A92B2019207
:102C80006C4ACDF80CC012781DE06C4A126812EB49
:102C9000461800F02781019A05930298D8F8103061
:102CA00004919847059B08280246049903F1010303
:102CB00003D90198904280F0F8805E4ADEB2127823
:102CC000B242C0F00F81B242A6EB0202DDD85A48F0
:102CD00000EB4218DFE77B7840468DF81A300DF1A3
:102CE0001A02012308A900F081FAF9E5BDF82200D3
:102CF000030A013B020AC0B20E2B3FF6F2AE01A15D
:102D000051F823F0152F0010B52D0010512F001091
:102D1000E32A0010E32A0010332F0010B52D001015
:102D2000E32A0010E32A0010E32A0010E32A00102F
:102D3000E32A0010E32A0010E32A0010072F0010F6
:102D400008A800F0BBFA40469DF82210FFF7B8FB38
:102D50003B7843F002033B70C2E5BDF82230012B03
:102D60007FF4BFAE3B78404623F0080308A93B70D0
:102D700000F022FAB4E540463B789A0802F00202DD
:102D8000C3F340131343ADF81A300DF11A020223B6
:102D900008A900F02BFAA3E5BDF82230012B7FF43F
:102DA000A0AE3B78404643F0080308A93B7000F012
:102DB00003FA95E5022A3FF487AEFFF7EDFC0246E1
:102DC00000283FF48EAE4046538808A900F00EFA62
:102DD00000287FF485AD84E69DF824300F2B3FF664
:102DE00080AE144A3B441B79127893421DD2134A99
:102DF000166816EB43167FF4A6AE72E6002A7FF43F
:102E000070AE00269DF8212002F0FD03012B17D0A3
:102E1000002A7FF45FAE019B009A3B44134493F871
:102E200034304046C3F34003ADE77FF45AAE024E60
:102E300089E600BF0D210020D44F0010301900207A
:102E4000BDF82230B3B9012A99F8000000F088805B
:102E5000FFF7ECFB019B009A3B44134493F83420AA
:102E600042F0020283F8342093F8342042F0010249
:102E700083F83420002E3FF433AD706900F018FA67
:102E80007369012108AA40469847002000F010FA13
:102E900097F83530DF073FF523AD99E6FFF780FC63
:102EA000404608A900F088F91AE5DDF80CC0BCF12D
:102EB000010F00F09D80BCF1000F00F08A8000231C
:102EC00091F8028004E00671D8B2844540F2818016
:102ED00008EB030057FA80F090F804E00133BEF1EC
:102EE000FF0FF0D04FF0E023D3F8F03DDA0700D524
:102EF00000BE4FF0E023D3F8F03DDB0700D500BE65
:102F000000237B70EDE5FFF765FA024600287FF4A9
:102F10005AAFE6E5FFF7FEF8024600283FF4DAADC7
:102F20004046122308A900F061F900287FF4D8ACCC
:102F3000D7E5FFF72FFC024600283FF4D2AD40460C
:102F4000137808A900F052F900287FF4C9ACC8E54D
:102F5000BDF82410FFF7E6F802460028EFD1C0E5DF
:102F60000293FFF77BFB019A009B3A441A4492F8C4
:102F70003410029B63F3410182F8341092F834104C
:102F800063F3000182F8341074E700214046FFF734
:102F90009FFA4046FFF734FBBB7840460093FFF7AB
:102FA000AFFB009BBB7033E6DDF80880FFF7F6FB54
:102FB00076E74046012308A90DF11A028DF81A6040
:102FC00000F014F98CE40B7891F803C019444B78A5
:102FD0004DE633460F480392019100F069FD0E4B18
:102FE00001991B78039AB3421144BFF436AE79E7D6
:102FF000D8F81000094B984208BF4FF0020C5EE76A
:103000004FF0E023D3F8F03DDB077FF569AC00BE5D
:1030100066E400BF141B00200D210020E9360010DB
:103020002DE9F84F0A9F002A40D00C461E4615464F
:103030004FF0000ADFF87C90DFF87C8018E0204633
:1030400098F8021099F800B000F002FDE0B12146B6
:103050005846FFF759FAF0B1A2780AF1010AD109EE
:1030600016BF0B9B3A701A702278AA4514441DD0E3
:103070006278052A0FD1E17801F00301B1420AD14B
:10308000A27812F0700FDAD04FF0E023D3F8F03DC1
:10309000DA0700D500BE4FF0E023D3F8F03DDB07A0
:1030A00002D40020BDE8F88F00BEFAE70120BDE899
:1030B000F88F00BFC4100020001B002038B58B78AB
:1030C00013F0700F08D04FF0E023D3F8F03DDB078A
:1030D00000D500BE002038BD074A084B0C46084604
:1030E00091781D7800F0B4FC0028ECD021462846E9
:1030F000BDE83840FFF708BA001B0020C4100020CC
:103100000B46064A06481168DA09343203F07F0399
:1031100002EB4303184400F055BC00BF541B0020D1
:10312000001B00200B46064A06481168DA093432B3
:1031300003F07F0302EB4303184400F06DBC00BFB3
:10314000541B0020001B002010B5194801F07F0C13
:1031500000EB4C0000EBD11090F834C01CF0010FD4
:1031600008D04FF0E023D3F8F03DDA0700D500BED9
:10317000002010BD00F1300494F804C00D484CF05C
:10318000010C007884F804C0FFF73CFA0028F0D165
:103190004FF0E021227960F300022271227960F37E
:1031A00082022271D1F8F03DDB07E1D500BEDFE7F6
:1031B000001B0020C410002030B50B4C8C46A646E6
:1031C0000546086849680023AEE803009CF8001033
:1031D0002846C943C4E90233BDE830401A4601F02D
:1031E0008001FFF7B1BF00BFC01A00202DE9F041F8
:1031F000284F4FF00008BE468C46064608684968CE
:10320000BA60AEE80300A7F80E801546BCF80620A9
:10321000934228BF1346BB819AB11C4633B3DDB13C
:1032200097F90030402C28BF4024002B29DB414671
:1032300023463046184AFFF787FF68B10120BDE8F2
:10324000F0819CF800101346C943304601F080011C
:10325000FFF77AFF0028F1D14FF0E023D3F8F03DDB
:10326000DB0700D500BE0020BDE8F0811A463978A2
:1032700001F0800123463046FFF766FF0028DDD1CC
:10328000EAE722462946044801F0C2FC8021024AAE
:10329000F0E700BFC01A0020801A00200022034B74
:1032A000C3E90022C3E902221A617047C01A002054
:1032B000014B1861704700BFC01A002030B40246AD
:1032C000044C0025234600685168C4E9025530BC0F
:1032D00003C37047C01A002070B53D4CC90922785D
:1032E0000646B1EBD21F1D4682B017D053B14FF046
:1032F000E023D3F8F03DDB0702D4002002B070BD1C
:1033000000BEFAE72146FFF7F1F823691BB1224618
:10331000032130469847012002B070BD94F9003077
:10332000002B06DBA0680028E7D02A46294901F0D7
:103330006FFCE089A168E388284480B22944834275
:10334000E081A16016D03F2D14D9A28994F90040E4
:10335000131A9BB2402B28BF4023002C27DB90423E
:103360004FF0000131D01B4A3046FFF7EDFE002838
:10337000D1D1BCE7236923B102213046144A9847D2
:1033800060B121780023C94330461A4601F080011C
:10339000FFF7DAFE0028AAD00120BDE7014630463B
:1033A000FFF744F980213046FFF740F9B3E7904238
:1033B00008D01A460748019301F02AFC8021054AEB
:1033C000019BD1E780210022CEE70A46CCE700BF6F
:1033D000C01A0020801A00202DE9F0410446FFF7B2
:1033E000E5F908B9BDE8F081FFF7E8F905460028DE
:1033F000F8D1C82304FB03F3124EF718F97800291B
:10340000F0D010331E44304600F0C8FB3F28E9D905
:103410002846F978FFF774FE0028E3D0304600F024
:10342000BDFB3F28F97808D9074A284602EBC412A9
:103430004023BDE8F041FFF787BE2846BDE8F041D4
:10344000FFF770BEB81900203419002010B50446EB
:10345000FFF7ACF908B9002010BDFFF7AFF900285D
:10346000F9D1C822034B02FB0433187900F00100A4
:1034700010BD00BFB8190020C82208B5024B02FBDE
:10348000003000F071FB08BDC81900202DE9F84399
:103490004FF6FF73C8249A4228BF1A4600FB04F473
:1034A000DFF8748004F110054544064692B22846C0
:1034B00000F0D0FB0746FFF779F910B93846BDE8B0
:1034C000F883FFF77BF981460028F7D1A04498F8EC
:1034D0000330002BF2D0284600F060FB3F28EDD9E6
:1034E000484698F80310FFF70BFE0028E6D0284660
:1034F00000F054FB3F2898F8031007D9054A4846C6
:10350000402302EBC612FFF71FFED7E74846FFF73E
:1035100009FED3E734190020B81900202DE9F04145
:103520000446FFF743F910B90020BDE8F081FFF72A
:1035300045F905460028F7D1C82604FB06F6DFF852
:10354000648006F124074744384600F00DFB00284C
:10355000EAD0B044284698F80210FFF7D1FD0028C1
:10356000E2D00F4E384606EBC4163146402200F03A
:1035700071FB98F80210044668B1034632462846AB
:10358000FFF7E2FD50B94FF0E023D3F8F03DDB0741
:10359000CAD500BEC8E7FFF7C5FDC5E72046C4E7AA
:1035A00074190020B819002038B54FF6FF75C823EC
:1035B000AA4228BF2A460B4C92B203FB00440546A0
:1035C000204600F005FC034620461C4600F0CCFADD
:1035D0003F2801D8204638BD2846FFF79FFF2046E8
:1035E00038BD00BFDC190020C82208B5024B02FB21
:1035F000003000F0D3FA08BDDC190020F0B500243B
:1036000083B0C8220021174801F0EAFAFF234FF4E3
:10361000E1310822144804701248009407464371AF
:103620008160827300F1380101234022103000F0E4
:103630006BFA0123402207F17801009307F1B806E5
:1036400007F1240000F060FA07F1C0053046FDF7ED
:10365000B9F92846FDF7B6F9C7E90746C7E90C549A
:1036600003B0F0BDB8190020B41900200A4A116B4C
:10367000136A61B13BB10023C2E90C33D36100236B
:103680001362012070470120C2E90C337047002B00
:10369000F7D0D161F3E700BFB8190020002210B5C0
:1036A0000E4C0F48237802600271DA0707D59B079A
:1036B0000BD5BDE8104001210A4800F053BC103082
:1036C00000F034FC23789B07F3D4064800F02EFC6E
:1036D000BDE810400121034800F044BCB4190020AB
:1036E000B8190020DC190020F0B54B7983B0022B0B
:1036F00002D18B79022B03D00025284603B0F0BD00
:10370000274FBB783BB14FF0E023D3F8F03DDB0708
:10371000F2D500BEF0E78B7806463B700B78CC18EC
:103720006178242908BF092507D036E023781C4496
:1037300061782B4424299DB207D1AA42F6D20020F9
:10374000FFF74AFE284603B0F0BD0B46052916D008
:10375000042BF4D163790A2BF1D1124B2778019312
:1037600001330093022330461A46E119FFF758FC53
:103770000028C8D00E3517FA85F5ADB2DFE721462F
:103780003046FFF79BFC0028BDD0A3787B702378E0
:103790005A191C44637895B2DAE70B460925D5E738
:1037A000B8190020BA190020137803F06003202B09
:1037B00008D170B5264C938894F800C09C4503D07E
:1037C000002070BD002070475378203B032BF7D8B2
:1037D000DFE803F027230D0201292ED003291ED193
:1037E0001C4BE3B100205188AFF3008017E00129A2
:1037F00023D0032913D15588174805F0010686F018
:103800000101257100F0AEFB144B43B1314600209D
:10381000C5F34002AFF3008001E0012911D001207F
:1038200070BD01290DD00329F9D10D4B002BF6D025
:1038300000200C49FEF7EEFDF1E71146FFF7BCFC56
:10384000EDE711460723074AFFF7D0FCE7E700BF83
:10385000B819002000000000DC1900200000000062
:1038600015240010C01900202DE9F843354E0C46F0
:10387000F27807468A421D463DD0B3788B4212D07B
:103880004FF0E023D3F8F03DDB0732D40020BDE851
:10389000F8832D4B23B12D4800F076F900284DD048
:1038A0000020FFF799FDB378A34201D00120EEE795
:1038B000274B13B10020AFF300800020FFF72EFE4E
:1038C0000028F3D1234800F04FF90028EED1002D55
:1038D000ECD015F03F05E9D13846B178FFF710FC80
:1038E0000028E3D02B462A463846B178FFF72CFC57
:1038F000DCE700BECAE79AB2174906F1100000F0F3
:1039000067FA164B002BC4D07379FF2BC1D0002D62
:10391000BFD0DFF8448008EB050902E0C845B8D005
:10392000737918F8012B9A42F8D1084800F02CF965
:103930000028F3D17179AFF30080EFE7AFF3008097
:10394000AEE700BFB819002000000000C819002031
:1039500000000000DC1900203419002000000000E5
:1039600010B582B0C9B101280CD80B7853B1144CF2
:10397000012B235402D0012002B010BDFEF726FF18
:103980000028F8D14FF0E023D3F8F03DDB0702D454
:10399000002002B010BD00BEFAE70124084601A9CC
:1039A000ADF80440FEF712FF38B94FF0E023D3F82A
:1039B000F03DDA07EDD500BEEBE7014B1C70E8E700
:1039C000F41A0020F8B5037813F001041AD1037833
:1039D00005465A07C3F3800701D52046F8BD0E46B9
:1039E0004FF0FF31304601F027F92B7813F0010436
:1039F0000BD12B785B0709D42B78012443F0040307
:103A00002B7003E000242046F8BD3C46304601F010
:103A1000EBF82046F8BD00BF70B50C4605464FF0E8
:103A2000FF31204601F008F92B78C3F380065B07CD
:103A300008D52B7813F0010311BF00262A7863F311
:103A400082022A70204601F0CFF8304670BD00BFD8
:103A5000C378828803F003000228C2F30A0215D05B
:103A600003280AD001281CD1022940F2FF3308BFE5
:103A70004FF4806393420DD37047022914BF402353
:103A80004FF48063934205D30120704702290AD086
:103A9000402AF9D94FF0E023D3F8F03DDB0700D5F9
:103AA00000BE00207047B2F5007FEDD0F2E700BF06
:103AB0000A44914226D291F801C0BCF1050F05D00D
:103AC00091F800C061448A42F5D8704700B591F87A
:103AD00002C00CF07F0E00EB4E0E4FEADC1C0EF81D
:103AE0000C3091F800C061448A4209D991F801C0B4
:103AF000BCF1050FEBD091F800C061448A42F5D8C3
:103B00005DF804FB704700BF2DE9F041B2F5004FAE
:103B10009DF8188024D80446C06817460E461D46F6
:103B200018B14FF0FF3101F087F8206918B14FF05C
:103B3000FF3101F081F80022C5F30E03E06843EA8B
:103B4000C83362812660A780E380228108B101F03A
:103B50004BF8206908B101F047F80120BDE8F08179
:103B60000020BDE8F08100BF038942899BB292B278
:103B70008088934236BFC2EB40029B1A9B189BB2CF
:103B8000984228BF184670470289438990B29BB279
:103B9000C01AB0FA80F04009704700BF038942891B
:103BA0009BB2808892B2934236BFC2EB40029B1A0E
:103BB0009B189BB2984286BFC01A80B20020704703
:103BC00038B5044600690D4618B14FF0FF3101F0D9
:103BD00033F82189638989B29BB2A288994236BFA2
:103BE000C3EB4200C81A401880B250B3824209D2D7
:103BF00091422CBF891A89188BB29A42638103D8EB
:103C00009B1A9BB29A42FBD9E2882168C2F30E024A
:103C100002FB0311284600F0FBFF6189012589B2F0
:103C20004B1C9BB29942A2880ED9002302FA05F1DF
:103C30005B1A9BB22069638108B100F0D5FF28466A
:103C400038BD054663899BB2B3EB420F4FEA420190
:103C5000F0DBEDE72DE9F04706460069884691461E
:103C600018B14FF0FF3100F0E7FF338974899BB240
:103C7000A4B2B588A34236BFC4EB45071F1BFF188B
:103C8000BFB2002F4AD0BD4240D3B94528BFB94684
:103C9000A5421FFA89F703D8641BA4B2A542FBD939
:103CA000B6F806A02B1B31689BB2CAF30E029F42E6
:103CB000924602FB041123D913FB02F31FFA83F986
:103CC0004A4640467D1B00F0A3FF621912FB0AF230
:103CD000316808EB090092B200F09AFF7289B5884A
:103CE00092B2D3199BB29A421AD96A009B1A9BB21C
:103CF0003069738108B100F077FF3846BDE8F0877E
:103D0000404607FB02F200F083FFE7E7AB422CBF1F
:103D10005B1B5B199CB22F467481B6E773899BB21B
:103D2000B3EB450F4FEA4502E2DBDFE7F8B50446A7
:103D3000C0680E4618B14FF0FF3100F07DFF2589B5
:103D4000238961899BB289B2A2888B4236BFC1EBBD
:103D500042015B1A5B189BB29A42ADB208D8E77970
:103D6000FF0905D1E06808B100F03EFF3846F8BD14
:103D7000954228BF2B4618D39B1A9BB29342FBD285
:103D8000E2882068C2F30E0202FB0300314600F015
:103D90003FFF6B1C9BB29D42A28812D900235100A9
:103DA0005B1A9BB201272381DCE7E2882068C2F31B
:103DB0000E0205FB0200314600F02AFF0135A28801
:103DC000ABB2B3EB420F4FEA4201EBDBE8E700BFD7
:103DD0002DE9F04F174683B0002A75D00646C0681B
:103DE000894618B14FF0FF3100F026FFF379B6F89D
:103DF00008807289DB09B5881FFA88F892B23CD135
:103E0000904536BFC2EB4502A8EB0202424492B293
:103E1000AA425ED2AA1A92B2BA4228BF3A46B6F86D
:103E200006B097B27B1B08EB070ACBF30E0B9BB2D5
:103E30001FFA8AFAA845444603D3641BA4B2AC42D5
:103E4000FBD22D1B3068ADB2BD420BFB040057D333
:103E500049460BFB07F200F0DBFEB288D0454FEA83
:103E6000420302D8BAEB420F03DBAAEB03031FFAAB
:103E700083FA3D46A6F808A02CE0B6F806B0AF429B
:103E8000CBF30E0B2FD2904536BFC2EB4501A8EB0A
:103E90000201414489B2680039447B1B81429BB2D4
:103EA0000DDB02EB050A1FFA8AFAAAEB07081FFAD4
:103EB00088F8424537D9A8EB00001FFA80F807EBD5
:103EC000080A1FFA8AFAB5E71546284603B0BDE886
:103ED000F08F0025F0680028F7D000F085FE284616
:103EE00003B0BDE8F08F002DF4D07F1B02EB050A74
:103EF0000BFB079990462F4600231FFA8AFA99E791
:103F000015FB0BF5ADB22A464946019300F080FE41
:103F1000019B3068E21812FB0BF209EB050192B22B
:103F200000F076FE99E7404584DCC4E710B504460E
:103F3000C06818B14FF0FF3100F07EFE206918B163
:103F40004FF0FF3100F078FE0023E06863812381A9
:103F500008B100F049FE206908B100F045FE0120DB
:103F600010BD00BF38B50446C0680D4618B14FF00B
:103F7000FF3100F061FE206918B14FF0FF3100F011
:103F80005BFEE379E06865F3C713E37108B100F005
:103F90002BFE206908B100F027FE012038BD00BFCC
:103FA0000022014B5A607047281900202DE9F04784
:103FB0000E460546FCF736FA012296F804A096F95B
:103FC000054005F12F4CDFF8B4800CF5600C02FAC7
:103FD0000AF24FEA1C5C002C58F82C7002F1FF32F8
:103FE000CAF1200331DB9C42A64627D802FA04F32B
:103FF0003B4223D1F3795B0732D402FA0EF2174227
:1040000035D13168BAF1000F10D0764601EB4A0A7B
:1040100031F8023B06F11209B3F5005F38BF734473
:10402000514506F1010645F82930F1D13A4348F8E7
:104030002C20FCF709FA2046BDE8F0874FF0FF344A
:10404000FCF702FA2046BDE8F0871C1E02DA0EE0FB
:10405000013C0CD302FA04F33B42A646F8D1C9E76F
:104060006FF00A04FCF7F0F92046BDE8F0876FF026
:104070000804FCF7E9F92046BDE8F0871C1C002085
:104080002DE9F0474FF4003501EB410600EBC60483
:1040900004F5435400EBC606D6F8DCA04FEA41080D
:1040A000D6F8CC90E560BBB14EF2800793FAA3FC42
:1040B000BCFA8CFC22FA0CF503F1FF3E4FEA4C1CD3
:1040C00005F001054CF080643D4313EA0E03C6F889
:1040D000DC40C6F8D850E9D1884400EBC800C0F8ED
:1040E000DCA0C0F8CC90BDE8F08700BFF0B501259A
:1040F00004688D4024EA05040460B3B3D3E9015693
:104100001F68DC6801EB410300EBC303C3F8C87010
:104110004FEA410CC3F8D060C3F8CC50C3F8DC4080
:104120000CEB01034FF0013500EBC30C4FF00046E0
:1041300000EBC30E01230EF5865E0C1D01F108078E
:104140008D40CEF8106003FA04F4CEF8106002F04F
:104150001F028560BB4000F5005004600EF1100E98
:1041600003600020CCF8D820F0BD4FF480374FF426
:1041700040264FF4F83501EB410400EBC404C4F8C9
:10418000C8704FEA410CC4F8D060C4F8CC50C4F8F1
:10419000DC30C5E703BD00BF10B50446FDF7EAFA01
:1041A0002346BDE810401847F0B5054687B01920F2
:1041B00017460E46FCF724FA002104461920FCF7A6
:1041C00009FA0021039704960027002601224FF0E8
:1041D00050438C461648CDE900670595029242701F
:1041E000A9B11A6D9507FCD5596540BF1A6DD00766
:1041F00003D420BF1A6DD207FBD59A6D8A420BD02B
:104200004FF0000C0DEB8C021168E9E79A6D1A6D06
:10421000D607FBD440BFE4E70CF1010CBCF1060F5C
:10422000F0D12146192007B0BDE8F040FCF7D2B923
:10423000601C00200C4B0D4A93420ED39C4603F2A7
:10424000F4710B4A9268CCF8F4070A48CCF8F837B6
:10425000CCF8FC070848FFF7A7BF4FF0FF3340F248
:10426000F3719C46EDE700BF00080820000008201D
:1042700000ED00E09941001095410010024B0A4604
:104280000146186800F002B8D814002038B5A1FB28
:10429000021434BB00F032F8054630B350F8042C59
:1042A00022F00302043A242A0CD8132A0FD91B2A1D
:1042B000C0E9004412D9242AC0E9024418D000F110
:1042C000100205E0214600F08BFC284638BD02466E
:1042D00000232846C2E90033936038BD00F108028C
:1042E000F6E700F0E5FA0C2303600025284638BD08
:1042F00000F11802C0E90444EAE700BF01F10B0332
:10430000162B2DE9F04F074683B023D8102900F271
:10431000AF8000F0AFFA102518230220BA4E3344C4
:104320005C68A3F10802944200F056816368384645
:1043300023F00303D4E902122344CA6091605A684F
:10434000083442F001025A6000F09AFA204603B0A5
:10435000BDE8F08F002B23F00705C0F28980A94249
:1043600000F2868000F086FAB5F5FC7FC0F07B8213
:104370006B0A00F08480042B00F26281AB0903F128
:10438000390003F1380EC3009F4E3344A3F1080CEB
:104390005C68A44507D10DE0002AE16880F216812F
:1043A0008C450C4606D0636823F003035A1B0F2A82
:1043B000F2DD7046DFF868823469444500F0F2802F
:1043C000636823F0030CACEB05030F2B00F374813F
:1043D000002BC6E9048880F26381BCF5007FD6F823
:1043E00004E080F0FF804FEADC0301224FEA5C1C0E
:1043F000013302FA0CF256F833104EEA020E06EBC5
:10440000C302083AC6F804E0C4E9021246F8334091
:10441000CC6083104FF0010C0CFA03FCF44534D847
:104420001CEA0E0F07D120F003004FEA4C0C0430B9
:104430001CEA0E0FF9D006EBC00A8146D646DEF81C
:104440000C300BE05A681C46DB6822F00302511B5B
:104450000F2900F30181002980F215819E45F1D1D9
:1044600009F101090EF1080E19F0030FE7D158E127
:104470000C233B600024204603B0BDE8F08F4FF4CE
:10448000007340204FF03F0E7EE7B468636823F06E
:104490000309A945A9EB050302D30F2B00F385807F
:1044A0005A4B08201B6803F1100804EB0903009322
:1044B00000F008FA564AA84483461368013305D031
:1044C00008F1FF384342804403EA08084146384671
:1044D00000F0DCF9B0F1FF3F82464D4A00F0078161
:1044E00004EB0903834200F200814A4B0BF1FF3CCD
:1044F00018684044186000F064811168013100F0D0
:104500006C8104EB0902AAEB020202441A601AF061
:104510000702CDE9002300F02781C2F108023846E6
:1045200092445A44D04408EA0C01521A02EA0C0B95
:10453000594600F0ABF9421C019B00F06A81A0EBE8
:104540000A0000EB0B08186848F00102B442C6F8F4
:1045500008A05844CAF80420186017D0B9F10F0F0A
:1045600040F23E816168A9F10C024FF0050C22F087
:10457000070201F0010111430F2A616004EB0201FF
:10458000C1E901CC00F24D81DAF80420224B5446F7
:104590001968814238BF1860204B1968814238BFC2
:1045A0001860A6E0D6F804E033E7621945F001058B
:1045B00043F00103083444F8045C3846B2605360A9
:1045C00000F05EF9204603B0BDE8F08FA2682344F6
:1045D0003846D1608A60B2E6DC68A3427FF4A6AEBA
:1045E0000230E7E6BCF5206F4FEA5C2276D3142A4E
:1045F00000F2CD8002F15C035B32DB00F118F3586E
:104600000839994211D1A5E0D0100020EC17002004
:10461000C8100020BC170020E4170020E817002075
:10462000D81000209B68994204D05A6822F00302F7
:104630006245F7D8D968C4E902318C60DC60E8E6ED
:10464000142B63D9542B00F2AB802B0B03F16F00BA
:1046500003F16E0EC30097E6D4F808C03846671918
:1046600045F001056560CCF80C30C3F808C041F096
:104670000103C6E90477C7E902887B60A1500834CA
:1046800000F0FEF8F7E622443846516841F0010197
:10469000516054F8082FD3609A6000F0F1F8EAE610
:1046A000A44438460834DCF8043043F00103CCF865
:1046B000043000F0E5F8DEE6621943F0010145F050
:1046C000010538466560C6E90422C2E902885160E6
:1046D00044F80C30083400F0D3F8CCE64FEA9C12D2
:1046E00002F139033832DB0088E7B44262D0B468A3
:1046F000626822F00308A845A8EB050302D30F2B3C
:104700003FF753AF384600F0BBF8B3E603F15C0067
:1047100003F15B0EC30037E65AF80839534540F001
:10472000A08010F0030F00F1FF30F5D1736823EA89
:104730000C0373604FEA4C0C0CF1FF329A4204D325
:10474000A3E64FEA4C0C09F104091CEA030FF8D068
:10475000484670E692104FF0010C0CFA02F24EEA55
:10476000020EC6F804E066E70AEB0802384602EAE1
:104770000C02ABEB020B0BEA0C0B594600F086F86F
:10478000431C019B7FF4DBAEDDF800B0DBE6542A6E
:104790002AD84FEA1C3202F16F036E32DB002DE79C
:1047A000B3F5AA7F2AD8EB0B03F1780003F1770E5B
:1047B000C300E9E52E4B0BF1FF3C1868404418603C
:1047C0009BE61AEA0C0F7FF498AEC844D6F808A00E
:1047D00048F00102CAF80420D8E6C2F800A096E624
:1047E0000123CAF804308DE7B2F5AA7F24D84FEA36
:1047F000DC3202F178037732DB00FFE640F25452FC
:10480000934224D8AB0C03F17D0003F17C0EC3006E
:10481000BAE5009A4FF0000B083A9044A8EB0A085A
:1048200091E6384604F10801009300F0E3F8009B9C
:10483000D6F808A01868A7E640F254539A420CD85C
:104840004FEA9C4202F17D037C32DB00D6E64FF456
:104850007E737F204FF07E0E96E54FF47E737E22AE
:10486000CCE6736866E7E80805F1080356E500BF83
:10487000BC170020014800F021B800BFB817002085
:10488000014800F01DB800BFB817002038B500225D
:10489000064D044608462A60FDF7B8F8431C00D0D0
:1048A00038BD2B68002BFBD0236038BD941C002042
:1048B000014B1868704700BFD8140020704700BF34
:1048C000704700BF082802D14FF48050704708B5E8
:1048D000FFF7EEFF162203464FF0FF301A6008BDC7
:1048E00020F0030110F00300C0F1000051F8043B78
:1048F00000F1040C4FEACC0C6FF000021CBF22FA4E
:104900000CF213434FF0010C4CEA0C2C4CEA0C4C0B
:10491000A3EB0C0222EA030212EACC1204BF51F804
:10492000043B0430F4D0C2F1000102EA0102B2FA01
:1049300082F2C2F11F0200EBD20070472DE9F8436A
:104940000646DFF8AC8008208946FFF7BBFF054626
:104950003046FFF78FFFD8F808305F6827F003076D
:10496000A7F11104A4EB09042C44B4FBF5F4013CB9
:1049700005FB04F4A54208DC00213046FFF786FF62
:10498000D8F808303B44984205D03046FFF778FF0E
:104990000020BDE8F88361423046FFF777FF013021
:1049A0000FD03F1B104AD8F80830304647F00107B7
:1049B0005F6013681B1B1360FFF762FF0120BDE8F7
:1049C000F88300213046FFF761FFD8F80820831AEA
:1049D0000F2BDADD43F0010303495360034B1B68DF
:1049E000C01A0860D1E700BFBC170020C810002023
:1049F000D010002000295AD0F8B50C460746FFF722
:104A000039FF734D54F804CCA4F10802A8682CF0C7
:104A100001030CF0010ED1184E68884226F00306FF
:104A20007CD088194E60406800F00100BEF1000F94
:104A30002ED154F8084C05F1080C121B234494683D
:104A4000644560D0D2F80CE0C4F80CE0CEF8084021
:104A500000287DD043F0010050600B60B3F5007F6B
:104A60002ED25809D90801238340686801310343D5
:104A700055F831006B6005EBC103083BC2E9020346
:104A800045F83120C2603846BDE8F840FFF7F8BE6F
:104A900070B9334405F1080C886843F0010460459F
:104AA0006ED0C968C16088605460D350D6E7704743
:104AB0004CF00101B3F5007F44F8041CD350D0D36F
:104AC000B3F5206F4FEA532144D2990901F139001F
:104AD00001F13804C100681869580838884203D1C8
:104AE00055E08968884204D04C6824F003049C4255
:104AF000F7D8C868C2E9021082603846CA60BDE8CB
:104B0000F840FFF7BDBE80BB1E44D1E90213CB6065
:104B1000996046F0010353609651B4E71E44BEF11C
:104B2000000F07D154F8083CD21A1E44D2E90213F0
:104B3000CB60996046F001035360264BAA601B6866
:104B4000B342A0D8244B38461968FFF7F7FE9AE71E
:104B50003344A1E714290DD954291FD8190B01F1A9
:104B60006F0001F16E04C100B5E743F00100506031
:104B70000B6088E701F15C0001F15B04C100AAE76A
:104B8000C5E90422C2E902CC5460D3507BE7A410EB
:104B90000123A3406C6823436B60ABE7B1F5AA7FA8
:104BA00006D8D90B01F1780001F17704C10092E732
:104BB00040F25450814206D8990C01F17D0001F178
:104BC0007C04C10087E74FF47E717E2483E700BF39
:104BD000D0100020CC100020EC17002000000000B6
:104BE0005FF800F0550E00205FF800F0F1020020A1
:104BF0005FF800F0FD0A00205FF800F0250B0020B0
:104C00005FF800F0390300205FF800F0590B002036
:104C10005FF800F0F10E00205FF800F09D01002029
:104C20005FF800F09D0B00205FF800F011010020FC
:104C30005FF800F0810200205FF800F0B902002068
:104C40002118001095170010C9170010B118001096
:104C500001180010F916001049180010E516001090
:104C6000790900104D180010490D0010451700106B
:104C700035180010E51700106D050010950500109F
:084C8000A13F00109521001076
:104C8800904C001009FF01003EE001504100015026
:104C98003EE80158450801583EE000000A2A2A2A41
:104CA8002050414E4943202A2A2A0A004E6F207379
:104CB80070696E6C6F636B732061726520617661D9
:104CC800696C61626C6500004E6F207573657220B7
:104CD800495251732061726520617661696C616225
:104CE8006C650000486172647761726520616C616F
:104CF800726D20256420616C726561647920636C33
:104D080061696D65640000004861726420617373B5
:104D1800657274004F7574206F66206D656D6F72D3
:104D28007900000052656C6561736500626F6F748D
:104D3800325F77323571303830000000322E332E32
:104D4800300000007069636F320000007261775FA5
:104D5800747800004A756C203139203230323600C0
:104D680055534220737464696E202F207374646FE6
:104D780075740000526173706265727279205069AF
:104D8800000000005069636F00000000426F61720C
:104D980064204344430000005265736574000000BA
:104DA800556E68616E646C65642049525120307894
:104DB80025780A00657020253032582077617320E5
:104DC800616C726561647920617661696C61626C9D
:104DD8006500000043616E277420636F6E74696E0E
:104DE80075652078666572206F6E20696E616374E0
:104DF80069766520657020253032580006005250CB
:104E0800D3F075422C4D001006005250E182887F85
:104E1800344D001006005250ABB36053444D00109F
:104E280006005250BBFF3CB64C4D001006005250D5
:104E3800861C0302544D0010060052505422A29DB5
:104E48005C4D001005005250DE65F4685065001096
:104E58000D0A00000600525053B4F4A1684D00102A
:104E6800000000007C4D00108C4D0010FC2000203C
:104E7800944D0010A04D0010090254000301008059
:104E88007D080B0002020200000904000001020272
:104E98000004052400200105240100010424020661
:104EA8000524060001070581030800100904010014
:104EB800020A0000000705020240000007058202FE
:104EC8004000000904020000FF0001051201100261
:104ED800EF0201408A2E09000001010203010000CF
:104EE8000A00000000000306A600080002000200F5
:104EF8009C001400030057494E555342000000001F
:104F080000000000000080000400010028004400A8
:104F18006500760069006300650049006E00740052
:104F28006500720066006100630065004700550077
:104F38004900440000004E007B0062006300370017
:104F4800330039003800630031002D00370033008A
:104F5800630064002D0034006300620037002D00F8
:104F680039003800620038002D0039003100330064
:104F78006100380066006300610037006200660067
:104F880036007D0000000000050F2100011C1005FF
:104F980000DF60DDD88945C74C9CD2659D9E648A38
:104FA8009F00000306A600010000000000000000AA
:104FB80049230010000000004D2300105923001061
:104FC800852300108123001000000000000000006D
:104FD800FD3500106D3600109D360010E9360010C2
:0C4FE800A937001069380010000000001C
:084FF400FCBEFF0F01000000EC
:104FFC00044E0010104E00101C4E0010284E0010D5
:10500C00344E0010404E00104C4E00105C4E001000
:10501C004FF0504330B5026893F900E0EFF3108382
:10502C0072B6D2E8CF4F0121002CFAD1C2E8441F4E
:10503C00002CF6D1BFF35F8F90F90420002A21DBFE
:10504C004FF0000C144C22780168D2B2C1E88FCF1B
:10505C0083F310882378934200D120BF20BF0268CD
:10506C00EFF3108372B6D2E8CF5F0121002DFAD195
:10507C00C2E8451F002DF6D1BFF35F8F90F90420D5
:10508C00002AE0DA0022016880F804E0C1E88F2FE2
:10509C0083F3108830BD00BF12210020034600B5F9
:1050AC000268EFF3108C72B6D2E8CFEF0120BEF19C
:1050BC00000FF9D1C2E84E0FBEF1000FF4D1BFF3CF
:1050CC005F8F93F90420002A0ADB01B10A600020EB
:1050DC0000221B68C3E88F2F8CF310885DF804FB4B
:1050EC004FF05042126801201A71F1E74FF0504115
:1050FC002DE9F8430027044616461D46DFF87C9040
:10510C00D1F800802168EFF3108372B6D1E8CF0F8D
:10511C0001220028FAD1C1E8402F0028F6D1BFF3B4
:10512C005F8F94F90410226800291CDB99F800C0E9
:10513C005FFA8CFCC2E88F7F83F3108899F80030FB
:10514C00634508D03046294600F0D6FE0028D9D059
:10515C000020BDE8F88320BF3046294600F0CCFE85
:10516C000028CFD0F4E7002184F80480C2E88F1F18
:10517C0083F310880120BDE8F88300BF12210020C2
:10518C0070B582B001A9064615461C46FFF786FF8E
:10519C0038B94FF050439DF9042093F900309A42EE
:1051AC0001D102B070BD2A462346304602B0BDE89C
:1051BC007040FFF79BBF00BF70B505460C4600F072
:1051CC008FFE02460B464FF47A704FF0FF3E6FF0A5
:1051DC00004CE4FB002396457CEB030138BF724680
:1051EC002846BDE8704038BF6346FFF77FBF00BF5D
:1051FC000368EFF3108172B6D3E8CFCF0122BCF174
:10520C00000FF9D1C3E84C2FBCF1000FF4D1BFF360
:10521C005F8F4FF0FF0C074A80F804C013780133FE
:10522C00DBB2137000230268C2E88F3F81F3108851
:10523C0040BF704712210020002108B5134B4FF4DA
:10524C00707299601248D960196159619961D9617C
:10525C00196259629962D962196359639963D96366
:10526C00196459649964D964196559659965D96546
:10527C00196659669966D966196759679967D96726
:10528C0000F068FD034B044A1A6008BD0000105082
:10529C00E01C0020A8200020800110502DE9F04FC8
:1052AC001F4B85B0D3F858A0BAF1000F22D00024C0
:1052BC0001254FF4E069DFF870801A4F01E0202CD3
:1052CC0018D00AEA0502611C2346AB46CCB26D002D
:1052DC00002AF4D004F0010203F0FE06164407EB9A
:1052EC0046163046C8F858B000F00AFC28B93AEA1D
:1052FC000B0AE4D105B0BDE8F08F00238DF809301E
:10530C00B37801A88DF80830F38A0121ADF8049028
:10531C00039300F013FC304600F098FBE7E700BF66
:10532C0000001150A01C002000301150F0B5BB4BF8
:10533C0085B0D3F8985015F4003674D0B84BB94CEE
:10534C00996A94F83B30B84A022B116000F0D48073
:10535C00002694F87B30022B00F03B8194F8BB3094
:10536C00022B00F07D8194F8FB30022B00F06C8155
:10537C0094F83B31022B00F0448194F87B31022BE2
:10538C0000F0338194F8BB31022B00F0B68194F815
:10539C00FB31022B00F0A68194F83B32022B00F07B
:1053AC00968194F87B32022B00F0868194F8BB3204
:1053BC00022B00F0768194F8FB32022B00F0668110
:1053CC0094F83B33022B00F0568194F87B33022B7C
:1053DC0000F0A48094F8BB33022B00F0998194F870
:1053EC00FB33022B00F0B4803EB9904B1B7823B9F1
:1053FC004FF400328E4BC3F890204FF44072874B21
:10540C0001219B6C01A8C3F30A03ADF8042002939D
:10541C0000F094FBEA064FF40036864C07D5FFF7F4
:10542C003DFF264603E0EA064FF01004F7D4EB03E9
:10543C0022D57C4C46F48036A37E002B40F099801C
:10544C00012394F83A20E370002A40F0AD80012348
:10545C004FF4C061784A84F82330ADF8041092E818
:10546C00030004AA02E90300194601A800F066FB38
:10547C004FF400326E4B1A65E90408D46A041DD44B
:10548C002B042AD4AE4240F0C58105B0F0BD0024F7
:10549C00624B46F480561C60FFF7CEFE4FF48073CF
:1054AC00012101A8ADF804308DF8084000F046FB4E
:1054BC004FF400225E4B1A656A04E1D54FF4806309
:1054CC00012101A8ADF8043000F038FB1022584B34
:1054DC0046F480461A652B04D4D54FF4A063012101
:1054EC0001A8ADF8043000F029FB4FF40062504BDA
:1054FC0046F400461A65C5E794F83A60002E3FF46E
:10550C0028AF94F83C30002B3FF423AF002304F178
:10551C00200084F83C3000F0C1FA1AE794F87A7352
:10552C00002F3FF457AF94F87C33002B40F064818C
:10553C0094F8BB33022B40F0F48094F8BA33002B70
:10554C0040F0EB8094F8FB33022B7FF456AF3E46D1
:10555C0094F8FA33002B3FF447AF94F8FC33002B4C
:10556C003FF44BAF0023354884F8FC3300F096FA37
:10557C0043E70221324B294A1966536E9F07FCD52B
:10558C004FF440520021274800F066FA254800F0FD
:10559C005DFA0222264B5A661A66012394F83A20C9
:1055AC00E370002A3FF453AF254A1366A2F500526C
:1055BC00536ED807FCD54FF440520021214800F01F
:1055CC004BFA204800F042FA0122194B5A661A662F
:1055DC003DE794F87A70002F3FF4C0AE94F87C301D
:1055EC00002B40F001813E46B8E694F87A71002F0A
:1055FC003FF4C8AE94F87C31002B40F0ED803E4671
:10560C00C0E694F83A71002F3FF4B7AE94F83C31F1
:10561C00002B40F0D9803E46AFE600BF0000115091
:10562C0000000B40A01C0020901C00200E2100202C
:10563C00003011501000020000001050802000209B
:10564C0000201150C01C002094F8FA70002F3FF479
:10565C008FAE94F8FC30002B40F08E803E4687E6EF
:10566C0094F8BA70002F3FF47EAE94F8BC30002B47
:10567C007AD13E4677E694F83A73002F3FF4A5AE04
:10568C0094F83C33002B57D13E469EE694F8FA72C0
:10569C00002F3FF495AE94F8FC32002B5CD13E46C3
:1056AC008EE694F8BA72002F3FF485AE94F8BC32B3
:1056BC00002B49D13E467EE694F87A72002F3FF4D7
:1056CC0075AE94F87C32002B76D13E466EE694F89B
:1056DC003A72002F3FF465AE94F83C32002B63D144
:1056EC003E465EE694F8FA71002F3FF455AE94F8FE
:1056FC00FC31002B50D13E464EE694F8BA71002F87
:10570C003FF445AE94F8BC31002B3DD13E463EE60D
:10571C0094F8BA33002B3FF462AE94F8BC33002BF0
:10572C0071D194F8FB33022B7FF467AE94F8FA3303
:10573C00002B3FF462AE10E70023394884F83C3369
:10574C003E4600F0ABF940E60023364884F8BC3204
:10575C003E4600F0A3F92EE60023334884F8FC32D1
:10576C003E4600F09BF92BE60023304884F8BC3011
:10577C003E4600F093F9F6E500232D4884F8FC3002
:10578C003E4600F08BF9F3E500232A4884F8BC313F
:10579C003E4600F083F9FAE50023274884F8FC31F3
:1057AC003E4600F07BF9F7E50023244884F83C32B0
:1057BC003E4600F073F9F4E50023214884F87C326E
:1057CC003E4600F06BF9F1E500231E4884F83C31AD
:1057DC003E4600F063F9D0E500231B4884F87C3189
:1057EC003E4600F05BF9CDE50023184884F87C3088
:1057FC003E4600F053F9B1E50023154884F87C339C
:10580C0000F04CF994E60023124884F8BC3300F005
:10581C0045F986E7104886EA050100F069FB00BFF0
:10582C00C01F0020401F0020801F0020401D0020B2
:10583C00801D0020401E0020801E0020C01E002065
:10584C00001F0020C01D0020001E0020001D002095
:10585C000020002040200020A84D00102DE9F0472A
:10586C00848A058BC278A54228BF2546171E18BF0F
:10587C000127641B467882F00102A4B20346C27071
:10588C00848245F4806040EA4730A6BBD3E9032606
:10589C006F1E02EB811E55B3052F98BF721C31D9B8
:1058AC0002EB811C721CACEB0204022C2AD932468E
:1058BC004FEA95094FEA890A06EB890852F8044B1E
:1058CC0042454CF8044BF9D15545A7EB0A070EEBB2
:1058DC000A040AD016F829600EF829602FB1567800
:1058EC00012F667001D09278A2701E699C8A2E449A
:1058FC001E6140F400400CB940F4804001B100043A
:10590C00BDE8F0870EF1FF3E2E4400E0013212F8A4
:10591C00014CB2420EF8014FF8D1E6E7836802461B
:10592C00186801B1000C5378C0F30900002B3CD06F
:10593C002DE9F041D2E90334461E03EB811E40B33E
:10594C00052E3BD989014D1C1D44651B022D35D9F3
:10595C007346214600F47F774FEA9008FD1853F800
:10596C0004CBAB4241F804CBF9D1B842A6EB070605
:10597C0004EB07030EEB07010AD01EF8285004F8BD
:10598C0028502EB14C78012E5C7001D0897899701A
:10599C001469D38A04440344D382138B1461834265
:1059AC0084BF00239382BDE8F081D38A0344D38261
:1059BC00138B834284BF002393827047013C0EEB10
:1059CC0000011EF8013B714504F8013FF9D1DFE7F6
:1059DC0010B50446836800211B68FFF79FFF6368BE
:1059EC001B685B0002D5238B834200D010BD204680
:1059FC00BDE810400121FFF791BF00BF084B1B6CA5
:105A0C0013F0020302D18278D20901D10020704731
:105A1C00C07EA0F10200B0FA80F04009704700BFD0
:105A2C000000115008B5FFF7E9FF50B1054A064BCD
:105A3C00906A1B68A0F54870C01AC6288CBF00205D
:105A4C00012008BD00000B40901C00200023C0E981
:105A5C0004338376704700BF10B5836809B11C68A6
:105A6C00214082B1114352050DD51A6854050CD44E
:105A7C00084A21F480641C60126C920703D40C2336
:105A8C00033BFDD28368196010BD8178024800F099
:105A9C002FFA00BF00001150BC4D001030B5436808
:105AAC00002183B004461D68FFF7D8FE134B40F469
:105ABC008052196CA37889070ED55B060ED025F0A1
:105ACC00A04545F000550021204663681D6003B0D9
