:020000041000EA
:10000000002008205B0100101B0100101D010010E2
:100010001101001011010010110100101101001058
:100020001901001019010010190100101F01001022
:10003000110100101901001021010010230100100E
:100040001101001011010010110100101101001028
:100050001101001011010010110100101101001018
:100060001101001011010010110100101101001008
:1000700011010010110100101101001011010010F8
:1000800011010010110100101101001011010010E8
:1000900011010010110100101101001011010010D8
:1000A00011010010110100101101001011010010C8
:1000B00011010010110100101101001011010010B8
:1000C00011010010110100101101001011010010A8
:1000D0001101001011010010110100101101001098
:1000E0001101001011010010110100101101001088
:1000F0001101001011010010110100101101001078
:100100001101001011010010110100101101001067
:10011000EFF30580103800BE00BE00BE00BE00BE7A
:1001200000BE00BEF2EB8871607D0110807D011081
:100130009C01001090A31AE7D3DEFFFF42012110BB
:10014000FF010000F8890300793512AB00201E4939
:10015000086006C881F3088810474FF050400068D7
:1001600008B10020F3E70DA40ECC002902D000F066
:1001700012F8F9E71549164A002000E001C1914242
:10018000FCD114498847144988471449884700BE60
:10019000FDE701C901C29A42FBD37047807D01107F
:1001A00010010020C00E0220308B03100000082038
:1001B00000000820308B03100010082000100820D9
:1001C000000000007047000008ED00E0C00E0220B3
:1001D000B0190220293D001015020010ED3C00105E
:1001E00010B50A4C82B06368DA05FCD4226A6368F1
:1001F000DB05FCD4C2F3CF330DF106010448226ABB
:10020000ADF8063001F036F8EDE700BF00002050F1
:10021000741902202DE9F04F89B003F0BBFE1920BC
:1002200000F0E8F819234FF0010242EC44300421B9
:100230000B2000F0C1F810252423574A574C95662F
:100240005367136F4FF4E13183F490136FF30F038F
:100250002367536E5248DB4303F00103636601F0EA
:1002600097F80221002000F0A7F80221012000F0F9
:10027000A3F8002006F0B4F90446019006F05CFCF7
:100280008246204606F04EFC81464FEA4A05284643
:10029000CDF8089003F04EFC8046484603F04AFC37
:1002A000074600F06BF93F4C03462A4602213E48C0
:1002B00000F0CCFF20463D4906F02AF84FF4102309
:1002C00006934FF41403064600F108020493C30199
:1002D00043EA023323F0C0430593354B062108203F
:1002E000079300F069F80621092000F065F806215F
:1002F0000A2000F061F820464FF4E0634FF4C0623A
:10030000002106F06FF832460021204604AB06F0CB
:100310009FF84FF460430026C4F8D830236825487E
:1003200043F0010323601E4C06F036F94544039662
:1003300007EB090BBAF1000F08DDC14649461A4820
:1003400009F1020900F0D6FF4D45F7D14246394682
:10035000019806F005FCA3699906FCD4AA23236042
:10036000A3699A06FCD455232360029B43B13A4605
:10037000A3699B06FCD412F8013B5A452360F7D1D0
:100380000136192ED6D1039B83F00103039343EC6E
:1003900040600026CEE700BF00800A4000900A407F
:1003A0000000074000002050741902200869011065
:1003B00000240440E101001010B44FF480740C4B91
:1003C00053F8202003EB8003C00082F0400200F1CC
:1003D000804003F5805C02F0C00200F5203003F598
:1003E0004053CCF8002041601C605DF8044B70471E
:1003F0000480034030B44FF0000343EC440043EC6E
:10040000400005254FF480740B4BC20053F82010B8
:1004100003EB800081F0400102F1804303F52033BB
:1004200001F0C00200F5805100F540500A605D60A7
:10043000046030BC704700BF048003400FB400B5B7
:1004400083B0049C074803F0E9FD3CB105A92046B0
:10045000019103F0E3FB044803F0E0FD012003F009
:10046000F5FB00BF24690110406E0110EFF310800E
:1004700072B6064BD3E8CF1F01220029FAD1C3E898
:10048000412F0029F6D1BFF35F8F70477713022009
:100490000023034AC2E88F3F80F31088704700BFF3
:1004A0007713022070B58646EFF3108572B6124CB2
:1004B000D4E8CF6F0120002EFAD1C4E8460F002EF9
:1004C000F6D1BFF35F8F4FF0010CC80801F00703AE
:1004D0000CFA03F31EF800C01CEA030608D14CEA2C
:1004E000030C0EF800C0C4E88F6F85F3108870BD50
:1004F0001046FFF7A3FF00BF77130220F8B5EFF314
:10050000108772B61C4ED6E8CF5F0124002DFAD1B9
:10051000C6E8454F002DF6D1BFF35F8F9A421BD836
:10052000012502E00132934222D3D40810F804E0FE
:1005300002F0070C05FA0CFC1EEA0C0FF2D14EEA91
:100540000C0E00F804E010460023C6E88F3F87F346
:100550001088984207DBF8BD0023C6E88F3F87F379
:1005600010884FF0FF300029F5D00698FFF766FF9E
:100570004FF0FF30E8E700BF77130220044A1078FD
:10058000431CDBB2182B28BF10231370704700BF29
:100590005815002010B5054C82B001461F231822C3
:1005A00000940348FFF7AAFF02B010BD34690110A0
:1005B000C81402204FF0E022936843F00053936088
:1005C000704700BF0021044B03F12002C3E88F1FD6
:1005D00001339342FAD170476C1302204FF0E023AD
:1005E0004FF08032C3F80024C3F80424C3F8082471
:1005F000C3F80C24C3F81024C3F81424C3F8182437
:10060000C3F81C24C3F82024C3F82424C3F82824E6
:10061000C3F82C24C3F8302462B67047012300F0DD
:100620001F029340400941B1800000F1604000F595
:100630006140C0F8803103607047024A203042F8C0
:100640002030704700E100E00123064A410952F8DA
:10065000212000F01F0003FA00F01040003818BFFE
:100660000120704700E100E001224309034900F046
:100670001F008240403341F82320704700E100E032
:10068000054A10309268054B52F82000C01A4728DE
:100690008CBF00200120704700ED00E05C150020B9
:1006A00010B5EFF3108C72B6114BD3E8CF4F012287
:1006B000002CFAD1C3E8442F002CF6D1BFF35F8F92
:1006C0000C4A103092680C4C52F82020A24201D003
:1006D00091420BD1074A926842F82010BFF35F8F16
:1006E0000022C3E88F2F8CF3108810BD01F050F862
:1006F0007513022000ED00E0110100102DE9F04F0C
:100700000B4683B0EFF3108A72B6DFF8A891D9E8F0
:10071000CF4F0121002CFAD1C9E8441F002CF6D19B
:10072000BFF35F8F5D4991F90080B8F1000FC0F20F
:10073000B3805B4C08EB480704EB8705AE791030BB
:100740000E7058494FEA48068968009651F8201003
:10075000BF000E1B472E34D821F0010E9EF8076013
:10076000964209D871E00CEB4C0604EB860696F82D
:1007700007B093454ED9B6469EF906C0BCF1000FAE
:10078000F1DA4BF601560EF1040B043DA5EB0B0517
:10079000C5F34A056FEAC545009F6FEAD545474452
:1007A000BB468EF80680DFF8088104EB8707AEF8B9
:1007B000045044F82B80BE8087F806C0FA71BB60F5
:1007C0001AE0394EB14267D1AB60384BEA71BA1CBE
:1007D0002244043B9B1AC3F34A036FEAC3434FF41A
:1007E00021426FEAD343E2536B80FF224BF6015361
:1007F000AA71AB8045F001012A4B9B6843F8201099
:10080000BFF35F8F0023C9E88F3F8AF3108803B0DE
:10081000BDE8F08FF3463BF8046F76050FD47615EC
:1008200002360BEB460601966FF00706F61B019F9A
:10083000361B3E44C6F34A0646F46046A5E706F575
:10084000FF1606F5FF561F36E9E7AB606FF00703AA
:10085000EA714FF42142DB1B1B1B7344C3F34A06AE
:10086000124BE25302372744043BDB1BA2F5414203
:10087000C3F34A0313433243AA800D4A6B804AF6FE
:10088000AA2173461B1B5B415943090DA971CEF880
:10089000002045F00101AFE700F07AFFA81902201F
:1008A0005C15002000ED00E011010010A4150020EF
:1008B0000148804775130220F0B5EFF30585EDB2CE
:1008C000EFF3108C72B62C49D1E8CF2F0123002A08
:1008D000FAD1C1E8423F002AF6D1BFF35F8F274E1D
:1008E00040F0010EB4684AF6AA2354F82570244A51
:1008F0000446A41A644163431B0D77455BB223D0C1
:1009000092F906409C4224D092F912409C422BD08E
:1009100092F91E409C4229D092F92A409C4227D04D
:1009200092F936409C4225D092F942409C4208BF41
:1009300005240FD0134A0024157813708571C1E87F
:100940008F4F8CF31088F0BDB2680F4C42F82540F1
:10095000F0E7002404EB440402EB8402FF249471CA
:100960004BF601549480E5E70124F3E70224F1E714
:100970000324EFE70424EDE77513022000ED00E007
:100980005C150020A81902201101001010B5074CB9
:1009900082B001460523002200940548FFF7AEFD12
:1009A0000028A8BFC0F1330002B010BD506901108B
:1009B000AD190220014B0B44036070476C130220F9
:1009C00070B5104C104DAC420ED2FF26236863B1B7
:1009D000FFF7D4FD01462046FFF7ECFFA680BFF3EA
:1009E0005F8F0834AC42F1D370BDFFF7C7FD0146FD
:1009F0002046FFF7DFFF2671BFF35F8F0834AC425C
:100A0000E4D370BD4C0E02205C0E022010B50446EB
:100A1000FFF7B4FD01462046FFF7CCFFFF2323710B
:100A2000BFF35F8F10BD00BF10B504460120FFF774
:100A3000B1FD034B03442360BFF35F8F10BD00BFC4
:100A40006C130220024B0B440360BFF35F8F7047AF
:100A50006C13022010490B68EFF3108072B6D3E8D4
:100A6000CFCF0122BCF1000FF9D1C3E84C2FBCF16C
:100A7000000FF4D1BFF35F8F084A4FF0000C1378DA
:100A800009680133DBB21370C1E88FCF80F310889F
:100A900040BF00200021704784190220AA190220BB
:100AA0002DE9F04F2DED028B85B0EFF30583DBB21E
:100AB000103B9A0818BF01224FF0010103F0030B0D
:100AC00018BFAF4DAF4B08BFAF4D0BEB820253F8D1
:100AD000226001FA0BF205F541539FEDA78B0192BD
:100AE0005A602FE0B3881C0440F19380B379002B47
:100AF00040F0DD80B6F90820002AC0F21E8173693B
:100B000002EB420203EBC203D3E90247B7F1FF3F16
:100B100008BFB4F1FF3F0ED005EB8B01AB6A0A6949
:100B2000D21AE31A934205D301232A6A03FA0BF37C
:100B3000134200D10C61284600F048FBA042B941A5
:100B4000C0F2FB80B6F90830019A002B0093EA63EB
:100B5000C8DBD6F8148003EB4309284608EBC90725
:100B6000D7E9024A00F032FBA04271EB0A01B9DB7F
:100B7000BAF1000FC0F2C380D7E90431834A93422F
:100B800000F0ED807A88B6F9080092B242EA00409F
:100B9000984702460B4652EA030100F0B080002B52
:100BA00080F2D180B4EB020E6AEB030A38F93930D7
:100BB000C7E902EA002B95DB716903EB430201EB05
:100BC000C202D2E90270BE457AEB000C4FEA430242
:100BD00088DBB4462CF8083F06E003EB430001EB4A
:100BE000C0005A00D0E90270BE451A447AEB0000FA
:100BF00001EBC20404DB31F93230A446002BECDAFD
:100C000028F83930009BACF80030B3881C043FF55D
:100C10006DAF3369EFF3108272B6D3E8CF0F0121C5
:100C20000028FAD1C3E8401F0028F6D1BFF35F8F38
:100C30004FF6FF74B0880023316900B2B480C1E878
:100C40008F3F82F310889842FFF650AF0746A946BF
:100C5000746906F1080807EB470E04EBCE03D3E9ED
:100C60000250B6F90830C446002B13DBB246009799
:100C700004E034F936309446002B09DB03EB4306DD
:100C800004EBC602D2E90271BD4270EB0101F0DA59
:100C90005646009FACF8007034F93E7024F83E30A0
:100CA000002FD8DAB3794D46002B3FF423AF002351
:100CB000B371B6F9083006F10808581C3DD01A4641
:100CC000776903E08046591C3FF416AF03EB4301FC
:100CD00007EBC100B0F802C01C461CF4004F9E4652
:100CE00037F93130EED0944280ED028B05D0A8F870
:100CF0000030328927F8312034817246E3E738F832
:100D0000393033813369EFF3108272B6D3E8CF0FF5
:100D100001210028FAD1C3E8401F0028F6D1BFF313
:100D20005F8F7388316928F83930009B7380002306
:100D3000C1E88F3F82F31088D4E640BF05B0BDEC18
:100D4000028BBDE8F08F2846CDE9022300F03EFA81
:100D5000029A039B10EB020E43EB010A26E70846BA
:100D60000B69029198470028C9D00299D1E9002364
:100D700011E700BFAFF30080FFFFFFFFFFFFFFFFA2
:100D800000800B404C19022000000B40A10A00100B
:100D90002DE9F84F364C25692DB1BDE8F84F0A21F1
:100DA0003448FFF707BEDFF8E4800321404600F037
:100DB000FBF90326C4F80C80FFF7E0FB4FF0504C22
:100DC0002D4B267003442361DCF800300F21637043
:100DD000636961801D834FF00405A3F878504FF0DC
:100DE0000505A3F890504FF00605A3F8A8504FF062
:100DF00007050E214FF6FF7208274FF00A0EA3F8E1
:100E0000C0504FF001094FF00C0C4FF0020B4FF0A7
:100E1000090A0D204FF00B05A3F868111749A280AD
:100E2000A3F808E1A160A3F848B0A3F8F0A0A3F8E4
:100E30002051A3F838C1A3F85001A3F83090A3F8CB
:100E40006060A3F8D8701A800D4B3046C8F8207047
:100E50000C49DC60FFF724FC49463046FFF7DEFB17
:100E6000094B0A211F640348BDE8F84FFFF7A2BDF4
:100E7000C8150020841902206C130220FFFF100007
:100E80004C190220A10A001000200B4000000B406A
:100E900000487047C8150020F8B59DF8205004465A
:100EA00017461E4635B900F099F9874266EB0101F5
:100EB00000295CDB2169EFF3108372B6D1E8CF0F14
:100EC00001220028FAD1C1E8402F0028F6D1BFF353
:100ED0005F8FB4F90220656902EB4201002A4FEAF4
:100EE000C10C206905EBC10139DB35F80CE0A4F831
:100EF00002E04FF0000EC0E88FEF83F310884888BF
:100F0000069B0130C0F30E00012838BF01200B61A1
:100F1000079B48804B61C1E9027640EA02402369A1
:100F2000EFF3108172B6D3E8CF7F0126002FFAD1FC
:100F3000C3E8476F002FF6D1BFF35F8FA38825F872
:100F40000C30A2802369C3E88FEF81F3108801225F
:100F5000E368217803F501538A405A60F8BD002206
:100F6000C0E88F2F83F310884FF0FF30F8BD28467C
:100F7000F8BD00BF0146F0B50069EFF3108772B607
:100F8000D0E8CF5F0124002DFAD1C0E8454F002DF5
:100F9000F6D1BFF35F8FB1F902E04C690EEB4E0C56
:100FA000BEF1000F4FEACC05086904EBCC0C3CDB2A
:100FB000665B4E800026C0E88F6F87F31088BCF810
:100FC0000200CCE902230130C0F30E00012838BF33
:100FD0000120059BACF80200CCF81030069B40EADB
:100FE0000E40CCF814300B69EFF3108272B6D3E8E0
:100FF000CFCF0127BCF1000FF9D1C3E84C7FBCF182
:10100000000FF4D1BFF35F8F8B886353A1F804E026
:101010000B69C3E88F6F82F310880122CB680978CF
:1010200003F501538A405A60F0BD0023C0E88F3FAA
:1010300087F310884FF0FF30F0BD00BF03464089B2
:10104000B0EB214F37DD58690A1402EB420210B5AC
:1010500000EBC2001C69EFF3108C72B6D4E8CFEF3E
:101060000122BEF1000FF9D1C4E84E2FBEF1000FEE
:10107000F4D1BFF35F8F428889B292B28A4207D01F
:1010800000221B69C3E88F2F8CF31088002010BD4D
:1010900042F4004242800121002218699971C0E89F
:1010A0008F2F8CF310881C78DA68084602F50153FC
:1010B000A140596010BD0020704700BF40787047C4
:1010C0002DE9F04705460C4682B0EFF30587FFB2E5
:1010D000002F38D1304ED6E900238B4208BF824220
:1010E00039D0DFF8C080D8F80CA098F800905046AE
:1010F00000F06CF809F104095AF829301B1A281A73
:1011000064EB0101984271F1000124DA00F066F805
:10111000854264EB010100292DDB204B4046009302
:101120002A4623460197FFF725FF011E23DD1C4BAE
:10113000C6E900545A6AA2422CD39B6AAB4227D319
:101140001848FFF77BFF164B5A6AA24208D20020CC
:1011500002B0BDE8F08720BF114B5A6AA242F6D315
:1011600014BF012000209B6AAB4228BF40F0010061
:1011700002B0BDE8F0870A4B586AA042E7D3001BD3
:1011800018BF01209B6AAB4228BF40F00100EFE787
:10119000A242D5D120BFD3E7C0150020550A0010C8
:1011A00000000B40C815002010B4054B054C064A42
:1011B000A04214BF1846581C5DF8044BFFF772B9E3
:1011C000CC14022000800B406C6901100346416A78
:1011D0000A46986A596A8A42FAD17047034B596A9B
:1011E0000A46986A596A9142FAD1704700000B404A
:1011F00030B4154A536A9C46946A536A6345FAD1DF
:10120000021959414FF0000528BF01250E4B5B6ABA
:10121000B5B15A1C08BF1A4608D04FF0FF310A4634
:101220000948436A8B42FCD38B4207D1064902E04E
:10123000486A984202D1886A9042F9D330BC70471C
:101240009942EDD8F0E700BF00000B4070B50E46A4
:10125000194604461546FFF7ADFB00233146E581EC
:10126000A681A360681C02F081FC6060003818BF92
:10127000012070BD38B504460368EFF3108572B6DF
:10128000D3E8CF0F01220028FAD1C3E8402F00286D
:10129000F6D1BFF35F8F20896389E289C31A44BF07
:1012A00002F1010C6344934206D100202368C3E895
:1012B0008F0F85F3108838BDA289636802FB003068
:1012C00015F0EAFA00210A4A13780133DBB21370F1
:1012D0002389E28901339BB29A4238BF0B462268C8
:1012E0002381C2E88F1F85F3108840BF012038BDDD
:1012F000AA19022070B504460846244D2368EFF36E
:10130000108672B6D3E8CF1F01220029FAD1C3E8B4
:10131000412F0029F6D1BFF35F8FB4F80AC02389AB
:10132000B3EB0C030DD48BB92A782168D2B2C1E893
:101330008F3F86F310882B789A4200D120BF20BFC0
:10134000DCE7E28901321344002BEDD038B1A289E9
:10135000616802FB0C1115F09FFAB4F80AC0E3892A
:101360000CF1010C1FFA8CFC634538BF4FF0000CE8
:101370002B7822680133DBB22B70A4F80AC000235B
:10138000C2E88F3F86F3108840BF70BDAA190220C3
:10139000F8B5054606200E4600F0E4F8002842D0D5
:1013A000354A3648954214BF4FF080624FF00062D4
:1013B000334B344902601A608C6832EA0404FBD172
:1013C0002D4B4FF48071EB1AB3FA83F32E4A5B096D
:1013D000062022F8131000F0C5F8C300B3FBF6F3A3
:1013E0000133DA0920D1402601216962AA622F6BFC
:1013F000FB0722D42B46002253F82C1F062003F5AE
:10140000805422602F6300F0ADF840F201310322D6
:101410008000B0FBF6F0EB6A83F0700303F07E030C
:1014200023602963AA64F8BD4FF6FE718A421BD976
:1014300022464FF6FF71154ED7E740F2013205F50F
:1014400040531A636B6AAC6A062004EB831400F005
:1014500089F80F4BA402A3FB0023DB0A0021B4FB95
:10146000F3F0FFF7C5FEC5E7C3F34503114603EBF1
:1014700082161A46B9E700BF0080074000200240EC
:10148000003002400000024090190220C0FF3F00DF
:10149000757B2B8F00EB400C4FEA8C0C0CF1804CD1
:1014A0000CF5803CF0B51646DCF80420051FB2F5BB
:1014B000803F38BF4FF48032EDB238BFCCF8042003
:1014C000012D2AD94FF40067254C0CF540521760C6
:1014D00054F82020B2B9DCF80020012D82EA46122F
:1014E00002F0E0020CF5805632602AD94FF4006118
:1014F00044F820304FF480330CF500521160CCF8E2
:101500000430F0BD6769B7FBF2FE0EF1010E0EEB81
:101510004E0EBEF1030EFCD2DDE70129D2D1032429
:101520000CF540521460DCF80820D207FBD5DCF83B
:1015300000200B4C82EA461202F0E0020CF58056C5
:1015400032600122DCF800504D4005F003053560A3
:1015500002FA01F1DCF808200A42FBD0C6E700BF1E
:10156000D0140220014B53F820007047D014022001
:1015700070B4039D04682D0345EA03451B4B002C02
:10158000B3FBF1F3B2FBF3F61FDB194A194B9042A0
:1015900014BF4FF480424FF40042174C1A6003F519
:1015A00080531A60A36832EA0303FBD1212200F5BD
:1015B00040530433016086601A600268002AFCDA36
:1015C0000822C5601A6070BC7047036803F03F03CF
:1015D0008B42DAD18368C3F30B03B342D5D1C3681E
:1015E00003F4EE23AB42D0D1EDE700BF001BB70000
:1015F00000800540002002400000024030B44FF05F
:1016000080441C4B1C60E0B11B4CA3F54053DC61D3
:101610001A4C40F0010044401C62596298624FF03D
:1016200080454FF0E061134B1548164C1D608460F7
:1016300019604AB930BC4FF00042A3F580531A60DC
:101640007047114BD861EAE74FF47A7303FB02F25B
:10165000B2F1807F2ABF6FF07F4313461A464FF0E6
:1016600080410A4C08482360094B426030BC196035
:10167000704700BF00B00D40D3C007B02D3FF84FFA
:1016800000A00140F3FFFF0100800D403C19022043
:1016900000A00D40012300EB4000800000F18040DD
:1016A00000F5841041600360704700BF002370B5EF
:1016B000DB8A04460D461646002242E800F252023A
:1016C00054BF1021042144F25220984786463346E5
:1016D0002A462046F446BDE870400A21604700BF14
:1016E0000023DB8A002242E800F2520201D41021DA
:1016F00018470421184700BF08B51346021E0DDB2A
:101700004BB941F020010023DB7C022B09D04FF4C0
:101710008170FFF7CBFF41F03001F4E78B06F6D57F
:10172000F1E74FF49170FFF7C1FF00BF034AD2F811
:101730002838002BFBD0BFF35F8F704700000E40AE
:101740000021044B044ABFF35F8F43F8041B93420C
:10175000F9D170470C080E402C080E4010B44FF41D
:101760008D704FF42A64064A064B07491460D06016
:1017700019605368002BFCDA5DF8044B704700BF1A
:101780000080044000A0044000B0FA00704700BF91
:1017900008B50148FEF752FE9069011038B5054CB6
:1017A000054DAC4204D254F8043B9847AC42FAD3FE
:1017B00038BD00BFC06801100469011038B5054C80
:1017C000054DAC4204D254F8043B9847AC42FAD3DE
:1017D00038BD00BFEC6801100469011010B407485F
:1017E000074C084B084A094904601A608B6832EAC2
:1017F0000303FBD15DF8044B704700BF002002409B
:101800007F3BEFEF00300240F6FFF30300000240A1
:10181000044BDB6CB3F5004F03D14FF48022024B35
:10182000DA64704700001150002011504FF0E022A0
:10183000044BD2F8881D0B43C2F8883D10EE3004EB
:10184000704700BF030330006FF06041044B054A4E
:1018500019609368DB4333F06043FAD1704700BFEF
:10186000003002400000024010B545F25320FFF75F
:1018700037FFBDE8104003460420184710B545F275
:101880005320FFF72DFFBDE8104003460120184705
:10189000FEF798BE38B51349134C144D641AA408CA
:1018A000442C224628BF44222846920014F0F4FF1C
:1018B000432C14D80E4AC4F144000ED005EB840327
:1018C000410803EBC101C3E9002208338B42FAD17E
:1018D000C30704D520F00100044445F82420054B3B
:1018E0009D6038BD000000101001001000000020B5
:1018F0001101001000ED00E0002370B52B4C82B008
:10190000C4F88430FFF72AFF0122294BDA63636CA5
:10191000012BFCD10321264A244B11639C6B012C23
:10192000FCD10226052521460523224A224800969D
:10193000FFF71EFE21462B46204A21480095FFF75F
:1019400017FE0022042031461E4BFFF7A3FD21465F
:10195000284600221C4BFFF79DFD0022082011465F
:101960001A4BFFF797FD002209201146174BFFF78E
:1019700091FD002206201146134BFFF78BFD00223C
:10198000114B07201146FFF785FD0420FFF7EAFD04
:1019900000240F4BA3FB0035AD0CE0B22946013407
:1019A000FFF778FE062CF8D102B070BD00000140B0
:1019B00000300140002F685900000540008C864728
:1019C00000800540001BB70080D1F008006CDC02ED
:1019D00083DE1B43000000002DE9F04FC1F30A59DC
:1019E00016461F4687B0A9F2FF38B9F1000F30D074
:1019F00040F2FF74A1452CD00024C9F57F72033258
:101A0000201801EB025101F032F987A3D3E900233A
:101A100000F030FD0022864B04460D4600F01CFE0F
:101A200048B1204629460022824B00F0EBFC0446D8
:101A30000D46A9F2FE38B8F1000F22D132463B46DE
:101A40002046294600F0F2FC07B0BDE8F04F00F058
:101A5000D7BA01F00CF974A3D3E9002300F00AFD12
:101A60000022734B04460D4600F0F6FD48B12046B7
:101A7000294600226F4B00F0C5FC04460D46A9F232
:101A8000FE383046394600226B4B00F0D1FD48B19C
:101A9000B8F1000F4FF00000C0F2B780674907B0FF
:101AA000BDE8F08F304639460022654B00F0ACFDB2
:101AB0008146002840F0A3803046394600F026FADF
:101AC0000B460246394630461F46164600F09AFC41
:101AD00082468B461A22CDE900AB00F0F5F900F002
:101AE00015FAC1F30A5340F2FF7C82468B464BB194
:101AF000634507D01A2BD5BFCA46824601F0004B7A
:101B0000A1F1D07B3946304600F034FD8146404695
:101B100000F00CFD02460B46CDE9042352465B461D
:101B200000F084FC06460F4600F0F0F902460B4632
:101B30003046394616461F46CDE9026700F062FC82
:101B400006460F46DDE9000152465B4600F05AFCAE
:101B5000DDE9042300F06AFC32463B4600F03EFC1F
:101B6000CDE90401484600F0E1FC22462B4600F096
:101B70005DFC06460F4600F0C9F982468B463046AA
:101B8000394652465B4600F03DFCDDE9042300F097
:101B900025FC06460F46DDE9000122462B4600F0F3
:101BA00045FC32463B4600F019FC00F029FAC1F32F
:101BB0000A5440F2FF730D460646002C3FF46FAF07
:101BC0009C423FF46CAFDDE9020100F0D3FC08FB5E
:101BD00009F959468144504600F0CCFC00EB09035A
:101BE0001C44002C1ADD40F2FE72944211DD05F017
:101BF000004545F0FF41002041F4E0014FE7B8F116
:101C0000000F4FF00000FFF649AF002107B0BDE81C
:101C1000F08F002205EB0351901940E7002005F0FA
:101C200000413CE7AFF30080EF39FAFE422EE63F79
:101C30000000E03F0000F03F0000B0400000F07FF7
:101C40000000B0C0012A2DE9F04706460F4600F01B
:101C5000818002EBD2756D10012D144666D090463E
:101C6000002AB8BF02F103084FEAA808B8F1010F33
:101C700079D09146002AB8BF02F107094FEAE90975
:101C8000B9F1010F6CD09246002AB8BF02F10F0AD9
:101C90004FEA2A1ABAF1010F68D0A2F120031F2BD4
:101CA00067D90022FFF7CEFF02460B4600F0BEFBCD
:101CB00002460B461046194600F0B8FB1AF0010F19
:101CC00002460B4605D032463B4600F0AFFB0246CB
:101CD0000B461046194600F0A9FB19F0010F024609
:101CE0000B4605D032463B4600F0A0FB02460B46B1
:101CF0001046194600F09AFB18F0010F02460B46F9
:101D000005D032463B4600F091FB02460B4610469A
:101D1000194600F08BFBED0702460B4608D532460C
:101D20003B4600F083FB02460B4601E002460B46B1
:101D30001046194600F07AFBE40702460B4605D52B
:101D400032463B4600F072FB02460B4610461946EF
:101D5000BDE8F08702460B4610461946BDE8F087FD
:101D600002460B46C4E702460B46D0E702460B4646
:101D7000AFE702460B469DE72DE9F04F002992465A
:101D80009B4604460D4681B080F29280C3F30A530D
:101D9000A3F2FF33002B28DBD3F1340325D44FF01B
:101DA000FF32A3F1200802FA08F902FA03F1C3F1A5
:101DB000200E41EA090122FA0EF941EA09019A408E
:101DC0002AEA02022BEA01010A430ED1342B3BD04E
:101DD0002AFA03FC0BFA0EFE4CEA0E0C2BFA08F062
:101DE0004CEA000C1CF0010F2ED105F100431D46FA
:101DF000A04699465046594600F0BCFB2B0D0646BE
:101E000002462ED040F2FF7083422AD0C5F3130160
:101E1000214326D1294AA3F2FF33B242B8BF32464A
:101E20008242A8BF024602FB03F101F2FF33002BFE
:101E30003BDD40F2FE7293423DDC0022204800EB85
:101E400001531946104609E05B465246204605F10B
:101E50000041FFF791FF01F10043194601B0BDE8D1
:101E6000F08F66B106F12003402B0BD952465B463A
:101E70004046494601B0BDE8F04FFFF7ADBD002038
:101E80000F49EBE7002E06DB4046494601B0BDE8AE
:101E9000F04FFFF7D7BE42464B460020084900F0FE
:101EA000E9FA724280468946EEE700200021D5E734
:101EB000804689469EE700200249CFE700F8FFFFF1
:101EC0000000F03F0000F07FC1F30A53C3B110B52A
:101ED00040F2FF7E73450ED01344002B8C460BDD81
:101EE00040F2FE718B420CDD00200CF0004C4CF0F7
:101EF000FF4141F4E00110BD002001F0004110BDA0
:101F0000704700230CEB0251181810BDC1F30A539F
:101F1000A3F2FF335A1C8C462ADB2DD0342B26DA51
:101F2000012270B502210546C3F13304C3F1130E3B
:101F3000133B22FA03F302FA0EFE4EEA030EA4F15B
:101F4000200002FA04F3C4F120065B1921FA06F618
:101F500001FA00F001FA04F14CEB0E0C30434A4256
:101F600060EB400E0EEA0C0102EA030070BD704700
:101F7000002001F00041704701F0004C4CF07F510F
:101F8000002041F440117047C1F30A530A4673B36D
:101F9000A3F2FF33002B24DBC3F13403002B2ADD33
:101FA00010B501248446A3F12001C3F1200024FAD6
:101FB00000F004FA03F304FA01F10143581E41F161
:101FC000FF3400EAE27010EB0C0E04EAE27042EB20
:101FD00000025B4261EB410C0EEA030002EA0C01D5
:101FE00010BD00294FF0000006DA0449704718467A
:101FF00001F0004170477047002170470000F0BFBA
:10200000F8B540F6FF73B3EB115F3CD00022284BCC
:1020100004460D4600F0F8FAA8BB002220462946E7
:10202000244B00F005FB064680BB20462946FFF7FF
:102030006DFF00F09FFA074600F078FA02460B4663
:102040002046294600F0DEF917A3D3E9002300F06B
:10205000EDF900F08EFCC1F30A5340F2FF7405461F
:102060000A467BB1A3420DD03B44002B11DD40F268
:10207000FE718B4211DD304602F0004242F0FF411A
:1020800041F4E001F8BD00200021F8BD00200A491C
:10209000F8BD304601F00041F8BD701902EB075160
:1020A000F8BD00BFAFF30080EF39FAFE422EE63FE5
:1020B0000000B0C00000B0400000F07F2DE9F04FFC
:1020C00016461F4683B00022AF4B04460D4600F073
:1020D00075FA002840F081803B0DC7F30A59B346DA
:1020E000B84640F2FF7A0193B9F1000F41D0204683
:1020F00029460022A54B00F061FA00283ED0D145C8
:1021000037D03B0D534500F0938040F6FF734FEA04
:1021100018529A4200F09180A9F2FF39B9F1000FEC
:10212000C0F28680994AC9F13409B9F1000F17DD70
:102130004FF0FF33A9F1200C03FA0CFC03FA09F16C
:10214000C9F1200023FA00F041EA0C01014303FA2F
:1021500009F32BEA030328EA01010B4340F0F18065
:1021600032463B462046294603B0BDE8F04FFFF714
:1021700003BE0020844903B0BDE8F08FC5F30A53C5
:102180002A46290D73BB002FA9F2FF3334DB002B45
:1021900053DBD3F1340350D44FF0FF32A3F12000CE
:1021A00002FA00F702FA03F1C3F12006394322FADA
:1021B00006F739439A402BEA020228EA01010A4352
:1021C0003BD1342B09D02BFA03F308FA06F628FA90
:1021D00000F033430343D8072FD52046294603B0E8
:1021E000BDE8F08F514540D1002F4FF0000020DABC
:1021F000002103B0BDE8F08F40F2FE31894517DDC4
:10220000D3F1340314D44FF0FF31A3F1200401FAC9
:1022100004F601FA03F0C3F12005304321FA05F674
:10222000304399402BEA010127EA0000014307D01F
:102230000020574903B0BDE8F08F00200021D8E707
:10224000342B4FF0000009D02BFA03F307FA05F501
:102250002B4327FA04F42343D907EAD502F00042BE
:1022600042F0FF4141F4E00185E740F6FF70814212
:102270005BD1002FA9F2FF3329DB002BD8DBD3F190
:102280003403D5D44FF0FF32A3F1200002FA00F559
:1022900002FA03F1C3F12004294322FA04F5294389
:1022A0009A4026EA020227EA01010A43C0D1342BF0
:1022B00053D026FA03F307FA04F427FA00F0234375
:1022C0000343DA074FF00000B3D5324953E740F239
:1022D000FE329145B1DDD3F13403AED44FF0FF327D
:1022E000A3F1200002FA00F502FA03F1C3F1200481
:1022F000294322FA04F529439A4026EA020227EAF2
:1023000001010A4399D1342B2AD026FA03F307FAA4
:1023100004F427FA00F023430343DB074FF00000E7
:102320007FF566AF4FF0004125E7390D51451BD0D1
:10233000390D814220D0A9F2FF39B9F1000FBFF663
:10234000F2AE002AFFF674AF32463B4620462946DD
:1023500003B0BDE8F04FFFF73FBB00200D490AE78F
:1023600000204FF0004106E740F2FE3293424FF06A
:1023700000007FF73DAF5CE740F2FE3293424FF042
:1023800000007FF756AF33E70000F03F0000F0BFDA
:102390000000F07F0000F0FF86B003B451FC080499
:1023A000CDE9020151FC0904CDE9040151EC0A0414
:1023B000CDE9060103BCF047BDE800504EEC00C477
:1023C000BDE800504EEC01C4BDE800504EEC02C424
:1023D00000BD000000B5FFF7DFFF02E010FE30F4A3
:1023E000F8D441EC100443EC112400EE010410EE8B
:1023F000010480EE200451EC1004704700B5FFF793
:10240000CBFF02E010FE30F4F8D441EC100443ECB2
:10241000112400EE010410EE210480EE200451ECA2
:102420003004704700B5FFF7B7FF02E010FE30F44C
:10243000F8D410B541EC100443EC112451EC040421
:1024400053EC0524A0FB024C5FF0000EE0FB03CE32
:10245000E1FB02CE4CEC20440024E1FB03E444EC1D
:1024600030E480EE200451EC500410BD00B5FFF7BD
:1024700093FF02E010FE30F4F8D441EC100443EC7A
:10248000112451EC2104A0FB01126FEA820252FBDD
:10249000100052FB12F252FB1000A0EBD07C53EC68
:1024A00004245CFB13F153EC1524A1FB022001FB77
:1024B000030053EC4424A2EB000050FB1CF24FEA53
:1024C000111312EB017043EBE27140EA515020EA24
:1024D000915020F0070053EC7524A0FB023C53EC14
:1024E000752400FB03CC01FB02CC53EC0424ACEBC1
:1024F000824C40EA5C70A0F1010041EC400480EEA7
:10250000200451EC7004704700B5FFF745FF02E06E
:1025100010FE30F4F8D441EC100480EE220410EEEA
:10252000B204704700B5FFF737FF02E010FE30F449
:10253000F8D440EC700400EE010410EE210480EEAB
:10254000200451EC3004704700B5FFF725FF02E08E
:1025500010FE30F4F8D440EC600400EE010410EEFC
:10256000210480EE200451EC3004704700B5FFF7E1
:1025700013FF02E010FE30F4F8D441EC800400EECA
:10258000010410EE010480EE400410EE13047047C5
:1025900000B5FFF701FF02E010FE30F4F8D441EC83
:1025A000100443EC112400EE010410EE3004C0F3DB
:1025B0000070704700B5FFF7EFFE02E010FE30F448
:1025C000F8D441EC100443EC112400EE010410EEA9
:1025D0003004C0F38070704700B5FFF7DDFE02E005
:1025E00010FE30F4F8D443EC102441EC110400EE5A
:1025F000010410EE30F48CBF01200020704700BFB2
:1026000000B5FFF7C9FE02E010FE30F4F8D443EC49
:10261000102441EC110400EE010410EE30F42CBF44
:1026200001200020704700BF00B5FFF7B5FE02E0B3
:1026300010FE30F4F8D441EC100443EC112400EE09
:10264000010410EE30F42CBF01200020704700BFC1
:1026500000B5FFF7A1FE02E010FE30F4F8D441EC23
:10266000100443EC112400EE010410EE30F48CBF92
:1026700001200020704700BF404261EB410140F261
:10268000F334B1FA81F20C2A0CD2153211FA02F3AA
:10269000C2F12002D04021FA02F12244584141EB1C
:1026A0000251704769B1C2F12B0230FA02F3C2F154
:1026B0002002914090401943A4EB020201EB025129
:1026C000704701004FF00000A4F12004D9D17047F9
:1026D000012767F31F5117FA03F817D0A0FB08076B
:1026E00001FB0871A1FB06785FEAD8469219A6FBA8
:1026F000047806FB0588090351EA1051D7EB003036
:1027000061EB0801A94238BF70470BE00C33012789
:1027100017FA03F80FD0A0FB080701FB0871A942C4
:1027200038BF704708BFA04238BF7047001B61EB3D
:1027300005010132704703F1200311FA03F6D3F1CA
:102740002003D840D940304370470000000000000B
:10275000000000000453B1086018850FC8E5F22A94
:102760006E07271E0D12B2210412572F12557CBC82
:10277000DA30723F17A717A55531994E9D0DBF0A44
:10278000EEE0AB5FE3EF6D9C7636AD6F697BCCE33B
:102790003D62BD7EF0810682F3FA428F37D5B78A5B
:1027A0005313C89E7FABB320491570AF00000000E3
:1027B00000000000025E88155580FF00907806B189
:1027C000A602FE01DC4E21F0EB88FB027A7C801F22
:1027D0001615F8033C5DA9D110A9F304AA466CF5BF
:1027E000C146EE05FF65E4EB09F0E70613C00C9E59
:1027F000C3A6E007E1BFEC91C46CD808D5AF5EFF7B
:10280000DC43CF09466A72E4D72DC50A237E6E19D0
:102810007B2CBA0BBFF571648741AE0C61DFB88CBD
:10282000B86EA10D09A9856DC5B5930E3153B108D8
:102830006018850F3071E498359875105915550555
:1028400080FF0F0009C3EB8F80FB2F00B1910E9A20
:1028500082F34F001FE7FD2287E76F00C3A09A298C
:102860008FD78F004F4366AC9BC3AF00412A83A92B
:10287000ADABCF004FB7B41EC68FEF00B6815F0976
:10288000E66F0F01678589660E4C2F011A52DA3206
:1028900040244F01483A9B6A7CF86E01FF81B709DA
:1028A000C4C88E019C8DBC0B1895AE017010DA6BFC
:1028B000795DCE013A3BE224E921EE01387395338C
:1028C000427FECA03114FAF5BD8689916B02FAE6DD
:1028D000E0F29183E682120713A85177212621683E
:1028E0006AB2736A9D0DBF0AEEE0AB5F19B4E0B740
:1028F0001CB66A549596E53DEF07A548D1CBE55542
:10290000DC0E4E3CCE68ADE839B5A432CB3CFA962D
:10291000D9569A28C9B21CA1F9FCAE21864B6BE5A9
:102920008AD2F0160453B1086018850F02C00C9EBD
:10293000C3A6E0070000000000000000AC79CFD182
:10294000F71772B1293BAAB84FEAC12040F0004006
:10295000490043F1200340F20001C3F6F071C3F1D6
:102960000B0320FA03F038BF7047404261F10001C9
:1029700070475FEAD17CC1F30A53A3F2FF330C2BFB
:1029800062DA13F1200FDFDD2DE9F0413C4C70CC11
:102990004FF00002FFF79CFE1CF0010F04D06FEA1D
:1029A0000202201A65EB010102F2FE3C40F2FE73C6
:1029B0009C455CD20A0F334B03EBC2030CCB02F0F5
:1029C0003F0545F04005801A99410A0E2E4B03EB56
:1029D000C20318CB02F580725543C01AA1414A0DBB
:1029E0002A4B03EBC20318CB124402F5805205FBBD
:1029F0000255C01AA1418A0252EA905242F10002E5
:102A000082FB02345B0D53EAC423C01841EB5451DE
:102A100084FB02344FF0553383FB043454FB11F331
:102A200004EB930410EB440241EBE473E900A1FBD7
:102A30000240C1FB0301400A50EBC1504FEA512153
:102A400051EB0C51BDE8F081B3F5806F07D150EA2E
:102A500001320CBF21EAE17141F4002170470020EE
:102A600000211CF0010F08BFC7F6F07170474FF04E
:102A700000004FF00001A8BFC7F6F071BDE8F0817B
:102A80003C2900104C270010AC2700103C280010F7
:102A900040F20001CFF6F0710020704750EA013299
:102AA00018BF41F4002170477FEAA65540F0198114
:102AB0004FF4805420E18CEA11331B0640F0EE8085
:102AC000BCF1000F67D1C90451EA5031C004B1FA1A
:102AD00081F4202C4BD20125A540A0FB052301FB4E
:102AE0000533A0FB03C5A1FB02C6E1FB6356B2EBB5
:102AF000152263F10003B2EB066273EB1623A0FB11
:102B000006C7A1FB05C8E1FB66784FF05535A7FB6A
:102B100005C65FF0000CE8FB056C16EB0C064CF1EB
:102B2000000C12EB963243F1000312EB8C4243EBA4
:102B30009C3358FB11F55FF0333755FB11F656FB0C
:102B400017F8A5EB581756FB11F5C2F6802656FB71
:102B500015F507EB1537B2EB472063EBD751C4F5FA
:102B60008064A4F11504FFF78CFDBDE8F081B0FA94
:102B700080F410FA04F1A0FB01234FF00000B0EB49
:102B8000132061F10001C4F58064A4F13504FFF75E
:102B900078FDBDE8F081890451EA9031800440421B
:102BA00061EB4101B1FA81F4202C4ED2013C0125A8
:102BB000A540A0FB052301FB0533A0FB03C5A1FB3A
:102BC00002C6E1FB635612EB152243F1000312EB40
:102BD000066253EB1623A0FB06C7A1FB05C8E1FB69
:102BE00066784FF05535A7FB05C65FF0000CE8FB93
:102BF000056C16EB0C064CF1000C12EB963243F10F
:102C0000000312EB8C4243EB9C3358FB11F55FF051
:102C1000333755FB11F656FB17F805EB581756FBE3
:102C200011F5C2F6802656FB15F507EB153712EBAA
:102C3000472043EBD751C4F58064A4F11504FFF796
:102C400020FD41F00041BDE8F081B0FA80F410FAB7
:102C500004F1A0FB01234FEA1320C4F58064A4F122
:102C60003504FFF70EFD91F00041BDE8F0815FEA09
:102C7000410CBFF40DAF5FEA5C5C3FF409AFACF20E
:102C8000FF3CBCF5806F3FF409AF012262F31F5196
:102C90002DE9F041BCEBEC7F3FF40DAF0C0C4E4D39
:102CA00005EBC40595E80C0002F03F0505F1400571
:102CB000A5FB000605FB01616FEAE14404F01F0477
:102CC000464D05EBC40560CD521943EB060304F5F0
:102CD0008074A4FB000604FB01667FEA26643FF4CF
:102CE000E3AE3F4D05EBC40522CD521843EB05037F
:102CF00041F2010505EB44046404A4FB0050C4EB5D
:102D0000C401E4FB060180EAE17481EAE175A5FBF8
:102D10000567A4FB05487F084FEA360616EB080650
:102D200047F100078C0254EA905444F10004801BE0
:102D300061EB070154FB14F555FB14F655FB15F731
:102D40004FF0553456FB14F6B6EB173610EB8600F1
:102D500041EBA671101A63EB0101224A24CA1CF14F
:102D6000010C0BDDA2FB0C230024E5FB0C34121A32
:102D70008B4164F100045FF080410CE0DCF1000C59
:102D8000A2FB0C230024E5FB0C3482184B4144F1D8
:102D900000045FF040414CB91C0013000022B1F167
:102DA00000711CB91C000023B1F10071B4FA84F564
:102DB000A5F11D06A1EB0651AC4013FA05F0C5F1D3
:102DC0002005EB401C43EA401043C00A50EB44503E
:102DD00041EBD421BDE8F0813C280010AC27001065
:102DE0003C2800103C2900102DE9F04101292DED6F
:102DF000028B08EE100A50D001EBD1756D10012D39
:102E00000C463CD00E460029B8BFCE1CB610012E91
:102E10004ED00F460029B8BFCF1DFF10012F44D060
:102E200088460029B8BF01F10F084FEA2818B8F109
:102E3000010F40D0A1F120031F2B3FD90021FFF744
:102E4000D3FF07EE900A67EEA77A18F0010F67EE3E
:102E5000A77A01D067EE887AF80767EEA77A01D5DE
:102E600067EE887AF10767EEA77A01D567EE887A70
:102E7000EA0767EEA77A04D567EE887A01E0F0EEFC
:102E8000487AE30767EEA77A01D567EE887ABDEC4A
:102E9000028B17EE900ABDE8F081F0EE487ABDECA7
:102EA000028B17EE900ABDE8F081F0EE487AD9E780
:102EB000F0EE487ADCE7F0EE487ACDE7F0EE487ABB
:102EC000C3E700BF021E38B50C4618DAC1F3C7537A
:102ED0007F3B084610D4D3F117030DD44FF0010CFB
:102EE0000CFA03FC0CF1FF3C1CEA010F04D1172B78
:102EF00024D0D840C30721D402F10042104607EE87
:102F0000904AFDEEE77A12F0FF4317EE901A1DD0BB
:102F1000B3F1FF4F1AD0C2F31603BBB9D20D7F3AFB
:102F200001F3080101FB02F303F17F02002A38DDFF
:102F3000FE2A38DCDB0503F17E5038BD214602F164
:102F40000040FFF7BFFF00F1004038BDB1B101F113
:102F50002003402B15D913F093FCFFF788FE02469F
:102F60000D462046144613F08BFC22462B46FFF7F5
:102F70005DFAFFF7FEFCFFF7CBFA38BD4FF07E504D
:102F800038BD002903DBBDE83840FFF72DBF07EE51
:102F9000100AF7EE007AC7EE877A494217EE900AD8
:102FA000F1E7002038BD4FF0FF4038BDB7EE007AA2
:102FB00007EE900A77EE676A37EE877A26EE877A11
:102FC00017EE103A13F0FF4F01D0002B07DB17EE7E
:102FD000901AF1EEC77A17EE900A00F073BC4FF02A
:102FE000FF40704708B500F0B7F9DFED047A07EE4F
:102FF000100A67EE277A17EE900A08BDD95BDE3E0D
:10300000B7EE007A07EE900AF4EE477AF1EE10FA86
:1030100032D011F0FF4238B50C460B4629D0FFEEF6
:10302000006AF4EE667AF1EE10FA26D1B2F1FF4FA3
:103030001FD040F27F105749E20DFF2A60D040F2C6
:10304000FF1C624558D012F0FF020BD07F3A5BD4D0
:10305000C2F11702002A05DD012000FA02F2013A4E
:103060001A4251D12146BDE8384017EE900AFFF7C9
:1030700029BF17EE100A38BD704710F0FF4F014608
:103080001AD1002C4FEAD4521DDB7F3A19D4D2F169
:10309000170216D4012191400139214211D1172A7A
:1030A000E9D09FED3D7A24FA02F212F0010F47FEBB
:1030B000277A17EE900A38BDC00DFF283BD1002CAF
:1030C0000CDA002038BDD2B27F3A07D4D2F1170211
:1030D00004D4012090400138204202D04FF0FF403C
:1030E00038BD172A03D024FA02F2D007F6D501F032
:1030F000004040F0FF4038BDC0B27E28EED9E0E786
:10310000C0B27E28DDD9E9E70029E7DB17EE900A97
:1031100013F0B6FBFFF7ABFD02460D462046144602
:1031200013F0AEFB22462B46FFF780F9FFF721FC98
:10313000FFF7EEF938BD40F2FF15A8424FEAD4522E
:103140007FF47BAF002C11DB7F3AC7D4D2F117029A
:10315000C4D40121914001392142BFD1172A03D0A3
:1031600024FA02F2D207B9D50C4838BDD2B27F3A60
:10317000A7D4D2F11702A4D40121914001392142F0
:103180009FD1172A03D024FA02F2D30799D54FF022
:10319000004038BD000080BF00000000000080FF3C
:1031A000000000000000000000000000DB60BE28FE
:1031B0004A059193F4D5097F70374D7D66A5D836C1
:1031C00010E4104FAFF224024B1102EB830201F026
:1031D0001F034FF001049C40A4FB0034D568A5FBFD
:1031E0000456956805FB0466E5FB0356556805FB28
:1031F0000366704700000000C11545D4852932DA06
:10320000012262F3DF507E392AD400FA01F041F640
:103210009553C5F6554380FB03012BA292EC034A5C
:10322000820D61F39A2200EE102ABBEEC00A60EE16
:10323000000AC1F3444220EE042A26A320EE201AFD
:1032400053F8222000EEA42A891501EE052A02EB8C
:10325000C15200EE102A00EE020A10EE100A70476A
:103260004942C840D3E747F21822C4F2B122904243
:10327000C6D3B0F1FF4F02D950F48000704740F23E
:103280000000C7F68070704711F17B0F0CDA012245
:1032900062F3DF50823105D54942C84040F1000059
:1032A0004042B4E78840FBE74AF64F42CCF2AE22F8
:1032B0009042ECD910F5000F02D950F4800070470D
:1032C0004FF00000704700BF1872313FF0FD753EAF
:1032D0004758633D0000803F87CD823FC3AA853FAA
:1032E0000F98883FC2958B3F3AA48E3FD3C3913F3E
:1032F000F0F4943FF037983F3A8D9B3F32F59E3F74
:103300004370A23FD7FEA53F5BA1A93F3F58AD3F09
:10331000F623B13FF304B53FAFFBB83FA408BD3F70
:103320004D2CC13F2A67C53FBEB9C93F8C24CE3F53
:103330001EA8D23FFD44D73FB8FBDB3FDFCCE03FC8
:1033400007B9E53FC7C0EA3FBAE4EF3F7D25F53F47
:10335000B383FA3F00000000B0F1FF4F3ED2C11529
:103360003ED04FF0010262F3DF5038BF400026A389
:1033700093EC034AAFF21C0303EB104323F0070363
:10338000D3E9002300FB02F040EC103AFAEEC00A49
:1033900020EEA01A61F17E0160EE811AC90521EECE
:1033A000012A40F6FC3221EE041AC5F6B90261EE9C
:1033B000A41A51FB12F122EE052A03EE901A71EEC7
:1033C000C21AFAEEC53A31EE611A70EEC10A30EE59
:1033D000200A30EE230A10EE100A704705DC0BD0ED
:1033E00010F1FF4F09D310F5000F40F4800003D80F
:1033F00040F20000CFF6C070704740F20000CFF6F8
:1034000080707047AFF300800000003FABAAAA3E77
:103410000000803E000000005501000001CB92BE7C
:1034200048010000C3C87DBE3B010000685F54BE78
:103430002F010000C7992CBE250100002C3C0ABEBC
:103440001A0100002F1AC6BD11010000C2AC83BDD5
:1034500008010000D814FCBC0001000000000000BE
:10346000F8000000EC0A023DF10000008E51773DAB
:10347000EA0000009806B83DE40000003B39ED3D4D
:10348000DD000000088B163ED800000003FA2D3E38
:10349000D2000000D7D24A3ECD000000DE7F633E5E
:1034A000C8000000E3C87C3EC3000000E65A8B3E23
:1034B000BF00000084F7953EBA0000006E8CA33E6A
:1034C000B6000000EFADAE3EB2000000C40EBA3E42
:1034D000AE000000CDB1C53EAB0000005F99CE3E0E
:1034E000410201D150F0004050F480007047F0B527
:1034F000012363F3DF50C1F109014FF07E07FFF7AD
:1035000061FEB30F53F100039C44B6EB8376B20027
:1035100028BF5242B2F1805F0BD20231FFF752FE58
:1035200096EA260242F10002B2F1805F01D2023F28
:10353000F3D50A4CA2FB0424B4FA84F29440240A82
:10354000A7EB020244EBC250C10DD1F17F01F60F8F
:1035500000EBC673BDE8F04073E00000A2DA0FC9CB
:1035600011F1800FBCD030EACC7248BF0CF1020CD4
:1035700020F0004000EE100A0DA2F2EC032A22EE29
:10358000802A11F1080FB9FE422AB0DDA2EE630ACB
:10359000A2EE430A10EE103AFDEEC21AC3F3C75270
:1035A000782AA4D3D2F17F0111EE902A944448E006
:1035B00083F9223F7A7795B60010C93F07B5C0F36B
:1035C000C751FF2925D000F032F8BDE80640CEF8FB
:1035D00000000ED2C9438CEAD17C63EEA02AE1EE52
:1035E000032A73EE622A12EE900A80EACC70106011
:1035F00000BD8CEAD17C21EE232AA3EE602A8CEA5E
:10360000D37133EEC22A12EE100A80EAC170106044
:1036100000BD4102BDE80E4001D150F0004050F421
:1036200080001060186070475FF0000C01E05FF0F0
:10363000010CC0F3C751A1B3D1F17F0190D920EAA9
:10364000CC7323F0004000EE100AC0F38440203019
:1036500030FA01F1834A51F10001B2EC024A02EB67
:10366000810202EBC102D2EC032A70EE620A20EE64
:10367000A01A5FEA5C0C61EE201A15D221EE041A42
:1036800061EEA41A70EEE10A21EE232AA3EE602A6D
:103690008CEAD37133EEC22A12EE100A80EAC170AE
:1036A000704700F00040C7E761EEA41A70EEE10A2F
:1036B00021EE041A63EEA02AE1EE032A73EE622AD9
:1036C00012EE900A80EACC70704700BFAFF3008022
:1036D000C1FEFF3E25AA2A3E000000000000803FF8
:1036E0000000000061C9FC3CCDE07F3F1CBFFC3CFA
:1036F0007605813DFE7D7F3F9EEF803D090CBF3DFD
:103700000FE37E3F22C5BE3DB624FF3D14047E3F3D
:10371000E27BFE3D13071F3E48EB7C3FA0631E3E4D
:103720006D30403E1D817B3F15103F3EA2AD603E97
:10373000CFDC793F3EE15E3E7B0D803EFA08783F6C
:1037400096717D3E6E988F3E65FF753F68B88D3EE1
:10375000F4E19F3E939E733FFD4B9D3EC654B03EA9
:10376000AEF7703FB3DDAC3EC589BF3E604B6E3FE8
:103770000A1ABB3E26C4CF3ECA356B3F631CCA3E05
:10378000F254E03E66D1673F0739D93EDDF0EF3EA7
:103790004B66643F1641E73E312B003F8894603F03
:1037A0000FC3F53E07E4073FA2C55C3F2B99013FDD
:1037B000C51F103F8F7D583F65A1083F8AF6173F10
:1037C000B534543FCA310F3FE2FF1F3F599B4F3F73
:1037D000D7C8153F4606283F6BCF4A3FC4371C3F2A
:1037E0004130303FE0B9453FE49A223FA71D383FC2
:1037F000CA98403F20A6283F2FC73F3FAC763B3FAB
:103800004A562E3FDB13483FCCB6353F6B52343F10
:1038100079C74F3F2F35303FD0B4393F52DD573F46
:1038200070412A3F912D3F3F26CE5F3F9F3E243F70
:10383000C35D443FF125683F50C21D3F1C9D493F79
:10384000E13B703F4150173FBF7E4E3F7810783FBD
:1038500071ED103FAF06533FD4F47F3FA75A0A3FA4
:103860009B64573FD036001051F48000704703D15D
:10387000B3F1FF4F3CD106E050F480007047FBD11C
:10388000B3F1FF4F49D1013801391BE003F0004388
:10389000B2F5000F02D20BE002F0004243EC102A16
:1038A00080EE201A1EE003F00043B2F5000F04D2B0
:1038B00041F07E5106E002F0004243EC102A80EE17
:1038C000801A24E020F0004221F0004343EC102A4B
:1038D0009A4214D880EE201AB3F5000FD6D3B2F571
:1038E000000FD9D3B3F1FF4FBED8B2F1FF4FBED214
:1038F00000294CBFDFF82CC14FF0000C11E080EE26
:10390000801AB3F5000FCED3B2F5000FD3D3B3F1C5
:10391000FF4FA9D8B2F1FF4FB1D2DFF804C191F047
:10392000004142A2F0EE411AFFEECD1A11EE903A9C
:103930005B0853F1000302EBC302D2ED012A22EE31
:10394000810A71EE620AF7EE002A32EE800A32D066
:1039500080EE800A1268002948BF52426244002863
:1039600048BF5242002A07D55242B2FA82F39A4027
:103970000BD0C3F5C07305E0B2FA82F39A4004D0CD
:10398000C3F18003120A42EBC35220EE001ADFEDAE
:10399000261A21EE001A90EA010F21EE211A02EEFA
:1039A000102A30EE410A54BF32EE000A32EE400ACD
:1039B00010EE100A704780EE800A6246002848BF69
:1039C0005242002A07D55242B2FA82F39A400BD0F3
:1039D000C3F5C07305E0B2FA82F39A4004D0C3F194
:1039E0008003120A42EBC35220EE001ADFED0E1ADA
:1039F00021EE001A90EA010F21EE211A02EE102AA0
:103A000030EE410A54BF32EE000A32EE400A10EEA8
:103A1000100A10F0FF4F18BF704700F000407047C9
:103A2000A9F6433251ED8764ABAAAA3E000000001C
:103A30000000000023EEFF00BB01003DDC88FE011A
:103A40002A997F3D700AFE020312C03D28D2FA0374
:103A50006803003E70ABF504EAFD1F3EF856ED0525
:103A6000DCDD3F3EA0CFE4062514603EE0D3D8075E
:103A70005D21803E6004C608A500903E7067B209D3
:103A80009214A03E506D990A7713B03E106D7A0BD8
:103A9000A0F4BF3EE03C590C9F01D03ED0EB330D6B
:103AA000BC1BE03EB07A080EBD1FF03E8061D50E13
:103AB00098EFFF3E80DEA10FBF0E083F009D631010
:103AC00031EC0F3FE0902611FD0C183FC014E011BF
:103AD0006500203FE0519612BE08283F00D44613EF
:103AE0007D0A303FC0C7EF132FEE373F608998142F
:103AF000320C403FC0A8371542EF473F60CCD41589
:103B000030F64F3F80F26E163415583FC075FF16E1
:103B10001EEF5F3FA01691174D18683FA05A1B1863
:103B20002217703F6005A1187110783F604021197D
:103B300051F47F3F38B50446094812F089FE20460B
:103B40000CF0DEFE0546064812F08AFE2DB1054B4C
:103B50002C449C4201D8284638BD0348FCF76EFC33
:103B60004C0E0220000008209C69011070B504462C
:103B70000E460B4812F06CFE314620460CF080FEDB
:103B80000546074812F06CFE06FB04F42DB1054B08
:103B90002C449C4201D8284670BD0348FCF74EFCDB
:103BA0004C0E0220000008209C69011010B504464C
:103BB000054812F04DFE20460CF0AAFEBDE810406C
:103BC000014812F04DBE00BF4C0E022000B97047F4
:103BD00000F0E2B90FB410B50E4B84B006A91C6812
:103BE00051F8043B03915CB100914FF0FF3202A900
:103BF0000948A047012004B0BDE8104004B0704758
:103C0000184600F00BFA204604B0BDE8104004B09E
:103C1000704700BF38190220CD3B001010B5094B8A
:103C200084B01C684CB1034600914FF0FF3203A9E9
:103C30000548A047012004B010BD00F0EFF9204670
:103C400004B010BD38190220CD3B001000BEFDE7C6
:103C5000704700BF074A0346106838B1064903445D
:103C60008B428CBF4FF0FF3013607047034908460A
:103C70001160F3E73415022000000820B01902207B
:103C800003460846114623B9034BD3E9002300F04D
:103C90002FB94FF0FF30704718740110431E012BED
:103CA00009D810B51446084601230022214600F029
:103CB000A9F8204610BD4FF0FF3070470EB44FF00A
:103CC000FF3003B0704700BF4FF0FF30704700BFB8
:103CD0004FF0FF30704700BF4FF0FF30704700BF1C
:103CE00002288CBF00200120704700BF08B5FFF7F5
:103CF000ADFF00BF9C46144600B50B460246614628
:103D000083B044B1054D064801940095FFF762FF6A
:103D10000120FFF79BFF034D2C46F4E7E4690110F7
:103D2000F4690110406E011038B5064C064DFDF7E0
:103D300035FDAC4204D254F8043B9847AC42FAD368
:103D400038BD00BF04690110086901100368084606
:103D5000114618472DE9F0411546427D0746884631
:103D6000002A46D0002D1DDD0B780A2B23D0012D13
:103D70004FF0000C18D04646012416F8012F2146BA
:103D80000A2A04F1010422D0A542F6D165450BDCD4
:103D900008EB050313F8013CA3F10D03B3FA83F319
:103DA0005B093B75BDE8F0813B68A5EB0C0108EBB6
:103DB0000C009847ECE7037D002BD8D10368022163
:103DC0000F489847012DE3D04FF0010CD3E716F8C8
:103DD000013C0D2BD8D08C4508EB0C00A1EB0C015D
:103DE00001DA3B689847022105483B689847A4469A
:103DF000CAE7294640463B68BDE8F041184700BF86
:103E0000747401102DE9F04782B00D4691461C46AE
:103E10000646FDF7E3F94FF0FF3C6FF000472E4AEE
:103E2000821841F10003944577EB03013CBF6246E1
:103E30003B462A4812F040FD6B1C804640D00CB334
:103E4000274F284B1C68B4B1B9F1000F1CD1DFF823
:103E50009C9001E0246974B12368002BFAD0D9F852
:103E600000300BB19C42F5D120462A463146B84776
:103E70002469002CF0D1B8F1000F26D1284602B0F9
:103E8000BDE8F087184FDCE74FF00A0ADFF85C90D6
:103E900002E02469002CEED02368002BF9D0D9F879
:103EA00000300BB1A342F4D12A4631462046B84730
:103EB000012220460DF107018DF807A0B847E8E779
:103EC00030460EF023F90546B9E7044812F0C8FC65
:103ED000284602B0BDE8F08740420F00540E022091
:103EE000553D0010241502204D3D001030150220D4
:103EF0002DE9F04F984607460E4683B0DFF860B0D4
:103F0000DFF86090DFF860A00192DBF8004014B9A0
:103F100011E024697CB1D9F800500DB1A542F8D167
:103F2000A268002AF5D03146384690470028F0DDD7
:103F300003B0BDE8F08FDAF8242090450BD8DAF80A
:103F40002810019B994204D36FF0010003B0BDE833
:103F5000F08F9045F8D101200021FDF749F9D4E711
:103F6000241502203015022000000B40084A136877
:103F700023B90AE003F110021B6933B18342F9D17E
:103F800029B9186910601961704701B11060704754
:103F90002415022000F0FCB9F0B583B006468DF878
:103FA0000700FDF71BF94FF0FF356FF00044174A8B
:103FB000821841F10003954274EB03013CBF234694
:103FC0002A46134812F078FC124B07461C689CB135
:103FD000114D01E024697CB12368002BFAD02B68D5
:103FE0000BB19C42F6D1204601220DF10701FFF7EB
:103FF000B1FE2469002CEFD117B9304603B0F0BDF3
:10400000034812F02DFC304603B0F0BD40420F00D3
:10401000540E0220241502203015022038B5044623
:104020000EF074F8012305461A4620462946FFF78C
:10403000E9FE084B1C682CB163682BB198472469D2
:10404000002CF9D1284638BD2469002CF4D128462B
:1040500038BD00BF24150220024A034B10601960CE
:10406000704700BFC0140220C4140220184B70B562
:104070001A68002A28D0EFF3108172B6D2E8CF4F29
:104080000120002CFAD1C2E8440F002CF6D1BFF376
:104090005F8F00220F4C186859602270C0E88F2F84
:1040A00081F31088002400250B4E3078FCF7CCFA01
:1040B00020B9002400252046294670BD3078FCF741
:1040C000D3FA2046294670BD4FF47A740025EBE7F9
:1040D00044190220AC190220AB190220014B1878B8
:1040E000FCF7C2BAAB19022038B5044600200D46D1
:1040F00001F05EFBA8B3002001F070FB88B3FDF770
:104100006DF84FF0FF3E6FF0004C174A821841F1F6
:10411000000396457CEB03013CBF7246634613489F
:1041200012F0CAFBE8B1002001F042FB58B90021AF
:104130004FF0FF3000F076FD6FF002040B4812F0F4
:104140008FFB204638BD002001F048FB0028EED050
:1041500021462A46002001F04BFB04460028EDD101
:10416000EAE76FF00204ECE740420F0088190220F2
:1041700008B5FDF733F84FF0FF3E6FF0004C0F4AE3
:10418000821841F1000396457CEB03013CBF724667
:1041900063460B4812F090FB70B14FF0FF300021E6
:1041A00000F040FD002001F06BFB0028F5D1BDE8D8
:1041B0000840034812F054BB08BD00BF40420F0046
:1041C000881902202DE9F84380460F46FDF706F8CE
:1041D0004FF0FF356FF00044334A821841F100037D
:1041E000954274EB03013CBF2A4623462F4812F048
:1041F00063FB08B9BDE8F883002001F0D9FA002874
:1042000047D0002F40DD0025DFF8A890284E13E0AE
:104210002246002001F07AFB002104464FF0FF30D7
:1042200000F000FD002001F02BFBFCF7D7FFC9E9EF
:1042300000012544AF4227DD002001F087FB7C1BF5
:104240008442A8BF044608EB0501002CE0D12146BA
:104250004FF0FF3000F0E6FC204601F011FB204655
:1042600001F0A6FA80B1204601F070FB0028E1D1F0
:10427000FCF7B4FFD9F80030D9F804209B1942F1BB
:10428000000283428A41D5D20848BDE8F84312F0C3
:10429000E7BA00200021074BC3E90001BDE8F8435D
:1042A000024812F0DDBA00BF40420F008819022018
:1042B00020A107004010022030B5002185B02E4813
:1042C00012F0F2FAF0B92D4B1A68CAB1EFF310816F
:1042D00072B6D2E8CF5F0124002DFAD1C2E8454F73
:1042E000002DF6D1BFF35F8F254C1D6822785960F1
:1042F000D3B201222270C5E88F0F81F31088CBB1B1
:1043000005B030BD00214FF0FF3000F08BFC0020E5
:1043100001F064FA0446184812F0A2FA002CEFD01B
:10432000184B1B68002BEBD0174A106805B0BDE88E
:1043300030401847FCF7ACFD0446FCF74FFF4FF048
:10434000FF3C6FF0004510F57A7241F1000394458F
:1043500075EB030138BF2B464FF000014FF001050C
:1043600020460A4C38BF6246CDE901150094FCF79F
:1043700093FD05B030BD00BF88190220441902200A
:10438000AC190220C0140220C41402206D40001099
:104390004FF0504330B585B01C68FCF779FDFCF751
:1043A0008DFEA04202D0002005B030BD00212A4B76
:1043B00008461B7801F086FC28480368002B47D08C
:1043C0000120FCF7E3FA0346254C2649C0B22370CE
:1043D000FCF766F920780121FCF720F90E20FCF7A4
:1043E0004FF940BB204B0125C3E90000FCF750FD0D
:1043F0000446FCF7F3FE4FF0FF3E6FF0004C10F563
:104400007A7241F1000396457CEB03014FF0000105
:104410002046164C3CBF72466346CDE90115009418
:10442000FCF73AFD0028BEDB01211148FFF79EFD95
:10443000012005B030BD0120FCF7ACF801460A4868
:10444000FCF700FB00220E200A49FCF757F9EBE7C6
:10445000FCF7DCFAB4E700BF7C7D0110881902206C
:10446000AB190220B9420010441902206D4000101F
:10447000E0150020DD40001000487047F074011086
:10448000004870479C74011038B5184B04461A78E0
:104490000AB344B940F209424FF44173144D6A80A3
:1044A00013482B8038BD052C1DD8124B104D53F8E6
:1044B000241028460023013903E0132B20F8022F93
:1044C0000ED011F8012F0133DBB2002AF5D15B00C9
:1044D00043F44073E4E71121184600F025F8D8E7CB
:1044E0004FF44A73DCE7002038BD00BF9419022066
:1044F000FC1402208474011000B545F247308BB0E3
:10450000FDF7EEF801220346092101A89847DDE9ED
:104510000332044912BA1BBAC1E900230BB05DF89B
:1045200004FB00BF6C190220012901F1FF3300F0E8
:10453000B3805D490A784FEA121C9F2A8CBF0CF1A8
:10454000370C0CF1300C012B80F800C000F0A78074
:1045500002F00F02092A8CBF37323032022B427030
:1045600000F09D804A784FEA121C9F2A8CBF0CF104
:10457000370C0CF1300C032B80F802C000F08F8058
:1045800002F00F02092A8CBF37323032042BC2707E
:1045900000F085808A784FEA121C9F2A8CBF0CF1AC
:1045A000370C0CF1300C052B80F804C077D002F0EA
:1045B0000F02092A8CBF37323032062B42716ED07F
:1045C000CA784FEA121C9F2A8CBF0CF1370C0CF1F1
:1045D000300C072B80F806C061D002F00F02092AC8
:1045E0008CBF37323032082BC27158D00A794FEA6B
:1045F000121C9F2A8CBF0CF1370C0CF1300C092BCC
:1046000080F808C04BD002F00F02092A8CBF373265
:1046100030320A2B427242D04A794FEA121C9F2A4A
:104620008CBF0CF1370C0CF1300C0B2B80F80AC04E
:1046300035D002F00F02092A8CBF373230320C2BF2
:10464000C2722CD08A794FEA121C9F2A8CBF0CF1BF
:10465000370C0CF1300C0D2B80F80CC01FD002F081
:104660000F02092A8CBF373230320E2B427316D01C
:10467000CA7911099F2A8CBF373130310F2B8173D2
:104680000DD002F00F02092A94BF30323732102BBE
:10469000C27318BF103002D0002303707047184453
:1046A00000230370704700BF6C190220704700BFE1
:1046B0000022014B1A707047A91902204B79FF2B79
:1046C0000BD1887948B9CB79012B07D1082A05D9B4
:1046D000034B8A7809201A7070470020704700BF8A
:1046E000A919022001207047012901D0012070473B
:1046F00008B5104B91881B78994201D0002008BD65
:104700005378012B08D0022BF8D1002164220846EF
:10471000FCF774FF012008BD518811F480721ABFA4
:10472000C1F3C012480A4FF0FF3001F00301FCF75B
:10473000E3FF00BFA919022000487047AC750110C3
:10474000012907D15378012B02D19388072B03D07D
:1047500000207047012070471146A623014A00F04F
:10476000F7BE00BF047501100346012201481A700C
:10477000704700BFD075011008B50B68B3F5966F90
:1047800000D008BD00224FF0FF301146FCF7B4FF07
:1047900070B500F027F90C234026194CFF22A367BF
:1047A0000E201849FBF7AAFF32460021164812F0E6
:1047B0004BF80125002380211348144A4184457099
:1047C0000683068782604360136042F8043C80F8E9
:1047D000213080F83B3043620D4B4FF00056C360F0
:1047E000C362803B836212F05BF84FF48032094968
:1047F000094B25642846E664C4F89010DA6470BD5D
:10480000000011502D0400203815022084001050A3
:104810000001105010D001000020115001210E2085
:10482000FBF7FCBE00220248114600F0FBB800BFB7
:1048300058150220044B197021B14FF40032034B7C
:10484000C3F89020704700BFA61902200020115025
:104850000B785B0602D14B78052B00D070474B8854
:10486000014ADBB21360704700001150CB782DE98C
:10487000F04103F0030EBEF1010FC3F3010057D066
:10488000002791F802C0314C0CF07F025600898855
:1048900006EBDC1304EB43134FEADC15D876C1F3C7
:1048A0000A0185F0010083F802C019835870DF7097
:1048B000D3006DBB2648043304EB821C03EB0008D5
:1048C000CCF808801F5062B3224BD2001344CCF8BE
:1048D0000430214A3F31136821F03F01BEF1020F3D
:1048E00008BF49001D4819442E4404EB4614814278
:1048F0001160E36027D883F0A04383F480136268DB
:1049000043EA8E6343F0004313600120BDE8F08169
:104910000F4804EB821C0344CCF8283040F8327076
:104920004AB900230E4A04EB4514E2606360ECE7E9
:104930000020BDE8F081D20002F1A04202F5801211
:10494000CCF82420C5E7FCF723FF00BF3815022070
:10495000800010500400105040190220FF0F10502A
:104960000001105011F09CBF8C4608B51146074855
:104970001A460CF07F034FEADC1C0CEB430C00EBF7
:104980004C1000F04FF8012008BD00BF3815022080
:1049900011F07F0205D100290CBF02200120064B37
:1049A0009866C909054B01EB420003EB40104FF438
:1049B0000062002111F050BF002011503815022074
:1049C00011F07F0300D17047002205485B0003EB24
:1049D000D11300EB43106FF40061C27011F03CBFC3
:1049E000381502204FF0805209480A4908B50A4B91
:1049F00002600A609968C94311F08051FAD14FF4FE
:104A00008052064811F020FF0922054B5A6708BD65
:104A10000020024000300240000002400000105020
:104A20000000115000234FF0010C10B580F81AC09F
:104A30008282C3820161044611F02AFF20B14FF443
:104A40000032074BC3F89020204611F00DFF10B143
:104A50000123237710BD2046BDE8104011F00CBFA4
:104A6000002011502DE9F0414FF000081C4D044684
:104A700042462B781B4F1C4E0DE0336813EB42135C
:104A800024D0DB682046984708F101082B785FFAAC
:104A900088F2934206D39342A2EB0303EDD807EBCF
:104AA0004313EEE754220021104811F0CDFE4FF0E1
:104AB000FF330E482022041D4360C4E90133E36044
:104AC000FF21BDE8F041143011F0BEBE4FF0E023ED
:104AD000D3F8F03DDB0700D500BEBDE8F08100BF94
:104AE000A5190220F0750110C811022098130220A8
:104AF000704700BF704700BF00207047002070471C
:104B0000704700BF704700BF704700BF704700BFCD
:104B1000024B5878003818BF0120704798130220C4
:104B2000024B1878C0F38000704700BF9813022032
:104B30002DE9F047DFF8E49099F80030FF2B55D1CC
:104B40000D4600293DD0002154220646294811F087
:104B50007BFE0022284C294B20461A70FBF756FF9B
:104B6000274B28481C60284CFBF75EFF204601F0CD
:104B70008FFB264A264B146023B12648FFF7F4FD2D
:104B8000254B18604FF0000A224C53462278DFF87C
:104B90009080214F0DE03A6812EB431311D05B680F
:104BA0007BB198470AF1010A22785FFA8AF39342AF
:104BB00011D89342EFD39B1A08EB43135B68002B89
:104BC000EFD14FF0E023D3F8F03DDB0700D500BE76
:104BD0000020BDE8F0872946304689F80060FFF7DD
:104BE000D7FD0028EDD03046FFF718FE0120BDE8C4
:104BF000F08700BF9813022090130220A71902200B
:104C0000EC1302200C160020F8150020F0130220EF
:104C100069470010A5190220C811022014160020AF
:104C2000F07501102DE9F04FDFF8B0928BB099F8D4
:104C30000030FF2B00F0ED80A24CA34DDFF898A2CE
:104C4000DFF89CB226687369EFF3108272B6D3E87E
:104C5000CF0F01210028FAD1C3E8401F0028F6D168
:104C6000BFF35F8FB261304607A901F05BF9002303
:104C70007269C2E88F3FB36983F31088002800F09F
:104C8000C8809DF81D30013B072B00F26B83DFE8E5
:104C900003F0A5AF939B8C350A04089B002BD1D061
:104CA00009989847CEE79DF8201001F07F0605EBA4
:104CB000460000EBD11090F8343023F0010380F867
:104CC000343090F8343023F0040380F83430002E70
:104CD00000F0A280027D9AF800309A4280F0918024
:104CE0007A4B1B6813EB421300F08C809E699DF891
:104CF0002120099B9DF81C00B047A3E79BF80030DA
:104D0000002B7FD09BF80030013BDBB28BF80030EA
:104D10009BF8003003F0FF00002B93D16A4F9DF801
:104D20001C803B7843F001033B7097F8343060F30C
:104D3000000387F8343097F8343060F3820387F843
:104D4000343097F8353060F3000387F8353097F842
:104D5000353060F3820387F8353000F05BFC9DF856
:104D6000203003F06002602A66D0402A76D003F03B
:104D70001F03012B00F0B680022B7BD0002B5BD1F0
:104D8000202A00F0DB81002A56D19DF82130092B22
:104D900052D8DFE813F0A20194015100B301510091
:104DA00087015D0151005201E5002B78D9077FF59D
:104DB00049AFFFF7ABFE45E7EB78DA077FF542AF87
:104DC0000898FFF797FE3DE72B78D8077FF53AAFB5
:104DD0002878C0F3C000FFF797FE33E79DF81C006A
:104DE000FFF740FE00F00CFC9DF82030AB7029E787
:104DF0009DF81C00FFF736FE00F002FCFFF782FE74
:104E000020E711D04FF0E023D3F8F03DDC0700D5C8
:104E100000BE0BB0BDE8F08F099B9DF821209DF8E6
:104E20001C0000F00BFC0DE7294B5FE7FFF728FBA8
:104E30000246002840F079814FF0E023D3F8F03D9E
:104E4000DE0700D500BE9DF81C000021FFF7A0FD85
:104E500080219DF81C00FFF79BFDF3E61D4800F044
:104E6000D9FB0121404608AAFFF76AFC00287FF41D
:104E7000E9AEE8E79DF8241011F0700FDCD101F0E5
:104E80007F0607EB4600144B00EBD1101B78007D2A
:104E90007600019698424FEAD11600964FD340F023
:104EA0005F810B4E002A00F05F81706900F0B2FB59
:104EB00001214046736908AA984700287FF4C2AED2
:104EC000C1E700BFF013022098130220C81102208E
:104ED000F075011041470010A5190220141600209A
:104EE000A71902209DF824300F2BACD8AA4A3B44C6
:104EF0001B79127893422DD3A5D1A84E706900F08A
:104F000089FB01214046736908AA984700287FF46D
:104F100099AE9DF8203013F0600694D19DF82130B1
:104F20000A3B012B8FD800F075FB9DF821300A2B2E
:104F300000F0F181404608A900F0F0FA82E6984BB3
:104F40001B6803EB4016002A00F00E81002E3FF490
:104F50007AAFAAE7924A166816EB4316CED172E7EB
:104F60007B789DF822609E4200F04C817B78002B7C
:104F700040F0BD817E70002E00F04281701EC0B2F4
:104F8000FFF77EFA0346002800F05E814278022A8D
:104F900040F05A81C17903F10906C1F340121201B0
:104FA000C1F3801142EA41123146387820F03000D6
:104FB00002433A705A88CDF808809A180092009BF4
:104FC0008B4240F2A3814B780B2B00F0AE814FF067
:104FD000010C042B40F038810023009A1E46521A1F
:104FE00092B201926C4ACDF80CC012781DE06C4A66
:104FF000126812EB461800F02781019A0593029877
:10500000D8F8103004919847059B08280246049967
:1050100003F1010303D90198904280F0F8805E4AC1
:10502000DEB21278B242C0F00F81B242A6EB0202A9
:10503000DDD85A4800EB4218DFE77B7840468DF810
:105040001A300DF11A02012308A900F081FAF9E5DE
:10505000BDF82200030A013B020AC0B20E2B3FF644
:10506000F2AE01A151F823F079520010195100104D
:10507000B5520010474E0010474E001097520010D6
:1050800019510010474E0010474E0010474E0010B7
:10509000474E0010474E0010474E0010474E00107C
:1050A0006B52001008A800F0BBFA40469DF8221091
:1050B000FFF7B8FB3B7843F002033B70C2E5BDF855
:1050C0002230012B7FF4BFAE3B78404623F008032B
:1050D00008A93B7000F022FAB4E540463B789A08F4
:1050E00002F00202C3F340131343ADF81A300DF17E
:1050F0001A02022308A900F02BFAA3E5BDF822301A
:10510000012B7FF4A0AE3B78404643F0080308A98A
:105110003B7000F003FA95E5022A3FF487AEFFF7F3
:10512000EDFC024600283FF48EAE4046538808A9A5
:1051300000F00EFA00287FF485AD84E69DF8243057
:105140000F2B3FF680AE144A3B441B7912789342F2
:105150001DD2134A166816EB43167FF4A6AE72E60C
:10516000002A7FF470AE00269DF8212002F0FD0396
:10517000012B17D0002A7FF45FAE019B009A3B44BD
:10518000134493F834304046C3F34003ADE77FF453
:105190005AAE024E89E600BFA5190220F075011033
:1051A000C8110220BDF82230B3B9012A99F80000D5
:1051B00000F08880FFF7ECFB019B009A3B4413440E
:1051C00093F8342042F0020283F8342093F834201C
:1051D00042F0010283F83420002E3FF433AD7069B1
:1051E00000F018FA7369012108AA40469847002088
:1051F00000F010FA97F83530DF073FF523AD99E658
:10520000FFF780FC404608A900F088F91AE5DDF8B0
:105210000CC0BCF1010F00F09D80BCF1000F00F04C
:105220008A80002391F8028004E00671D8B2844598
:1052300040F2818008EB030057FA80F090F804E018
:105240000133BEF1FF0FF0D04FF0E023D3F8F03D73
:10525000DA0700D500BE4FF0E023D3F8F03DDB07BE
:1052600000D500BE00237B70EDE5FFF765FA02462E
:1052700000287FF45AAFE6E5FFF7FEF80246002863
:105280003FF4DAAD4046122308A900F061F9002886
:105290007FF4D8ACD7E5FFF72FFC024600283FF497
:1052A000D2AD4046137808A900F052F900287FF4E7
:1052B000C9ACC8E5BDF82410FFF7E6F8024600289F
:1052C000EFD1C0E50293FFF77BFB019A009B3A44C4
:1052D0001A4492F83410029B63F3410182F83410AF
:1052E00092F8341063F3000182F8341074E700215F
:1052F0004046FFF79FFA4046FFF734FBBB78404635
:105300000093FFF7AFFB009BBB7033E6DDF808802E
:10531000FFF7F6FB76E74046012308A90DF11A02D4
:105320008DF81A6000F014F98CE40B7891F803C042
:1053300019444B784DE633460F480392019100F033
:1053400069FD0E4B01991B78039AB3421144BFF4D7
:1053500036AE79E7D8F81000094B984208BF4FF0F5
:10536000020C5EE74FF0E023D3F8F03DDB077FF55A
:1053700069AC00BE66E400BFAC130220A519022090
:105380004D5A00102DE9F84F0A9F002A40D00C46D4
:105390001E4615464FF0000ADFF87C90DFF87C804F
:1053A00018E0204698F8021099F800B000F002FDCD
:1053B000E0B121465846FFF759FAF0B1A2780AF158
:1053C000010AD10916BF0B9B3A701A702278AA45C0
:1053D00014441DD06278052A0FD1E17801F0030151
:1053E000B1420AD1A27812F0700FDAD04FF0E02368
:1053F000D3F8F03DDA0700D500BE4FF0E023D3F834
:10540000F03DDB0702D40020BDE8F88F00BEFAE7CC
:105410000120BDE8F88F00BF141600209813022069
:1054200038B58B7813F0700F08D04FF0E023D3F825
:10543000F03DDB0700D500BE002038BD074A084B11
:105440000C46084691781D7800F0B4FC0028ECD09A
:1054500021462846BDE83840FFF708BA98130220D5
:10546000141600200B46064A06481168DA09343241
:1054700003F07F0302EB4303184400F055BC00BF68
:10548000EC130220981302200B46064A06481168C6
:10549000DA09343203F07F0302EB4303184400F0CF
:1054A0006DBC00BFEC1302209813022010B5194800
:1054B00001F07F0C00EB4C0000EBD11090F834C0F1
:1054C0001CF0010F08D04FF0E023D3F8F03DDA07CD
:1054D00000D500BE002010BD00F1300494F804C0D7
:1054E0000D484CF0010C007884F804C0FFF73CFA3A
:1054F0000028F0D14FF0E021227960F30002227100
:10550000227960F382022271D1F8F03DDB07E1D508
:1055100000BEDFE7981302201416002030B50B4CB4
:105520008C46A6460546086849680023AEE8030095
:105530009CF800102846C943C4E90233BDE8304056
:105540001A4601F08001FFF7B1BF00BF58130220D7
:105550002DE9F041284F4FF00008BE468C46064624
:1055600008684968BA60AEE80300A7F80E801546DF
:10557000BCF80620934228BF1346BB819AB11C4653
:1055800033B3DDB197F90030402C28BF4024002B05
:1055900029DB414623463046184AFFF787FF68B1AA
:1055A0000120BDE8F0819CF800101346C943304645
:1055B00001F08001FFF77AFF0028F1D14FF0E023DE
:1055C000D3F8F03DDB0700D500BE0020BDE8F08138
:1055D0001A46397801F0800123463046FFF766FF0E
:1055E0000028DDD1EAE722462946044811F054F9A3
:1055F0008021024AF0E700BF58130220181302204E
:105600000022034BC3E90022C3E902221A6170475A
:1056100058130220014B1861704700BF5813022035
:1056200030B40246044C0025234600685168C4E9A2
:10563000025530BC03C370475813022070B53D4C6F
:10564000C90922780646B1EBD21F1D4682B017D099
:1056500053B14FF0E023D3F8F03DDB0702D4002034
:1056600002B070BD00BEFAE72146FFF7F1F82369EA
:105670001BB12246032130469847012002B070BD7D
:1056800094F90030002B06DBA0680028E7D02A46FA
:10569000294911F001F9E089A168E388284480B222
:1056A00029448342E081A16016D03F2D14D9A289FC
:1056B00094F90040131A9BB2402B28BF4023002CC2
:1056C00027DB90424FF0000131D01B4A3046FFF7F4
:1056D000EDFE0028D1D1BCE7236923B10221304679
:1056E000144A984760B121780023C94330461A46CE
:1056F00001F08001FFF7DAFE0028AAD00120BDE703
:1057000001463046FFF744F980213046FFF740F963
:10571000B3E7904208D01A460748019311F0BCF84D
:105720008021054A019BD1E780210022CEE70A466D
:10573000CCE700BF58130220181302202DE9F041D6
:105740000446FFF7E5F908B9BDE8F081FFF7E8F98D
:1057500005460028F8D1C82304FB03F3124EF718BE
:10576000F9780029F0D010331E44304600F0C8FB11
:105770003F28E9D92846F978FFF774FE0028E3D0DE
:10578000304600F0BDFB3F28F97808D9074A284683
:1057900002EBC4124023BDE8F041FFF787BE284664
:1057A000BDE8F041FFF770BE50120220CC1102207C
:1057B00010B50446FFF7ACF908B9002010BDFFF79B
:1057C000AFF90028F9D1C822034B02FB0433187942
:1057D00000F0010010BD00BF50120220C82208B521
:1057E000024B02FB003000F071FB08BD601202208A
:1057F0002DE9F8434FF6FF73C8249A4228BF1A4692
:1058000000FB04F4DFF8748004F1100545440646FB
:1058100092B2284600F0D0FB0746FFF779F910B99D
:105820003846BDE8F883FFF77BF981460028F7D1B9
:10583000A04498F80330002BF2D0284600F060FB1B
:105840003F28EDD9484698F80310FFF70BFE0028D3
:10585000E6D0284600F054FB3F2898F8031007D9FB
:10586000054A4846402302EBC612FFF71FFED7E762
:105870004846FFF709FED3E7CC1102205012022060
:105880002DE9F0410446FFF743F910B90020BDE8C7
:10589000F081FFF745F905460028F7D1C82604FB3B
:1058A00006F6DFF8648006F124074744384600F026
:1058B0000DFB0028EAD0B044284698F80210FFF704
:1058C000D1FD0028E2D00F4E384606EBC416314613
:1058D000402200F071FB98F80210044668B10346BC
:1058E00032462846FFF7E2FD50B94FF0E023D3F8E7
:1058F000F03DDB07CAD500BEC8E7FFF7C5FDC5E729
:105900002046C4E70C1202205012022038B54FF690
:10591000FF75C823AA4228BF2A460B4C92B203FB4C
:1059200000440546204600F005FC034620461C4680
:1059300000F0CCFA3F2801D8204638BD2846FFF7B2
:105940009FFF204638BD00BF74120220C82208B550
:10595000024B02FB003000F0D3FA08BD74120220A3
:10596000F0B5002483B0C8220021174810F06CFF66
:10597000FF234FF4E13108221448047012480094C8
:10598000074643718160827300F138010123402290
:10599000103000F06BFA0123402207F178010093E8
:1059A00007F1B80607F1240000F060FA07F1C0051E
:1059B0003046FBF72BF82846FBF728F8C7E90746DF
:1059C000C7E90C5403B0F0BD501202204C12022063
:1059D0000A4A116B136A61B13BB10023C2E90C336F
:1059E000D36100231362012070470120C2E90C3308
:1059F0007047002BF7D0D161F3E700BF50120220AF
:105A0000002210B50E4C0F48237802600271DA07AD
:105A100007D59B070BD5BDE8104001210A4800F0CF
:105A200053BC103000F034FC23789B07F3D40648B5
:105A300000F02EFCBDE810400121034800F044BCFA
:105A40004C1202205012022074120220F0B54B7941
:105A500083B0022B02D18B79022B03D0002528467C
:105A600003B0F0BD274FBB783BB14FF0E023D3F834
:105A7000F03DDB07F2D500BEF0E78B7806463B70C1
:105A80000B78CC186178242908BF092507D036E0A7
:105A900023781C4461782B4424299DB207D1AA4263
:105AA000F6D20020FFF74AFE284603B0F0BD0B46B1
:105AB000052916D0042BF4D163790A2BF1D1124BAE
:105AC0002778019301330093022330461A46E119E7
:105AD000FFF758FC0028C8D00E3517FA85F5ADB28F
