:020000041000EA
:10000000002008205D0100101B0100101D010010E0
:100010001101001011010010110100101101001058
:100020001901001019010010190100101F01001022
:10003000110100101901001021010010230100100E
:100040001101001011010010110100101101001028
:100050001101001011010010110100101101001018
:100060001101001011010010110100101101001008
:1000700011010010110100101101001011010010F8
:1000800011010010110100101101001011010010E8
:1000900011010010110100101101001011010010D8
:1000A00011010010110100101101001011010010C8
:1000B00011010010110100101101001011010010B8
:1000C00011010010110100101101001011010010A8
:1000D0001101001011010010110100101101001098
:1000E0001101001011010010110100101101001088
:1000F0001101001011010010110100101101001078
:100100001101001011010010110100101101001067
:10011000EFF30580103800BE00BE00BE00BE00BE7A
:1001200000BE00BEF2EB887114470010304700108B
:10013000A001001090A31AE7D3DEFFFF42012110B7
:10014000FF01000070500000793512AB4FF0000045
:100150001E49086006C881F3088810474FF05040D8
:10016000006810B14FF00000F2E70DA40ECC00299A
:1001700002D000F012F8F9E71549164A002000E015
:1001800001C19142FCD11449884714498847144958
:10019000884700BEFDE701C901C29A42FBD3704700
:1001A0003047001010010020880B0020A8510010DB
:1001B0000000082000000820A851001000100820AE
:1001C00000100820000000007047000008ED00E06B
:1001D000880B002028170020C92F0010710800107C
:1001E0008D2F0010F8B500BF064B0749C91A8910BA
:1001F00048BF0131491003D0044B0BB101481847E7
:10020000704700BF880B0020880B00200000000012
:1002100008B5054B1BB105490548AFF30080BDE8A3
:100220000840FFF7E1BF00BF00000000E416002017
:10023000AC40001007EE101ADFED137A37EE277A84
:10024000FCEEC77A17EE903A9BB2B3B182B007EEDC
:10025000903AF8EE677A37EE677ADFED0C7A27EEA0
:10026000277AFCEEC77ACDED017A9DF804201B04B5
:1002700043EA0223036002B0704700221B0443EAF2
:1002800002230360704700BF0000003B0000804372
:100290000022026042608260C2604FF480320260DD
:1002A0004FF4F83242604FF4802282604FF44022D3
:1002B0008260704738B504460D46FFF7E9FF6A1CB7
:1002C00063686FF3D01343EAC51141EA02316160FC
:1002D000E36823F0604343F00053E36021F0C04142
:1002E0006160204638BD38B504460D46FFF7D0FFA3
:1002F0006A1C63686FF3D01343EAC51141EA023107
:100300006160E36823F0604343F00053E36021F051
:10031000C0416160204638BD38B504460D46FFF740
:10032000B7FF05F1090263686FF3D01343EAC51301
:1003300043EA02336360204638BD38B504460D46B3
:10034000FFF7A6FFAA1C63686FF3D01343EAC51337
:1003500043EA02336360204638BD0000114B1B683E
:100360004FF0A042D2F80C1401229A40114217D04B
:100370004FF0A041C1F80C240B4A1178C9B20B48C8
:100380004FF0010C00F801C0117881EA0C011170E6
:100390001178074A02EB81229B0103F1A043DA6244
:1003A000704700BF0806002026170020D00E00204E
:1003B000D40E002084460023184603E01CF80320D6
:1003C000504001338B42F9D37047000010B582B022
:1003D0008C46A5238DF8073000210DF107020BE0B4
:1003E000424B9B6913F0200FFAD1134613F8014BCF
:1003F0003E4A146001311A460029F1D05A238DF883
:10040000073000210DF107020BE0384B9B6913F018
:10041000200FFAD1134613F8014B344A146001310E
:100420001A460029F1D08DF807C000210DF107020E
:100430000BE02E4B9B6913F0200FFAD1134613F8F3
:10044000014B2A4A146001311A460029F1D04FEAC3
:100450001C238DF8073000210DF107020BE0234B20
:100460009B6913F0200FFAD1134613F8014B1F4A72
:10047000146001311A460029F1D04FF0000E11E04E
:100480001A4B9B6913F0200FFAD1134613F8014B56
:10049000164A146001311A460029F1D00EF1010EFE
:1004A0001FFA8EFEE64507D210F80E308DF80730A1
:1004B00000210DF10702EFE76146FFF77BFF8DF8A2
:1004C000070000210DF107020BE0084B9B6913F0B8
:1004D000200FFAD1134613F8010B044A10600131C2
:1004E0001A460029F1D002B010BD00BF000007403D
:1004F00010B50D4C4FF46131204601F039F802215E
:10050000002000F041FA002301220821204601F0DA
:1005100000F8236B03F44043044A1363012120468F
:1005200001F00DF810BD00BF0000074000100740AB
:10053000F0B587B005460621092000F025FA164ED1
:1005400001240094234609222146304602F064FF2C
:1005500002AF29463846FFF7DFFE059921F478738C
:1005600043F49073059321F0E05323F4787343F040
:10057000806343F490730593084A0A40084B134381
:1005800005934FF4803302933B462A46214630467A
:1005900002F091FF07B0F0BD000020501F7CF0E397
:1005A0002001050470B586B004460621082000F03D
:1005B000EBF9174D0023009301230822022128465E
:1005C00002F02AFF02AE21463046FFF7B6FE059B39
:1005D00023F4782343F480230593049A22F0FA73DA
:1005E00023F4803343F4803304930A4B134043F0E5
:1005F000004343F4803304934FF480330293334633
:1006000022460221284602F056FF06B070BD00BF08
:1006100000002050FF3F0A3E08B52DED028B08EE8A
:10062000100A052001F038F807EE100AB8EE477AF4
:10063000F8EE487A77EEA77AC7EE277A17EE900A97
:10064000BDEC028B08BD000070B586B004460621E3
:100650000A2000F099F9114E012300930A2200218B
:10066000304602F0D9FE02AD21462846FFF722FEB1
:10067000059B23F4F84343F4205305934FF4FA20E9
:10068000FFF7CAFF01462846FFF7D4FD2B46224656
:100690000021304602F00FFF06B070BD0000205070
:1006A00070B586B0044606210B2000F06DF9114E9E
:1006B000012300930B220321304602F0ADFE02AD70
:1006C00021462846FFF70FFE059B23F4F84343F429
:1006D000305305934FF4FA10FFF79EFF014628466A
:1006E000FFF7A8FD2B4622460321304602F0E3FE29
:1006F00006B070BD0000205008B5102906D8036868
:1007000023F4F03343EA4131016008BD034B044A4E
:1007100040F22911034802F03DFC00BFB040001038
:1007200058450010D040001000B583B001460023AA
:1007300001931023019303F5FC03019301A8FFF734
:10074000DBFF019B23F00C0242F00802019223F42C
:10075000F85222F00C0242F0080201920C4A1A40B0
:1007600042F0080201920B4A1A4042F0080101913E
:1007700042F009020192084A1A4042F0090201922D
:100780000648184040F00900019003B05DF804FBF2
:10079000F3E0FFFEF3E07FFEF3E07FFCF1E07FFC9F
:1007A00008B53F2906D8036823F4FC0343EA414116
:1007B000016008BD034B044A40F21B11034802F0DC
:1007C000E9FB00BF1441001040450010D04000106C
:1007D00030B583B0012002F037FD1F4D2860FFF7D0
:1007E000A3FF019020F00C0343F00803019320F0D5
:1007F0003C0343F00803019320F0FC0040F0480064
:100800000190062101A8FFF7CBFF2A68134B1B7844
:10081000134901EB8321930103F1A04311481860B0
:1008200059604FF48071996001991961012404FAAB
:1008300002F20D4BC3F804240C490A2000F09EF983
:1008400021460A2000F088F92B689C404FF0A04315
:10085000C3F8504403B030BD08060020261700201E
:10086000D40E002028002050002000505D0300100E
:100870002DE9F84F02F0A8FC0221A02001F064FA53
:10088000054601214FF4A07001F05EFA002D44D01E
:100890000446002841D00026344B1E80FFF728FE76
:1008A000334F3449384602F09FFD8346324938467B
:1008B00002F09AFD82463149384602F095FD8146A4
:1008C0002F49384602F090FD80465846FFF7BCFE9F
:1008D0005046FFF72DFE4846FFF764FE4046FFF7FF
:1008E000DFFE3B6843F002033B603B6843F00403D8
:1008F0003B603B6843F008033B603B6843F0010307
:100900003B60FFF765FF3346184A127832B9174A41
:100910005278002AF8D0012201E0FEE700220026EA
:1009200012498E54174F07EB822713E0590035F90F
:10093000132004F813200131C2F30722625401335B
:100940009F2BF3DD4FF4A0712046FFF73FFD002100
:1009500002360B46FF2ED7DC57F826201214591CFE
:1009600025F813209F2BF3D10023E9E7D00E0020B8
:1009700000002050AC450010844500107445001064
:10098000A0450010D40E00200C4B03EB800253F85E
:10099000203083F0400303F0C00302F5805CCCF804
:1009A0000030C00000F1804000F52030416002F5C9
:1009B00040524FF480731360704700BF04800340BF
:1009C0000FB400B583B0049C074802F0FFFB3CB1B4
:1009D00005A90191204602F009FC044802F0F6FB4B
:1009E000012002F0B7FA00BF284100103841001082
:1009F000EFF3108072B6064BD3E8CF1F0122002917
:100A0000FAD1C3E8412F0029F6D1BFF35F8F7047B9
:100A1000830E00200023034AC2E88F3F80F3108832
:100A2000704700BF830E002070B505460C46164681
:100A3000FFF7DEFFE208A95C04F0070C012303FACC
:100A40000CF3194205D1DBB20B43AB54FFF7E2FFC5
:100A500070BD21463046FFF7B3FFF8B506460D4698
:100A600014461F46FFF7C4FF00E00134BC420ED815
:100A70004FEAD40C16F80C1004F0070301229A4038
:100A80001142F2D1D2B20A4306F80C2001E04FF035
:100A9000FF34FFF7BFFF002C01DB2046F8BD002D1F
:100AA000FBD00698FFF78CFF054A1078431CDBB299
:100AB0001370172B02D9134610221A70704700BF0B
:100AC0000C0600204FF0E022936843F0005393603F
:100AD00070470000002305E0044A1A440021C2E8E0
:100AE0008F1F01331F2BF7D9704700BF780E0020EE
:100AF000064B9B68103043F82010BFF35F8F002334
:100B00000349C1E88F3F82F31088704700ED00E091
:100B1000810E00200048704700E400E008B5FFF7B0
:100B2000F9FF002304E04FF0803240F8042B01333A
:100B30000C2BF8D962B608BD3AB1064B00F1600241
:100B400043F8221043F8201070472030014B43F83F
:100B50002010704700E100E008B50A4600F01F03CE
:100B6000012199404009FFF7E7FF08BD024B9B6850
:100B7000103053F82000704700ED00E070B50546D6
:100B80000C46EFF3108672B60F4BD3E8CF1F01224D
:100B90000029FAD1C3E8412F0029F6D1BFF35F8FB6
:100BA000FFF7E4FF094B984201D0A04205D132463D
:100BB00021462846FFF79CFF70BD054B054AED21F5
:100BC000054802F0E7F900BF810E00201101001076
:100BD00088410010B845001054410010014B0B44EF
:100BE00003607047780E002010B50446FFF75CFFE5
:100BF00001462046FFF7F2FFFF232371BFF35F8F0B
:100C000010BD10B50446FFF74FFF01462046FFF721
:100C1000E5FFFF23237100236371BFF35F8F10BDD6
:100C200010B50D4C09E00D4B0D4A1A210D4802F08C
:100C3000B1F92046FFF7D8FF08340B4B9C4209D28C
:100C40002368002BF5D0012BEDD12046FFF7D9FF0B
:100C50000834F2E710BD00BF800B0020C041001037
:100C6000F8450010E0410010880B00200246EFF329
:100C70000583DBB2103B990804D0034803F003035B
:100C8000136070470148F9E700800B4000000B40FB
:100C900010B4846AA2EB040C0B1D50F823301B1B0C
:100CA0009C4504D3046A01238B401C4202D10431C9
:100CB00040F821205DF8044B704741EA004070473E
:100CC0000D4B1A68EFF3108172B6D2E8CFCF012036
:100CD000BCF1000FF9D1C2E84C0FBCF1000FF4D108
:100CE000BFF35F8F1A680023C2E88F3F81F310883B
:100CF00040BF0020002170471C1700202DE9F04F55
:100D000085B003A8FFF7B2FF954B984214BF0023AC
:100D10000123039901EB8303924A52F8234023787D
:100D2000994206D1054601228A4000F541535A6096
:100D30002CE18D4B8D4A92218D4802F02BF9D4F88D
:100D4000149006EB46074FEAC70A09EBC707D7F826
:100D500008B0D7F80C80284600F032FBB0EB0B004F
:100D600061EB0803002BC0F21A81B8F1000F64DBBD
:100D70003B691A4600937F4B9A4230D0798889B2FA
:100D8000B4F90800FFF799FF7969009B9847009034
:100D900001910099019A51EA02034ED01346002AAC
:100DA00029DABBEB010268EB0308BA60C7F80C80D4
:100DB00039F90A70002FC0F2F280D4F814E007EB82
:100DC00047030EEBC3039968DB68511A68EB030312
:100DD000002BC0F2E480A4462CF8087F17E07A6963
:100DE000136900921046984738B3009A136800932D
:100DF00053680193CDE7284600F0E2FA009B1A18E9
:100E0000019B43EB0108D0E79C463EF90B70002F95
:100E10000EDBBCF9003003EB43034FEAC30B0EEBD0
:100E2000C3039868D968101A68EB01010029EBDA4E
:100E300029F80A70ACF80060B1E039F90A30238172
:100E40002369EFF3108272B6D3E8CF0F0121002897
:100E5000FAD1C3E8401F0028F6D1BFF35F8FB4F981
:100E6000023029F80A30668021690023C1E88F3FEB
:100E700082F3108893E02369EFF3108272B6D3E80F
:100E8000CF0F01210028FAD1C3E8401F0028F6D176
:100E9000BFF35F8FB4F804800FFA88F84FF6FF7342
:100EA000A38021690023C1E88F3F82F310881AE0F4
:100EB0001F4630F90A60002E0FDBB7F9003003EB54
:100EC00043034FEAC30A00EBC3039968DA68BCEB3B
:100ED00001016EEB0202002AEADAA7F8008030F97D
:100EE000098020F80960B8F1000F5DDB606908EB4C
:100EF00048034FEAC30900EBC303D3F808C0D3F893
:100F00000CE004F10807B4F90860D4E70023A371EA
:100F100004F1080CB4F9083010E04FF0FF384FF03E
:100F2000FF39C0E90289B4F90800984205D0ACF84D
:100F30000020B4F90800C85323811346B3F1FF3FE2
:100F400035D0616903EB4302D70001EBC20031F9F0
:100F50003220468816F4004FDFD18446EDE700BF0B
:100F600000800B40FC160020644200102446001054
:100F700090420010FD0C0010284600F021FA3F1AA4
:100F800066EB0106012F76F1000628DA039A0123A9
:100F90009340EB63B4F90860002EBFF6D0AEA3888F
:100FA00013F4004F3FF467AFA379002BAED1B4F92F
:100FB0000830002B13DB626903EB430302EBC3032E
:100FC0009F68DE68B6F1FF3F08BFB7F1FF3FD3D09F
:100FD0003A46334603992846FFF75AFECCE740BF0E
:100FE00005B0BDE8F08F00BFF8B504460D461146C8
:100FF0000A4B984210D000262E44012707FA05F527
:1010000025623046FFF7BAFD39463046FFF7A4FDAA
:1010100004F501542560F8BD0426EDE700800B407F
:10102000F8B504460E4617461D46C160FFF73CFD65
:10103000164B034423612770ABB263814FF05042DB
:10104000127862704FF6FF722281A280013B6380AA
:101050004FF0000C08E00CF1FF300CEB4C0E636914
:1010600023F83E000CF1010CAC45F4D3084B9E4232
:1010700014BF0023012307EB8303064A42F82340F1
:10108000054A39463046FFF7AFFFF8BD780E00201D
:1010900000800B40FC160020FD0C001008B5054B2D
:1010A0001B690BB1034808BD034B044A6521044882
:1010B00001F070FF10060020BC4200100C4600102A
:1010C00090420010F8B504469E460069EFF3108187
:1010D00072B6D0E8CF6F0125002EFAD1C0E8465F86
:1010E000002EF6D1BFF35F8FB4F90250666905EBAD
:1010F0004500C70006EBC000002D03DB36F907C032
:10110000A4F802C04FF0000C2369C3E88FCF81F32D
:101110001088654533DB069901610799416182605A
:10112000C0F80CE0418889B20131C1F30E0101B968
:10113000012141802846FFF7C0FD2369EFF31082AB
:1011400072B6D3E8CFCF0121BCF1000FF9D1C3E8CB
:101150004C1FBCF1000FF4D1BFF35F8FA388F35392
:10116000A58021690023C1E88F3F82F31088E368DE
:10117000217801228A4003F501535A60F8BD4FF0EF
:10118000FF30FBE770B582B0064615461C469DF859
:10119000203033B900F03EF9854264EB01010029AB
:1011A0000ADB079B0193069B00932A4623463046A1
:1011B000FFF788FF02B070BD0020FBE7F0B585B0F7
:1011C00005460C4616461F46FFF768FF9DF8283077
:1011D0000293019700962A462346FFF7D3FF05B0F6
:1011E000F0BD03464089B0EB214F31DD10B50A1444
:1011F000586902EB420200EBC2001A69EFF3108C4F
:1012000072B6D2E8CF4F5FF0010E002CF9D1C2E8E0
:1012100044EF002CF5D1BFF35F8F428892B289B2C0
:101220008A420FD0002019690022C1E88F2F8CF369
:10123000108830B1DA681B780121994002F501531A
:10124000596010BD42F40042428001209871EAE7E3
:101250000020704710B50446FFF720FF2146FFF736
:10126000C0FF10BDF0B583B005460C46EFF3058313
:10127000DBB293B1384B5B6A8B4209D3364A926A30
:10128000824208D28B4201D0012002E0002000E01F
:10129000002003B0F0BD0120FBE7FFF7FFFEC768A9
:1012A0000678384600F08CF82A1A64EB01010436FF
:1012B00057F826301B1A9A4271F1000112DB20BF49
:1012C000254B5B6A9C4209D8234A926AAA4207D2FC
:1012D0009C4201D00120DCE70020DAE70020D8E7BB
:1012E0000120D6E7002300931C4A28462146FFF739
:1012F00065FF002818DD184B5B6A9C4205D8164A2A
:10130000926AAA4202D29C4200D120BFFFF7A2FFFC
:10131000114B5B6A9C421BD80F4A926AAA4219D2AF
:101320009C4213D00120B4E70B4B5B6A9C4209D866
:10133000094A926AAA4207D29C4201D00120A8E73A
:101340000020A6E70020A4E70120A2E70020A0E7F4
:1013500000209EE701209CE700000B40C10C00101C
:101360000048704700000B4010B50A4B1B6923B1C1
:101370000A210948FFF732FC10BDFFF7F1FF0446D0
:10138000032100F00BF81023032221460148FFF748
:1013900047FEEDE7100600201C17002010B5054A97
:1013A000054C064BA04214BF1846581CFFF73CFBE7
:1013B00010BD00BFE042001000800B40A40E0020D2
:1013C0000246436A906A1946536A9942FAD17047B5
:1013D000416A00E0416A9942FCD300E0416A9942C7
:1013E00002D1816A9142F9D3704770B5064614461E
:1013F0001D46FFF7E5FF021941EB0503824273EB3F
:10140000010102D24FF0FF3213463046FFF7E0FFF2
:1014100070BD000008B50248FFF7D2FF08BD00BF4D
:1014200000000B4008B502460B460248FFF7DDFFFF
:1014300008BD00BF00000B40074B98420AD01A239A
:1014400001229A40054B1A60054B9B6832EA030360
:10145000FAD170471B23F3E70080074000300240B9
:101460000000024038B5046B14F0010F01D1204692
:1014700038BD00F5405340F201321A63436A856A71
:1014800005EB8315AD02062000F006F9044BA3FB23
:101490000030C00AB5FBF0F00021FFF7C3FFE6E71C
:1014A000757B2B8F70B505460C461646FFF7DAFFA5
:1014B000EB6A5C40344005F58153DC60286370BD05
:1014C00070B505460C46062000F0E6F8C300B3FBF5
:1014D000F4F30133DC0907D04FF6FE72944214D8BE
:1014E0002646C3F3450400E001266E62AC6200228A
:1014F00011462846FFF7D6FF062000F0CDF8800001
:1015000004EB8614B0FBF4F070BD00244FF6FF76B8
:10151000EBE708B5A1F1050C511EC90041EA4C11D9
:101520003BB141F00201012B01D0002302E0042372
:1015300000E000236E221943FFF7B4FF08BD08B591
:1015400001B110211022FFF7ADFF08BD49B10A22F9
:10155000054B984214BF00200120044B23F81020B3
:1015600070474FF48072F3E7008007402017002097
:1015700038B504460D46062000F08EF8F8B1114B40
:101580009C421DD01A22012393400F4A136020462B
:10159000FFF752FF00212046FFF7D8FF29462046DB
:1015A000FFF78EFFE36A83F0700303F07E0304F518
:1015B0008152D36040F2013323630323A36438BD17
:1015C0001B22E0E7008007400020024070B516466D
:1015D000049D00EB400C4FEA8C0C0CF1804C0CF598
:1015E000803CDCF80420AA4201D2CCF80450A0F1DF
:1015F000040E5FFA8EFEBEF1010F28D90CF54052A1
:101600004FF4006414601E4A52F8202042B11C4C72
:101610006469B4FBF2F4013404EB4404033CFDD2EE
:10162000DCF8002082EA461202F0E0020CF5805459
:101630002260BEF1010F16D90CF500524FF4006183
:101640001160CCF804500E4A42F8203070BD0129D8
:10165000D4D10CF5405203241460DCF8082012F0B9
:10166000010FFAD0DCE7DCF800204A4002F0030268
:101670002260DCF8084001228A401442F9D0DBE7FE
:10168000A80E002010B582B04FF480340094FFF70C
:101690009DFF02B010BD0000014B53F820007047C1
:1016A000A80E002070B5049C344DB5FBF1FC344D00
:1016B0001544344EB54237D8B2FBFCF5A5F1100EF7
:1016C000BEF5987F36D803F1FF3EBEF1060F37D83E
:1016D00004F1FF3EBEF1060F32D8BCEB121F35D825
:1016E000240344EA03440368002B35DB264B98426D
:1016F00042D00E2301229A40244B1A6003F58053F6
:101700001A60234B9B6832EA0303FAD101608560BB
:1017100000F540520432212313600368002BFCDAE9
:10172000C4600823136070BD1A4B1B4A11211B486B
:1017300001F030FC1A4B184A1921184801F02AFC14
:10174000184B154A1C21154801F024FC164B124A6F
:101750002321124801F01EFC036803F03F038B4273
:10176000C4D18368C3F30B03AB42BFD1C36803F496
:10177000EE23A342BAD1D6E70F23BBE7001BB70085
:1017800080E84BD380F8A932008005400020024059
:1017900000000240044300103C4600105443001077
:1017A00088430010A4430010F0430010054A00EBEA
:1017B000400302EB8303596000EB400080000123EB
:1017C000135070470080104008B50023DB8A0022C8
:1017D00042E800F212F4800F02D11021984708BDB0
:1017E00004219847FBE70000034BD3F82838002B6F
:1017F000FAD0BFF35F8F704700000E40002207E071
:10180000054B13449B00BFF35F8F00211960013229
:10181000072AF5D9704700BF0382031008B5FFF708
:10182000EDFF08BD074B4FF42A621A604FF48D722A
:10183000DA6003F50053044A1A60024B5B68002B20
:10184000FBDA70470080044000B0FA0010B504468F
:1018500002E054F8043B9847014B9C42F9D310BD79
:10186000A84000107047000008B50248FFF7EEFFDF
:1018700008BD00BF68400010064B074A1A6003F518
:101880008053064A1A60064B9A68044B9343FAD178
:10189000704700BF002002407F3BEFEFF6FFF303ED
:1018A00000000240054BDB6CB3F5004F00D07047E1
:1018B000034B4FF48022DA64F9E700BF00001150B7
:1018C000002011504FF0E022D2F8881D034B0B434B
:1018D000C2F8883D10EE3004704700BF03033000AB
:1018E000054B6FF060421A60044B9B68DB4333F09A
:1018F0006043F9D1704700BF003002400000024051
:1019000008B545F25320FFF75FFF034604209847D0
:1019100008BD08B545F25320FFF756FF03460120E6
:10192000984708BD08B5FFF7D5F808BD10B50C49B4
:101930000C4A521A92101446442A28BF442292009C
:10194000094802F08FF904E0084A074B43F82420C5
:101950000134432CF8D9044A054B9A6010BD00BFEE
:101960000000001010010010000000201101001004
:1019700000ED00E038B50420FFF78EFE064BA3FB18
:101980000035AD0C002404E02946E0B2FFF70EFF5D
:101990000134052CF8DD38BD83DE1B4330B583B040
:1019A000264B0022C3F88420FFF73CFF244B012282
:1019B000DA63224B5B6C012BFBD1214B03221A63B0
:1019C0001E4B9B6B012BFBD10224009405231D4A67
:1019D00001211D48FFF766FE052500952B461B4A91
:1019E00001211B48FFF75EFE1A4B0022214604200E
:1019F000FFF748FE184C2346002201212846FFF736
:101A000041FE164D2B46002211460820FFF73AFEF4
:101A10002B46002211460920FFF734FE2346002200
:101A200011460620FFF72EFE23460022114607200E
:101A3000FFF728FEFFF79EFF03B030BD0000014016
:101A400000300140002F685900000540008C864797
:101A500000800540001BB70080D1F008006CDC025C
:101A600086B003B451FC0804CDE9020151FC09041D
:101A7000CDE9040151EC0A04CDE9060103BCF047AD
:101A8000BDE800504EEC00C4BDE800504EEC01C46F
:101A9000BDE800504EEC02C400BD000000B5FFF7E9
:101AA000DFFF02E010FE30F4F8D441EC100443EC08
:101AB000112400EE010410EE010480EE200451EC2C
:101AC0001004704700B5FFF7CBFF02E010FE30F4C2
:101AD000F8D441EC100443EC112400EE010410EEA4
:101AE000210480EE200451EC3004704700B5FFF76C
:101AF000B7FF02E010FE30F4F8D410B541EC10044A
:101B000043EC112451EC040453EC0524A0FB024CDB
:101B10005FF0000EE0FB03CEE1FB02CE4CEC204474
:101B20000024E1FB03E444EC30E480EE200451ECBB
:101B30005004BDE81040704700B5FFF791FF02E088
:101B400010FE30F4F8D441EC100443EC112451ECB5
:101B50002104A0FB01126FEA820252FB100052FB2B
:101B600012F252FB1000A0EBD07C53EC04245CFB7F
:101B700013F153EC1524A1FB022001FB030053ECED
:101B80004424A2EB000050FB1CF24FEA111312EBAD
:101B9000017043EBE27140EA515020EA915020F08D
:101BA000070053EC7524A0FB023C53EC752400FBAA
:101BB00003CC01FB02CC53EC0424ACEB824C40EA96
:101BC0005C70A0F1010041EC400480EE200451EC77
:101BD0007004704700B5FFF743FF02E010FE30F4D9
:101BE000F8D440EC700400EE010410EE210480EE05
:101BF000200451EC3004704700B5FFF731FF02E0DC
:101C000010FE30F4F8D440EC600400EE010410EE55
:101C1000210480EE200451EC3004704700B5FFF73A
:101C20001FFF02E010FE30F4F8D441EC800400EE17
:101C3000010410EE010480EE400410EE130470471E
:101C400000B5FFF70DFF02E010FE30F4F8D441ECD0
:101C5000800400EE010410EE010480EE400410EE5A
:101C60003304704700B5FFF7FBFE02E010FE30F4CE
:101C7000F8D441EC100443EC112400EE010410EE02
:101C80003004C0F30070704700B5FFF7E9FE02E0D2
:101C900010FE30F4F8D443EC102441EC110400EEB3
:101CA000010410EE30F48CBF01200020704700BF0B
:101CB00000B5FFF7D5FE02E010FE30F4F8D443EC97
:101CC000102441EC110400EE010410EE30F42CBF9E
:101CD00001200020704700BF00B5FFF7C1FE02E001
:101CE00010FE30F4F8D441EC100443EC112400EE63
:101CF000010410EE30F42CBF01200020704700BF1B
:101D000000B5FFF7ADFE02E010FE30F4F8D441EC70
:101D1000100443EC112400EE010410EE30F48CBFEB
:101D200001200020704700BF08B528B103460B44CE
:101D3000034A934200D808BD0248FEF741FE00BFA7
:101D4000000008200C44001070B505460E4601F056
:101D500009FC044606FB05F1FFF7E6FF204670BDCF
:101D6000704720B108B50A684968904708BD7047B8
:101D70000146002008E000EB8000531C0B60137844
:101D800003EB4003A3F130000A681378303BDBB269
:101D9000092BF0D970472DE9F04F83B005460E4668
:101DA00093461F46DDF830A00D9CDDF838900F9B60
:101DB00013F0030F19D1A046019208E002F1010BC4
:101DC0003B4631462020A84708F101085A46C8453D
:101DD000F4D3DDF804B008E0013C02F101083B4611
:101DE00031461AF80400A8474246002CF4D10F9B54
:101DF00013F0020F09D1104603B0BDE8F08F541C58
:101E00003B4631462020A8472246A2EB0B034B4518
:101E1000F5D3F0E72DE9F04385B099460C9D0D9C74
:101E20009DF83880DDF840E0119F129E16F0020FF9
:101E300021D17FB116F0010F0CD0B8F1000F02D103
:101E400016F00C0F06D0013F04E04FF0300C05F8FF
:101E500004C00134744501D21F2CF6D916F0010FCD
:101E600009D0BC4207D21F2C05D84FF0300C05F822
:101E700004C00134F2E716F0100F14D016F4806F8E
:101E800004D11CB1744522D0BC4220D00F9B102B32
:101E900033D00F9B022B3DD01F2C0ED84FF0300CAF
:101EA00005F804C001341F2C07D8B8F1000F39D051
:101EB0004FF02D0C05F804C00134039602970194ED
:101EC00000954B46FFF767FF05B0BDE8F083B4F11E
:101ED000010C1DD00F9B102B0ED064460F9B102BB6
:101EE000D7D116F0200FD4D01F2CD2D84FF0580CD9
:101EF00005F804C00134CFE7023C16F0200FEDD105
:101F00001F2CEBD84FF0780C05F804C00134C3E760
:101F10006446BBE71F2CD0D84FF0620C05F804C014
:101F20000134B9E716F0040F05D04FF02B0C05F87B
:101F300004C00134C1E716F0080FBED04FF0200CEA
:101F400005F804C00134B8E7F0B591B0169C189DAF
:101F50001B9E0CB926F0100616F4806E1DD064B3DB
:101F60004FF0000E19E016F0200F24D04127BC449A
:101F70005FFA8CFCACF10A0C5FFA8CFC0EF10107E5
:101F80000EF1400EEE440EF820CCB4FBF5FCAC4252
:101F900014D31F2F12D8BE466446B4FBF5FC05FBD4
:101FA0001C4C5FFA8CFCBCF1090FDCD80CF1300C36
:101FB0005FFA8CFCE2E76127D9E7274606961A9C70
:101FC0000594199C049403959DF85C400294019734
:101FD00008AC0094FFF71EFF11B0F0BD2DE9F04FE3
:101FE00095B009900A910B929846DDF878B0DDF82B
:101FF0007C90229D239F269E5BEA090201D126F058
:10200000100616F4806424D05BEA09022FD0002465
:102010001FE016F0200F28D041231344DBB20A3B07
:10202000DBB204F1010A04F150020DEB020404F8E2
:10203000203C2A463B465846494602F009F8AB4543
:1020400079EB070915D3BAF11F0F12D8544683460E
:1020500089462A463B465846494601F0F9FFD2B226
:10206000092AD6D83032D3B2DBE76123D5E74FF067
:10207000000A0696259B0593249B049303959DF8DF
:1020800080300293CDF804A00CAB009343460B9A2A
:102090000A990998FFF7BEFE15B0BDE8F08F000061
:1020A0002DE9F04F93B004460D4617461E46DDE974
:1020B0001CAB52465B4650465946FFF7D7FD0028F9
:1020C00040F0F3804FF0FF32AD4B50465946FFF7DA
:1020D0001BFE002840F0E9804FF0FF326FF48013C0
:1020E00050465946FFF7D4FD002840F0DE8000221C
:1020F000002350465946FFF7CBFD002840F0E6800C
:10210000CDE906AB209B13F480630F9301D1062326
:102110001E93DDE9062310461946CDE90A01079B07
:1021200052EA030100F0DC80C3F30A50C3F3130347
:10213000904643F07F5949F44019A0F2FF30FFF771
:102140004DFD7DA3D3E90023FFF7D4FC7CA3D3E9A5
:102150000023FFF7A7FCCDE908010022894B404688
:102160004946FFF7B3FC78A3D3E90023FFF7C2FC8D
:1021700002460B46DDE90801FFF794FCFFF752FD2C
:102180000890FFF72BFD8046894671A3D3E9002311
:10219000FFF7B0FC00227C4BFFF784FCFFF742FD09
:1021A0000A906DA3D3E9002340464946FFF7A2FCFD
:1021B000804689460A98FFF711FD69A3D3E90023F9
:1021C000FFF798FC02460B4640464946FFF77EFC67
:1021D0008046894602460B46FFF78CFCCDE90C0190
:1021E0000A9B03F2FF3300210022CDE90A121B05EE
:1021F0000B9300230A9342464B4640464946FFF75D
:1022000051FCCDE9100142464B4600204FF0804181
:10221000FFF75CFC8046894600225C4BDDE90C013F
:10222000FFF78EFC00225A4BFFF73CFC02460B46A0
:10223000DDE90C01FFF784FC0022564BFFF732FC6E
:1022400002460B46DDE90C01FFF77AFC02460B461D
:1022500040464946FFF726FC02460B46DDE91001E1
:10226000FFF76EFC00224C4BFFF71CFCDDE90A2354
:10227000FFF740FC80468946CDE90A89DDE906235F
:10228000FFF742FD50B1089B013B08930022404BF1
:1022900040464946FFF754FCCDE90A01089B6333E9
:1022A000C62B46D84FF004081EE0209B04931F9BCA
:1022B00003931E9B0293CDE900AB33463A46294671
:1022C000204600F0FDF813B0BDE8F08F9FED267BAF
:1022D0008DED067BCDF818A00BF10043079311E7B5
:1022E000002308934FF00408209B13F4006F5FD085
:1022F000DDE90A1213460B4313D01DA3D3E90023D3
:10230000DDE90601FFF7ECFC002800F0B4801AA319
:10231000D3E90023DDE90601FFF7BAFC002800F04D
:10232000AA801E9A089B9A4238DDD31A013B1E935D
:1023300036E04FF00508D7E7FB799F501344D33FB1
:10234000B3C8608B288AC63F61436F63A787D23FBB
:1023500071A379094F930A401655B5BBB16B024082
:10236000EF39FAFE422EE63F0000000000000000B8
:102370002D431CEBE2361A3F0000000080842E4102
:10238000FFFFEF7F0000F83F0000E03F00002C401F
:1023900000002440000018400000F03F00231E937E
:1023A000209B43F4806320934FF00008CDF82080F9
:1023B0001F9B984569D2A3EB0809209B13F00203E9
:1023C0000C9304D0B8F1000F01D04FF00009089B26
:1023D0003BB1DDE90A23DDE90601FFF7B1FBCDE9F9
:1023E00006010022002350465946FFF751FC002801
:1023F0004ED1209B23F400630493CDF80C901E9BD8
:1024000002939DED067B8DED007B33463A462946CF
:10241000204600F055F8B8F1000F3FF454AF209B70
:1024200013F0200F3CD04FF0450C00F1010933466A
:10243000024629466046A047089981EAE172A2EB6C
:10244000E1720523059308F1FF33049300230393FE
:102450000A230293CB0F0193009233464A46294642
:102460002046FFF771FD0C9B002B3FF42CAF02467A
:10247000DDF87C901EE01E9B002B99D00F9B002B5B
:1024800096D01E9B013B1E9392E74FF0000994E704
:10249000DDE90601024601F10043CDE90623A8E784
:1024A0004FF0650CC1E702F10108334629462020B0
:1024B000A0474246D31B4B45F5D3104603E700BF68
:1024C0002DE9F04F2DED028B95B007900A919246C1
:1024D0009B46DDE92089229D42464B4640464946BF
:1024E000FFF7C4FB002835D14FF0FF326FF48013A3
:1024F00040464946FFF7CCFB00283AD14FF0FF3267
:10250000B14B40464946FFF7FFFB002840D1AAA344
:10251000D3E9002340464946FFF7F6FB00284DD19A
:10252000A7A3D3E9002340464946FFF7B1FB0028A3
:1025300044D10022002340464946FFF7A9FB00286A
:102540004AD100230B93249B13F4806F00F0B580D5
:10255000002454E0249B0393239B029303230193C1
:102560009A4B00935B4652460A990798FFF713FC73
:102570001BE1249B0393239B029304230193944B1D
:1025800000935B4652460A990798FFF704FC0CE15A
:10259000249B13F0040F0ED08E4B04222499039138
:1025A00023990291019200935B4652460A9907983B
:1025B000FFF7F1FBF9E0884B0322EFE7249B04933C
:1025C000239B03930295CDE900895B4652460A9905
:1025D0000798FFF765FDE8E042464B4600200021E2
:1025E000FFF774FA8046894601230B93ABE704F1A9
:1025F00050036B44302203F8202C013D01341F2C82
:1026000001D8092DF3D840464946FFF70BFB064693
:10261000FFF7E4FA02460B4640464946FFF756FAF2
:102620006E4B03EBC50393ED008B53EC182BFFF7B8
:1026300061FA02460B46CDE90823FFF705FB074682
:10264000FFF7DEFA02460B46DDE90801FFF73EFA26
:1026500002460B46CDE908230022614BFFF754FBED
:1026600068B301373846FFF7CBFA02460B4651EC08
:10267000180BFFF721FB08B1013600276DBB304670
:10268000FFF7ACFA02460B4640464946FFF71EFAF2
:10269000074688460022524BFFF7FAFA00284CD131
:1026A00000224F4B38464146FFF72EFB002844D10D
:1026B00016F0010F41D001363FE0062548E7002221
:1026C000474BDDE90801FFF7E3FA0028D6D117B13F
:1026D00017F0010FD2D00137D0E71F2C17D8013DDA
:1026E000404BA3FB0723DB08194603EB8303A7EB4F
:1026F0004303621C303304F150000DEB000404F876
:10270000203C092F02D90F461446E6E714461F2C39
:102710000AD86B1E45B104F150026A44302102F818
:10272000201C1D460134F2E71F2C06D804F150038B
:102730006B442E2203F8202C01341F2C17D82A4A70
:1027400082FB0632F317C3EBA2031A4603EB8303A3
:10275000A6EB4303611C303304F150000DEB000481
:1027600004F8203C16460AB10C46E6E70C46249BCA
:1027700003F00303012B39D01F2C09D80B9B002B2E
:1027800051D004F150036B442D2203F8202C013466
:10279000249B0393239B029301940CAB00935B4611
:1027A00052460A990798FFF7F6FA15B0BDEC028B6E
:1027B000BDE8F08FAFF300800000000065CDCD4193
:1027C0000000000065CDCDC1FFFFEF7F7444001015
:1027D000784400106844001070440010A0460010B7
:1027E0000000E03FCDCCCCCC67666666239BB3B1DE
:1027F0000B9B1BB9249B13F00C0F12D0239B013BA6
:102800002393194606E004F150036B44302203F889
:10281000202C01348C42AFD21F2CF4D9ACE7239981
:10282000F8E72399F6E7249B13F0040F07D004F18F
:1028300050036B442B2203F8202C0134A8E7249B7F
:1028400013F0080FA4D004F150036B44202203F8C6
:10285000202C01349CE700BF2DE9F04F8FB080465B
:1028600017460D938946002900F04F83002508E0A4
:102870006C1C3B462A464946C0470D9B01330D93CD
:1028800025460D9B1878002800F042832528EFD1BB
:1028900001330D9300261FE046F0010601320D9230
:1028A000012318E046F0020601320D92012312E0E6
:1028B00046F0040601320D9201230CE046F00806B2
:1028C00001320D92012306E046F0100601320D920E
:1028D000012300E000234BB30D9A1378203B102B0B
:1028E000F8D801A151F823F0BD280010D528001018
:1028F000D5280010C9280010D5280010D5280010B0
:10290000D5280010D5280010D5280010D528001093
:10291000D5280010B1280010D5280010A5280010D7
:10292000D5280010D5280010992800100A930D9B77
:102930001A78A2F13003DBB2092B18D92A2A1BD04E
:102940000A9B0B930D9B1A782E2A25D00D9A13788B
:10295000683B122B5CD8DFE803F0495BAC5B3B5B68
:102960005B5B5B5B5B5B575B5B5B5B5BB1000DA8C1
:10297000FFF7FEF90B90E5E7189B1A1D18921B68EC
:10298000002B04DB0B930D9B01330D93DAE746F02C
:1029900002065B420B93F6E746F480665A1C0D92E2
:1029A0005A78A2F13003DBB2092B0CD92A2ACDD1F7
:1029B000189B1A1D18921C6824EAE4730A930D9B55
:1029C00001330D93C2E70DA8FFF7D2F90A90BDE7D6
:1029D00046F48071531C0D9353786C2B01D00E4636
:1029E00016E046F4407602320D9211E046F0800186
:1029F000531C0D935378682B01D00E4608E046F027
:102A0000C00602320D9203E046F4807601320D9248
:102A10000D9B1878672856D82528C0F06C82A0F145
:102A20002503422B00F26782DFE813F05A026502A9
:102A3000650265026502650265026502650265025E
:102A4000650265026502650265026502650265024E
:102A5000650265026502650265026502650265023E
:102A6000650265026502650265026502880168010A
:102A700088016502650265026502650265026502FC
:102A8000650265026502650265026502650265020E
:102A900065027100650265026502650265026502F4
:102AA0006502650265027100AF017100880168016D
:102AB000880146F4007601320D92A9E746F480764B
:102AC00001320D92A4E7782800F215826928C0F03F
:102AD0001282A0F16902D2B20123934049F241026D
:102AE000134214D113F0800F40F0DF8113F4806F94
:102AF00000F00182189B1A1D1892D3F800A00A9BBF
:102B0000002B40F090814FF0FF32534674E16F2864
:102B10003DD005D858283CD0622803D1022304E0D8
:102B2000782838D026F010060A23582835D069288E
:102B300003D0642801D026F00C0616F4806F01D073
:102B400026F0010669282BD0642829D016F4007FCE
:102B500040F0968016F4807F40F0AE8016F0400F73
:102B600000F0BF80189A111D1891127805960B99E4
:102B700004910A99039102930023019300923B462A
:102B80002A4649464046FFF7DFF9054629E0082373
:102B9000CBE71023C9E71023C7E746F02006C6E7B6
:102BA00016F4007F21D116F4807F42D116F0400F39
:102BB00058D0189A111D1891127882EAE271A1EB8F
:102BC000E27105960B9804900A9803900293D20F35
:102BD000019200913B462A4649464046FFF7B4F928
:102BE00005460D9B01330D934BE6189A073222F0F0
:102BF000070202F10801189151681268084600297D
:102C000013DB08960B9C07940A9C069404930023FC
:102C10000593C90F0291009201903B462A4649460E
:102C20004046FFF7DBF90546DBE7524261EB410026
:102C3000E7E7189A111D1891126882EAE271A1EB78
:102C4000E27105960B9804900A9803900293D20FB4
:102C5000019200913B462A4649464046FFF774F9E7
:102C60000546BEE716F0800F05D0189A111D189181
:102C7000B2F90020A1E7189A111D189112689CE77B
:102C8000189A073222F0070202F1080118910896FB
:102C90000B9907910A9906910021049305910291DD
:102CA000D2E90023CDE900233B462A464946404667
:102CB000FFF794F9054694E7189A111D18910596A7
:102CC0000B9904910A9903910293002301931368CD
:102CD00000933B462A4649464046FFF735F90546EC
:102CE0007FE716F0800F04D0189A111D18911288F2
:102CF0003CE7189A111D1891126837E746281AD038
:102D0000189B073323F0070303F108021892049677
:102D10000B9A03920A9A0292D3E90023CDE9002389
:102D20003B462A4649464046FFF7CAFB05460D9BEF
:102D300001330D93A5E546F02006E1E7672801D0B1
:102D4000472801D146F40066452801D0472801D123
:102D500046F02006189B073323F0070303F108020F
:102D6000189204960B9A03920A9A0292D3E90023CE
:102D7000CDE900233B462A4649464046FFF790F9F5
:102D800005460D9B01330D937BE516F002061CD022
:102D900001241898031D189305F1010A3B462A46A1
:102DA00049460078C047AEB90D9B01330D93554697
:102DB00067E5551C3B4649462020C04723462A4626
:102DC0005C1C9A45F5D81546E3E70123DDF82CA0F5
:102DD0002A46F5E75246DDF82CA006E0561C3B4695
:102DE00049462020C0472C463246651CA245F5D8EE
:102DF0009246D9E701330A46197811B1511E002ACB
:102E0000F8D1A3EB0A0316F4806B03D00A9A93421D
:102E100028BF134616F0020407D00C940A9E2A46D7
:102E20005D469B4623E00A9A6FE6CDF830B02A460D
:102E300025460B9C07E002F1010B3B46494620204A
:102E4000C04733465A465E1C9C42F4D8DDF830B089
:102E50002C4633460C940A9E5D469B4607E01E4670
:102E60000AF1010A541C3B464946C04722469AF8DB
:102E7000000020B1002DF3D0731E002EEFD10C9C6A
:102E800015465B461CB90D9B01330D93F9E40B9E6F
:102E900006E0551C3B4649462020C04723462A46AB
:102EA0005C1C9E42F5D81546EDE746F02106189BBE
:102EB0001A1D18921B680596082204920A9A03921A
:102EC000102202920022019200933B462A46494674
:102ED0004046FFF739F805460D9B01330D93D0E4CA
:102EE0006C1C3B462A4649462520C0470D9B0133B2
:102EF0000D932546C5E46C1C3B462A464946C0470F
:102F00000D9B01330D932546BBE4DFF82080ADE433
:102F1000BD4208D37A1E3B4649460020C04728469A
:102F20000FB0BDE8F08F2A46F5E700BF611D001025
:102F300000B585B002900391009313464FF0FF3225
:102F400002A90348FFF788FC05B05DF804FB00BF49
:102F5000631D001000BEFDE70346094A126842B136
:102F6000074A10680344074A934206D8044A13608C
:102F70007047034A04491160F2E74FF0FF30704791
:102F8000E0160020000008202817002008B5FFF7F1
:102F9000E1FF000000B583B08C4619465AB11446D3
:102FA000064B0194009363460246054800F03EF943
:102FB0000120FFF7CFFF034B1C46F2E780440010CF
:102FC000904400108C44001010B5EFF30583DBB281
:102FD00003B100BEFEF748FC044C02E054F8043B89
:102FE0009847034B9C42F9D310BD00BFA840001086
:102FF000AC40001008B5034608461B6811469847C8
:1030000008BD0000F8B507460D461646437D13B1CE
:10301000002420460CE003681146284698472EE01D
:103020003B7D10E03B68022115489847601C013445
:10303000B44214DA002CF3DD2B1913F8013C0D2BEC
:1030400014BF002301232A5D0A2AF0D1002BEED100
:10305000A042E7DA3B68211A28449847E2E7B042E9
:1030600003DA3B68311A28449847002E07DD3544BF
:1030700015F8013C0D2B14BF002301233B75F8BD4F
:10308000F046001038B50368BBB105460B4B1C6811
:1030900006E0294651F8042B2046FFF7B3FF2469C8
:1030A0004CB12368002BFAD0054B1B68002BF0D0E5
:1030B000A342F4D1EDE700232B6038BDD4160020E5
:1030C000DC16002038B505460C460B68802B05D071
:1030D00023685A1C22601C44257138BD0846FFF73E
:1030E000D1FFF5E708B5FEF795F9074A821841F1D7
:1030F0000003002B03DB054800F0B2FF08BD4FF0D2
:10310000FF326FF00043F6E740420F00800B0020D3
:1031100008B5024800F0A0FF08BD00BF800B0020EA
:103120002DE9F04383B006460D4690461C46FFF756
:10313000D9FF8146B5F1FF3F04D044B1174F184B7A
:103140001C6807E0304600F003FE0546F5E7154F22
:10315000F5E72469BCB12368002BFAD0124B1B6839
:103160000BB1A342F5D12A4631462046B847B8F103
:10317000000FEED00A238DF8073001220DF1070170
:103180002046B847E5E7B9F1000F03D1284603B060
:10319000BDE8F083FFF7BCFFF8E700BF0530001083
:1031A000D4160020F52F0010DC16002010B5054BBA
:1031B0001C6800E0246924B16368002BFAD09847AA
:1031C000F8E710BDD41600200020704738B505463A
:1031D00000F0BEFD044601231A4601462846FFF7CB
:1031E0009FFFFFF7E3FF204638BD0000F0B5A3B016
:1031F00004460E46FFF776FF05460023019301AF14
:103200003346224639460848FFF792FE04463846C0
:10321000FFF738FFFFF7CAFF15B9204623B0F0BD0E
:10322000FFF776FFF9E700BFC53000100FB400B517
:1032300083B004A951F8040B0191FFF7D7FF03B045
:103240005DF804EB04B0704700B583B00146054B50
:1032500000930F2300220448FDF7FFFB03B05DF845
:1032600004FB00BFC04400102417002000220260AD
:1032700042608260C2604FF4803202604FF4F832E4
:1032800042604FF4802282604FF440228260704797
:10329000D0F8683123B111F0010F06D0002070473B
:1032A00011F0040F03D00020704701207047012067
:1032B000704708B5C979FFF7EBFF08BD70B5044644
:1032C0000D461646FFF7F5FFD0B195F90530002BF6
:1032D00001DBB34217D104F12F4000F56000000D6F
:1032E0000A4B53F820102A7901239340013B03FA3B
:1032F00006F20A4201D1002070BD6FF00800FBE722
:103300006FF00A00F8E76FF00A00F5E7980E00206A
:10331000F8B506460D461746FFF7D0FF28BB034613
:1033200008E00CEB070403EB070C0CF1120C46F859
:103330002C4001332A799A4207D92A6832F813C0FF
:10334000BCF5005FEDD36446EDE701239340013BFC
:1033500006F12F4606F56006360D044951F8262081
:10336000BB401A4341F826203846F8BD980E00208D
:1033700010B50A79202A19D800F12F4000F5600015
:10338000000D154B53F8204001239340013B91F968
:103390000510002910DB0846C2F12002914218DC1A
:1033A0008B40234201D04FF0FF3010BD0B4B0C4A35
:1033B00043210C48FFF7EEFDC2F12000002805DB99
:1033C00003FA00F22242F0D00138F7E76FF008006C
:1033D000EBE74FF0FF30E8E7980E0020E0440010E4
:1033E000F44600100C450010F8B505460E46FDF7F2
:1033F000FFFA074631462846FFF7BAFF041E04DAF3
:103400003846FDF707FB2046F8BD224631462846E0
:10341000FFF77EFF0446F3E7F0B59DF81470D0F88F
:103420006841121B1F2A43D801EB410400EBC4047E
:10343000D4F8DC60D4F8CC5001EB4104E400C8348B
:10344000044404F540544FF4003CC4F804C017B1E0
:103450004FF01F0E15E04FF0000E12E0540144F043
:10346000A05401EB410C00EBCC0CCCF8DC404EF44A
:10347000604444F08004CCF8D840053B053202F0AB
:103480001F02052BEAD8520142EA836301EB410295
:1034900000EBC202C2F8DC304EF4604343F080031C
:1034A000C2F8D830C2F8DC60C2F8CC500020F0BDC1
:1034B0006FF00400FBE770B584B005460C46164675
:1034C00002680121A14022EA01020260ABB31A4660
:1034D000196804EB440300EBC303C3F8C8109168F8
:1034E000C3F8D0105168C3F8CC10D268C3F8DC2000
:1034F00004EB4403DB00D0332B4403F580534FF03F
:1035000000421A601A604FF00133A340AB60221DE5
:10351000012303FA02F205F500510A6004F10802E2
:1035200093400B6006F01F0604EB440405EBC40552
:10353000C5F8D860002004B070BD6846FFF796FE5D
:1035400004EB440305EBC303009AC3F8C820029AB6
:10355000C3F8D020019AC3F8CC20039AC3F8DC202A
:10356000C6E70000024B0A460146186800F002B8A0
:10357000380A002038B5A1FB021434BB00F032F841
:10358000054630B350F8042C22F00302043A242AF2
:103590000CD8132A0FD91B2AC0E9004412D9242AB7
:1035A000C0E9024418D000F1100205E0214600F005
:1035B000E1FA284638BD024600232846C2E9003316
:1035C000936038BD00F10802F6E700F033FB0C23EE
:1035D00003600025284638BD00F11802C0E9044404
:1035E000EAE700BF01F10B03162B2DE9F04F074668
:1035F00083B023D8102900F2AF8000F0AFFA102575
:1036000018230220BA4E33445C68A3F108029442A6
:1036100000F056816368384623F00303D4E90212B0
:103620002344CA6091605A68083442F001025A602B
:1036300000F09AFA204603B0BDE8F08F002B23F08B
:103640000705C0F28980A94200F2868000F086FA60
:10365000B5F5FC7FC0F07B826B0A00F08480042B00
:1036600000F26281AB0903F1390003F1380EC300A7
:103670009F4E3344A3F1080C5C68A44507D10DE0CC
:10368000002AE16880F216818C450C4606D06368FA
:1036900023F003035A1B0F2AF2DD7046DFF868821D
:1036A0003469444500F0F280636823F0030CACEB0E
:1036B00005030F2B00F37481002BC6E9048880F208
:1036C0006381BCF5007FD6F804E080F0FF804FEA0C
:1036D000DC0301224FEA5C1C013302FA0CF256F8BB
:1036E00033104EEA020E06EBC302083AC6F804E0B5
:1036F000C4E9021246F83340CC6083104FF0010C4D
:103700000CFA03FCF44534D81CEA0E0F07D120F064
:1037100003004FEA4C0C04301CEA0E0FF9D006EB04
:10372000C00A8146D646DEF80C300BE05A681C46CB
:10373000DB6822F00302511B0F2900F301810029ED
:1037400080F215819E45F1D109F101090EF1080EB3
:1037500019F0030FE7D158E10C233B600024204609
:1037600003B0BDE8F08F4FF4007340204FF03F0EE0
:103770007EE7B468636823F00309A945A9EB050354
:1037800002D30F2B00F385805A4B08201B6803F1EE
:10379000100804EB0903009300F056FA564AA844B7
:1037A00083461368013305D008F1FF384342804453
:1037B00003EA08084146384600F02AFAB0F1FF3F14
:1037C00082464D4A00F0078104EB0903834200F270
:1037D00000814A4B0BF1FF3C18684044186000F030
:1037E00064811168013100F06C8104EB0902AAEBDD
:1037F000020202441A601AF00702CDE9002300F029
:103800002781C2F10802384692445A44D04408EA5B
:103810000C01521A02EA0C0B594600F0F9F9421C4D
:10382000019B00F06A81A0EB0A0000EB0B0818680E
:1038300048F00102B442C6F808A05844CAF804206F
:10384000186017D0B9F10F0F40F23E816168A9F1FD
:103850000C024FF0050C22F0070201F001011143A8
:103860000F2A616004EB0201C1E901CC00F24D8135
:10387000DAF80420224B54461968814238BF186098
:10388000204B1968814238BF1860A6E0D6F804E0E2
:1038900033E7621945F0010543F00103083444F8A9
:1038A000045C3846B260536000F05EF9204603B015
:1038B000BDE8F08FA26823443846D1608A60B2E642
:1038C000DC68A3427FF4A6AE0230E7E6BCF5206FC9
:1038D0004FEA5C2276D3142A00F2CD8002F15C0319
:1038E0005B32DB00F118F3580839994211D1A5E099
:1038F000300600203C0D0020280600200C0D002082
:10390000340D0020380D0020380600209B689942B5
:1039100004D05A6822F003026245F7D8D968C4E996
:1039200002318C60DC60E8E6142B63D9542B00F282
:10393000AB802B0B03F16F0003F16E0EC30097E613
:10394000D4F808C03846671945F001056560CCF821
:103950000C30C3F808C041F00103C6E90477C7E999
:1039600002887B60A150083400F0FEF8F7E622449C
:103970003846516841F00101516054F8082FD36076
:103980009A6000F0F1F8EAE6A44438460834DCF81E
:10399000043043F00103CCF8043000F0E5F8DEE633
:1039A000621943F0010145F0010538466560C6E93A
:1039B0000422C2E90288516044F80C30083400F057
:1039C000D3F8CCE64FEA9C1202F139033832DB001F
:1039D00088E7B44262D0B468626822F00308A84560
:1039E000A8EB050302D30F2B3FF753AF384600F087
:1039F000BBF8B3E603F15C0003F15B0EC30037E6EE
:103A00005AF80839534540F0A08010F0030F00F138
:103A1000FF30F5D1736823EA0C0373604FEA4C0C56
:103A20000CF1FF329A4204D3A3E64FEA4C0C09F1A1
:103A300004091CEA030FF8D0484670E692104FF0D4
:103A4000010C0CFA02F24EEA020EC6F804E066E738
:103A50000AEB0802384602EA0C02ABEB020B0BEA57
:103A60000C0B594600F0D4F8431C019B7FF4DBAEED
:103A7000DDF800B0DBE6542A2AD84FEA1C3202F106
:103A80006F036E32DB002DE7B3F5AA7F2AD8EB0B6C
:103A900003F1780003F1770EC300E9E52E4B0BF13B
:103AA000FF3C1868404418609BE61AEA0C0F7FF44C
:103AB00098AEC844D6F808A048F00102CAF804201D
:103AC000D8E6C2F800A096E60123CAF804308DE7D4
:103AD000B2F5AA7F24D84FEADC3202F178037732BC
:103AE000DB00FFE640F25452934224D8AB0C03F1C2
:103AF0007D0003F17C0EC300BAE5009A4FF0000B85
:103B0000083A9044A8EB0A0891E6384604F1080107
:103B1000009300F0A7F9009BD6F808A01868A7E664
:103B200040F254539A420CD84FEA9C4202F17D0372
:103B30007C32DB00D6E64FF47E737F204FF07E0EA2
:103B400096E54FF47E737E22CCE6736866E7E8085C
:103B500005F1080356E500BF0C0D0020014800F0F8
:103B60006FB800BF080D0020014800F06BB800BF1F
:103B7000080D0020830730B546D08418844604E041
:103B800003F8011B9D0704D09C46A4456346F7D16A
:103B900030BD013A0244A2EB0C02032A29D9CCB26F
:103BA0000F2A04EB042404EB04442FD9A2F1100CD7
:103BB00003F110052CF00F0CAC44C3E90044C3E939
:103BC000024410336345F8D112F00C0F02F00F0ECF
:103BD00018D02EF0030CAEF104051A469C4442F8AE
:103BE000044B6245FBD125F0030404330EF00302BD
:103BF0002344002ACCD0C9B21A4403F8011B9342D3
:103C0000FBD130BD7246F4E70346C6E79646E0E7CF
:103C100038B50022064D044608462A60FFF79CF995
:103C2000431C00D038BD2B68002BFBD0236038BD6F
:103C3000D8160020014B1868704700BF380A0020D2
:103C4000704700BF704700BF082802D14FF4805072
:103C5000704708B5FFF7EEFF162203464FF0FF301E
:103C60001A6008BD844641EA000313F0030349D1FA
:103C7000403A23D30B6803604B6843608B688360D2
:103C8000CB68C3600B6903614B6943618B698361D6
:103C9000CB69C3610B6A03624B6A43628B6A8362BE
:103CA000CB6AC3620B6B03634B6B43638B6B8363A6
:103CB000CB6BC36340304031403ADBD230320BD360
:103CC0000B6803604B6843608B688360CB68C3609C
:103CD00010301031103AF3D20C3205D351F8043BB6
:103CE00040F8043B043AF9D2043208D0D2071CBF92
:103CF00011F8013B00F8013B01D30B8803806046BB
:103D0000704700BF082A13D38B07B1D010F003030C
:103D1000AED0C3F10403D21ADB071CBF11F8013B7C
:103D200000F8013BA4D331F8023B20F8023B9FE7A7
:103D3000043AD9D3013A11F8013B00F8013BF9D21A
:103D40000B7803704B7843708B78837060467047B4
:103D500020F0030110F00300C0F1000051F8043B13
:103D600000F1040C4FEACC0C6FF000021CBF22FAE9
:103D70000CF213434FF0010C4CEA0C2C4CEA0C4CA7
:103D8000A3EB0C0222EA030212EACC1204BF51F8A0
:103D9000043B0430F4D0C2F1000102EA0102B2FA9D
:103DA00082F2C2F11F0200EBD20070472DE9F84306
:103DB0000646DFF8AC8008208946FFF745FF054638
:103DC0003046FFF7CBFED8F808305F6827F00307CE
:103DD000A7F11104A4EB09042C44B4FBF5F4013C55
:103DE00005FB04F4A54208DC00213046FFF710FF74
:103DF000D8F808303B44984205D03046FFF7B4FE6F
:103E00000020BDE8F88361423046FFF701FF013032
:103E10000FD03F1B104AD8F80830304647F0010752
:103E20005F6013681B1B1360FFF79EFE0120BDE857
:103E3000F88300213046FFF7EBFED8F80820831AFC
:103E40000F2BDADD43F0010303495360034B1B687A
:103E5000C01A0860D1E700BF0C0D00202806002022
:103E60003006002000295AD0F8B50C460746FFF767
:103E700075FE734D54F804CCA4F10802A8682CF028
:103E800001030CF0010ED1184E68884226F003069B
:103E90007CD088194E60406800F00100BEF1000F30
:103EA0002ED154F8084C05F1080C121B23449468D9
:103EB000644560D0D2F80CE0C4F80CE0CEF80840BD
:103EC00000287DD043F0010050600B60B3F5007F07
:103ED0002ED25809D9080123834068680131034371
:103EE00055F831006B6005EBC103083BC2E90203E2
:103EF00045F83120C2603846BDE8F840FFF734BECF
:103F000070B9334405F1080C886843F0010460453A
:103F10006ED0C968C16088605460D350D6E77047DE
:103F20004CF00101B3F5007F44F8041CD350D0D30A
:103F3000B3F5206F4FEA532144D2990901F13900BA
:103F400001F13804C100681869580838884203D163
:103F500055E08968884204D04C6824F003049C42F0
:103F6000F7D8C868C2E9021082603846CA60BDE866
:103F7000F840FFF7F9BD80BB1E44D1E90213CB60C6
:103F8000996046F0010353609651B4E71E44BEF1B8
:103F9000000F07D154F8083CD21A1E44D2E902138C
:103FA000CB60996046F001035360264BAA601B6802
:103FB000B342A0D8244B38461968FFF7F7FE9AE7BA
:103FC0003344A1E714290DD954291FD8190B01F145
:103FD0006F0001F16E04C100B5E743F001005060CD
:103FE0000B6088E701F15C0001F15B04C100AAE706
:103FF000C5E90422C2E902CC5460D3507BE7A41087
:104000000123A3406C6823436B60ABE7B1F5AA7F43
:1040100006D8D90B01F1780001F17704C10092E7CD
:1040200040F25450814206D8990C01F17D0001F113
:104030007C04C10087E74FF47E717E2483E700BFD4
:10404000300600202C0600203C0D0020F8B500BFF3
:104050005FF800F0790200205FF800F021020020F4
:104060005FF800F0ED010020011900107918001030
:10407000A51800109D190010E11800101D1800105F
:1040800025190010E9170010210C00102D1900103F
:10409000691300106518001013190010C5180010DE
:0C40A000C50A00101D0B001011020010DA
:1040B000636861696E5F746F203C3D204E554D5FB3
:1040C000444D415F4348414E4E454C530000000073
:1040D000433A2F6465762F7069636F2D73646B2F7D
:1040E0007372632F7270325F636F6D6D6F6E2F68C6
:1040F000617264776172655F646D612F696E636C74
:104100007564652F68617264776172652F646D6193
:104110002E68000064726571203C3D204452455178
:104120005F464F52434500000A2A2A2A2050414E3A
:104130004943202A2A2A0A000A0000003078316305
:10414000203D3D20282A696E7374293E3E31317529
:1041500000000000433A2F6465762F7069636F2D6D
:1041600073646B2F7372632F7270325F636F6D6D48
:104170006F6E2F68617264776172655F6972712F0B
:104180006972712E6300000063757272656E74202F
:104190003D3D205F5F756E68616E646C65645F7540
:1041A0007365725F697271207C7C206375727265C1
:1041B0006E74203D3D2068616E646C657200000085
:1041C00031203D3D202875696E747074725F7429CA
:1041D0006C2D3E7370696E5F6C6F636B0000000046
:1041E000433A2F6465762F7069636F2D73646B2F6C
:1041F0007372632F636F6D6D6F6E2F7069636F5F86
:1042000073796E632F6D757465782E6300000000FE
:10421000746F74616C0000006D74782D3E636F7272
:10422000652E7370696E5F6C6F636B006C6F636B90
:104230005F69735F6F776E65725F69645F76616CEB
:104240006964286D74782D3E6F776E657229000061
:104250006D74782D3E656E7465725F636F756E74F4
:1042600000000000706F6F6C2D3E74696D65725FA9
:10427000616C61726D5F6E756D203D3D2074696D7E
:1042800065725F616C61726D5F6E756D000000003C
:10429000433A2F6465762F7069636F2D73646B2FBB
:1042A0007372632F636F6D6D6F6E2F7069636F5FD5
:1042B00074696D652F74696D652E63006465666150
:1042C000756C745F616C61726D5F706F6F6C5F694C
:1042D0006E697469616C697A656428290000000060
:1042E000486172647761726520616C61726D20252E
:1042F0006420616C726561647920636C61696D65CD
:104300006400000076636F5F66726571203E3D2039
:104310005049434F5F504C4C5F56434F5F4D494EA1
:104320005F465245515F485A2026262076636F5FCC
:1043300066726571203C3D205049434F5F504C4CA4
:104340005F56434F5F4D41585F465245515F485A53
:1043500000000000433A2F6465762F7069636F2D6B
:1043600073646B2F7372632F7270325F636F6D6D46
:104370006F6E2F68617264776172655F706C6C2F0D
:10438000706C6C2E630000006662646976203E3DAE
:10439000203136202626206662646976203C3D2046
:1043A0003332300028706F73745F64697631203E59
:1043B0003D203120262620706F73745F646976314A
:1043C000203C3D2037292026262028706F73745FFB
:1043D00064697632203E3D203120262620706F739E
:1043E000745F64697632203C3D203729000000006C
:1043F0007265665F66726571203C3D202876636F4A
:104400005F66726571202F20313629004F75742048
:104410006F66206D656D6F7279000000446562758E
:1044200067000000626F6F74325F77323571303829
:1044300030000000322E322E300000007069636FB1
:1044400032000000617564696F5F70617373746836
:10445000726F7567685F7478000000004D617920A5
:104460003134203230323600666E692B0000000095
:10447000666E69006E616E00666E692D0000000058
:104480002C2066756E6374696F6E3A200000000020
:10449000617373657274696F6E20222573222066C2
:1044A00061696C65643A2066696C65202225732217
:1044B0002C206C696E65202564257325730A000025
:1044C0004E6F20444D41206368616E6E656C7320B1
:1044D00061726520617661696C61626C65000000E3
:1044E00070726F6772616D2D3E6C656E67746820C7
:1044F0003C3D2050494F5F494E5354525543544917
:104500004F4E5F434F554E5400000000433A2F6416
:1045100065762F7069636F2D73646B2F7372632FD1
:104520007270325F636F6D6D6F6E2F68617264774A
:104530006172655F70696F2F70696F2E6300000094
:104540006368616E6E656C5F636F6E6669675F73EB
:1045500065745F64726571006368616E6E656C5F3F
:10456000636F6E6669675F7365745F636861696EC8
:104570005F746F007C45001003FF01002220A22021
:10458000014000008C4500100AFF010000E03FE000
:10459000A0202020420001E03FE0A0202020470092
:1045A000A845001002FF010042B042A0B44500102F
:1045B00002FF010042B042A06972715F7365745FCF
:1045C0006578636C75736976655F68616E646C6548
:1045D000720000006D757465785F6578697400001D
:1045E0006D757465785F656E7465725F626C6F631C
:1045F0006B5F756E74696C0072756E74696D655F62
:10460000696E69745F6D757465780000616C6172C4
:104610006D5F706F6F6C5F6765745F646566617511
:104620006C740000616C61726D5F706F6F6C5F69BC
:1046300072715F68616E646C65720000706C6C5FB3
:10464000696E69740000000006005250D3F0754294
:104650001C44001006005250E182887F2444001060
:1046600006005250ABB36053344400100600525061
:10467000BBFF3CB63C44001006005250861C0302AF
:1046800044440010060052505422A29D5C44001085
:1046900005005250DE65F468BC51001000000000B7
:1046A000000000000000F03F000000000000244077
:1046B00000000000000059400000000000408F4052
:1046C000000000000088C34000000000006AF840BD
:1046D0000000000080842E4100000000D0126341E1
:1046E0000000000084D797410000000065CDCD4157
:1046F0000D0A000066696E645F6F66667365745FBD
:0C470000666F725F70726F6772616D000F
:08470C0058F5FF7F01000000D9
:104714004846001054460010604600106C460010D5
:0C472400784600108446001090460010FB
:1047300000B503460068EFF3108272B6D0E8CFEF01
:104740005FF0010CBEF1000FF8D1C0E84ECFBEF112
:10475000000FF3D1BFF35F8F93F9040000280ADB49
:1047600081B10860002019680023C1E88F3F82F3FF
:1047700010885DF804FB4FF0504191F90010197159
:104780000120F0E70020EEE7F8B51E460368002B95
:1047900027D0044615464FF0504393F90070216826
:1047A000EFF3108C72B6D1E8CF2F0123002AFAD193
:1047B000C1E8423F002AF6D1BFF35F8F94F904E0CD
:1047C000BEF1000F13DB22680023C2E88F3F8CF399
:1047D00010882846314600F01FFA0028DFD000205C
:1047E0000DE0074B074AA621074800F019FA277188
:1047F00022680023C2E88F3F8CF310880120F8BDA7
:1048000018420010E0450010E041001070B582B081
:10481000064615461C4601A9FFF78AFF38B99DF9DF
:1048200004204FF0504393F900309A4201D102B076
:1048300070BD2A4623463046FFF7A6FFF7E7000083
:1048400008B50268EFF3108372B6D2E8CFCF01212A
:10485000BCF1000FF9D1C2E84C1FBCF1000FF4D13C
:10486000BFF35F8F90F90420002A09DBFF22027159
:1048700001680022C1E88F2F83F3108840BF08BD74
:10488000024B034AD521034800F0CAF92C4200101C
:10489000D4450010E041001053B94AB9002908BFBF
:1048A00000281CBF4FF0FF314FF0FF3000F0B2B9CD
:1048B000ADF1080C6DE904CE00F006F8DDF804E077
:1048C000DDE9022304B070472DE9F04F8C46099EC4
:1048D00004460F46002B48D18A4215465ED9B2FAEB
:1048E00082F33BB1C3F120029F409D409C4020FADF
:1048F00002F217434FEA154E1FFA85FC220CB7FB54
:10490000FEF10EFB117701FB0CF042EA07429042E8
:1049100007D9AA1801F1FF3702D2904200F258815C
:104920003946121AA4B2B2FBFEF00EFB102200FBB5
:104930000CFC44EA0244A4450BD92C1900F1FF32C7
:104940002CBF01270027A44502D9002F00F0438186
:10495000104640EA0140A4EB0C0400211EB1DC40EB
:104960000023C6E90043BDE8F08F8B4206D90EB1A3
:10497000C6E9000100210846BDE8F08FB3FA83F1D3
:10498000002951D16345C0F01681824240F2138163
:104990000846002EE7D0C6E90047E4E7002A00F009
:1049A000AF80B2FA82F3002B40F0C2808A1A4FEA3D
:1049B000154EAFB20121200CB2FBFEFC0EFB1C22F7
:1049C00040EA024207FB0CF090420ED9AA180CF103
:1049D000FF382CBF4FF001094FF00009904203D976
:1049E000B9F1000F00F0F080C446121AA4B2B2FB75
:1049F000FEF00EFB102200FB07F744EA0244A74238
:104A00000ED92C1900F1FF322CBF4FF0010E4FF0E0
:104A1000000EA74203D9BEF1000F00F0D28010466D
:104A2000E41B40EA0C4099E7C1F120058B400CFAE9
:104A300001F400FA01F922FA05F72CFA05FC8A4084
:104A40001F4320FA05F3380C23431FFA87FE1C0C82
:104A5000BCFBF0F800FB18CC44EA0C4408FB0EFC4D
:104A6000A4450ED93C1908F1FF3A2CBF4FF0010BB9
:104A70004FF0000BA44503D9BBF1000F00F0B88044
:104A8000D046A4EB0C041FFA83FCB4FBF0F300FB4C
:104A9000134403FB0EFE4CEA0444A6450ED93C1910
:104AA00003F1FF302CBF4FF0010C4FF0000CA64576
:104AB00003D9BCF1000F00F09F80034643EA084091
:104AC000A4EB0E04A0FB02EC64457346E04602D35F
:104AD00007D1F14505D2BEEB02036CEB070C0138A0
:104AE000E0465EB1B9EB030264EB080404FA05F595
:104AF00022FA01F3CC401D43C6E90054002132E7FD
:104B000042082F464B08AC4642EAC172AE46C40783
:104B1000110C92B241EA034142EA0142B1FBF5F1C4
:104B2000B3FBF5F01F23A2EB0C0241EA004142E780
:104B30009D40C3F1200299409C402CFA02FC4FEAB0
:104B4000154E20FA02F2AFB2BCFBFEF80A430EFB90
:104B500018CC110C41EA0C4108FB07FC8C4550D9DC
:104B6000691808F1FF302CBF4FF001094FF0000920
:104B70008C4502D9B9F1000F30D0A1EB0C01B1FB8B
:104B8000FEF808FB07FC0EFB181192B242EA014244
:104B9000624534D2AA1808F1FF312CBF4FF0010949
:104BA0004FF000096245BED2B9F1000FBBD1A8F1A8
:104BB00002012A44B7E7841A6CEB0302012017466E
:104BC000E7E62C4402382BE7ACF1020C2A440CE750
:104BD00002392A44A5E62C440238BAE6A5EB0C0CAF
:104BE000A8F102006144B1FBFEF808FB07FCCAE72C
:104BF000A8F102083C4444E7023B3C445EE74146DE
:104C000091E7A1EB0C014046B1FBFEF808FB07FC65
:104C1000B9E700BF704700BF5FF800F065120010F1
:104C20005FF800F0952F0010FFFFFFFF100000005D
:104C30000000000000000000000000000000000074
:104C400000000000880B0020FFFFFFFF00000200B3
:104C500000000000000000003006002030060020A8
:104C600038060020380600204006002040060020BC
:104C7000480600204806002050060020500600206C
:104C8000580600205806002060060020600600201C
:104C900068060020680600207006002070060020CC
:104CA000780600207806002080060020800600207C
:104CB000880600208806002090060020900600202C
:104CC0009806002098060020A0060020A0060020DC
:104CD000A8060020A8060020B0060020B00600208C
:104CE000B8060020B8060020C0060020C00600203C
:104CF000C8060020C8060020D0060020D0060020EC
:104D0000D8060020D8060020E0060020E00600209B
:104D1000E8060020E8060020F0060020F00600204B
:104D2000F8060020F80600200007002000070020F9
:104D300008070020080700201007002010070020A7
:104D40001807002018070020200700202007002057
:104D50002807002028070020300700203007002007
:104D600038070020380700204007002040070020B7
:104D70004807002048070020500700205007002067
:104D80005807002058070020600700206007002017
:104D900068070020680700207007002070070020C7
:104DA0007807002078070020800700208007002077
:104DB0008807002088070020900700209007002027
:104DC0009807002098070020A0070020A0070020D7
:104DD000A8070020A8070020B0070020B007002087
:104DE000B8070020B8070020C0070020C007002037
:104DF000C8070020C8070020D0070020D0070020E7
:104E0000D8070020D8070020E0070020E007002096
:104E1000E8070020E8070020F0070020F007002046
:104E2000F8070020F80700200008002000080020F4
:104E300008080020080800201008002010080020A2
:104E40001808002018080020200800202008002052
:104E50002808002028080020300800203008002002
:104E600038080020380800204008002040080020B2
:104E70004808002048080020500800205008002062
:104E80005808002058080020600800206008002012
:104E900068080020680800207008002070080020C2
:104EA0007808002078080020800800208008002072
:104EB0008808002088080020900800209008002022
:104EC0009808002098080020A0080020A0080020D2
:104ED000A8080020A8080020B0080020B008002082
:104EE000B8080020B8080020C0080020C008002032
:104EF000C8080020C8080020D0080020D0080020E2
:104F0000D8080020D8080020E0080020E008002091
:104F1000E8080020E8080020F0080020F008002041
:104F2000F8080020F80800200009002000090020EF
:104F3000080900200809002010090020100900209D
:104F4000180900201809002020090020200900204D
:104F500028090020280900203009002030090020FD
:104F600038090020380900204009002040090020AD
:104F7000480900204809002050090020500900205D
:104F8000580900205809002060090020600900200D
:104F900068090020680900207009002070090020BD
:104FA000780900207809002080090020800900206D
:104FB000880900208809002090090020900900201D
:104FC0009809002098090020A0090020A0090020CD
:104FD000A8090020A8090020B0090020B00900207D
:104FE000B8090020B8090020C0090020C00900202D
:104FF000C8090020C8090020D0090020D0090020DD
:10500000D8090020D8090020E0090020E00900208C
:10501000E8090020E8090020F0090020F00900203C
:10502000F8090020F8090020000A0020000A0020EA
:10503000080A0020080A0020100A0020100A002098
:10504000180A0020180A0020200A0020200A002048
:10505000280A0020280A0020400A00200000000042
:1050600000000000400D0020A80D0020100E0020C0
:105070000000000000000000000000000000000030
:105080000000000000000000000000000000000020
:105090000000000000000000000000000000000010
:1050A0000000000000000000000000000000000000
:1050B00000000000000000000000000000000000F0
:1050C00000000000000000000000000000000000E0
:1050D00000000000000000000000000000000000D0
:1050E00000000000000000000000000000000000C0
:1050F00000000000000000000100000000000000AF
:105100000E33CDAB34126DE6ECDE05000B00000073
:10511000000000000000000000000000000000008F
:10512000000000000000000000000000000000007F
:10513000000000000000000000000000000000006F
:10514000000000000000000000000000000000005F
:10515000000000000000000000000000000000004F
:10516000000000000000000000000000000000003F
:10517000000000000000000000000000000000002F
:10518000000000000000000000000000000000001F
:10519000000000000000000000000000000000000F
:0851A000000000000000000007
:1051A800D3DEFFFFFE010000FF01000090AFFFFF0C
:0451B800793512AB88
:040000051000014D99
:00000001FF
