:020000041000EA
:10000000002008205D0100101B0100101D010010E0
:100010001101001011010010110100101101001058
:100020001901001019010010190100101F01001022
:10003000110100101901001021010010230100100E
:100040001101001011010010110100101101001028
:100050001101001011010010110100101101001018
:100060001101001011010010110100101101001008
:1000700011010010110100101101001011010010F8
:1000800011010010110100101101001011010010E8
:1000900011010010110100101101001011010010D8
:1000A00011010010110100101101001011010010C8
:1000B00011010010110100101101001011010010B8
:1000C00011010010110100101101001011010010A8
:1000D0001101001011010010110100101101001098
:1000E0001101001011010010110100101101001088
:1000F0001101001011010010110100101101001078
:100100001101001011010010110100101101001067
:10011000EFF30580103800BE00BE00BE00BE00BE7A
:1001200000BE00BEF2EB8871E0820110FC8201107B
:10013000A001001090A31AE7D3DEFFFF42012110B7
:10014000FF010000F4830300793512AB4FF000008B
:100150001E49086006C881F3088810474FF05040D8
:10016000006810B14FF00000F2E70DA40ECC00299A
:1001700002D000F012F8F9E71549164A002000E015
:1001800001C19142FCD11449884714498847144958
:10019000884700BEFDE701C901C29A42FBD3704700
:1001A000FC82011010010020400302202C85031066
:1001B00000000820000008202C85031000100820F3
:1001C00000100820000000007047000008ED00E06B
:1001D000400302205C170220594C00104508001013
:1001E0001F4C0010F8B500BF064B0749C91A89100B
:1001F00048BF0131491003D0044B0BB101481847E7
:10020000704700BFDC020220DC0202200000000078
:1002100008B5054B1BB105490548AFF30080BDE8A3
:100220000840FFF7E1BF00BF0000000018170220E0
:100230004C66011007EE101ADFED137A37EE277ABD
:10024000FCEEC77A17EE903A9BB2B3B182B007EEDC
:10025000903AF8EE677A37EE677ADFED0C7A27EEA0
:10026000277AFCEEC77ACDED017A9DF804201B04B5
:1002700043EA0223036002B0704700221B0443EAF2
:1002800002230360704700BF0000003B0000804372
:100290000022026042608260C2604FF480320260DD
:1002A0004FF4F83242604FF4802282604FF44022D3
:1002B0008260704738B504460D46FFF7E9FF6A1CB7
:1002C00063686FF3D01343EAC51141EA02316160FC
:1002D000E36823F0604343F00053E36021F0C04142
:1002E0006160204638BD38B504460D46FFF7D0FFA3
:1002F0006A1C63686FF3D01343EAC51141EA023107
:100300006160E36823F0604343F00053E36021F051
:10031000C0416160204638BD38B504460D46FFF740
:10032000B7FF05F1090263686FF3D01343EAC51301
:1003300043EA02336360204638BD38B504460D46B3
:10034000FFF7A6FFAA1C63686FF3D01343EAC51337
:1003500043EA02336360204638BD0000114B1B683E
:100360004FF0A042D2F80C1401229A40114217D04B
:100370004FF0A041C1F80C240B4A1178C9B20B48C8
:100380004FF0010C00F801C0117881EA0C011170E6
:100390001178074A02EB81229B0103F1A043DA6244
:1003A000704700BF800A00205A170220040F022065
:1003B000080F022084460023184603E01CF803209F
:1003C000504001338B42F9D37047000010B582B022
:1003D0008C46A5238DF8073000210DF107020BE0B4
:1003E000374B9B6913F0200FFAD1134613F8014BDA
:1003F000334A146001311A460029F1D05A238DF88E
:10040000073000210DF107020BE02D4B9B6913F023
:10041000200FFAD1134613F8014B294A1460013119
:100420001A460029F1D08DF807C000210DF107020E
:100430000BE0234B9B6913F0200FFAD1134613F8FE
:10044000014B1F4A146001311A460029F1D04FF0C8
:10045000000E11E01A4B9B6913F0200FFAD11346DE
:1004600013F8014B164A146001311A460029F1D0E5
:100470000EF1010E5FFA8EFEE64507D210F80E303F
:100480008DF8073000210DF10702EFE76146FFF715
:1004900091FF8DF8070000210DF107020BE0084BDA
:1004A0009B6913F0200FFAD1134613F8010B044A8D
:1004B000106001311A460029F1D002B010BD00BF12
:1004C0000000074010B50D4C4FF4E131204601F01B
:1004D00075F80221002000F07DFA00230122082196
:1004E000204601F03CF8236B03F44043044A1363B5
:1004F0000121204601F049F810BD00BF000007406F
:1005000000100740F0B587B005460621092000F02D
:1005100061FA164E012400942346092221463046F2
:1005200004F0F8FD02AF29463846FFF7F5FE0599BD
:1005300021F4787343F49073059321F0E05323F48E
:10054000787343F0806343F490730593084A0A403C
:10055000084B134305934FF4803302933B462A46DE
:100560002146304604F025FE07B0F0BD00002050C3
:100570001F7CF0E32001050470B586B00446062117
:10058000082000F027FA174D0023009301230822CA
:100590000221284604F0BEFD02AE21463046FFF798
:1005A000CCFE059B23F4782343F480230593049A1F
:1005B00022F0FA7323F4803343F4803304930A4B1C
:1005C000134043F0004343F4803304934FF48033EB
:1005D0000293334622460221284604F0EAFD06B083
:1005E00070BD00BF00002050FF3F0A3E08B52DED52
:1005F000028B08EE100A052001F074F807EE100ACD
:10060000B8EE477AF8EE487A77EEA77AC7EE277AFF
:1006100017EE900ABDEC028B08BD000070B586B0E5
:10062000044606210A2000F0D5F9114E012300935B
:100630000A220021304604F06DFD02AD2146284615
:10064000FFF738FE059B23F4F84343F4205305934A
:100650004FF4FA20FFF7CAFF01462846FFF7EAFDEC
:100660002B4622460021304604F0A3FD06B070BDA3
:100670000000205070B586B0044606210B2000F023
:10068000A9F9114E012300930B220321304604F0F7
:1006900041FD02AD21462846FFF725FE059B23F4C8
:1006A000F84343F4305305934FF4FA10FFF79EFFDD
:1006B00001462846FFF7BEFD2B4622460321304661
:1006C00004F077FD06B070BD0000205008B5102979
:1006D00006D8036823F4F03343EA4131016008BDD2
:1006E000034B044A40F22911034804F09BFA00BF6F
:1006F00050660110947801107066011000B583B047
:100700000146002301931023019303F5FC03019399
:1007100001A8FFF7DBFF019B23F00C0242F0080267
:10072000019223F4F85222F00C0242F008020192E6
:100730000C4A1A4042F0080201920B4A1A4042F059
:100740000801019142F009020192084A1A4042F060
:10075000090201920648184040F00900019003B0D8
:100760005DF804FBF3E0FFFEF3E07FFEF3E07FFCC7
:10077000F1E07FFC08B53F2906D8036823F4FC03A9
:1007800043EA4141016008BD034B044A40F21B119A
:10079000034804F047FA00BFB46601107C780110EA
:1007A0007066011030B583B0012004F0CBFB1F4D03
:1007B0002860FFF7A3FF019020F00C0343F008032B
:1007C000019320F03C0343F00803019320F0FC0068
:1007D00040F048000190062101A8FFF7CBFF2A68EE
:1007E000134B1B78134901EB8321930103F1A043C1
:1007F0001148186059604FF480719960019919612E
:10080000012404FA02F20D4BC3F804240C490A2017
:1008100000F0DAF921460A2000F0C4F92B689C4068
:100820004FF0A043C3F8504403B030BD800A00200D
:100830005A170220080F02202800205000200050E4
:100840005D0300102DE9F04F85B004F03BFB042060
:1008500004F006FD002864D0804604F08FFF0446B3
:10086000404604F073FFC71D5CD4FF1002212046F0
:1008700003F062F805460121384603F05DF80646AC
:10088000002D51D000284FD04FF0000A4A4BA3F85A
:1008900000A0FFF717FEDFF838914849484604F0FA
:1008A00021FC01904649484604F01CFC0290454951
:1008B000484604F017FC03904349484604F012FCF4
:1008C00083460198FFF7AAFE0298FFF71BFE0398E4
:1008D000FFF752FE5846FFF7CDFED9F8003043F03F
:1008E0000203C9F80030D9F8003043F00403C9F816
:1008F0000030D9F8003043F00803C9F80030D9F8C7
:10090000003043F00103C9F80030FFF74BFF5146B8
:10091000294B1B784BB9284B5B78002BF8D001236F
:1009200004E0FEE70737A0E7FEE700234FF00009E9
:10093000214A02F80390254A02EB832A16E0224658
:10094000E31715F055FE49F64043984271F1000156
:100950002CDB2A463146404604F024FFF9B23046EB
:10096000FFF734FD002209F102091146B9F1FF0F2A
:10097000CEDC5AF829301B144A1C25F81130944259
:10098000F1D1002210461146A242D8DA35F91230D0
:100990004FEAE37E03FB0EFEA3FB033C0CEB4E0C85
:1009A0001B1818464CEB01010132EDE762000021F3
:1009B000284611F035FACCE7040F0220E878011040
:1009C000C0780110B0780110DC780110080F022007
:1009D000000020500C4B03EB800253F8203083F0D2
:1009E000400303F0C00302F5805CCCF80030C00087
:1009F00000F1804000F52030416002F540524FF494
:100A000080731360704700BF048003400FB400B5CB
:100A100083B0049C074804F057FA3CB105A9019142
:100A2000204604F061FA044804F04EFA012004F074
:100A3000A7F800BFC866011038740110EFF31080EA
:100A400072B6064BD3E8CF1F01220029FAD1C3E8C2
:100A5000412F0029F6D1BFF35F8F7047B70E0220F8
:100A60000023034AC2E88F3F80F31088704700BF1D
:100A7000B70E022070B505460C461646FFF7DEFF9E
:100A8000E208A95C04F0070C012303FA0CF31942F5
:100A900005D1DBB20B43AB54FFF7E2FF70BD21463B
:100AA0003046FFF7B3FFF8B506460D4614461F461D
:100AB000FFF7C4FF00E00134BC420ED84FEAD40C6B
:100AC00016F80C1004F0070301229A401142F2D1EB
:100AD000D2B20A4306F80C2001E04FF0FF34FFF7D2
:100AE000BFFF002C01DB2046F8BD002DFBD006988F
:100AF000FFF78CFF054A1078431CDBB21370172BED
:100B000002D9134610221A70704700BF840A0020D1
:100B10004FF0E022936843F0005393607047000069
:100B2000002305E0044A1A440021C2E88F1F013364
:100B30001F2BF7D9704700BFAC0E0220064B9B68F5
:100B4000103043F82010BFF35F8F00230349C1E842
:100B50008F3F82F31088704700ED00E0B50E022051
:100B60000048704700E400E008B5FFF7F9FF0023F4
:100B700004E04FF0803240F8042B01330C2BF8D9FD
:100B800062B608BD3AB1064B00F1600243F822108C
:100B900043F8201070472030014B43F82010704775
:100BA00000E100E008B50A4600F01F03012199406A
:100BB0004009FFF7E7FF08BD024B9B68103053F870
:100BC0002000704700ED00E070B505460C46EFF3DD
:100BD000108672B60F4BD3E8CF1F01220029FAD13D
:100BE000C3E8412F0029F6D1BFF35F8FFFF7E4FF81
:100BF000094B984201D0A04205D1324621462846F1
:100C0000FFF79CFF70BD054B054AED21054804F038
:100C100009F800BFB50E0220110100102467011071
:100C2000F4780110F0660110014B0B44036070472B
:100C3000AC0E022010B50446FFF75CFF01462046CB
:100C4000FFF7F2FFFF232371BFF35F8F10BD10B5D5
:100C50000446FFF74FFF01462046FFF7E5FFFF235D
:100C6000237100236371BFF35F8F10BD10B50D4C6E
:100C700009E00D4B0D4A1A210D4803F0D3FF204621
:100C8000FFF7D8FF08340B4B9C4209D22368002B96
:100C9000F5D0012BEDD12046FFF7D9FF0834F2E75C
:100CA00010BD00BFD40202205C670110347901102E
:100CB0007C670110DC0202200246EFF30583DBB201
:100CC000103B990804D0034803F0030313607047F6
:100CD0000148F9E700800B4000000B4010B4846A23
:100CE000A2EB040C0B1D50F823301B1B9C4504D3B6
:100CF000046A01238B401C4202D1043140F82120B8
:100D00005DF8044B704741EA004070470D4B1A688C
:100D1000EFF3108172B6D2E8CFCF0120BCF1000F03
:100D2000F9D1C2E84C0FBCF1000FF4D1BFF35F8FD3
:100D30001A680023C2E88F3F81F3108840BF00206B
:100D400000217047501702202DE9F04F85B003A80D
:100D5000FFF7B2FF954B984214BF0023012303997C
:100D600001EB8303924A52F823402378994206D13B
:100D7000054601228A4000F541535A602CE18D4B13
:100D80008D4A92218D4803F04DFFD4F8149006EB64
:100D900046074FEAC70A09EBC707D7F808B0D7F8E4
:100DA0000C80284600F032FBB0EB0B0061EB08032F
:100DB000002BC0F21A81B8F1000F64DB3B691A46C0
:100DC00000937F4B9A4230D0798889B2B4F90800F9
:100DD000FFF799FF7969009B98470090019100996E
:100DE000019A51EA02034ED01346002A29DABBEBDE
:100DF000010268EB0308BA60C7F80C8039F90A7081
:100E0000002FC0F2F280D4F814E007EB47030EEB9A
:100E1000C3039968DB68511A68EB0303002BC0F227
:100E2000E480A4462CF8087F17E07A6913690092E1
:100E30001046984738B3009A13680093536801939B
:100E4000CDE7284600F0E2FA009B1A18019B43EB1D
:100E50000108D0E79C463EF90B70002F0EDBBCF971
:100E6000003003EB43034FEAC30B0EEBC303986858
:100E7000D968101A68EB01010029EBDA29F80A7029
:100E8000ACF80060B1E039F90A3023812369EFF34F
:100E9000108272B6D3E8CF0F01210028FAD1C3E83F
:100EA000401F0028F6D1BFF35F8FB4F9023029F854
:100EB0000A30668021690023C1E88F3F82F31088E1
:100EC00093E02369EFF3108272B6D3E8CF0F0121CC
:100ED0000028FAD1C3E8401F0028F6D1BFF35F8F86
:100EE000B4F804800FFA88F84FF6FF73A3802169E5
:100EF0000023C1E88F3F82F310881AE01F4630F9C3
:100F00000A60002E0FDBB7F9003003EB43034FEA12
:100F1000C30A00EBC3039968DA68BCEB01016EEB0E
:100F20000202002AEADAA7F8008030F9098020F8E6
:100F30000960B8F1000F5DDB606908EB48034FEA18
:100F4000C30900EBC303D3F808C0D3F80CE004F1E5
:100F50000807B4F90860D4E70023A37104F1080C72
:100F6000B4F9083010E04FF0FF384FF0FF39C0E916
:100F70000289B4F90800984205D0ACF80020B4F911
:100F80000800C85323811346B3F1FF3F35D0616990
:100F900003EB4302D70001EBC20031F9322046884F
:100FA00016F4004FDFD18446EDE700BF00800B4010
:100FB0003017022000680110607901102C680110C0
:100FC000490D0010284600F021FA3F1A66EB010691
:100FD000012F76F1000628DA039A01239340EB6390
:100FE000B4F90860002EBFF6D0AEA38813F4004F0A
:100FF0003FF467AFA379002BAED1B4F90830002BD2
:1010000013DB626903EB430302EBC3039F68DE68F3
:10101000B6F1FF3F08BFB7F1FF3FD3D03A463346A2
:1010200003992846FFF75AFECCE740BF05B0BDE85C
:10103000F08F00BFF8B504460D4611460A4B9842A2
:1010400010D000262E44012707FA05F52562304608
:10105000FFF7BAFD39463046FFF7A4FD04F5015409
:101060002560F8BD0426EDE700800B40F8B5044686
:101070000E4617461D46C160FFF73CFD164B034464
:1010800023612770ABB263814FF0504212786270D7
:101090004FF6FF722281A280013B63804FF0000C6B
:1010A00008E00CF1FF300CEB4C0E636923F83E00B6
:1010B0000CF1010CAC45F4D3084B9E4214BF002345
:1010C000012307EB8303064A42F82340054A3946C9
:1010D0003046FFF7AFFFF8BDAC0E022000800B409A
:1010E00030170220490D001008B5054B1B690BB1E4
:1010F000034808BD034B044A6521044803F092FDF0
:10110000880A002058680110487901102C680110E5
:10111000F8B504469E460069EFF3108172B6D0E838
:10112000CF6F0125002EFAD1C0E8465F002EF6D120
:10113000BFF35F8FB4F90250666905EB4500C70045
:1011400006EBC000002D03DB36F907C0A4F802C08F
:101150004FF0000C2369C3E88FCF81F310886545F9
:1011600033DB06990161079941618260C0F80CE0A8
:10117000418889B20131C1F30E0101B901214180D9
:101180002846FFF7C0FD2369EFF3108272B6D3E85B
:10119000CFCF0121BCF1000FF9D1C3E84C1FBCF146
:1011A000000FF4D1BFF35F8FA388F353A5802169AB
:1011B0000023C1E88F3F82F31088E3682178012281
:1011C0008A4003F501535A60F8BD4FF0FF30FBE74A
:1011D00070B582B0064615461C469DF8203033B9DE
:1011E00000F03EF9854264EB010100290ADB079B10
:1011F0000193069B00932A4623463046FFF788FF5B
:1012000002B070BD0020FBE7F0B585B005460C4686
:1012100016461F46FFF768FF9DF828300293019796
:1012200000962A462346FFF7D3FF05B0F0BD0346DC
:101230004089B0EB214F31DD10B50A14586902EB3B
:10124000420200EBC2001A69EFF3108C72B6D2E8CA
:10125000CF4F5FF0010E002CF9D1C2E844EF002C13
:10126000F5D1BFF35F8F428892B289B28A420FD024
:10127000002019690022C1E88F2F8CF3108830B14B
:10128000DA681B780121994002F50153596010BDBD
:1012900042F40042428001209871EAE70020704742
:1012A00010B50446FFF720FF2146FFF7C0FF10BD31
:1012B000F0B583B005460C46EFF30583DBB293B17E
:1012C000384B5B6A8B4209D3364A926A824208D213
:1012D0008B4201D0012002E0002000E0002003B09A
:1012E000F0BD0120FBE7FFF7FFFEC7680678384630
:1012F00000F08CF82A1A64EB0101043657F8263006
:101300001B1A9A4271F1000112DB20BF254B5B6A68
:101310009C4209D8234A926AAA4207D29C4201D031
:101320000120DCE70020DAE70020D8E70120D6E73B
:10133000002300931C4A28462146FFF765FF00283A
:1013400018DD184B5B6A9C4205D8164A926AAA427D
:1013500002D29C4200D120BFFFF7A2FF114B5B6A73
:101360009C421BD80F4A926AAA4219D29C4213D0BF
:101370000120B4E70B4B5B6A9C4209D8094A926A88
:10138000AA4207D29C4201D00120A8E70020A6E78C
:101390000020A4E70120A2E70020A0E700209EE7AC
:1013A00001209CE700000B400D0D00100048704725
:1013B00000000B4010B50A4B1B6923B10A210948F4
:1013C000FFF732FC10BDFFF7F1FF0446032100F0E8
:1013D0000BF81023032221460148FFF747FEEDE7F3
:1013E000880A00205017022010B5054A054C064B0C
:1013F000A04214BF1846581CFFF73CFB10BD00BFAD
:101400007C68011000800B40D80E02200246436A1F
:10141000906A1946536A9942FAD17047416A00E0CE
:10142000416A9942FCD300E0416A994202D1816A43
:101430009142F9D3704770B5064614461D46FFF732
:10144000E5FF021941EB0503824273EB010102D271
:101450004FF0FF3213463046FFF7E0FF70BD00004B
:1014600008B50248FFF7D2FF08BD00BF00000B40DF
:1014700008B502460B460248FFF7DDFF08BD00BF76
:1014800000000B40074B98420AD01A2301229A40D1
:10149000054B1A60054B9B6832EA0303FAD170478B
:1014A0001B23F3E7008007400030024000000240A9
:1014B00038B5046B14F0010F01D1204638BD00F59A
:1014C000405340F201321A63436A856A05EB831583
:1014D000AD02062000F006F9044BA3FB0030C00A61
:1014E000B5FBF0F00021FFF7C3FFE6E7757B2B8F1C
:1014F00070B505460C461646FFF7DAFFEB6A5C400E
:10150000344005F58153DC60286370BD70B5054635
:101510000C46062000F0E6F8C300B3FBF4F30133F9
:10152000DC0907D04FF6FE72944214D82646C3F366
:10153000450400E001266E62AC6200221146284696
:10154000FFF7D6FF062000F0CDF8800004EB8614EC
:10155000B0FBF4F070BD00244FF6FF76EBE708B562
:10156000A1F1050C511EC90041EA4C113BB141F0FB
:101570000201012B01D0002302E0042300E000233C
:101580006E221943FFF7B4FF08BD08B501B1102161
:101590001022FFF7ADFF08BD49B10A22054B984262
:1015A00014BF00200120044B23F8102070474FF493
:1015B0008072F3E7008007405417022038B50446D4
:1015C0000D46062000F08EF8F8B1114B9C421DD05C
:1015D0001A22012393400F4A13602046FFF752FF5F
:1015E00000212046FFF7D8FF29462046FFF78EFF4F
:1015F000E36A83F0700303F07E0304F58152D36045
:1016000040F2013323630323A36438BD1B22E0E7C8
:10161000008007400020024070B51646049D00EB94
:10162000400C4FEA8C0C0CF1804C0CF5803CDCF843
:101630000420AA4201D2CCF80450A0F1040E5FFAB3
:101640008EFEBEF1010F28D90CF540524FF4006414
:1016500014601E4A52F8202042B11C4C6469B4FB4D
:10166000F2F4013404EB4404033CFDD2DCF8002026
:1016700082EA461202F0E0020CF580542260BEF1CC
:10168000010F16D90CF500524FF400611160CCF82F
:1016900004500E4A42F8203070BD0129D4D10CF517
:1016A000405203241460DCF8082012F0010FFAD035
:1016B000DCE7DCF800204A4002F003022260DCF89C
:1016C000084001228A401442F9D0DBE7DC0E0220F8
:1016D00010B582B04FF480340094FFF79DFF02B044
:1016E00010BD0000014B53F820007047DC0E0220B3
:1016F00070B5049C344DB5FBF1FC344D1544344EAB
:10170000B54237D8B2FBFCF5A5F1100EBEF5987FB7
:1017100036D803F1FF3EBEF1060F37D804F1FF3E85
:10172000BEF1060F32D8BCEB121F35D8240344EAB1
:1017300003440368002B35DB264B984242D00E232E
:1017400001229A40244B1A6003F580531A60234B00
:101750009B6832EA0303FAD10160856000F54052CC
:101760000432212313600368002BFCDAC4600823D1
:10177000136070BD1A4B1B4A11211B4803F052FA2B
:101780001A4B184A1921184803F04CFA184B154AFD
:101790001C21154803F046FA164B124A2321124821
:1017A00003F040FA036803F03F038B42C4D183681F
:1017B000C3F30B03AB42BFD1C36803F4EE23A342D0
:1017C000BAD1D6E70F23BBE7001BB70080E84BD3A5
:1017D00080F8A9320080054000200240000002404D
:1017E000A068011080790110F068011024690110CF
:1017F000406901108C690110054A00EB400302EBBF
:101800008303596000EB40008000012313507047B0
:101810000080104008B50023DB8A002242E800F275
:1018200012F4800F02D11021984708BD0421984777
:10183000FBE70000034BD3F82838002BFAD0BFF3A6
:101840005F8F704700000E40002207E0054B1344F5
:101850009B00BFF35F8F002119600132072AF5D981
:10186000704700BF0382031008B5FFF7EDFF08BD06
:10187000074B4FF42A621A604FF48D72DA6003F559
:101880000053044A1A60024B5B68002BFBDA704776
:101890000080044000B0FA0010B5044602E054F89D
:1018A000043B9847014B9C42F9D310BD4866011098
:1018B0007047000008B50248FFF7EEFF08BD00BF03
:1018C00008660110064B074A1A6003F58053064A62
:1018D0001A60064B9A68044B9343FAD1704700BFD5
:1018E000002002407F3BEFEFF6FFF30300000240D1
:1018F000054BDB6CB3F5004F00D07047034B4FF442
:101900008022DA64F9E700BF000011500020115076
:101910004FF0E022D2F8881D034B0B43C2F8883DFC
:1019200010EE3004704700BF03033000054B6FF02A
:1019300060421A60044B9B68DB4333F06043F9D18B
:10194000704700BF003002400000024008B545F279
:101950005320FFF75FFF03460420984708BD08B5F2
:1019600045F25320FFF756FF03460120984708BD74
:1019700008B5FFF7D5F808BD10B50C490C4A521A46
:1019800092101446442A28BF44229200094810F0BD
:1019900001FC04E0084A074B43F824200134432C9F
:1019A000F8D9044A054B9A6010BD00BF0000001032
:1019B00010010010000000201101001000ED00E0F7
:1019C00038B50420FFF78EFE064BA3FB0035AD0CA7
:1019D000002404E02946E0B2FFF70EFF0134052C95
:1019E000F8DD38BD83DE1B4330B583B0264B0022C3
:1019F000C3F88420FFF73CFF244B0122DA63224B1B
:101A00005B6C012BFBD1214B03221A631E4B9B6B9A
:101A1000012BFBD10224009405231D4A01211D48FE
:101A2000FFF766FE052500952B461B4A01211B4842
:101A3000FFF75EFE1A4B002221460420FFF748FE06
:101A4000184C2346002201212846FFF741FE164D7F
:101A50002B46002211460820FFF73AFE2B460022B3
:101A600011460920FFF734FE2346002211460620C6
:101A7000FFF72EFE2346002211460720FFF728FE1F
:101A8000FFF79EFF03B030BD000001400030014071
:101A9000002F685900000540008C864700800540F3
:101AA000001BB70080D1F008006CDC02C1F30A53C0
:101AB000EBB110B58C4640F2FF7E734511D0134454
:101AC000002B0BDD40F2FE718B420BDD0CF0004C65
:101AD00000204CF0FF4141F4E00102E0002001F061
:101AE000004110BD002318180CEB0251F9E77047B4
:101AF00010B5C1F30A530BB30A46A3F2FF33002B10
:101B00001EDBC3F13403002B1CDD4FF0FF31A3F1CA
:101B10002004C3F1200E01FA03FC01FA04F44CEA9C
:101B2000040C21FA0EFE4CEA0E0C994020EA01004A
:101B300022EA0C02104307D1012000E0012010BD71
:101B40000020FCE70120FAE70020F8E7C1F30A5380
:101B5000A3F2FF33002B2CDB02468C46D3F1340377
:101B600029D410B54FF0FF31A3F12004C3F1200EAA
:101B700001FA03F001FA04F4204321FA0EFE40EAD0
:101B80000E00994022EA01012CEA0000014314D121
:101B9000342B14D0C3F12004A3F1200122FA03F066
:101BA0000CFA04F420432CFA01F1084300F0010080
:101BB00010BD00207047002070470020F8E701208A
:101BC000F6E702460B46C1F30A5058B140F2FF71E6
:101BD000884206D0C3F313031A430CBF0120002030
:101BE000704700207047D0B506460F46012A10D036
:101BF000144602EBD2725210FFF7F5FF02460B4675
:101C000000F02CFB14F0010F03D032463B4600F0ED
:101C100025FBD0BD10B5141E03DB2246FFF7E3FF02
:101C200010BD02460B460020024900F03DFB644215
:101C3000F3E700BF0000F03F2DE9F04F8BB01446F2
:101C40001D46C1F30A57A7F2FF36C7F57F7203326C
:101C5000FFF72CFF00F037FF68A3D3E9002300F063
:101C600023FB82468B4600225F4B00F021FC48B1EB
:101C700000225E4B5046594600F0DCFA82468B4605
:101C8000A7F2FE366EB10022594B2046294600F0DD
:101C9000FBFB90B1002E0DDB002056490BB0BDE8D8
:101CA000F08F22462B465046594600F0D7FA00F0F6
:101CB00087F9F3E700200021F0E700224E4B204691
:101CC000294600F0CDFB38B1002E02DB00200021B8
:101CD000E4E700204749E1E72046294600F0F4F810
:101CE0008046894602460B462046294600F0A2FA65
:101CF00002460B46CDE900231A2200F0E1F800F07D
:101D0000E3F86FF01902FFF7D1FE04460D460246D4
:101D10000B46DDE9000100F08DFACDE906014046F1
:101D2000494600F041FB804600FB06F7304600F0D4
:101D300017FB02460B46CDE9022322462B4600F054
:101D40008DFA02460B46CDE9082300F0BDF80446A3
:101D50000D4600F029FBC319059322462B46DDE909
:101D6000080100F067FA04460D46DDE90623DDE9C7
:101D7000020100F073FA02460B462046294600F0A5
:101D800045FA04460D46404600F0EAFA52465B46E4
:101D900000F064FA8046894600F096F806460F4641
:101DA00000F002FB059BC318029332463B464046B7
:101DB000494600F03FFA22462B4600F027FA044637
:101DC0000D46DDE900235046594600F047FA224609
:101DD0002B4600F01BFA00F0F3F8029AFFF766FEBC
:101DE0005CE700BFAFF300800000E03F0000F03F81
:101DF0000000B0400000F07F0000B0C0EF39FAFEF4
:101E0000422EE63F2DE9F84316461F46B1F1000980
:101E100018DA804610461946FFF798FE50B1404642
:101E200009F1004132463B46FFF7ECFF01F100416A
:101E3000BDE8F883404609F1004132463B46FFF7D2
:101E4000E1FFF5E704460D461046194600F0ACFAEE
:101E5000804620462946FFF7B4FE68B9B8F1000F66
:101E600026D008F12003402B1CD932463B462046A1
:101E70002946FFF7E1FEDBE7C9F30A52A2F2FF327F
:101E8000B8F5006F05DA18F5006F04DADFF82C807A
:101E900001E040F2FF7802FB08F200200649FFF75C
:101EA00005FEC5E7424620462946FFF7B3FEBFE7D9
:101EB00000200149BCE700BF0000F03F00F8FFFF31
:101EC00008B5FFF7F3FD08BD0A46C1F30A53A3F2B4
:101ED000FF33B3F1FF3F2BDB8446B3F1FF3F2BD041
:101EE00010B5C3F13404002C21DDC3F1330401210A
:101EF000C3F11300133B01FA00F021FA03F3184376
:101F0000A1401CEB010E42EB00020223A4F12001D0
:101F1000C4F1200003FA01F123FA00F00143A340C9
:101F20005B4261EB410C03EA0E000CEA020110BDBA
:101F3000002001F00041704701F00042002042F013
:101F40007F5141F4401170470A46C1F30A534BB325
:101F500000B58646A3F2FF33002B27DBC3F1340321
:101F6000002B1DDD0121A3F12000C3F1200C01FA9B
:101F700000F021FA0CFC40EA0C0001FA03F3591EB0
:101F800040F1FF3C002A04DA1EEB01018E4642EBD1
:101F90000C025B4260EB400C03EA0E000CEA02010B
:101FA0005DF804FB002001F000417047002902DACF
:101FB00000200249F4E700200021F1E70000F0BF13
:101FC00040F6FF73B3EB115F2BD070B504460D469E
:101FD0000022194B00F044FA30BB0022174B204678
:101FE000294600F051FA10B1002015491EE02046A4
:101FF0002946FFF769FF00F0D7F9064600F0B0F96F
:1020000002460B462046294600F014F908A3D3E9FE
:10201000002300F023F900F0D8FB3246FFF746FD1D
:1020200004E00020002170470020002170BD00BFA7
:10203000EF39FAFE422EE63F0000B0C00000B0408B
:102040000000F07F0000000008B500F03CFD04A394
:10205000D3E9002300F002F908BD00BFAFF3008010
:102060000EE526157BCBDB3F2DE9F04704460D46F8
:1020700016461F460022504B00F0CCF910BBB84664
:102080004FEA175AC7F30A59B9F1000F1AD00022C4
:102090004A4B2046294600F0BDF918B140F2FF73C3
:1020A000994571D02A0DC5F30A53EBB9B8F1000F69
:1020B0000CDB30463946FFF749FD002867D0204643
:1020C000294601E000203C49BDE8F087304639460A
:1020D000FFF73CFD00285DD005F00049002049F0E5
:1020E000FF4141F4E001EFE740F2FF718A4215D071
:1020F00040F6FF718A4217D040F2FF72924527D016
:1021000040F6FF7292452AD030463946FFF7F0FC80
:1021100060BB002D31DA00202949D5E7B8F1000F66
:102120003BDA00200021CFE7B8F1000F07DB304693
:102130003946FFF70BFD98B300202249C4E730462B
:102140003946FFF703FD70B300204FF00041BBE7B5
:1021500040F2FE32934229DC00200021B4E740F235
:10216000FE32934225DC00201549ADE732463B465E
:1021700020462946FFF746FEA6E732463B46204664
:102180002946FFF759FD9FE700200B499CE70020F7
:10219000002199E700200A4996E70020084993E7C3
:1021A0000020074990E7002000218DE70020044926
:1021B0008AE70020002187E70000F03F0000F0BF21
:1021C0000000F07F0000F0FF86B003B451FC08046B
:1021D000CDE9020151FC0904CDE9040151EC0A04E6
:1021E000CDE9060103BCF047BDE800504EEC00C449
:1021F000BDE800504EEC01C4BDE800504EEC02C4F6
:1022000000BD000000B5FFF7DFFF02E010FE30F474
:10221000F8D441EC100443EC112400EE010410EE5C
:10222000010480EE200451EC1004704700B5FFF764
:10223000CBFF02E010FE30F4F8D441EC100443EC84
:10224000112400EE010410EE210480EE200451EC74
:102250003004704700B5FFF7B7FF02E010FE30F41E
:10226000F8D410B541EC100443EC112451EC0404F3
:1022700053EC0524A0FB024C5FF0000EE0FB03CE04
:10228000E1FB02CE4CEC20440024E1FB03E444ECEF
:1022900030E480EE200451EC5004BDE8104070475B
:1022A00000B5FFF791FF02E010FE30F4F8D441ECE6
:1022B000100443EC112451EC2104A0FB01126FEA3D
:1022C000820252FB100052FB12F252FB1000A0EBF4
:1022D000D07C53EC04245CFB13F153EC1524A1FBDC
:1022E000022001FB030053EC4424A2EB000050FB4E
:1022F0001CF24FEA111312EB017043EBE27140EA5A
:10230000515020EA915020F0070053EC7524A0FBB7
:10231000023C53EC752400FB03CC01FB02CC53ECD4
:102320000424ACEB824C40EA5C70A0F1010041EC6B
:10233000400480EE200451EC7004704700B5FFF7B4
:1023400043FF02E010FE30F4F8D441EC100480EEBC
:10235000220410EEB204704700B5FFF735FF02E02B
:1023600010FE30F4F8D440EC700400EE010410EEDE
:10237000210480EE200451EC3004704700B5FFF7D3
:1023800023FF02E010FE30F4F8D440EC600400EECD
:10239000010410EE210480EE200451EC300470475B
:1023A00000B5FFF711FF02E010FE30F4F8D441EC65
:1023B000800400EE010410EE010480EE400410EEF3
:1023C0001304704700B5FFF7FFFE02E010FE30F483
:1023D000F8D441EC800400EE010410EE010480EE1C
:1023E000400410EE3304704700B5FFF7EDFE02E045
:1023F00010FE30F4F8D441EC100443EC112400EE4C
:10240000010410EE3004C0F30070704700B5FFF710
:10241000DBFE02E010FE30F4F8D441EC100443EC93
:10242000112400EE010410EE3004C0F380707047F8
:1024300000B5FFF7C9FE02E010FE30F4F8D443EC1B
:10244000102441EC110400EE010410EE30F48CBFB6
:1024500001200020704700BF00B5FFF7B5FE02E085
:1024600010FE30F4F8D443EC102441EC110400EEDB
:10247000010410EE30F42CBF01200020704700BF93
:1024800000B5FFF7A1FE02E010FE30F4F8D441ECF5
:10249000100443EC112400EE010410EE30F42CBFC4
:1024A00001200020704700BF00B5FFF78DFE02E05D
:1024B00010FE30F4F8D441EC100443EC112400EE8B
:1024C000010410EE30F48CBF01200020704700BFE3
:1024D000404261EB410140F2F334B1FA81F20C2A3F
:1024E0000CD2153211FA02F3C2F12002D04021FAC7
:1024F00002F12244584141EB0251704769B1C2F1E7
:102500002B0230FA02F3C2F12002914090401943AD
:10251000A4EB020201EB0251704701004FF00000F2
:10252000A4F12004D9D17047012767F31F5117FA8E
:1025300003F817D0A0FB080701FB0871A1FB067880
:102540005FEAD8469219A6FB047806FB05880903C2
:1025500051EA1051D7EB003061EB0801A94238BFB6
:1025600070470BE00C33012717FA03F80FD0A0FBDC
:10257000080701FB0871A94238BF704708BFA04295
:1025800038BF7047001B61EB05010132704703F152
:10259000200311FA03F6D3F12003D840D940304389
:1025A0007047000000000000000000000453B10864
:1025B0006018850FC8E5F22A6E07271E0D12B2219A
:1025C0000412572F12557CBCDA30723F17A717A59B
:1025D0005531994E9D0DBF0AEEE0AB5FE3EF6D9C68
:1025E0007636AD6F697BCCE33D62BD7EF0810682BD
:1025F000F3FA428F37D5B78A5313C89E7FABB32007
:10260000491570AF0000000000000000025E881550
:102610005580FF00907806B1A602FE01DC4E21F045
:10262000EB88FB027A7C801F1615F8033C5DA9D16C
:1026300010A9F304AA466CF5C146EE05FF65E4EB6C
:1026400009F0E70613C00C9EC3A6E007E1BFEC91BA
:10265000C46CD808D5AF5EFFDC43CF09466A72E48C
:10266000D72DC50A237E6E197B2CBA0BBFF571647A
:102670008741AE0C61DFB88CB86EA10D09A9856DDC
:10268000C5B5930E3153B1086018850F3071E498C9
:10269000359875105915550580FF0F0009C3EB8F4C
:1026A00080FB2F00B1910E9A82F34F001FE7FD22AD
:1026B00087E76F00C3A09A298FD78F004F4366AC7E
:1026C0009BC3AF00412A83A9ADABCF004FB7B41E67
:1026D000C68FEF00B6815F09E66F0F0167858966D7
:1026E0000E4C2F011A52DA3240244F01483A9B6AAD
:1026F0007CF86E01FF81B709C4C88E019C8DBC0BAC
:102700001895AE017010DA6B795DCE013A3BE22488
:10271000E921EE0138739533427FECA03114FAF5CC
:10272000BD8689916B02FAE6E0F29183E682120798
:1027300013A85177212621686AB2736A9D0DBF0ADA
:10274000EEE0AB5F19B4E0B71CB66A549596E53D70
:10275000EF07A548D1CBE555DC0E4E3CCE68ADE881
:1027600039B5A432CB3CFA96D9569A28C9B21CA1E5
:10277000F9FCAE21864B6BE58AD2F0160453B10802
:102780006018850F02C00C9EC3A6E0070000000081
:1027900000000000AC79CFD1F71772B1293BAAB87D
:1027A0004FEAC12040F00040490043F1200340F2CD
:1027B0000001C3F6F071C3F10B0320FA03F038BF38
:1027C0007047404261F1000170475FEAD17CC1F37C
:1027D0000A53A3F2FF330C2B62DA13F1200FDFDD73
:1027E0002DE9F0413C4C70CC4FF00002FFF79CFE0D
:1027F0001CF0010F04D06FEA0202201A65EB010100
:1028000002F2FE3C40F2FE739C455CD20A0F334B51
:1028100003EBC2030CCB02F03F0545F04005801AE4
:1028200099410A0E2E4B03EBC20318CB02F58072BE
:102830005543C01AA1414A0D2A4B03EBC20318CBE2
:10284000124402F5805205FB0255C01AA1418A02CA
:1028500052EA905242F1000282FB02345B0D53EACD
:10286000C423C01841EB545184FB02344FF055335C
:1028700083FB043454FB11F304EB930410EB440288
:1028800041EBE473E900A1FB0240C1FB0301400AF4
:1028900050EBC1504FEA512151EB0C51BDE8F08192
:1028A000B3F5806F07D150EA01320CBF21EAE17124
:1028B00041F400217047002000211CF0010F08BFE7
:1028C000C7F6F07170474FF000004FF00001A8BF4D
:1028D000C7F6F071BDE8F08194270010A425001020
:1028E000042600109426001040F20001CFF6F0718B
:1028F0000020704750EA013218BF41F400217047B0
:102900007FEAA65540F019814FF4805420E18CEA0B
:1029100011331B0640F0EE80BCF1000F67D1C904F3
:1029200051EA5031C004B1FA81F4202C4BD2012578
:10293000A540A0FB052301FB0533A0FB03C5A1FBBC
:1029400002C6E1FB6356B2EB152263F10003B2EB62
:10295000066273EB1623A0FB06C7A1FB05C8E1FBCB
:1029600066784FF05535A7FB05C65FF0000CE8FB15
:10297000056C16EB0C064CF1000C12EB963243F191
:10298000000312EB8C4243EB9C3358FB11F55FF0D4
:10299000333755FB11F656FB17F8A5EB581756FBC6
:1029A00011F5C2F6802656FB15F507EB1537B2EB8D
:1029B000472063EBD751C4F58064A4F11504FFF7F9
:1029C0008CFDBDE8F081B0FA80F410FA04F1A0FBB0
:1029D00001234FF00000B0EB132061F10001C4F5BA
:1029E0008064A4F13504FFF778FDBDE8F081890427
:1029F00051EA90318004404261EB4101B1FA81F427
:102A0000202C4ED2013C0125A540A0FB052301FB53
:102A10000533A0FB03C5A1FB02C6E1FB635612EB25
:102A2000152243F1000312EB066253EB1623A0FBC1
:102A300006C7A1FB05C8E1FB66784FF05535A7FB3B
:102A400005C65FF0000CE8FB056C16EB0C064CF1BC
:102A5000000C12EB963243F1000312EB8C4243EB75
:102A60009C3358FB11F55FF0333755FB11F656FBDD
:102A700017F805EB581756FB11F5C2F6802656FBE2
:102A800015F507EB153712EB472043EBD751C4F58B
:102A90008064A4F11504FFF720FD41F00041BDE87A
:102AA000F081B0FA80F410FA04F1A0FB01234FEAA0
:102AB0001320C4F58064A4F13504FFF70EFD91F0F6
:102AC0000041BDE8F0815FEA410CBFF40DAF5FEA61
:102AD0005C5C3FF409AFACF2FF3CBCF5806F3FF4A7
:102AE00009AF012262F31F512DE9F041BCEBEC7FED
:102AF0003FF40DAF0C0C4E4D05EBC40595E80C00F2
:102B000002F03F0505F14005A5FB000605FB01614C
:102B10006FEAE14404F01F04464D05EBC40560CDA7
:102B2000521943EB060304F58074A4FB000604FB72
:102B300001667FEA26643FF4E3AE3F4D05EBC40532
:102B400022CD521843EB050341F2010505EB440485
:102B50006404A4FB0050C4EBC401E4FB060180EA5A
:102B6000E17481EAE175A5FB0567A4FB05487F08D0
:102B70004FEA360616EB080647F100078C0254EAC6
:102B8000905444F10004801B61EB070154FB14F5E1
:102B900055FB14F655FB15F74FF0553456FB14F65C
:102BA000B6EB173610EB860041EBA671101A63EBFB
:102BB0000101224A24CA1CF1010C0BDDA2FB0C23EB
:102BC0000024E5FB0C34121A8B4164F100045FF021
:102BD00080410CE0DCF1000CA2FB0C230024E5FB9F
:102BE0000C3482184B4144F100045FF040414CB971
:102BF0001C0013000022B1F100711CB91C0000235D
:102C0000B1F10071B4FA84F5A5F11D06A1EB0651EE
:102C1000AC4013FA05F0C5F12005EB401C43EA4037
:102C20001043C00A50EB445041EBD421BDE8F08181
:102C300094260010042600109426001094270010FB
:102C4000C0F3C7536BB17F3B0DD4C3F11703002B07
:102C50000BDD012202FA03F3013B034207D11046C8
:102C60007047012070470020704701207047002006
:102C70007047C0F3C7537F3B0DD4D3F117030CD477
:102C800001229A40013A024209D1172B09D0D840BB
:102C900000F00100704700207047002070470020BE
:102CA00070470120704710F0FF4308D0B3F1FF4F89
:102CB00007D0C0F31600B0FA80F04009704700203A
:102CC00070470020704738B50546012911D00C46E1
:102CD00001EBD1714910FFF7F6FF07EE900A67EE9E
:102CE000A77A14F0010F06D007EE105A67EE877A24
:102CF00001E007EE900A17EE900A38BD08B50029EA
:102D000002DBFFF7E0FF08BDF7EE007A07EE100ADE
:102D1000C7EE877A17EE900A4942F2E770B50E4681
:102D200013F05AFCFFF7CFFE04460D46304613F071
:102D300053FC02460B4620462946FFF78FFAFFF761
:102D400044FDFFF7FFFA70BD2DE9F0410F46044640
:102D5000C60F12D00846FFF78CFF40B1394604F188
:102D60000040FFF7F1FF00F10040BDE8F081394677
:102D700004F10040FFF7E8FFF7E707EE901AFDEED9
:102D8000E77A17EE908AFFF78EFF58B9B8F1000F77
:102D90002BD008F12003402B22D939462046FFF7DB
:102DA000BDFFE2E7C4F3C7547F3CB8F1FF0F05DC79
:102DB00018F5807F04DA6FF0FF0801E04FF0FF089C
:102DC00004FB08F404F17F03002B07DDFE2B03DC7A
:102DD000E40504F17E5601E04FF0FF463046C4E7BB
:102DE00041462046FFF78AFFBFE74FF07E50BCE721
:102DF00008B52DED028B08EE100AF7EE007A37EEDB
:102E0000C87A78EE277A67EE277A17EE900A10F0E4
:102E1000FF4F01D0002808DB13F0F2FB18EE101A68
:102E200000F038FCBDEC028B08BD4FF0FF40F9E725
:102E300008B500F079F907EE100ADFED037A67EEC6
:102E4000277A17EE900A08BDD95BDE3E38B52DED26
:102E5000028B08EE100AF7EE007AB4EE678AF1EE04
:102E600010FA1DD00C460B4611F0FF4218D0FFEEB1
:102E7000007AB4EE678AF1EE10FA02D1B2F1FF4F98
:102E80005ED018EE105A15F0FF4F18D1002B0CDB56
:102E90002046FFF7EEFE002855D018EE100A01E09C
:102EA0004FF07E50BDEC028B38BD2046FFF7E1FEAF
:102EB00000284AD005F0004040F0FF40F2E7EA0D5C
:102EC000FF2A13D040F2FF118A4213D0DB0DFF2BF3
:102ED0001FD040F2FF118B4220D02046FFF7B0FEFA
:102EE00010BB002D26DA4FF0FF40DBE7002B2FDA76
:102EF0000020D7E7002B05DB2046FFF7BAFE50B3D2
:102F00001A48CFE72046FFF7B4FE38B34FF0004031
:102F1000C8E7D2B27E2A23DC0020C3E7D2B27E2AE1
:102F200021DC4FF0FF40BDE7214618EE100AFFF705
:102F30000BFFB7E7214618EE100AFFF7EFFEB1E7E7
:102F40004FF07E50AEE70020ACE74FF0FF40A9E71E
:102F50004FF0FF40A6E74FF0FF40A3E70020A1E7B6
:102F60004FF0FF409EE700209CE700BF000080FF7D
:102F7000000000000000000000000000DB60BE2830
:102F80004A059193F4D5097F70374D7D66A5D836F3
:102F900010E4104FAFF224024B1102EB830201F058
:102FA0001F034FF001049C40A4FB0034D568A5FB2F
:102FB0000456956805FB0466E5FB0356556805FB5A
:102FC0000366704700000000C11545D4852932DA38
:102FD000012262F3DF507E392AD400FA01F041F673
:102FE0009553C5F6554380FB03012BA292EC034A8F
:102FF000820D61F39A2200EE102ABBEEC00A60EE49
:10300000000AC1F3444220EE042A26A320EE201A2F
:1030100053F8222000EEA42A891501EE052A02EBBE
:10302000C15200EE102A00EE020A10EE100A70479C
:103030004942C840D3E747F21822C4F2B122904275
:10304000C6D3B0F1FF4F02D950F48000704740F270
:103050000000C7F68070704711F17B0F0CDA012277
:1030600062F3DF50823105D54942C84040F100008B
:103070004042B4E78840FBE74AF64F42CCF2AE222A
:103080009042ECD910F5000F02D950F4800070473F
:103090004FF00000704700BF1872313FF0FD753EE1
:1030A0004758633D0000803F87CD823FC3AA853FDC
:1030B0000F98883FC2958B3F3AA48E3FD3C3913F70
:1030C000F0F4943FF037983F3A8D9B3F32F59E3FA6
:1030D0004370A23FD7FEA53F5BA1A93F3F58AD3F3C
:1030E000F623B13FF304B53FAFFBB83FA408BD3FA3
:1030F0004D2CC13F2A67C53FBEB9C93F8C24CE3F86
:103100001EA8D23FFD44D73FB8FBDB3FDFCCE03FFA
:1031100007B9E53FC7C0EA3FBAE4EF3F7D25F53F79
:10312000B383FA3F00000000B0F1FF4F3ED2C1155B
:103130003ED04FF0010262F3DF5038BF400026A3BB
:1031400093EC034AAFF21C0303EB104323F0070395
:10315000D3E9002300FB02F040EC103AFAEEC00A7B
:1031600020EEA01A61F17E0160EE811AC90521EE00
:10317000012A40F6FC3221EE041AC5F6B90261EECE
:10318000A41A51FB12F122EE052A03EE901A71EEF9
:10319000C21AFAEEC53A31EE611A70EEC10A30EE8B
:1031A000200A30EE230A10EE100A704705DC0BD01F
:1031B00010F1FF4F09D310F5000F40F4800003D841
:1031C00040F20000CFF6C070704740F20000CFF62A
:1031D00080707047AFF300800000003FABAAAA3EAA
:1031E0000000803E000000005501000001CB92BEAF
:1031F00048010000C3C87DBE3B010000685F54BEAB
:103200002F010000C7992CBE250100002C3C0ABEEE
:103210001A0100002F1AC6BD11010000C2AC83BD07
:1032200008010000D814FCBC0001000000000000F0
:10323000F8000000EC0A023DF10000008E51773DDD
:10324000EA0000009806B83DE40000003B39ED3D7F
:10325000DD000000088B163ED800000003FA2D3E6A
:10326000D2000000D7D24A3ECD000000DE7F633E90
:10327000C8000000E3C87C3EC3000000E65A8B3E55
:10328000BF00000084F7953EBA0000006E8CA33E9C
:10329000B6000000EFADAE3EB2000000C40EBA3E74
:1032A000AE000000CDB1C53EAB0000005F99CE3E40
:1032B000410201D150F0004050F480007047F0B559
:1032C000012363F3DF50C1F109014FF07E07FFF7DF
:1032D00061FEB30F53F100039C44B6EB8376B2005A
:1032E00028BF5242B2F1805F0BD20231FFF752FE8B
:1032F00096EA260242F10002B2F1805F01D2023F5B
:10330000F3D50A4CA2FB0424B4FA84F29440240AB4
:10331000A7EB020244EBC250C10DD1F17F01F60FC1
:1033200000EBC673BDE8F04073E00000A2DA0FC9FD
:1033300011F1800FBCD030EACC7248BF0CF1020C06
:1033400020F0004000EE100A0DA2F2EC032A22EE5B
:10335000802A11F1080FB9FE422AB0DDA2EE630AFD
:10336000A2EE430A10EE103AFDEEC21AC3F3C752A2
:10337000782AA4D3D2F17F0111EE902A944448E038
:1033800083F9223F7A7795B60010C93F07B5C0F39D
:10339000C751FF2925D000F032F8BDE80640CEF82D
:1033A00000000ED2C9438CEAD17C63EEA02AE1EE84
:1033B000032A73EE622A12EE900A80EACC70106043
:1033C00000BD8CEAD17C21EE232AA3EE602A8CEA90
:1033D000D37133EEC22A12EE100A80EAC170106077
:1033E00000BD4102BDE80E4001D150F0004050F454
:1033F00080001060186070475FF0000C01E05FF023
:10340000010CC0F3C751A1B3D1F17F0190D920EADB
:10341000CC7323F0004000EE100AC0F3844020304B
:1034200030FA01F1834A51F10001B2EC024A02EB99
:10343000810202EBC102D2EC032A70EE620A20EE96
:10344000A01A5FEA5C0C61EE201A15D221EE041A74
:1034500061EEA41A70EEE10A21EE232AA3EE602A9F
:103460008CEAD37133EEC22A12EE100A80EAC170E0
:10347000704700F00040C7E761EEA41A70EEE10A61
:1034800021EE041A63EEA02AE1EE032A73EE622A0B
:1034900012EE900A80EACC70704700BFAFF3008054
:1034A000C1FEFF3E25AA2A3E000000000000803F2A
:1034B0000000000061C9FC3CCDE07F3F1CBFFC3C2C
:1034C0007605813DFE7D7F3F9EEF803D090CBF3D2F
:1034D0000FE37E3F22C5BE3DB624FF3D14047E3F70
:1034E000E27BFE3D13071F3E48EB7C3FA0631E3E80
:1034F0006D30403E1D817B3F15103F3EA2AD603ECA
:10350000CFDC793F3EE15E3E7B0D803EFA08783F9E
:1035100096717D3E6E988F3E65FF753F68B88D3E13
:10352000F4E19F3E939E733FFD4B9D3EC654B03EDB
:10353000AEF7703FB3DDAC3EC589BF3E604B6E3F1A
:103540000A1ABB3E26C4CF3ECA356B3F631CCA3E37
:10355000F254E03E66D1673F0739D93EDDF0EF3ED9
:103560004B66643F1641E73E312B003F8894603F35
:103570000FC3F53E07E4073FA2C55C3F2B99013F0F
:10358000C51F103F8F7D583F65A1083F8AF6173F42
:10359000B534543FCA310F3FE2FF1F3F599B4F3FA5
:1035A000D7C8153F4606283F6BCF4A3FC4371C3F5C
:1035B0004130303FE0B9453FE49A223FA71D383FF4
:1035C000CA98403F20A6283F2FC73F3FAC763B3FDD
:1035D0004A562E3FDB13483FCCB6353F6B52343F43
:1035E00079C74F3F2F35303FD0B4393F52DD573F79
:1035F00070412A3F912D3F3F26CE5F3F9F3E243FA3
:10360000C35D443FF125683F50C21D3F1C9D493FAB
:10361000E13B703F4150173FBF7E4E3F7810783FEF
:1036200071ED103FAF06533FD4F47F3FA75A0A3FD6
:103630009B64573FA034001051F48000704703D1C1
:10364000B3F1FF4F3CD106E050F480007047FBD14E
:10365000B3F1FF4F49D1013801391BE003F00043BA
:10366000B2F5000F02D20BE002F0004243EC102A48
:1036700080EE201A1EE003F00043B2F5000F04D2E2
:1036800041F07E5106E002F0004243EC102A80EE49
:10369000801A24E020F0004221F0004343EC102A7D
:1036A0009A4214D880EE201AB3F5000FD6D3B2F5A3
:1036B000000FD9D3B3F1FF4FBED8B2F1FF4FBED246
:1036C00000294CBFDFF82CC14FF0000C11E080EE58
:1036D000801AB3F5000FCED3B2F5000FD3D3B3F1F8
:1036E000FF4FA9D8B2F1FF4FB1D2DFF804C191F07A
:1036F000004142A2F0EE411AFFEECD1A11EE903ACF
:103700005B0853F1000302EBC302D2ED012A22EE63
:10371000810A71EE620AF7EE002A32EE800A32D098
:1037200080EE800A1268002948BF52426244002895
:1037300048BF5242002A07D55242B2FA82F39A4059
:103740000BD0C3F5C07305E0B2FA82F39A4004D0FF
:10375000C3F18003120A42EBC35220EE001ADFEDE0
:10376000261A21EE001A90EA010F21EE211A02EE2C
:10377000102A30EE410A54BF32EE000A32EE400AFF
:1037800010EE100A704780EE800A6246002848BF9B
:103790005242002A07D55242B2FA82F39A400BD025
:1037A000C3F5C07305E0B2FA82F39A4004D0C3F1C6
:1037B0008003120A42EBC35220EE001ADFED0E1A0C
:1037C00021EE001A90EA010F21EE211A02EE102AD2
:1037D00030EE410A54BF32EE000A32EE400A10EEDB
:1037E000100A10F0FF4F18BF704700F000407047FC
:1037F000A9F6433251ED8764ABAAAA3E000000004F
:103800000000000023EEFF00BB01003DDC88FE014C
:103810002A997F3D700AFE020312C03D28D2FA03A6
:103820006803003E70ABF504EAFD1F3EF856ED0557
:10383000DCDD3F3EA0CFE4062514603EE0D3D80790
:103840005D21803E6004C608A500903E7067B20905
:103850009214A03E506D990A7713B03E106D7A0B0A
:10386000A0F4BF3EE03C590C9F01D03ED0EB330D9D
:10387000BC1BE03EB07A080EBD1FF03E8061D50E45
:1038800098EFFF3E80DEA10FBF0E083F009D631042
:1038900031EC0F3FE0902611FD0C183FC014E011F1
:1038A0006500203FE0519612BE08283F00D4461321
:1038B0007D0A303FC0C7EF132FEE373F6089981461
:1038C000320C403FC0A8371542EF473F60CCD415BB
:1038D00030F64F3F80F26E163415583FC075FF1614
:1038E0001EEF5F3FA01691174D18683FA05A1B1896
:1038F0002217703F6005A1187110783F60402119B0
:1039000051F47F3F08B528B103460B44034A934264
:1039100000D808BD0248FDF779F800BF0000082074
:10392000A869011038B505460CF098FB04462946F5
:10393000FFF7E8FF204638BD70B505460E460CF08F
:103940004DFB044606FB05F1FFF7DCFF204670BD8A
:1039500008B50CF08BFB08BD9A4200D28854704722
:10396000704720B108B50A684968904708BD70479C
:103970000146002008E000EB8000531C0B60137828
:1039800003EB4003A3F130000A681378303BDBB24D
:10399000092BF0D970472DE9F04F83B005460E464C
:1039A00093461F46DDF830A00D9CDDF838900F9B44
:1039B00013F0030F19D1A046019208E002F1010BA8
:1039C0003B4631462020A84708F101085A46C84521
:1039D000F4D3DDF804B008E0013C02F101083B46F5
:1039E00031461AF80400A8474246002CF4D10F9B38
:1039F00013F0020F09D1104603B0BDE8F08F541C3C
:103A00003B4631462020A8472246A2EB0B034B45FC
:103A1000F5D3F0E72DE9F04385B099460C9D0D9C58
:103A20009DF83880DDF840E0119F129E16F0020FDD
:103A300021D17FB116F0010F0CD0B8F1000F02D1E7
:103A400016F00C0F06D0013F04E04FF0300C05F8E3
:103A500004C00134744501D21F2CF6D916F0010FB1
:103A600009D0BC4207D21F2C05D84FF0300C05F806
:103A700004C00134F2E716F0100F14D016F4806F72
:103A800004D11CB1744522D0BC4220D00F9B102B16
:103A900033D00F9B022B3DD01F2C0ED84FF0300C93
:103AA00005F804C001341F2C07D8B8F1000F39D035
:103AB0004FF02D0C05F804C00134039602970194D1
:103AC00000954B46FFF767FF05B0BDE8F083B4F102
:103AD000010C1DD00F9B102B0ED064460F9B102B9A
:103AE000D7D116F0200FD4D01F2CD2D84FF0580CBD
:103AF00005F804C00134CFE7023C16F0200FEDD1E9
:103B00001F2CEBD84FF0780C05F804C00134C3E744
:103B10006446BBE71F2CD0D84FF0620C05F804C0F8
:103B20000134B9E716F0040F05D04FF02B0C05F85F
:103B300004C00134C1E716F0080FBED04FF0200CCE
:103B400005F804C00134B8E7F0B591B0169C189D93
:103B50001B9E0CB926F0100616F4806E1DD064B3BF
:103B60004FF0000E19E016F0200F24D04127BC447E
:103B70005FFA8CFCACF10A0C5FFA8CFC0EF10107C9
:103B80000EF1400EEE440EF820CCB4FBF5FCAC4236
:103B900014D31F2F12D8BE466446B4FBF5FC05FBB8
:103BA0001C4C5FFA8CFCBCF1090FDCD80CF1300C1A
:103BB0005FFA8CFCE2E76127D9E7274606961A9C54
:103BC0000594199C049403959DF85C400294019718
:103BD00008AC0094FFF71EFF11B0F0BD2DE9F04FC7
:103BE00095B009900A910B929846DDF878B0DDF80F
:103BF0007C90229D239F269E5BEA090201D126F03C
:103C0000100616F4806424D05BEA09022FD0002449
:103C10001FE016F0200F28D041231344DBB20A3BEB
:103C2000DBB204F1010A04F150020DEB020404F8C6
:103C3000203C2A463B465846494612F0D1FCAB454B
:103C400079EB070915D3BAF11F0F12D854468346F2
:103C500089462A463B465846494612F0C1FCD2B234
:103C6000092AD6D83032D3B2DBE76123D5E74FF04B
:103C7000000A0696259B0593249B049303959DF8C3
:103C800080300293CDF804A00CAB009343460B9A0E
:103C90000A990998FFF7BEFE15B0BDE8F08F000045
:103CA0002DE9F04F93B004460D4617461E46DDE958
:103CB0001CAB52465B4650465946FEF799FB00281E
:103CC00040F0F3804FF0FF32AD4B50465946FEF7BF
:103CD000EFFB002840F0E9804FF0FF326FF48013D3
:103CE00050465946FEF7A8FB002840F0DE8000222F
:103CF000002350465946FEF79FFB002840F0E6801F
:103D0000CDE906AB209B13F480630F9301D106230A
:103D10001E93DDE9062310461946CDE90A01079BEB
:103D200052EA030100F0DC80C3F30A50C3F313032B
:103D3000904643F07F5949F44019A0F2FF30FEF756
:103D40000FFB7DA3D3E90023FEF788FA7CA3D3E918
:103D50000023FEF75BFACDE908010022894B4046BB
:103D60004946FEF767FA78A3D3E90023FEF776FA0F
:103D700002460B46DDE90801FEF748FAFEF714FBA0
:103D80000890FEF7EDFA8046894671A3D3E9002337
:103D9000FEF764FA00227C4BFEF738FAFEF704FBCC
:103DA0000A906DA3D3E9002340464946FEF756FA30
:103DB000804689460A98FEF7D3FA69A3D3E900231F
:103DC000FEF74CFA02460B4640464946FEF732FAE9
:103DD0008046894602460B46FEF740FACDE90C01C3
:103DE0000A9B03F2FF3300210022CDE90A121B05D2
:103DF0000B9300230A9342464B4640464946FEF742
:103E000005FACDE9100142464B4600204FF08041B3
:103E1000FEF710FA8046894600225C4BDDE90C0172
:103E2000FEF742FA00225A4BFEF7F0F902460B4623
:103E3000DDE90C01FEF738FA0022564BFEF7E6F9F1
:103E400002460B46DDE90C01FEF72EFA02460B4650
:103E500040464946FEF7DAF902460B46DDE9100115
:103E6000FEF722FA00224C4BFEF7D0F9DDE90A23D7
:103E7000FEF7F4F980468946CDE90A89DDE9062393
:103E8000FEF716FB50B1089B013B08930022404B04
:103E900040464946FEF708FACDE90A01089B63331C
:103EA000C62B46D84FF004081EE0209B04931F9BAE
:103EB00003931E9B0293CDE900AB33463A46294655
:103EC000204600F0FDF813B0BDE8F08F9FED267B93
:103ED0008DED067BCDF818A00BF10043079311E799
:103EE000002308934FF00408209B13F4006F5FD069
:103EF000DDE90A1213460B4313D01DA3D3E90023B7
:103F0000DDE90601FEF7C0FA002800F0B4801AA32C
:103F1000D3E90023DDE90601FEF78EFA002800F060
:103F2000AA801E9A089B9A4238DDD31A013B1E9341
:103F300036E04FF00508D7E7FB799F501344D33F95
:103F4000B3C8608B288AC63F61436F63A787D23F9F
:103F500071A379094F930A401655B5BBB16B024066
:103F6000EF39FAFE422EE63F00000000000000009C
:103F70002D431CEBE2361A3F0000000080842E41E6
:103F8000FFFFEF7F0000F83F0000E03F00002C4003
:103F900000002440000018400000F03F00231E9362
:103FA000209B43F4806320934FF00008CDF82080DD
:103FB0001F9B984569D2A3EB0809209B13F00203CD
:103FC0000C9304D0B8F1000F01D04FF00009089B0A
:103FD0003BB1DDE90A23DDE90601FEF765F9CDE92C
:103FE00006010022002350465946FEF725FA002814
:103FF0004ED1209B23F400630493CDF80C901E9BBC
:1040000002939DED067B8DED007B33463A462946B3
:10401000204600F055F8B8F1000F3FF454AF209B54
:1040200013F0200F3CD04FF0450C00F1010933464E
:10403000024629466046A047089981EAE172A2EB50
:10404000E1720523059308F1FF33049300230393E2
:104050000A230293CB0F0193009233464A46294626
:104060002046FFF771FD0C9B002B3FF42CAF02465E
:10407000DDF87C901EE01E9B002B99D00F9B002B3F
:1040800096D01E9B013B1E9392E74FF0000994E7E8
:10409000DDE90601024601F10043CDE90623A8E768
:1040A0004FF0650CC1E702F1010833462946202094
:1040B000A0474246D31B4B45F5D3104603E700BF4C
:1040C0002DE9F04F2DED028B95B007900A919246A5
:1040D0009B46DDE92089229D42464B4640464946A3
:1040E000FEF786F9002835D14FF0FF326FF48013C8
:1040F00040464946FEF7A0F900283AD14FF0FF327A
:10410000B14B40464946FEF7D3F9002840D1AAA357
:10411000D3E9002340464946FEF7CAF900284DD1AD
:10412000A7A3D3E9002340464946FEF785F90028B6
:1041300044D10022002340464946FEF77DF900287D
:104140004AD100230B93249B13F4806F00F0B580B9
:10415000002454E0249B0393239B029303230193A5
:104160009A4B00935B4652460A990798FFF713FC57
:104170001BE1249B0393239B029304230193944B01
:1041800000935B4652460A990798FFF704FC0CE13E
:10419000249B13F0040F0ED08E4B0422249903911C
:1041A00023990291019200935B4652460A9907981F
:1041B000FFF7F1FBF9E0884B0322EFE7249B049320
:1041C000239B03930295CDE900895B4652460A99E9
:1041D0000798FFF765FDE8E042464B4600200021C6
:1041E000FEF728F88046894601230B93ABE704F1DC
:1041F00050036B44302203F8202C013D01341F2C66
:1042000001D8092DF3D840464946FEF7CDF80646B9
:10421000FEF7A6F802460B4640464946FEF70AF866
:104220006E4B03EBC50393ED008B53EC182BFEF79D
:1042300015F802460B46CDE90823FEF7C7F80746F6
:10424000FEF7A0F802460B46DDE90801FDF7F2FF94
:1042500002460B46CDE908230022614BFEF728F900
:1042600068B301373846FEF78DF802460B4651EC2D
:10427000180BFEF7F5F808B1013600276DBB304684
:10428000FEF76EF802460B4640464946FDF7D2FF60
:10429000074688460022524BFEF7CEF800284CD144
:1042A00000224F4B38464146FEF702F9002844D120
:1042B00016F0010F41D001363FE0062548E7002205
:1042C000474BDDE90801FEF7B7F80028D6D117B152
:1042D00017F0010FD2D00137D0E71F2C17D8013DBE
:1042E000404BA3FB0723DB08194603EB8303A7EB33
:1042F0004303621C303304F150000DEB000404F85A
:10430000203C092F02D90F461446E6E714461F2C1D
:104310000AD86B1E45B104F150026A44302102F8FC
:10432000201C1D460134F2E71F2C06D804F150036F
:104330006B442E2203F8202C01341F2C17D82A4A54
:1043400082FB0632F317C3EBA2031A4603EB830387
:10435000A6EB4303611C303304F150000DEB000465
:1043600004F8203C16460AB10C46E6E70C46249BAE
:1043700003F00303012B39D01F2C09D80B9B002B12
:1043800051D004F150036B442D2203F8202C01344A
:10439000249B0393239B029301940CAB00935B46F5
:1043A00052460A990798FFF7F6FA15B0BDEC028B52
:1043B000BDE8F08FAFF300800000000065CDCD4177
:1043C0000000000065CDCDC1FFFFEF7F086A01103E
:1043D0000C6A0110FC690110046A0110E0790110F7
:1043E0000000E03FCDCCCCCC67666666239BB3B1C2
:1043F0000B9B1BB9249B13F00C0F12D0239B013B8A
:104400002393194606E004F150036B44302203F86D
:10441000202C01348C42AFD21F2CF4D9ACE7239965
:10442000F8E72399F6E7249B13F0040F07D004F173
:1044300050036B442B2203F8202C0134A8E7249B63
:1044400013F0080FA4D004F150036B44202203F8AA
:10445000202C01349CE700BF2DE9F04F8FB080463F
:1044600017460D938946002900F04F83002508E088
:104470006C1C3B462A464946C0470D9B01330D93B1
:1044800025460D9B1878002800F042832528EFD19F
:1044900001330D9300261FE046F0010601320D9214
:1044A000012318E046F0020601320D92012312E0CA
:1044B00046F0040601320D9201230CE046F0080696
:1044C00001320D92012306E046F0100601320D92F2
:1044D000012300E000234BB30D9A1378203B102BEF
:1044E000F8D801A151F823F0BD440010D5440010C4
:1044F000D5440010C9440010D5440010D544001024
:10450000D5440010D5440010D5440010D544001007
:10451000D5440010B1440010D5440010A54400104B
:10452000D5440010D5440010994400100A930D9B07
:104530001A78A2F13003DBB2092B18D92A2A1BD032
:104540000A9B0B930D9B1A782E2A25D00D9A13786F
:10455000683B122B5CD8DFE803F0495BAC5B3B5B4C
:104560005B5B5B5B5B5B575B5B5B5B5BB1000DA8A5
:10457000FFF7FEF90B90E5E7189B1A1D18921B68D0
:10458000002B04DB0B930D9B01330D93DAE746F010
:1045900002065B420B93F6E746F480665A1C0D92C6
:1045A0005A78A2F13003DBB2092B0CD92A2ACDD1DB
:1045B000189B1A1D18921C6824EAE4730A930D9B39
:1045C00001330D93C2E70DA8FFF7D2F90A90BDE7BA
:1045D00046F48071531C0D9353786C2B01D00E461A
:1045E00016E046F4407602320D9211E046F080016A
:1045F000531C0D935378682B01D00E4608E046F00B
:10460000C00602320D9203E046F4807601320D922C
:104610000D9B1878672856D82528C0F06C82A0F129
:104620002503422B00F26782DFE813F05A0265028D
:104630006502650265026502650265026502650242
:104640006502650265026502650265026502650232
:104650006502650265026502650265026502650222
:1046600065026502650265026502650288016801EE
:1046700088016502650265026502650265026502E0
:1046800065026502650265026502650265026502F2
:1046900065027100650265026502650265026502D8
:1046A0006502650265027100AF0171008801680151
:1046B000880146F4007601320D92A9E746F480762F
:1046C00001320D92A4E7782800F215826928C0F023
:1046D0001282A0F16902D2B20123934049F2410251
:1046E000134214D113F0800F40F0DF8113F4806F78
:1046F00000F00182189B1A1D1892D3F800A00A9BA3
:10470000002B40F090814FF0FF32534674E16F2848
:104710003DD005D858283CD0622803D1022304E0BC
:10472000782838D026F010060A23582835D0692872
:1047300003D0642801D026F00C0616F4806F01D057
:1047400026F0010669282BD0642829D016F4007FB2
:1047500040F0968016F4807F40F0AE8016F0400F57
:1047600000F0BF80189A111D1891127805960B99C8
:1047700004910A99039102930023019300923B460E
:104780002A4649464046FFF7DFF9054629E0082357
:10479000CBE71023C9E71023C7E746F02006C6E79A
:1047A00016F4007F21D116F4807F42D116F0400F1D
:1047B00058D0189A111D1891127882EAE271A1EB73
:1047C000E27105960B9804900A9803900293D20F19
:1047D000019200913B462A4649464046FFF7B4F90C
:1047E00005460D9B01330D934BE6189A073222F0D4
:1047F000070202F108011891516812680846002961
:1048000013DB08960B9C07940A9C069404930023E0
:104810000593C90F0291009201903B462A464946F2
:104820004046FFF7DBF90546DBE7524261EB41000A
:10483000E7E7189A111D1891126882EAE271A1EB5C
:10484000E27105960B9804900A9803900293D20F98
:10485000019200913B462A4649464046FFF774F9CB
:104860000546BEE716F0800F05D0189A111D189165
:10487000B2F90020A1E7189A111D189112689CE75F
:10488000189A073222F0070202F1080118910896DF
:104890000B9907910A9906910021049305910291C1
:1048A000D2E90023CDE900233B462A46494640464B
:1048B000FFF794F9054694E7189A111D189105968B
:1048C0000B9904910A9903910293002301931368B1
:1048D00000933B462A4649464046FFF735F90546D0
:1048E0007FE716F0800F04D0189A111D18911288D6
:1048F0003CE7189A111D1891126837E746281AD01C
:10490000189B073323F0070303F10802189204965B
:104910000B9A03920A9A0292D3E90023CDE900236D
:104920003B462A4649464046FFF7CAFB05460D9BD3
:1049300001330D93A5E546F02006E1E7672801D095
:10494000472801D146F40066452801D0472801D107
:1049500046F02006189B073323F0070303F10802F3
:10496000189204960B9A03920A9A0292D3E90023B2
:10497000CDE900233B462A4649464046FFF790F9D9
:1049800005460D9B01330D937BE516F002061CD006
:1049900001241898031D189305F1010A3B462A4685
:1049A00049460078C047AEB90D9B01330D9355467B
:1049B00067E5551C3B4649462020C04723462A460A
:1049C0005C1C9A45F5D81546E3E70123DDF82CA0D9
:1049D0002A46F5E75246DDF82CA006E0561C3B4679
:1049E00049462020C0472C463246651CA245F5D8D2
:1049F0009246D9E701330A46197811B1511E002AAF
:104A0000F8D1A3EB0A0316F4806B03D00A9A934201
:104A100028BF134616F0020407D00C940A9E2A46BB
:104A20005D469B4623E00A9A6FE6CDF830B02A46F1
:104A300025460B9C07E002F1010B3B46494620202E
:104A4000C04733465A465E1C9C42F4D8DDF830B06D
:104A50002C4633460C940A9E5D469B4607E01E4654
:104A60000AF1010A541C3B464946C04722469AF8BF
:104A7000000020B1002DF3D0731E002EEFD10C9C4E
:104A800015465B461CB90D9B01330D93F9E40B9E53
:104A900006E0551C3B4649462020C04723462A468F
:104AA0005C1C9E42F5D81546EDE746F02106189BA2
:104AB0001A1D18921B680596082204920A9A0392FE
:104AC000102202920022019200933B462A46494658
:104AD0004046FFF739F805460D9B01330D93D0E4AE
:104AE0006C1C3B462A4649462520C0470D9B013396
:104AF0000D932546C5E46C1C3B462A464946C047F3
:104B00000D9B01330D932546BBE4DFF82080ADE417
:104B1000BD4208D37A1E3B4649460020C04728467E
:104B20000FB0BDE8F08F2A46F5E700BF61390010ED
:104B30000EB400B584B0014605AA52F8043B0392B6
:104B400000924FF0FF320448FFF786FC04B05DF896
:104B500004EB03B0704700BF5939001000B585B0B1
:104B600002900391009313464FF0FF3202A90348CD
:104B7000FFF772FC05B05DF804FB00BF633900105D
:104B800000BEFDE70346094A126842B1074A1068B1
:104B90000344074A934206D8044A13607047034A05
:104BA00004491160F2E74FF0FF30704714170220FC
:104BB000000008205C17022008B538B908461146E5
:104BC000044BD3E9002300F039F908BD4FF0FF3062
:104BD000FBE700BF78790110431E012B09D810B5FF
:104BE0000846144601230022214600F0E1F8204641
:104BF00010BD4FF0FF3070470EB44FF0FF3003B0E0
:104C000070474FF0FF3070474FF0FF3070474FF064
:104C1000FF30704702288CBF00200120704708B584
:104C2000FFF7AEFF00B583B08C4619465AB1144663
:104C3000064B0194009363460246054800F074F960
:104C40000120FFF79DFF034B1C46F2E7146A011099
:104C5000246A0110646E011010B5EFF30583DBB216
:104C600003B100BEFCF726FE044C02E054F8043BFE
:104C70009847034B9C42F9D310BD00BF4866011012
:104C80004C66011008B5034608461B681146984754
:104C900008BD0000F8B507460D461646437D13B122
:104CA000002420460CE003681146284698472EE071
:104CB0003B7D10E03B68022115489847601C013499
:104CC000B44214DA002CF3DD2B1913F8013C0D2B40
:104CD00014BF002301232A5D0A2AF0D1002BEED154
:104CE000A042E7DA3B68211A28449847E2E7B0423D
:104CF00003DA3B68311A28449847002E07DD354413
:104D000015F8013C0D2B14BF002301233B75F8BDA2
:104D1000307A011038B50368BBB105460B4B1C68EF
:104D200006E0294651F8042B2046FFF7B3FF24691B
:104D30004CB12368002BFAD0054B1B68002BF0D038
:104D4000A342F4D1EDE700232B6038BD0817022001
:104D50001017022038B505460C460B68802B05D08D
:104D600023685A1C22601C44257138BD0846FFF791
:104D7000D1FFF5E708B5FCF773FB074A821841F14C
:104D80000003002B03DB054811F036FC08BD4FF093
:104D9000FF326FF00043F6E740420F00D4020220DA
:104DA00008B5024811F020FC08BD00BFD402022063
:104DB0002DE9F04383B006460D4690461C46FFF7AA
:104DC000D9FF8146B5F1FF3F04D044B1174F184BCE
:104DD0001C6807E030460DF053FA0546F5E7154F1D
:104DE000F5E72469BCB12368002BFAD0124B1B688D
:104DF0000BB1A342F5D12A4631462046B847B8F157
:104E0000000FEED00A238DF8073001220DF10701C3
:104E10002046B847E5E7B9F1000F03D1284603B0B3
:104E2000BDE8F083FFF7BCFFF8E700BF954C00102A
:104E300008170220854C0010101702202DE9F843B6
:104E400007460E4691469846144B1C6807E0A36837
:104E500023B131463846984700281CDC246934B118
:104E60000F4D2D68002DF2D0A542F7D1EFE70D4B85
:104E70005B6A984508D80B4A926A4A4509D2984518
:104E800002D06FF0010006E001200021FCF7F0FAEB
:104E9000DAE76FF00100BDE8F88300BF08170220D1
:104EA0001017022000000B4010B5054B1C6800E0F5
:104EB000246924B16368002BFAD09847F8E710BD45
:104EC000081702200020704738B505460DF0D8F9C4
:104ED000044601231A4601462846FFF769FFFFF7FB
:104EE000E3FF204638BD0000F0B5A3B004460E46EF
:104EF000FFF740FF05460023019301AF33462246EA
:104F000039460848FFF72AFE04463846FFF702FFF5
:104F1000FFF7CAFF15B9204623B0F0BDFFF740FFE9
:104F2000F9E700BF554D00100FB400B583B004A9D8
:104F300051F8040B0191FFF7D7FF03B05DF804EBC4
:104F400004B0704700B583B00146054B00930F23B2
:104F500000220448FBF7A7FD03B05DF804FB00BF87
:104F6000546A0110581702200022026042608260D9
:104F7000C2604FF4803202604FF4F83242604FF466
:104F8000802282604FF4402282607047D0F86831FE
:104F900023B111F0010F06D00020704711F0040F6B
:104FA00003D000207047012070470120704708B5EA
:104FB000C979FFF7EBFF08BD70B504460D461646EC
:104FC000FFF7F5FFD0B195F90530002B01DBB342B7
:104FD00017D104F12F4000F56000000D0A4B53F883
:104FE00020102A7901239340013B03FA06F20A427A
:104FF00001D1002070BD6FF00800FBE76FF00A00E0
:10500000F8E76FF00A00F5E7CC0E0220F8B5064687
:105010000D461746FFF7D0FF28BB034608E00CEB10
:10502000070403EB070C0CF1120C46F82C4001337B
:105030002A799A4207D92A6832F813C0BCF5005F72
:10504000EDD36446EDE701239340013B06F12F4683
:1050500006F56006360D044951F82620BB401A4378
:1050600041F826203846F8BDCC0E022010B50A794A
:10507000202A19D800F12F4000F56000000D154BD3
:1050800053F8204001239340013B91F9051000297A
:1050900010DB0846C2F12002914218DC8B4023420B
:1050A00001D04FF0FF3010BD0B4B0C4A43210C4890
:1050B000FFF7B8FDC2F12000002805DB03FA00F27B
:1050C0002242F0D00138F7E76FF00800EBE74FF02D
:1050D000FF30E8E7CC0E0220746A0110347A011028
:1050E000A06A0110F8B505460E46FBF7A7FC074677
:1050F00031462846FFF7BAFF041E04DA3846FBF7AC
:10510000AFFC2046F8BD224631462846FFF77EFF19
:105110000446F3E7F0B59DF81470D0F86841121B0F
:105120001F2A43D801EB410400EBC404D4F8DC602F
:10513000D4F8CC5001EB4104E400C834044404F535
:1051400040544FF4003CC4F804C017B14FF01F0E98
:1051500015E04FF0000E12E0540144F0A05401EBB2
:10516000410C00EBCC0CCCF8DC404EF4604444F035
:105170008004CCF8D840053B053202F01F02052B15
:10518000EAD8520142EA836301EB410200EBC2021A
:10519000C2F8DC304EF4604343F08003C2F8D830EC
:1051A000C2F8DC60C2F8CC500020F0BD6FF0040003
:1051B000FBE770B584B005460C461646026801212F
:1051C000A14022EA01020260ABB31A46196804EB5F
:1051D000440300EBC303C3F8C8109168C3F8D010B0
:1051E0005168C3F8CC10D268C3F8DC2004EB440348
:1051F000DB00D0332B4403F580534FF000421A609C
:105200001A604FF00133A340AB60221D012303FA63
:1052100002F205F500510A6004F1080293400B60A8
:1052200006F01F0604EB440405EBC405C5F8D8607E
:10523000002004B070BD6846FFF796FE04EB4403FF
:1052400005EBC303009AC3F8C820029AC3F8D02024
:10525000019AC3F8CC20039AC3F8DC20C6E700000B
:105260002DE9F04FDFF87C930528F94407468DB00F
:1052700002D9082840F0DB8140F60470FEF752FBAB
:105280000446002800F0D381064602AD46F8047BB0
:105290004FF4FA512846CE4A09F076FD0FCD01961B
:1052A0000FC60FCDD4F810800FC695E8030086E82E
:1052B0000300A56863682563ED002846C4F83480C0
:1052C000E362FEF72FFB0646C4F84408002800F00E
:1052D000AE8128460121FEF72FFB0746C4F864087B
:1052E000002800F0A1814FEA88052846FEF71AFB46
:1052F00083462064002800F0BC812846FEF712FB9C
:10530000C4F84C08002800F0AA81B8F1000F06DDAF
:105310004FF07E53054440F8043B8542FBD1002505
:10532000002304F6540104F505620D604FF400708B
:10533000194615601A4602F061FD0023024619461F
:10534000A2634FF400701A4602F05AFD019E226CCF
:1053500004F14403A16BE063304609F0C9FD304617
:10536000D4F844180AF030FB002301211A464FF408
:10537000007002F045FD974E04F50763C4F860081D
:105380001E6004F66C031D6004F668031D604FF494
:1053900020728BA7D7E90067002104F508600CF0A4
:1053A0003FFDA069FCF7DCFF02460B4686A1D1E970
:1053B0000001FCF779FFFCF7C5FF04F674031860E1
:1053C00011F00AF902460B467DA1D1E90001FCF774
:1053D0006BFFFCF7E9FF00254FF0000ADFF808B289
:1053E000C4F87808C4F8845D04F688582846FCF7A9
:1053F000B7FF32463B46FCF731FF52465B46FCF7AF
:1054000053FFFCF79FFF01350A2D48F8040BEDD13F
:105410004FF07E5304F55B660198336008F0F4FFAB
:10542000C4F85808002800F0028100230122DFEDB3
:105430006A7A4FF07C5B002504F6C85E04F6C45C13
:1054400004F55D6704F6BC5A04F55C68C4F8B42D35
:10545000C4F8B82DCAED007AC8F800B0CEF8003014
:10546000CCF800303B60276B04F6CC503E0104F6CC
:105470008C6106F5CA760360C4F8D45D30460B60D3
:10548000C4F8905EC4F8945E84F8982EFEF74AFA49
:10549000C4F84808002800F0D980193703DB3246E9
:1054A00029460CF0BDFC002501262368C4F8D85D10
:1054B000082BC4F85C6829D000210026002704F5D9
:1054C0006F62C2E90067C4F8FC1EC4F8001F7BB11C
:1054D000012B50D1454A464B59F80220C4F8F82E0A
:1054E00059F80330C4F8FC3E20460DB0BDE8F08FFB
:1054F0002046404A404B59F80220C4F8F82E59F88B
:105500000330C4F8FC3E0DB0BDE8F08F334803F023
:1055100011FF0746324803F00DFF3A4603461421B7
:1055200004F6DC5003F036FF5022294604F62C60C6
:105530000CF076FC5022294604F69C600CF070FCBE
:10554000002204F67C63294684F8EC5E80201A6011
:105550002B462A46C4F8805E02F050FC03463146D2
:10556000C4F8843E80202B462A4602F047FC23687C
:10557000C4F8880EA0E7022B0DD120461F4A204B0D
:1055800059F80220C4F8F82E59F80330C4F8FC3E4C
:105590000DB0BDE8F08F032B38D0042B49D1204645
:1055A000184A194B59F80220C4F8F82E59F803305C
:1055B000C4F8003F0DB0BDE8F08F00BFAFF300802E
:1055C00050455254FB21094044174154FB211940D6
:1055D0000AD7233C00004842CDCC4C3E0000484353
:1055E000004067456EB001100000264044000000F6
:1055F00034000000200000005000000014000000F3
:105600002800000010000000540000002046234A3B
:10561000234B59F80220C4F8F82E59F80330C4F887
:10562000FC3E0DB0BDE8F08F3046FEF791F9002446
:105630005AE7052B24D11B4A1B4B59F80220C4F80A
:10564000F82E59F80330C4F8FC3E4DE7174B184AC2
:105650001848CA217B447A447844FFF7E3FA30467D
:10566000FEF776F93846FEF773F95846FEF770F9FB
:10567000DDE73046FEF76CF93846FEF769F9D6E704
:10568000082B7FF431AF0C4A0C4B59F80220C4F8B8
:10569000F82E59F80330C4F8FC3E25E70C00000052
:1056A0000800000000000000380000007C14010029
:1056B000F22301008C140100480000004C0000009F
:1056C00010B590B30446D0F84808FEF741F9D4F875
:1056D000580808F053FFA06B02F08EFBE06B02F05D
:1056E00091FBD4F8600802F08DFB2368082B13D0DF
:1056F000D4F84408FEF72CF9D4F84C08FEF728F942
:10570000206CFEF725F9D4F86408FEF721F920464D
:10571000BDE81040FEF71CB9D4F8840E02F06CFB13
:10572000D4F8880E02F068FBE2E7054A054B06480C
:105730007A444FF48E717B4478441032FFF772FA4A
:10574000182301000E140100AC1301000368082B9C
:1057500005D8044A7A4402EB8303186A7047002094
:10576000704700BFF422010008B5FFF7EFFFC31D2B
:1057700048BF00F10E03D81008BD00BF0368052B19
:1057800007DC012B02DC0AD8A02070474FF4A07080
:105790007047082B14BF00204FF4A0707047002002
:1057A000704700BF10B528B1D0F8F83E6BB1BDE826
:1057B000104018470A4A0B4B0B487A4440F27311C9
:1057C0007B4478444432FFF72DFA084A084B0948D5
:1057D0007A444FF4BA717B4478444432FFF722FA9A
:1057E0008E2201008413010022130100782201009F
:1057F0007A1301000C13010010B568B1D0F8FC4E0B
:105800001CB12346BDE810401847D0F8004F74B1D2
:10581000A446BDE8104060470A4A0B4B0B487A4447
:1058200040F28B117B4478445432FFF7FBF9084A6D
:10583000084B09487A444FF4C6717B44784454328B
:10584000FFF7F0F92A22010020130100BE12010027
:10585000142201002A130100A81201000023FFF7FF
:10586000CBBF00BFF0B500262A4F83B07F4401961E
:1058700000283DD00C4601AD33460922294620467A
:1058800006F052FF334609222946204606F04CFF17
:10589000334604222946204606F046FF8446204629
:1058A000644633460622294606F03EFF1A4BB2EE06
:1058B000047AFB58DB6803EB8403D3ED007A77EEC0
:1058C000C77A08B977EEC77A17EE900A10F084FE0F
:1058D00000220F4BFCF7E8FC0BA3D3E90023FCF7F5
:1058E000BDFCFCF72FFD03B0BDE8F040FDF76CBB3D
:1058F0000A4A0B4B0B487A4440F219617B447844C6
:105900006832FFF78FF900BF000000C0B16B0240A2
:10591000000024406CAA01102C000000522101005C
:1059200048120100E6110100F0B5ADF2345D002827
:105930007ED003680446052B0D465BD8002200216B
:1059400005AF03AEC7E9002231605BB9092304A9A2
:10595000052228460B6006F017FF052106F05AFBCA
:1059600023683060012B0ED1022304A908222846A7
:105970000B6006F009FF3B460090324607A9201D48
:1059800006F018FE2368022B0BD1092304A9052277
:1059900028460B6006F0F8FE052106F03BFB236865
:1059A0003060032B0ED1022304A9082228460B6085
:1059B00006F0EAFE3B460090324607A9201D06F09D
:1059C000F9FD2368042B0DD10B2304A90B600522DC
:1059D000D4F85C38284606F0A7FE052106F01AFB2D
:1059E00023683060052B13D0082B0AD030680DF2E5
:1059F000345DF0BD082B26D100220021CDE905221F
:105A0000039129462046FFF72DFF0DF2345DF0BDCE
:105A1000022304A9082228460B6006F0B5FE3B4687
:105A20000090324607A9201D06F0C4FD2368DBE77D
:105A30000A4A0B4B0B487A4440F234617B44784469
:105A40007C32FFF7EFF8084A084B09487A4440F2E5
:105A500035617B4478447C32FFF7E4F81220010082
:105A600008110100A6100100FC1F010042110100F5
:105A700090100100F0B52DED028B0D460168ADF2DE
:105A8000145D0DF5A664082994ED008A16460446B7
:105A900006D002AF1A463946304604F095FD3B4623
:105AA00004F66802206B314604F0CAFD04F66C016E
:105AB000304609F059F80121D4F844283346CDE99D
:105AC0000021D4F86428D4F86018206B09F0F2FFA4
:105AD000226BD4F86448002A52DD2046234604EBAA
