:020000041000EA
:10000000002008205D0100101B0100101D010010E0
:100010001101001011010010110100101101001058
:100020001901001019010010190100101F01001022
:10003000110100101901001021010010230100100E
:100040001101001011010010110100101101001028
:100050001101001011010010110100101101001018
:100060001101001011010010110100101101001008
:1000700011010010110100101101001011010010F8
:1000800011010010110100101101001011010010E8
:1000900011010010110100101101001011010010D8
:1000A00011010010110100101101001011010010C8
:1000B00011010010110100101101001011010010B8
:1000C00011010010110100101101001011010010A8
:1000D0001101001011010010110100101101001098
:1000E0001101001011010010110100101101001088
:1000F0001101001011010010110100101101001078
:100100001101001011010010110100101101001067
:10011000EFF30580103800BE00BE00BE00BE00BE7A
:1001200000BE00BEF2EB8871143D0010303D00109F
:10013000A001001090A31AE7D3DEFFFF42012110B7
:10014000FF01000018410000793512AB4FF00000AC
:100150001E49086006C881F3088810474FF05040D8
:10016000006810B14FF00000F2E70DA40ECC00299A
:1001700002D000F012F8F9E71549164A002000E015
:1001800001C19142FCD11449884714498847144958
:10019000884700BEFDE701C901C29A42FBD3704700
:1001A000303D0010100100203006002050420010A9
:1001B0000000082000000820504200100010082015
:1001C00000100820000000007047000008ED00E06B
:1001D000300600205C1000207D2F00101507001055
:1001E000412F0010F8B500BF064B0749C91A891006
:1001F00048BF0131491003D0044B0BB101481847E7
:10020000704700BF300600203006002000000000CC
:1002100008B5054B1BB105490548AFF30080BDE8A3
:100220000840FFF7E1BF00BF0000000010100020F1
:10023000C436001007EE101ADFED137A37EE277A76
:10024000FCEEC77A17EE903A9BB2B3B182B007EEDC
:10025000903AF8EE677A37EE677ADFED0C7A27EEA0
:10026000277AFCEEC77ACDED017A9DF804201B04B5
:1002700043EA0223036002B0704700221B0443EAF2
:1002800002230360704700BF0000003B0000804372
:100290000022026042608260C2604FF480320260DD
:1002A0004FF4F83242604FF4802282604FF44022D3
:1002B0008260704738B504460D46FFF7E9FF6A1CB7
:1002C00063686FF3D01343EAC51141EA02316160FC
:1002D000E36823F0604343F00053E36021F0C04142
:1002E0006160204638BD38B504460D46FFF7D0FFA3
:1002F00005F1090263686FF3D01343EAC51343EABB
:1003000002336360204638BD38B504460D46FFF71A
:10031000BFFF05F10B0263686FF3D01343EAC51307
:1003200043EA02336360204638BD0000104B1B686F
:100330004FF0A042D2F80C1401229A40114215D07D
:100340004FF0A041C1F80C240A4A1178C9B21078C4
:1003500080F0010010701078074A02EB80229B01A8
:1003600003F1A043DA63054B01225A54704700BFE2
:100370000806002058100020080800205410002013
:10038000F0B587B005460621092000F015FA164E93
:1003900001240094234609222146304603F016F832
:1003A00002AF29463846FFF79EFF059921F478737E
:1003B00043F49073059321F0E05323F4787343F0F2
:1003C000806343F490730593084A0A40084B134333
:1003D00005934FF4803302933B462A46214630462C
:1003E00003F043F807B0F0BD000020501F7CF0E39D
:1003F0002001050470B586B004460621082000F0EF
:10040000DBF91F4D0123009308220221284602F048
:10041000DDFF02AE21463046FFF776FF059A22F057
:100420001F0343F00803059322F07C7323F01F039E
:1004300043F4801343F008030593124B134043F435
:10044000A01343F008030593049B23F0785222F491
:10045000202242F40032049223F07E4323F42C2322
:1004600043F0804343F4003304934FF4803302930A
:10047000334622460221284602F0F7FF06B070BD3F
:1004800000002050E07F00FC08B52DED028B08EE47
:10049000100A052000F022FF07EE100AB8EE477A96
:1004A000F8EE487A77EEA77AC7EE277A17EE900A29
:1004B000BDEC028B08BD000070B586B00446062175
:1004C0000A2000F079F9114E012300930A2200213D
:1004D000304602F07BFF02AD21462846FFF7EAFED8
:1004E000059B23F4F84343F4205305930848FFF792
:1004F000CBFF01462846FFF79DFE2B4622460021F2
:10050000304602F0B2FF06B070BD00BF00002050C0
:1005100000E02E0008B5102906D8036823F4F03354
:1005200043EA4131016008BD034B044A40F22911FE
:10053000034802F009FD00BFC8360010583B001008
:10054000E836001000B583B0014600230193102364
:10055000019303F5FC03019301A8FFF7DBFF019B67
:1005600023F00C0242F00802019223F4F85222F028
:100570000C0242F0080201920C4A1A4042F00802B2
:1005800001920B4A1A4042F00801019142F009021F
:100590000192084A1A4042F00902019206481840A6
:1005A00040F00900019003B05DF804FBF3E0FFFEAA
:1005B000F3E07FFEF3E07FFCF1E07FFC08B53F292C
:1005C00006D8036823F4FC0343EA4141016008BDF7
:1005D000034B044A40F21B11034802F0B5FC00BF74
:1005E0002C370010403B0010E836001038B5104D95
:1005F0002C6807EE904AB8EEE77ADFED0E7A67EEE8
:10060000277A17EE900A01F07FFA07EE900A9FED25
:100610000A7A67EE877AFDEEE77A084B1B68234477
:100620002B609BB22B6017EE903A18B238BD00BF1A
:1006300028100020DB0FC93800803B462C1000201A
:1006400038B5084D05EB8025002408E0FFF7CEFF04
:100650000004E30045F834000433E85001347F2CF3
:10066000F4DD38BD0808002030B583B0012002F069
:10067000C5FD224D2860FFF765FF019020F00C03B7
:1006800043F00803019320F03C0343F01803019367
:1006900020F0FC0040F018000190022101A8FFF7B3
:1006A0008DFF0020FFF7CCFF0120FFF7C9FF2A686C
:1006B000134B1B78134901EB8321930103F1A043F2
:1006C0001960114959604FF480719960019919615D
:1006D000012404FA02F20D4BC3F804240C490A2049
:1006E00000F064F921460A2000F04EF92B689C4086
:1006F0004FF0A043C3F8504403B030BD08060020BB
:100700005810002008080020180020500020005039
:100710002D030010F8B502F031FD214B00221A80A4
:10072000204B40F255521A601F4C2049204602F0DF
:1007300035FE07461E49204602F030FE06461D499A
:10074000204602F02BFE05463846FFF7B5FE304640
:10075000FFF716FE2846FFF74DFE236843F002031D
:100760002360236843F004032360236843F00103FC
:100770002360FFF779FF02E0094B5B784BB9084B28
:100780001B78002BF8D00020054B1870FFF758FF9E
:10079000F2E7034B00225A700120FFF751FFEEE70A
:1007A000541000202C10002000002050B03B0010FE
:1007B000943B0010743B00100C4B03EB800253F889
:1007C000203083F0400303F0C00302F5805CCCF8D6
:1007D0000030C00000F1804000F52030416002F59B
:1007E00040524FF480731360704700BF0480034091
:1007F0000FB400B583B0049C074802F0C1FC3CB1C3
:1008000005A90191204602F0CBFC044802F0B8FC97
:10081000012002F093FB00BF40370010503700105A
:10082000EFF3108072B6064BD3E8CF1F01220029E8
:10083000FAD1C3E8412F0029F6D1BFF35F8F70478B
:10084000BB0700200023034AC2E88F3F80F31088D3
:10085000704700BFBB07002070B505460C46164622
:10086000FFF7DEFFE208A95C04F0070C012303FA9E
:100870000CF3194205D1DBB20B43AB54FFF7E2FF97
:1008800070BD21463046FFF7B3FFF8B506460D466A
:1008900014461F46FFF7C4FF00E00134BC420ED8E7
:1008A0004FEAD40C16F80C1004F0070301229A400A
:1008B0001142F2D1D2B20A4306F80C2001E04FF007
:1008C000FF34FFF7BFFF002C01DB2046F8BD002DF1
:1008D000FBD00698FFF78CFF054A1078431CDBB26B
:1008E0001370172B02D9134610221A70704700BFDD
:1008F0000C0600204FF0E022936843F00053936011
:1009000070470000002305E0044A1A440021C2E8B1
:100910008F1F01331F2BF7D9704700BFB00700208E
:10092000064B9B68103043F82010BFF35F8F002305
:100930000349C1E88F3F82F31088704700ED00E063
:10094000B90700200048704700E400E008B5FFF751
:10095000F9FF002304E04FF0803240F8042B01330C
:100960000C2BF8D962B608BD3AB1064B00F1600213
:1009700043F8221043F8201070472030014B43F811
:100980002010704700E100E008B50A4600F01F03A0
:10099000012199404009FFF7E7FF08BD024B9B6822
:1009A000103053F82000704700ED00E070B50546A8
:1009B0000C46EFF3108672B60F4BD3E8CF1F01221F
:1009C0000029FAD1C3E8412F0029F6D1BFF35F8F88
:1009D000FFF7E4FF094B984201D0A04205D132460F
:1009E00021462846FFF79CFF70BD054B054AED21C7
:1009F000054802F0A9FA00BFB90700201101001054
:100A0000A0370010BC3B00106C370010014B0B44AA
:100A100003607047B007002010B50446FFF75CFF85
:100A200001462046FFF7F2FFFF232371BFF35F8FDC
:100A300010BD10B50446FFF74FFF01462046FFF7F3
:100A4000E5FFFF23237100236371BFF35F8F10BDA8
:100A500010B50D4C09E00D4B0D4A1A210D4802F05E
:100A600073FA2046FFF7D8FF08340B4B9C4209D29B
:100A70002368002BF5D0012BEDD12046FFF7D9FFDD
:100A80000834F2E710BD00BF28060020D837001058
:100A9000FC3B0010F8370010300600200246EFF350
:100AA0000583DBB2103B990804D0034803F003032D
:100AB000136070470148F9E700800B4000000B40CD
:100AC00010B4846AA2EB040C0B1D50F823301B1BDE
:100AD0009C4504D3046A01238B401C4202D104319B
:100AE00040F821205DF8044B704741EA0040704710
:100AF0000D4B1A68EFF3108172B6D2E8CFCF012008
:100B0000BCF1000FF9D1C2E84C0FBCF1000FF4D1D9
:100B1000BFF35F8F1A680023C2E88F3F81F310880C
:100B200040BF002000217047501000202DE9F04FF9
:100B300085B003A8FFF7B2FF954B984214BF00237E
:100B40000123039901EB8303924A52F8234023784F
:100B5000994206D1054601228A4000F541535A6068
:100B60002CE18D4B8D4A92218D4802F0EDF9D4F89D
:100B7000149006EB46074FEAC70A09EBC707D7F8F8
:100B800008B0D7F80C80284600F032FBB0EB0B0021
:100B900061EB0803002BC0F21A81B8F1000F64DB8F
:100BA0003B691A4600937F4B9A4230D0798889B2CC
:100BB000B4F90800FFF799FF7969009B9847009006
:100BC00001910099019A51EA02034ED01346002A7E
:100BD00029DABBEB010268EB0308BA60C7F80C80A6
:100BE00039F90A70002FC0F2F280D4F814E007EB54
:100BF00047030EEBC3039968DB68511A68EB0303E4
:100C0000002BC0F2E480A4462CF8087F17E07A6934
:100C1000136900921046984738B3009A13680093FE
:100C200053680193CDE7284600F0E2FA009B1A18BA
:100C3000019B43EB0108D0E79C463EF90B70002F67
:100C40000EDBBCF9003003EB43034FEAC30B0EEBA2
:100C5000C3039868D968101A68EB01010029EBDA20
:100C600029F80A70ACF80060B1E039F90A30238144
:100C70002369EFF3108272B6D3E8CF0F0121002869
:100C8000FAD1C3E8401F0028F6D1BFF35F8FB4F953
:100C9000023029F80A30668021690023C1E88F3FBD
:100CA00082F3108893E02369EFF3108272B6D3E8E1
:100CB000CF0F01210028FAD1C3E8401F0028F6D148
:100CC000BFF35F8FB4F804800FFA88F84FF6FF7314
:100CD000A38021690023C1E88F3F82F310881AE0C6
:100CE0001F4630F90A60002E0FDBB7F9003003EB26
:100CF00043034FEAC30A00EBC3039968DA68BCEB0D
:100D000001016EEB0202002AEADAA7F8008030F94E
:100D1000098020F80960B8F1000F5DDB606908EB1D
:100D200048034FEAC30900EBC303D3F808C0D3F864
:100D30000CE004F10807B4F90860D4E70023A371BC
:100D400004F1080CB4F9083010E04FF0FF384FF010
:100D5000FF39C0E90289B4F90800984205D0ACF81F
:100D60000020B4F90800C85323811346B3F1FF3FB4
:100D700035D0616903EB4302D70001EBC20031F9C2
:100D80003220468816F4004FDFD18446EDE700BFDD
:100D900000800B40301000207C380010283C0010F0
:100DA000A83800102D0B0010284600F021FA3F1A39
:100DB00066EB0106012F76F1000628DA039A01237B
:100DC0009340EB63B4F90860002EBFF6D0AEA38861
:100DD00013F4004F3FF467AFA379002BAED1B4F901
:100DE0000830002B13DB626903EB430302EBC30300
:100DF0009F68DE68B6F1FF3F08BFB7F1FF3FD3D071
:100E00003A46334603992846FFF75AFECCE740BFDF
:100E100005B0BDE8F08F00BFF8B504460D46114699
:100E20000A4B984210D000262E44012707FA05F5F8
:100E300025623046FFF7BAFD39463046FFF7A4FD7C
:100E400004F501542560F8BD0426EDE700800B4051
:100E5000F8B504460E4617461D46C160FFF73CFD37
:100E6000164B034423612770ABB263814FF05042AD
:100E7000127862704FF6FF722281A280013B63807C
:100E80004FF0000C08E00CF1FF300CEB4C0E6369E6
:100E900023F83E000CF1010CAC45F4D3084B9E4204
:100EA00014BF0023012307EB8303064A42F82340C3
:100EB000054A39463046FFF7AFFFF8BDB0070020BE
:100EC00000800B40301000202D0B001008B5054BA2
:100ED0001B690BB1034808BD034B044A6521044854
:100EE00002F032F810060020D4380010103C001038
:100EF000A8380010F8B504469E460069EFF310814B
:100F000072B6D0E8CF6F0125002EFAD1C0E8465F57
:100F1000002EF6D1BFF35F8FB4F90250666905EB7E
:100F20004500C70006EBC000002D03DB36F907C003
:100F3000A4F802C04FF0000C2369C3E88FCF81F3FF
:100F40001088654533DB069901610799416182602C
:100F5000C0F80CE0418889B20131C1F30E0101B93A
:100F6000012141802846FFF7C0FD2369EFF310827D
:100F700072B6D3E8CFCF0121BCF1000FF9D1C3E89D
:100F80004C1FBCF1000FF4D1BFF35F8FA388F35364
:100F9000A58021690023C1E88F3F82F31088E368B0
:100FA000217801228A4003F501535A60F8BD4FF0C1
:100FB000FF30FBE770B582B0064615461C469DF82B
:100FC000203033B900F01CF9854264EB010100299F
:100FD0000ADB079B0193069B00932A462346304673
:100FE000FFF788FF02B070BD0020FBE7F0B585B0C9
:100FF00005460C4616461F46FFF768FF9DF8283049
:101000000293019700962A462346FFF7D3FF05B0C7
:10101000F0BD03464089B0EB214F31DD10B50A1415
:10102000586902EB420200EBC2001A69EFF3108C20
:1010300072B6D2E8CF4F5FF0010E002CF9D1C2E8B2
:1010400044EF002CF5D1BFF35F8F428892B289B292
:101050008A420FD0002019690022C1E88F2F8CF33B
:10106000108830B1DA681B780121994002F50153EC
:10107000596010BD42F40042428001209871EAE7B5
:101080000020704710B50446FFF720FF2146FFF708
:10109000C0FF10BDF0B583B005460C46EFF30583E5
:1010A000DBB293B1384B5B6A8B4209D3364A926A02
:1010B000824208D28B4201D0012002E0002000E0F1
:1010C000002003B0F0BD0120FBE7FFF7FFFEC7687B
:1010D0000678384600F08CF82A1A64EB01010436D1
:1010E00057F826301B1A9A4271F1000112DB20BF1B
:1010F000254B5B6A9C4209D8234A926AAA4207D2CE
:101100009C4201D00120DCE70020DAE70020D8E78C
:101110000120D6E7002300931C4A28462146FFF70A
:1011200065FF002818DD184B5B6A9C4205D8164AFB
:10113000926AAA4202D29C4200D120BFFFF7A2FFCE
:10114000114B5B6A9C421BD80F4A926AAA4219D281
:101150009C4213D00120B4E70B4B5B6A9C4209D838
:10116000094A926AAA4207D29C4201D00120A8E70C
:101170000020A6E70020A4E70120A2E70020A0E7C6
:1011800000209EE701209CE700000B40F10A0010C0
:101190000048704700000B4010B50A4B1B6923B193
:1011A0000A210948FFF732FC10BDFFF7F1FF0446A2
:1011B000032100F00BF81023032221460148FFF71A
:1011C00047FEEDE7100600205010002010B5054A3C
:1011D000054C064BA04214BF1846581CFFF73CFBB9
:1011E00010BD00BFF838001000800B40DC07002065
:1011F0000246436A906A1946536A9942FAD1704787
:1012000008B50248FFF7F4FF08BD00BF00000B401F
:1012100070B51646049D00EB400C4FEA8C0C0CF1A7
:10122000804C0CF5803CDCF80420AA4201D2CCF8BA
:101230000450A0F1040E5FFA8EFEBEF1010F28D912
:101240000CF540524FF4006414601E4A52F82020FE
:1012500042B11C4C6469B4FBF2F4013404EB440465
:10126000033CFDD2DCF8002082EA461202F0E002E4
:101270000CF580542260BEF1010F16D90CF5005216
:101280004FF400611160CCF804500E4A42F820304F
:1012900070BD0129D4D10CF5405203241460DCF850
:1012A000082012F0010FFAD0DCE7DCF800204A40F9
:1012B00002F003022260DCF8084001228A40144256
:1012C000F9D0DBE7E007002010B582B04FF480349E
:1012D0000094FFF79DFF02B010BD0000014B53F8D2
:1012E00020007047E007002070B5049C344DB5FB2A
:1012F000F1FC344D1544344EB54237D8B2FBFCF501
:10130000A5F1100EBEF5987F36D803F1FF3EBEF171
:10131000060F37D804F1FF3EBEF1060F32D8BCEB02
:10132000121F35D8240344EA03440368002B35DB3D
:10133000264B984242D00E2301229A40244B1A6039
:1013400003F580531A60234B9B6832EA0303FAD1FA
:101350000160856000F54052043221231360036868
:10136000002BFCDAC4600823136070BD1A4B1B4AC3
:1013700011211B4801F0E8FD1A4B184A19211848A1
:1013800001F0E2FD184B154A1C21154801F0DCFD67
:10139000164B124A2321124801F0D6FD036803F0D0
:1013A0003F038B42C4D18368C3F30B03AB42BFD16D
:1013B000C36803F4EE23A342BAD1D6E70F23BBE7F9
:1013C000001BB70080E84BD380F8A93200800540AD
:1013D00000200240000002401C390010403C001078
:1013E0006C390010A0390010BC390010083A001008
:1013F000054A00EB400302EB8303596000EB400019
:1014000080000123135070470080104008B500236E
:10141000DB8A002242E800F212F4800F02D1102190
:10142000984708BD04219847FBE70000034BD3F819
:101430002838002BFAD0BFF35F8F704700000E40B2
:10144000002207E0054B13449B00BFF35F8F002190
:1014500019600132072AF5D9704700BF03820310D3
:1014600008B5FFF7EDFF08BD074B4FF42A621A607D
:101470004FF48D72DA6003F50053044A1A60024B90
:101480005B68002BFBDA70470080044000B0FA0074
:1014900010B5044602E054F8043B9847014B9C42C7
:1014A000F9D310BDC03600107047000008B50248DF
:1014B000FFF7EEFF08BD00BF80360010064B074A5D
:1014C0001A6003F58053064A1A60064B9A68044B6B
:1014D0009343FAD1704700BF002002407F3BEFEFFB
:1014E000F6FFF30300000240054BDB6CB3F5004F41
:1014F00000D07047034B4FF48022DA64F9E700BF55
:1015000000001150002011504FF0E022D2F8881D49
:10151000034B0B43C2F8883D10EE3004704700BF08
:1015200003033000054B6FF060421A60044B9B6868
:10153000DB4333F06043F9D1704700BF0030024015
:101540000000024008B545F25320FFF75FFF034655
:101550000420984708BD08B545F25320FFF756FF11
:1015600003460120984708BD08B5FFF7CBF908BD31
:1015700010B50C490C4A521A92101446442A28BF3E
:1015800044229200094801F0C7FF04E0084A074BD3
:1015900043F824200134432CF8D9044A054B9A60BF
:1015A00010BD00BF0000001010010010000000205E
:1015B0001101001000ED00E038B50420FFF78EFEA9
:1015C000064BA3FB0035AD0C002404E02946E0B235
:1015D000FFF70EFF0134052CF8DD38BD83DE1B4319
:1015E00030B583B0264B0022C3F88420FFF73CFFC0
:1015F000244B0122DA63224B5B6C012BFBD1214B84
:1016000003221A631E4B9B6B012BFBD10224009417
:1016100005231D4A01211D48FFF766FE052500959B
:101620002B461B4A01211B48FFF75EFE1A4B002286
:1016300021460420FFF748FE184C234600220121D2
:101640002846FFF741FE164D2B4600221146082082
:10165000FFF73AFE2B46002211460920FFF734FE21
:101660002346002211460620FFF72EFE23460022C5
:1016700011460720FFF728FEFFF79EFF03B030BD9D
:101680000000014000300140002F68590000054073
:10169000008C864700800540001BB70080D1F00811
:1016A000006CDC0286B003B451FC0804CDE90201F1
:1016B00051FC0904CDE9040151EC0A04CDE906010D
:1016C00003BCF047BDE800504EEC00C4BDE800503C
:1016D0004EEC01C4BDE800504EEC02C400BD000059
:1016E00000B5FFF7DFFF02E010FE30F4F8D441EC64
:1016F000100443EC112400EE010410EE010480EE0E
:10170000200451EC1004704700B5FFF7CBFF02E056
:1017100010FE30F4F8D441EC100443EC112400EE38
:10172000010410EE210480EE200451EC30047047D7
:1017300000B5FFF7B7FF02E010FE30F4F8D410B5A3
:1017400041EC100443EC112451EC040453EC052447
:10175000A0FB024C5FF0000EE0FB03CEE1FB02CEEB
:101760004CEC20440024E1FB03E444EC30E480EE44
:10177000200451EC5004BDE81040704700B5FFF75D
:1017800091FF02E010FE30F4F8D441EC100443EC79
:10179000112451EC2104A0FB01126FEA820252FBDA
:1017A000100052FB12F252FB1000A0EBD07C53EC65
:1017B00004245CFB13F153EC1524A1FB022001FB74
:1017C000030053EC4424A2EB000050FB1CF24FEA50
:1017D000111312EB017043EBE27140EA515020EA21
:1017E000915020F0070053EC7524A0FB023C53EC11
:1017F000752400FB03CC01FB02CC53EC0424ACEBBE
:10180000824C40EA5C70A0F1010041EC400480EEA3
:10181000200451EC7004704700B5FFF743FF02E06D
:1018200010FE30F4F8D440EC700400EE010410EE29
:10183000210480EE200451EC3004704700B5FFF71E
:1018400031FF02E010FE30F4F8D440EC600400EE0A
:10185000010410EE210480EE200451EC30047047A6
:1018600000B5FFF71FFF02E010FE30F4F8D441ECA2
:10187000800400EE010410EE010480EE400410EE3E
:101880001304704700B5FFF70DFF02E010FE30F4BF
:10189000F8D441EC800400EE010410EE010480EE67
:1018A000400410EE3304704700B5FFF7FBFE02E082
:1018B00010FE30F4F8D441EC100443EC112400EE97
:1018C000010410EE3004C0F30070704700B5FFF75C
:1018D000E9FE02E010FE30F4F8D443EC102441ECB1
:1018E000110400EE010410EE30F48CBF0120002042
:1018F000704700BF00B5FFF7D5FE02E010FE30F4E0
:10190000F8D443EC102441EC110400EE010410EE75
:1019100030F42CBF01200020704700BF00B5FFF756
:10192000C1FE02E010FE30F4F8D441EC100443ECA8
:10193000112400EE010410EE30F42CBF0120002031
:10194000704700BF00B5FFF7ADFE02E010FE30F4B7
:10195000F8D441EC100443EC112400EE010410EE25
:1019600030F48CBF01200020704700BF0000000051
:101970000000000000000000DB60BE284A059193D3
:10198000F4D5097F70374D7D66A5D83610E4104F29
:10199000AFF224024B1102EB830201F01F034FF060
:1019A00001049C40A4FB0034D568A5FB045695684F
:1019B00005FB0466E5FB0356556805FB03667047A7
:1019C000410201D150F0004050F480007047F0B562
:1019D000012363F3DF50C1F109014FF07E07FFF7E8
:1019E000D7FFB30F53F100039C44B6EB8376B200EC
:1019F00028BF5242B2F1805F0BD20231FFF7C8FF1D
:101A000096EA260242F10002B2F1805F01D2023F63
:101A1000F3D50A4CA2FB0424B4FA84F29440240ABD
:101A2000A7EB020244EBC250C10DD1F17F01F60FCA
:101A300000EBC673BDE8F04073E00000A2DA0FC906
:101A400011F1800FBCD030EACC7248BF0CF1020C0F
:101A500020F0004000EE100A0DA2F2EC032A22EE64
:101A6000802A11F1080FB9FE422AB0DDA2EE630A06
:101A7000A2EE430A10EE103AFDEEC21AC3F3C752AB
:101A8000782AA4D3D2F17F0111EE902A944448E041
:101A900083F9223F7A7795B60010C93F07B5C0F3A6
:101AA000C751FF2925D000F032F8BDE80640CEF836
:101AB00000000ED2C9438CEAD17C63EEA02AE1EE8D
:101AC000032A73EE622A12EE900A80EACC7010604C
:101AD00000BD8CEAD17C21EE232AA3EE602A8CEA99
:101AE000D37133EEC22A12EE100A80EAC170106080
:101AF00000BD4102BDE80E4001D150F0004050F45D
:101B000080001060186070475FF0000C01E05FF02B
:101B1000010CC0F3C751A1B3D1F17F0190D920EAE4
:101B2000CC7323F0004000EE100AC0F38440203054
:101B300030FA01F1834A51F10001B2EC024A02EBA2
:101B4000810202EBC102D2EC032A70EE620A20EE9F
:101B5000A01A5FEA5C0C61EE201A15D221EE041A7D
:101B600061EEA41A70EEE10A21EE232AA3EE602AA8
:101B70008CEAD37133EEC22A12EE100A80EAC170E9
:101B8000704700F00040C7E761EEA41A70EEE10A6A
:101B900021EE041A63EEA02AE1EE032A73EE622A14
:101BA00012EE900A80EACC70704700BFAFF300805D
:101BB000C1FEFF3E25AA2A3E000000000000803F33
:101BC0000000000061C9FC3CCDE07F3F1CBFFC3C35
:101BD0007605813DFE7D7F3F9EEF803D090CBF3D38
:101BE0000FE37E3F22C5BE3DB624FF3D14047E3F79
:101BF000E27BFE3D13071F3E48EB7C3FA0631E3E89
:101C00006D30403E1D817B3F15103F3EA2AD603ED2
:101C1000CFDC793F3EE15E3E7B0D803EFA08783FA7
:101C200096717D3E6E988F3E65FF753F68B88D3E1C
:101C3000F4E19F3E939E733FFD4B9D3EC654B03EE4
:101C4000AEF7703FB3DDAC3EC589BF3E604B6E3F23
:101C50000A1ABB3E26C4CF3ECA356B3F631CCA3E40
:101C6000F254E03E66D1673F0739D93EDDF0EF3EE2
:101C70004B66643F1641E73E312B003F8894603F3E
:101C80000FC3F53E07E4073FA2C55C3F2B99013F18
:101C9000C51F103F8F7D583F65A1083F8AF6173F4B
:101CA000B534543FCA310F3FE2FF1F3F599B4F3FAE
:101CB000D7C8153F4606283F6BCF4A3FC4371C3F65
:101CC0004130303FE0B9453FE49A223FA71D383FFD
:101CD000CA98403F20A6283F2FC73F3FAC763B3FE6
:101CE0004A562E3FDB13483FCCB6353F6B52343F4C
:101CF00079C74F3F2F35303FD0B4393F52DD573F82
:101D000070412A3F912D3F3F26CE5F3F9F3E243FAB
:101D1000C35D443FF125683F50C21D3F1C9D493FB4
:101D2000E13B703F4150173FBF7E4E3F7810783FF8
:101D300071ED103FAF06533FD4F47F3FA75A0A3FDF
:101D40009B64573FB01B0010704720B108B50A686C
:101D50004968904708BD70470146002008E000EB45
:101D60008000531C0B60137803EB4003A3F1300099
:101D70000A681378303BDBB2092BF0D970472DE9A4
:101D8000F04F83B005460E4693461F46DDF830A05F
:101D90000D9CDDF838900F9B13F0030F19D1A0466E
:101DA000019208E002F1010B3B4631462020A84792
:101DB00008F101085A46C845F4D3DDF804B008E03C
:101DC000013C02F101083B4631461AF80400A847DD
:101DD0004246002CF4D10F9B13F0020F09D110469C
:101DE00003B0BDE8F08F541C3B4631462020A84785
:101DF0002246A2EB0B034B45F5D3F0E72DE9F04368
:101E000085B099460C9D0D9C9DF83880DDF840E02A
:101E1000119F129E16F0020F21D17FB116F0010F13
:101E20000CD0B8F1000F02D116F00C0F06D0013F14
:101E300004E04FF0300C05F804C00134744501D2C1
:101E40001F2CF6D916F0010F09D0BC4207D21F2C67
:101E500005D84FF0300C05F804C00134F2E716F055
:101E6000100F14D016F4806F04D11CB1744522D029
:101E7000BC4220D00F9B102B33D00F9B022B3DD0A8
:101E80001F2C0ED84FF0300C05F804C001341F2C65
:101E900007D8B8F1000F39D04FF02D0C05F804C069
:101EA000013403960297019400954B46FFF767FFB4
:101EB00005B0BDE8F083B4F1010C1DD00F9B102BD1
:101EC0000ED064460F9B102BD7D116F0200FD4D024
:101ED0001F2CD2D84FF0580C05F804C00134CFE7BE
:101EE000023C16F0200FEDD11F2CEBD84FF0780CF0
:101EF00005F804C00134C3E76446BBE71F2CD0D803
:101F00004FF0620C05F804C00134B9E716F0040F75
:101F100005D04FF02B0C05F804C00134C1E716F0D2
:101F2000080FBED04FF0200C05F804C00134B8E70C
:101F3000F0B591B0169C189D1B9E0CB926F01006AA
:101F400016F4806E1DD064B34FF0000E19E016F049
:101F5000200F24D04127BC445FFA8CFCACF10A0C62
:101F60005FFA8CFC0EF101070EF1400EEE440EF804
:101F700020CCB4FBF5FCAC4214D31F2F12D8BE46C4
:101F80006446B4FBF5FC05FB1C4C5FFA8CFCBCF111
:101F9000090FDCD80CF1300C5FFA8CFCE2E761270A
:101FA000D9E7274606961A9C0594199C0494039534
:101FB0009DF85C400294019708AC0094FFF71EFF67
:101FC00011B0F0BD2DE9F04F95B009900A910B9238
:101FD0009846DDF878B0DDF87C90229D239F269E00
:101FE0005BEA090201D126F0100616F4806424D0C1
:101FF0005BEA09022FD000241FE016F0200F28D042
:1020000041231344DBB20A3BDBB204F1010A04F1C1
:1020100050020DEB020404F8203C2A463B46584689
:10202000494601F021FBAB4579EB070915D3BAF11D
:102030001F0F12D85446834689462A463B465846C7
:10204000494601F011FBD2B2092AD6D83032D3B2B8
:10205000DBE76123D5E74FF0000A0696259B059341
:10206000249B049303959DF880300293CDF804A03F
:102070000CAB009343460B9A0A990998FFF7BEFEF2
:1020800015B0BDE8F08F00002DE9F04F93B0044685
:102090000D4617461E46DDE91CAB52465B465046D0
:1020A0005946FFF705FC002840F0F3804FF0FF325F
:1020B000AD4B50465946FFF749FC002840F0E980F7
:1020C0004FF0FF326FF4801350465946FFF702FC81
:1020D000002840F0DE800022002350465946FFF7DA
:1020E000F9FB002840F0E680CDE906AB209B13F415
:1020F00080630F9301D106231E93DDE9062310466A
:102100001946CDE90A01079B52EA030100F0DC8081
:10211000C3F30A50C3F31303904643F07F5949F4C5
:102120004019A0F2FF30FFF77BFB7DA3D3E900232A
:10213000FFF702FB7CA3D3E90023FFF7D5FACDE933
:1021400008010022894B40464946FFF7E1FA78A38F
:10215000D3E90023FFF7F0FA02460B46DDE9080158
:10216000FFF7C2FAFFF780FB0890FFF759FB8046A4
:10217000894671A3D3E90023FFF7DEFA00227C4BE6
:10218000FFF7B2FAFFF770FB0A906DA3D3E90023C3
:1021900040464946FFF7D0FA804689460A98FFF73D
:1021A0003FFB69A3D3E90023FFF7C6FA02460B46BB
:1021B00040464946FFF7ACFA8046894602460B4640
:1021C000FFF7BAFACDE90C010A9B03F2FF330021B5
:1021D0000022CDE90A121B050B9300230A93424605
:1021E0004B4640464946FFF77FFACDE9100142468B
:1021F0004B4600204FF08041FFF78AFA804689461F
:1022000000225C4BDDE90C01FFF7BCFA00225A4BBF
:10221000FFF76AFA02460B46DDE90C01FFF7B2FA56
:102220000022564BFFF760FA02460B46DDE90C012F
:10223000FFF7A8FA02460B4640464946FFF754FA14
:1022400002460B46DDE91001FFF79CFA00224C4BD9
:10225000FFF74AFADDE90A23FFF76EFA804689465E
:10226000CDE90A89DDE90623FFF770FB50B1089B31
:10227000013B08930022404B40464946FFF782FA53
:10228000CDE90A01089B6333C62B46D84FF00408FA
:102290001EE0209B04931F9B03931E9B0293CDE99A
:1022A00000AB33463A462946204600F0FDF813B00D
:1022B000BDE8F08F9FED267B8DED067BCDF818A055
:1022C0000BF10043079311E7002308934FF0040834
:1022D000209B13F4006F5FD0DDE90A1213460B4315
:1022E00013D01DA3D3E90023DDE90601FFF71AFB94
:1022F000002800F0B4801AA3D3E90023DDE9060129
:10230000FFF7E8FA002800F0AA801E9A089B9A427C
:1023100038DDD31A013B1E9336E04FF00508D7E7AE
:10232000FB799F501344D33FB3C8608B288AC63FC4
:1023300061436F63A787D23F71A379094F930A4026
:102340001655B5BBB16B0240EF39FAFE422EE63F9F
:1023500000000000000000002D431CEBE2361A3F95
:102360000000000080842E41FFFFEF7F0000F83F57
:102370000000E03F00002C40000024400000184016
:102380000000F03F00231E93209B43F480632093C2
:102390004FF00008CDF820801F9B984569D2A3EB31
:1023A0000809209B13F002030C9304D0B8F1000F2E
:1023B00001D04FF00009089B3BB1DDE90A23DDE9BC
:1023C0000601FFF7DFF9CDE90601002200235046A0
:1023D0005946FFF77FFA00284ED1209B23F4006373
:1023E0000493CDF80C901E9B02939DED067B8DED22
:1023F000007B33463A462946204600F055F8B8F1AE
:10240000000F3FF454AF209B13F0200F3CD04FF04F
:10241000450C00F101093346024629466046A047B3
:10242000089981EAE172A2EBE1720523059308F1B4
:10243000FF330493002303930A230293CB0F0193EA
:10244000009233464A4629462046FFF771FD0C9B11
:10245000002B3FF42CAF0246DDF87C901EE01E9B63
:10246000002B99D00F9B002B96D01E9B013B1E93F7
:1024700092E74FF0000994E7DDE90601024601F119
:102480000043CDE90623A8E74FF0650CC1E702F150
:102490000108334629462020A0474246D31B4B451E
:1024A000F5D3104603E700BF2DE9F04F2DED028B69
:1024B00095B007900A9192469B46DDE92089229DBE
:1024C00042464B4640464946FFF7F2F9002835D1CF
:1024D0004FF0FF326FF4801340464946FFF7FAF998
:1024E00000283AD14FF0FF32B14B40464946FFF742
:1024F0002DFA002840D1AAA3D3E90023404649463B
:10250000FFF724FA00284DD1A7A3D3E900234046C2
:102510004946FFF7DFF9002844D100220023404656
:102520004946FFF7D7F900284AD100230B93249B93
:1025300013F4806F00F0B580002454E0249B0393D3
:10254000239B0293032301939A4B00935B465246CD
:102550000A990798FFF713FC1BE1249B0393239B25
:10256000029304230193944B00935B4652460A99CD
:102570000798FFF704FC0CE1249B13F0040F0ED026
:102580008E4B042224990391239902910192009386
:102590005B4652460A990798FFF7F1FBF9E0884B32
:1025A0000322EFE7249B0493239B03930295CDE939
:1025B00000895B4652460A990798FFF765FDE8E0F7
:1025C00042464B4600200021FFF7A2F8804689468C
:1025D00001230B93ABE704F150036B44302203F863
:1025E000202C013D01341F2C01D8092DF3D8404681
:1025F0004946FFF739F90646FFF712F902460B463E
:1026000040464946FFF784F86E4B03EBC50393ED54
:10261000008B53EC182BFFF78FF802460B46CDE9E1
:102620000823FFF733F90746FFF70CF902460B467C
:10263000DDE90801FFF76CF802460B46CDE90823F7
:102640000022614BFFF782F968B301373846FFF784
:10265000F9F802460B4651EC180BFFF74FF908B199
:10266000013600276DBB3046FFF7DAF802460B460D
:1026700040464946FFF74CF8074688460022524B31
:10268000FFF728F900284CD100224F4B384641462D
:10269000FFF75CF9002844D116F0010F41D0013654
:1026A0003FE0062548E70022474BDDE90801FFF738
:1026B00011F90028D6D117B117F0010FD2D0013788
:1026C000D0E71F2C17D8013D404BA3FB0723DB08A5
:1026D000194603EB8303A7EB4303621C303304F179
:1026E00050000DEB000404F8203C092F02D90F46DE
:1026F0001446E6E714461F2C0AD86B1E45B104F1B8
:1027000050026A44302102F8201C1D460134F2E7D1
:102710001F2C06D804F150036B442E2203F8202C02
:1027200001341F2C17D82A4A82FB0632F317C3EB59
:10273000A2031A4603EB8303A6EB4303611C303369
:1027400004F150000DEB000404F8203C16460AB1D9
:102750000C46E6E70C46249B03F00303012B39D01B
:102760001F2C09D80B9B002B51D004F150036B4454
:102770002D2203F8202C0134249B0393239B0293E6
:1027800001940CAB00935B4652460A990798FFF7F9
:10279000F6FA15B0BDEC028BBDE8F08FAFF3008008
:1027A0000000000065CDCD410000000065CDCDC129
:1027B000FFFFEF7F743A0010783A0010683A00107B
:1027C000703A0010A03C00100000E03FCDCCCCCC13
:1027D00067666666239BB3B10B9B1BB9249B13F002
:1027E0000C0F12D0239B013B2393194606E004F102
:1027F00050036B44302203F8202C01348C42AFD2BA
:102800001F2CF4D9ACE72399F8E72399F6E7249B2A
:1028100013F0040F07D004F150036B442B2203F88C
:10282000202C0134A8E7249B13F0080FA4D004F156
:1028300050036B44202203F8202C01349CE700BF96
:102840002DE9F04F8FB0804617460D938946002939
:1028500000F04F83002508E06C1C3B462A464946A1
:10286000C0470D9B01330D9325460D9B187800281A
:1028700000F042832528EFD101330D9300261FE09D
:1028800046F0010601320D92012318E046F00206DF
:1028900001320D92012312E046F0040601320D923E
:1028A00001230CE046F0080601320D92012306E0F8
:1028B00046F0100601320D92012300E000234BB3D5
:1028C0000D9A1378203B102BF8D801A151F823F072
:1028D000A5280010BD280010BD280010B128001048
:1028E000BD280010BD280010BD280010BD28001014
:1028F000BD280010BD280010BD2800109928001028
:10290000BD2800108D280010BD280010BD28001023
:10291000812800100A930D9B1A78A2F13003DBB2D4
:10292000092B18D92A2A1BD00A9B0B930D9B1A78C6
:102930002E2A25D00D9A1378683B122B5CD8DFE83D
:1029400003F0495BAC5B3B5B5B5B5B5B5B5B575B7F
:102950005B5B5B5BB1000DA8FFF7FEF90B90E5E751
:10296000189B1A1D18921B68002B04DB0B930D9B00
:1029700001330D93DAE746F002065B420B93F6E76C
:1029800046F480665A1C0D925A78A2F13003DBB2ED
:10299000092B0CD92A2ACDD1189B1A1D18921C6814
:1029A00024EAE4730A930D9B01330D93C2E70DA84B
:1029B000FFF7D2F90A90BDE746F48071531C0D93DE
:1029C00053786C2B01D00E4616E046F44076023266
:1029D0000D9211E046F08001531C0D935378682B43
:1029E00001D00E4608E046F0C00602320D9203E028
:1029F00046F4807601320D920D9B1878672856D8E0
:102A00002528C0F06C82A0F12503422B00F26782DA
:102A1000DFE813F05A02650265026502650265028D
:102A2000650265026502650265026502650265026E
:102A3000650265026502650265026502650265025E
:102A4000650265026502650265026502650265024E
:102A500065026502880168018801650265026502F8
:102A6000650265026502650265026502650265022E
:102A70006502650265026502650271006502650214
:102A80006502650265026502650265026502710004
:102A9000AF01710088016801880146F400760132B7
:102AA0000D92A9E746F4807601320D92A4E77828CA
:102AB00000F215826928C0F01282A0F16902D2B238
:102AC0000123934049F24102134214D113F0800FC5
:102AD00040F0DF8113F4806F00F00182189B1A1D13
:102AE0001892D3F800A00A9B002B40F090814FF081
:102AF000FF32534674E16F283DD005D858283CD0AA
:102B0000622803D1022304E0782838D026F010068A
:102B10000A23582835D0692803D0642801D026F02C
:102B20000C0616F4806F01D026F0010669282BD020
:102B3000642829D016F4007F40F0968016F4807F38
:102B400040F0AE8016F0400F00F0BF80189A111DC3
:102B50001891127805960B9904910A9903910293A2
:102B60000023019300923B462A4649464046FFF720
:102B7000DFF9054629E00823CBE71023C9E7102336
:102B8000C7E746F02006C6E716F4007F21D116F409
:102B9000807F42D116F0400F58D0189A111D18911D
:102BA000127882EAE271A1EBE27105960B9804902B
:102BB0000A9803900293D20F019200913B462A4655
:102BC00049464046FFF7B4F905460D9B01330D9386
:102BD0004BE6189A073222F0070202F10801189119
:102BE000516812680846002913DB08960B9C07946D
:102BF0000A9C0694049300230593C90F0291009246
:102C000001903B462A4649464046FFF7DBF9054618
:102C1000DBE7524261EB4100E7E7189A111D18917A
:102C2000126882EAE271A1EBE27105960B980490BA
:102C30000A9803900293D20F019200913B462A46D4
:102C400049464046FFF774F90546BEE716F0800F87
:102C500005D0189A111D1891B2F90020A1E7189A11
:102C6000111D189112689CE7189A073222F007028A
:102C700002F10801189108960B9907910A9906919B
:102C80000021049305910291D2E90023CDE90023AC
:102C90003B462A4649464046FFF794F9054694E7E5
:102CA000189A111D189105960B9904910A99039190
:102CB000029300230193136800933B462A4649463A
:102CC0004046FFF735F905467FE716F0800F04D040
:102CD000189A111D189112883CE7189A111D189125
:102CE000126837E746281AD0189B073323F00703EA
:102CF00003F10802189204960B9A03920A9A029220
:102D0000D3E90023CDE900233B462A464946404605
:102D1000FFF7CAFB05460D9B01330D93A5E546F071
:102D20002006E1E7672801D0472801D146F4006674
:102D3000452801D0472801D146F02006189B0733CB
:102D400023F0070303F10802189204960B9A0392EA
:102D50000A9A0292D3E90023CDE900233B462A4692
:102D600049464046FFF790F905460D9B01330D9308
:102D70007BE516F002061CD001241898031D189359
:102D800005F1010A3B462A4649460078C047AEB9DC
:102D90000D9B01330D93554667E5551C3B4649464F
:102DA0002020C04723462A465C1C9A45F5D8154684
:102DB000E3E70123DDF82CA02A46F5E75246DDF8CB
:102DC0002CA006E0561C3B4649462020C0472C4616
:102DD0003246651CA245F5D89246D9E701330A462A
:102DE000197811B1511E002AF8D1A3EB0A0316F489
:102DF000806B03D00A9A934228BF134616F0020450
:102E000007D00C940A9E2A465D469B4623E00A9A08
:102E10006FE6CDF830B02A4625460B9C07E002F15C
:102E2000010B3B4649462020C04733465A465E1CAC
:102E30009C42F4D8DDF830B02C4633460C940A9E00
:102E40005D469B4607E01E460AF1010A541C3B46BC
:102E50004946C04722469AF8000020B1002DF3D021
:102E6000731E002EEFD10C9C15465B461CB90D9BC2
:102E700001330D93F9E40B9E06E0551C3B46494691
:102E80002020C04723462A465C1C9E42F5D81546A2
:102E9000EDE746F02106189B1A1D18921B6805964F
:102EA000082204920A9A03921022029200220192AE
:102EB00000933B462A4649464046FFF739F8054607
:102EC0000D9B01330D93D0E46C1C3B462A464946CA
:102ED0002520C0470D9B01330D932546C5E46C1C8E
:102EE0003B462A464946C0470D9B01330D93254674
:102EF000BBE4DFF82080ADE4BD4208D37A1E3B4638
:102F000049460020C04728460FB0BDE8F08F2A464A
:102F1000F5E700BF491D001000B585B00290039190
:102F2000009313464FF0FF3202A90348FFF788FCD5
:102F300005B05DF804FB00BF4B1D001000BEFDE7AF
:102F400008B5FFF7FBFF000000B583B08C461946BB
:102F50005AB11446064B0194009363460246054855
:102F600000F03EF90120FFF7E9FF034B1C46F2E7B2
:102F7000803A0010903A00108C3A001010B5EFF330
:102F80000583DBB203B100BEFEF790FA044C02E009
:102F900054F8043B9847034B9C42F9D310BD00BF43
:102FA000C0360010C436001008B5034608461B683A
:102FB0001146984708BD0000F8B507460D4616466D
:102FC000437D13B1002420460CE0036811462846D7
:102FD00098472EE03B7D10E03B680221154898475A
:102FE000601C0134B44214DA002CF3DD2B1913F801
:102FF000013C0D2B14BF002301232A5D0A2AF0D1C6
:10300000002BEED1A042E7DA3B68211A284498470A
:10301000E2E7B04203DA3B68311A28449847002EB1
:1030200007DD354415F8013C0D2B14BF00230123A7
:103030003B75F8BDF03C001038B50368BBB10546E0
:103040000B4B1C6806E0294651F8042B2046FFF77D
:10305000B3FF24694CB12368002BFAD0054B1B68E1
:10306000002BF0D0A342F4D1EDE700232B6038BD54
:10307000081000200C10002038B505460C460B68DF
:10308000802B05D023685A1C22601C44257138BD52
:103090000846FFF7D1FFF5E708B5FEF7B1F8074A94
:1030A000821841F10003002B03DB054800F0E4FA2D
:1030B00008BD4FF0FF326FF00043F6E740420F00CB
:1030C0002806002008B5024800F0D2FA08BD00BF6B
:1030D000280600202DE9F04383B006460D469046B1
:1030E0001C46FFF7D9FF8146B5F1FF3F04D044B13C
:1030F000174F184B1C6807E0304600F083FA05466E
:10310000F5E7154FF5E72469BCB12368002BFAD029
:10311000124B1B680BB1A342F5D12A46314620461B
:10312000B847B8F1000FEED00A238DF8073001221E
:103130000DF107012046B847E5E7B9F1000F03D1CB
:10314000284603B0BDE8F083FFF7BCFFF8E700BFF7
:10315000B92F001008100020A92F00100C1000201B
:1031600010B5054B1C6800E0246924B16368002B8E
:10317000FAD09847F8E710BD0810002000207047EB
:1031800038B5054600F03EFA044601231A460146CA
:103190002846FFF79FFFFFF7E3FF204638BD0000FA
:1031A000F0B5A3B004460E46FFF776FF05460023B0
:1031B000019301AF3346224639460848FFF7ACFE7B
:1031C00004463846FFF738FFFFF7CAFF15B9204617
:1031D00023B0F0BDFFF776FFF9E700BF79300010AC
:1031E0000FB400B583B004A951F8040B0191FFF7A7
:1031F000D7FF03B05DF804EB04B0704700B583B0AF
:103200000146054B00930F2300220448FDF73DFBC8
:1032100003B05DF804FB00BFC03A00105610002058
:103220000022026042608260C2604FF4803202601D
:103230004FF4F83242604FF4802282604FF4402213
:1032400082607047D0F8683123B111F0010F06D0C9
:103250000020704711F0040F03D0002070470120B8
:1032600070470120704708B5C979FFF7EBFF08BD2B
:1032700070B504460D461646FFF7F5FFD0B195F937
:103280000530002B01DBB34217D104F12F4000F5CC
:103290006000000D0A4B53F820102A790123934057
:1032A000013B03FA06F20A4201D1002070BD6FF023
:1032B0000800FBE76FF00A00F8E76FF00A00F5E797
:1032C000D0070020F8B506460D461746FFF7D0FF99
:1032D00028BB034608E00CEB070403EB070C0CF1DA
:1032E000120C46F82C4001332A799A4207D92A68F1
:1032F00032F813C0BCF5005FEDD36446EDE701235F
:103300009340013B06F12F4606F56006360D044951
:1033100051F82620BB401A4341F826203846F8BD14
:10332000D007002010B50A79202A19D800F12F40C3
:1033300000F56000000D154B53F820400123934029
:10334000013B91F90510002910DB0846C2F120026B
:10335000914218DC8B40234201D04FF0FF3010BD6A
:103360000B4B0C4A43210C48FFF7EEFDC2F1200045
:10337000002805DB03FA00F22242F0D00138F7E71B
:103380006FF00800EBE74FF0FF30E8E7D0070020D0
:10339000E03A0010F43C00100C3B0010F8B5054674
:1033A0000E46FDF73DFA074631462846FFF7BAFFBD
:1033B000041E04DA3846FDF745FA2046F8BD2246D9
:1033C00031462846FFF77EFF0446F3E7F0B59DF847
:1033D0001470D0F86841121B1F2A43D801EB410436
:1033E00000EBC404D4F8DC60D4F8CC5001EB410409
:1033F000E400C834044404F540544FF4003CC4F8DD
:1034000004C017B14FF01F0E15E04FF0000E12E090
:10341000540144F0A05401EB410C00EBCC0CCCF86F
:10342000DC404EF4604444F08004CCF8D840053BC6
:10343000053202F01F02052BEAD8520142EA8363EB
:1034400001EB410200EBC202C2F8DC304EF46043F3
:1034500043F08003C2F8D830C2F8DC60C2F8CC5028
:103460000020F0BD6FF00400FBE770B584B00546A6
:103470000C46164602680121A14022EA01020260C0
:10348000ABB31A46196804EB440300EBC303C3F85B
:10349000C8109168C3F8D0105168C3F8CC10D26836
:1034A000C3F8DC2004EB4403DB00D0332B4403F5EA
:1034B00080534FF000421A601A604FF00133A3406E
:1034C000AB60221D012303FA02F205F500510A60E8
:1034D00004F1080293400B6006F01F0604EB44045D
:1034E00005EBC405C5F8D860002004B070BD68467F
:1034F000FFF796FE04EB440305EBC303009AC3F801
:10350000C820029AC3F8D020019AC3F8CC20039AAD
:10351000C3F8DC20C6E70000844641EA000313F04C
:10352000030349D1403A23D30B6803604B684360DF
:103530008B688360CB68C3600B6903614B6943612F
:103540008B698361CB69C3610B6A03624B6A436217
:103550008B6A8362CB6AC3620B6B03634B6B4363FF
:103560008B6B8363CB6BC36340304031403ADBD21B
:1035700030320BD30B6803604B6843608B68836009
:10358000CB68C36010301031103AF3D20C3205D33F
:1035900051F8043B40F8043B043AF9D2043208D015
:1035A000D2071CBF11F8013B00F8013B01D30B8887
:1035B00003806046704700BF082A13D38B07B1D041
:1035C00010F00303AED0C3F10403D21ADB071CBF13
:1035D00011F8013B00F8013BA4D331F8023B20F87D
:1035E000023B9FE7043AD9D3013A11F8013B00F8B6
:1035F000013BF9D20B7803704B7843708B78837062
:103600006046704720F0030110F00300C0F1000095
:1036100051F8043B00F1040C4FEACC0C6FF00002AF
:103620001CBF22FA0CF213434FF0010C4CEA0C2C95
:103630004CEA0C4CA3EB0C0222EA030212EACC1275
:1036400004BF51F8043B0430F4D0C2F1000102EA97
:103650000102B2FA82F2C2F11F0200EBD2007047FF
:10366000F8B500BF000000005FF800F0790200200C
:103670005FF800F0210200205FF800F0ED0100206B
:1036800045150010BD140010E9140010E1150010DC
:103690002515001061140010691500102D1400107C
:1036A000510A00107115001099110010A914001092
:1036B0005715001009150010F50800104D090010ED
:0436C00011020010E3
:1036C800636861696E5F746F203C3D204E554D5FA5
:1036D800444D415F4348414E4E454C530000000065
:1036E800433A2F6465762F7069636F2D73646B2F6F
:1036F8007372632F7270325F636F6D6D6F6E2F68B8
:10370800617264776172655F646D612F696E636C65
:103718007564652F68617264776172652F646D6185
:103728002E68000064726571203C3D20445245516A
:103738005F464F52434500000A2A2A2A2050414E2C
:103748004943202A2A2A0A000A00000030783163F7
:10375800203D3D20282A696E7374293E3E3131751B
:1037680000000000433A2F6465762F7069636F2D5F
:1037780073646B2F7372632F7270325F636F6D6D3A
:103788006F6E2F68617264776172655F6972712FFD
:103798006972712E6300000063757272656E742021
:1037A8003D3D205F5F756E68616E646C65645F7532
:1037B8007365725F697271207C7C206375727265B3
:1037C8006E74203D3D2068616E646C657200000077
:1037D80031203D3D202875696E747074725F7429BC
:1037E8006C2D3E7370696E5F6C6F636B0000000038
:1037F800433A2F6465762F7069636F2D73646B2F5E
:103808007372632F636F6D6D6F6E2F7069636F5F77
:1038180073796E632F6D757465782E6300000000F0
:10382800746F74616C0000006D74782D3E636F7264
:10383800652E7370696E5F6C6F636B006C6F636B82
:103848005F69735F6F776E65725F69645F76616CDD
:103858006964286D74782D3E6F776E657229000053
:103868006D74782D3E656E7465725F636F756E74E6
:1038780000000000706F6F6C2D3E74696D65725F9B
:10388800616C61726D5F6E756D203D3D2074696D70
:1038980065725F616C61726D5F6E756D000000002E
:1038A800433A2F6465762F7069636F2D73646B2FAD
:1038B8007372632F636F6D6D6F6E2F7069636F5FC7
:1038C80074696D652F74696D652E63006465666142
:1038D800756C745F616C61726D5F706F6F6C5F693E
:1038E8006E697469616C697A656428290000000052
:1038F800486172647761726520616C61726D202520
:103908006420616C726561647920636C61696D65BE
:103918006400000076636F5F66726571203E3D202B
:103928005049434F5F504C4C5F56434F5F4D494E93
:103938005F465245515F485A2026262076636F5FBE
:1039480066726571203C3D205049434F5F504C4C96
:103958005F56434F5F4D41585F465245515F485A45
:1039680000000000433A2F6465762F7069636F2D5D
:1039780073646B2F7372632F7270325F636F6D6D38
:103988006F6E2F68617264776172655F706C6C2FFF
:10399800706C6C2E630000006662646976203E3DA0
:1039A800203136202626206662646976203C3D2038
:1039B8003332300028706F73745F64697631203E4B
:1039C8003D203120262620706F73745F646976313C
:1039D800203C3D2037292026262028706F73745FED
:1039E80064697632203E3D203120262620706F7390
:1039F800745F64697632203C3D203729000000005E
:103A08007265665F66726571203C3D202876636F3B
:103A18005F66726571202F20313629004465627512
:103A280067000000626F6F74325F7732357130382B
:103A380030000000322E322E300000007069636FB3
:103A480032000000617564696F5F73696E655F7449
:103A5800780000004D617920313420323032360050
:103A6800666E692B00000000666E69006E616E006C
:103A7800666E692D000000002C2066756E637469FF
:103A88006F6E3A2000000000617373657274696F8D
:103A98006E2022257322206661696C65643A20666F
:103AA800696C6520222573222C206C696E6520259F
:103AB80064257325730A00004E6F20444D4120632E
:103AC80068616E6E656C73206172652061766169EC
:103AD8006C61626C6500000070726F6772616D2DB9
:103AE8003E6C656E677468203C3D2050494F5F49C5
:103AF8004E535452554354494F4E5F434F554E54BD
:103B080000000000433A2F6465762F7069636F2DBB
:103B180073646B2F7372632F7270325F636F6D6D96
:103B28006F6E2F68617264776172655F70696F2F5D
:103B380070696F2E630000006368616E6E656C5F6C
:103B4800636F6E6669675F7365745F647265710041
:103B58006368616E6E656C5F636F6E6669675F73DD
:103B680065745F636861696E5F746F007C3B001009
:103B78000CFF010021203FE022200160A22042002A
:103B8800A1203FE022200160A22048009C3B0010B9
:103B98000AFF010000E03FE0A0202020420001E0F1
:103BA8003FE0A02020204700B83B001002FF0100A2
:103BB80042B042A06972715F7365745F6578636C27
:103BC80075736976655F68616E646C657200000084
:103BD8006D757465785F6578697400006D757465D6
:103BE800785F656E7465725F626C6F636B5F756E2C
:103BF80074696C0072756E74696D655F696E69745D
:103C08005F6D757465780000616C61726D5F706FCF
:103C18006F6C5F6765745F64656661756C740000DE
:103C2800616C61726D5F706F6F6C5F6972715F68F4
:103C3800616E646C65720000706C6C5F696E6974AB
:103C48000000000006005250D3F07542243A0010DC
:103C580006005250E182887F2C3A0010060052502C
:103C6800ABB360533C3A001006005250BBFF3CB661
:103C7800443A001006005250861C03024C3A0010C9
:103C8800060052505422A29D5C3A00100500525082
:103C9800DE65F46864420010000000000000F03F98
:103CA800000000000000244000000000000059400F
:103CB8000000000000408F40000000000088C34062
:103CC80000000000006AF8400000000080842E41D7
:103CD80000000000D01263410000000084D7974123
:103CE8000000000065CDCD410D0A000066696E64D4
:103CF8005F6F66667365745F666F725F70726F6719
:043D080072616D0077
:083D0C000CF8FF7F010000002C
:103D14004C3C0010583C0010643C0010703C0010F7
:0C3D24007C3C0010883C0010943C001017
:103D300000B503460068EFF3108272B6D0E8CFEF0B
:103D40005FF0010CBEF1000FF8D1C0E84ECFBEF11C
:103D5000000FF3D1BFF35F8F93F9040000280ADB53
:103D600081B10860002019680023C1E88F3F82F309
:103D700010885DF804FB4FF0504191F90010197163
:103D80000120F0E70020EEE7F8B51E460368002B9F
:103D900027D0044615464FF0504393F90070216830
:103DA000EFF3108C72B6D1E8CF2F0123002AFAD19D
:103DB000C1E8423F002AF6D1BFF35F8F94F904E0D7
:103DC000BEF1000F13DB22680023C2E88F3F8CF3A3
:103DD00010882846314600F023FA0028DFD0002062
:103DE0000DE0074B074AA621074800F015FA277196
:103DF00022680023C2E88F3F8CF310880120F8BDB1
:103E000030380010E43B0010F837001070B582B075
:103E1000064615461C4601A9FFF78AFF38B99DF9E9
:103E200004204FF0504393F900309A4201D102B080
:103E300070BD2A4623463046FFF7A6FFF7E700008D
:103E400008B50268EFF3108372B6D2E8CFCF012134
:103E5000BCF1000FF9D1C2E84C1FBCF1000FF4D146
:103E6000BFF35F8F90F90420002A09DBFF22027163
:103E700001680022C1E88F2F83F3108840BF08BD7E
:103E8000024B034AD521034800F0C6F9443800101C
:103E9000D83B0010F837001053B94AB9002908BFC1
:103EA00000281CBF4FF0FF314FF0FF3000F0B2B9D7
:103EB000ADF1080C6DE904CE00F006F8DDF804E081
:103EC000DDE9022304B070472DE9F04F8C46099ECE
:103ED00004460F46002B48D18A4215465ED9B2FAF5
:103EE00082F33BB1C3F120029F409D409C4020FAE9
:103EF00002F217434FEA154E1FFA85FC220CB7FB5E
:103F0000FEF10EFB117701FB0CF042EA07429042F2
:103F100007D9AA1801F1FF3702D2904200F2588166
:103F20003946121AA4B2B2FBFEF00EFB102200FBBF
:103F30000CFC44EA0244A4450BD92C1900F1FF32D1
:103F40002CBF01270027A44502D9002F00F0438190
:103F5000104640EA0140A4EB0C0400211EB1DC40F5
:103F60000023C6E90043BDE8F08F8B4206D90EB1AD
:103F7000C6E9000100210846BDE8F08FB3FA83F1DD
:103F8000002951D16345C0F01681824240F213816D
:103F90000846002EE7D0C6E90047E4E7002A00F013
:103FA000AF80B2FA82F3002B40F0C2808A1A4FEA47
:103FB000154EAFB20121200CB2FBFEFC0EFB1C2201
:103FC00040EA024207FB0CF090420ED9AA180CF10D
:103FD000FF382CBF4FF001094FF00009904203D980
:103FE000B9F1000F00F0F080C446121AA4B2B2FB7F
:103FF000FEF00EFB102200FB07F744EA0244A74242
:104000000ED92C1900F1FF322CBF4FF0010E4FF0EA
:10401000000EA74203D9BEF1000F00F0D280104677
:10402000E41B40EA0C4099E7C1F120058B400CFAF3
:1040300001F400FA01F922FA05F72CFA05FC8A408E
:104040001F4320FA05F3380C23431FFA87FE1C0C8C
:10405000BCFBF0F800FB18CC44EA0C4408FB0EFC57
:10406000A4450ED93C1908F1FF3A2CBF4FF0010BC3
:104070004FF0000BA44503D9BBF1000F00F0B8804E
:10408000D046A4EB0C041FFA83FCB4FBF0F300FB56
:10409000134403FB0EFE4CEA0444A6450ED93C191A
:1040A00003F1FF302CBF4FF0010C4FF0000CA64580
:1040B00003D9BCF1000F00F09F80034643EA08409B
:1040C000A4EB0E04A0FB02EC64457346E04602D369
:1040D00007D1F14505D2BEEB02036CEB070C0138AA
:1040E000E0465EB1B9EB030264EB080404FA05F59F
:1040F00022FA01F3CC401D43C6E90054002132E707
:1041000042082F464B08AC4642EAC172AE46C4078D
:10411000110C92B241EA034142EA0142B1FBF5F1CE
:10412000B3FBF5F01F23A2EB0C0241EA004142E78A
:104130009D40C3F1200299409C402CFA02FC4FEABA
:10414000154E20FA02F2AFB2BCFBFEF80A430EFB9A
:1041500018CC110C41EA0C4108FB07FC8C4550D9E6
:10416000691808F1FF302CBF4FF001094FF000092A
:104170008C4502D9B9F1000F30D0A1EB0C01B1FB95
:10418000FEF808FB07FC0EFB181192B242EA01424E
:10419000624534D2AA1808F1FF312CBF4FF0010953
:1041A0004FF000096245BED2B9F1000FBBD1A8F1B2
:1041B00002012A44B7E7841A6CEB03020120174678
:1041C000E7E62C4402382BE7ACF1020C2A440CE75A
:1041D00002392A44A5E62C440238BAE6A5EB0C0CB9
:1041E000A8F102006144B1FBFEF808FB07FCCAE736
:1041F000A8F102083C4444E7023B3C445EE74146E8
:1042000091E7A1EB0C014046B1FBFEF808FB07FC6F
:10421000B9E700BF704700BF5FF800F0492F0010FA
:104220005FF800F095100010FFFFFFFF1000000086
:10423000000000000000000000000000000000007E
:104240000000000030060020000000000000000018
:10425000D3DEFFFFFE010000FF010000E8BEFFFF0C
:04426000793512ABEF
:040000051000014D99
:00000001FF
